{
  "_format": "hh-sol-artifact-1",
  "contractName": "VaultConfig",
  "sourceName": "contracts/Vault/VaultConfig.sol",
  "abi": [
    {
      "anonymous": false,
      "inputs": [
        {
          "indexed": false,
          "internalType": "uint256",
          "name": "older",
          "type": "uint256"
        },
        {
          "indexed": false,
          "internalType": "uint256",
          "name": "renew",
          "type": "uint256"
        }
      ],
      "name": "ChangedManageFee",
      "type": "event"
    },
    {
      "anonymous": false,
      "inputs": [
        {
          "indexed": true,
          "internalType": "address",
          "name": "caller",
          "type": "address"
        },
        {
          "indexed": false,
          "internalType": "uint256",
          "name": "amount",
          "type": "uint256"
        }
      ],
      "name": "ClaimManagerFee",
      "type": "event"
    },
    {
      "anonymous": false,
      "inputs": [
        {
          "indexed": false,
          "internalType": "address",
          "name": "from",
          "type": "address"
        },
        {
          "indexed": false,
          "internalType": "address",
          "name": "to",
          "type": "address"
        }
      ],
      "name": "TransferManager",
      "type": "event"
    },
    {
      "inputs": [
        {
          "internalType": "uint256",
          "name": "manageFee_",
          "type": "uint256"
        }
      ],
      "name": "changeManageFee",
      "outputs": [],
      "stateMutability": "nonpayable",
      "type": "function"
    },
    {
      "inputs": [
        {
          "internalType": "address",
          "name": "manager_",
          "type": "address"
        }
      ],
      "name": "changeManager",
      "outputs": [],
      "stateMutability": "nonpayable",
      "type": "function"
    },
    {
      "inputs": [],
      "name": "manageFee",
      "outputs": [
        {
          "internalType": "uint256",
          "name": "",
          "type": "uint256"
        }
      ],
      "stateMutability": "view",
      "type": "function"
    },
    {
      "inputs": [],
      "name": "manager",
      "outputs": [
        {
          "internalType": "address",
          "name": "",
          "type": "address"
        }
      ],
      "stateMutability": "view",
      "type": "function"
    }
  ],
  "bytecode": "0x608060405234801561001057600080fd5b506107ab806100206000396000f3fe608060405234801561001057600080fd5b506004361061004c5760003560e01c8063481c6a75146100515780634bbdf4da1461006f5780634c25b94a1461008d578063a3fbbaae146100a9575b600080fd5b6100596100c5565b60405161006691906105a0565b60405180910390f35b6100776100e9565b60405161008491906105d4565b60405180910390f35b6100a760048036038101906100a29190610620565b6100ef565b005b6100c360048036038101906100be9190610679565b610265565b005b60008054906101000a900473ffffffffffffffffffffffffffffffffffffffff1681565b60015481565b610103679cdd56e275fc025460c01b6103db565b61011767b74d5435e281506a60c01b6103db565b61012b676bc51b5cbdc3d81160c01b6103db565b61013f677aaef1cf465f383a60c01b6103db565b61015367f82903caa5d73da560c01b6103db565b60008054906101000a900473ffffffffffffffffffffffffffffffffffffffff1673ffffffffffffffffffffffffffffffffffffffff163373ffffffffffffffffffffffffffffffffffffffff16146101e1576040517f08c379a00000000000000000000000000000000000000000000000000000000081526004016101d890610703565b60405180910390fd5b6101f56703a6a43a7a2d6a9c60c01b6103db565b61020967e3b51986aac8984260c01b6103db565b61021d6777245ce0eb1011e060c01b6103db565b6102316776afbd47edec53f360c01b6103db565b610245678323c2c351928bdd60c01b6103db565b61025967a9b89ba7b07bac7e60c01b6103db565b610262816103de565b50565b6102796733f1c155d11e344460c01b6103db565b61028d67b74d5435e281506a60c01b6103db565b6102a1676bc51b5cbdc3d81160c01b6103db565b6102b5677aaef1cf465f383a60c01b6103db565b6102c967f82903caa5d73da560c01b6103db565b60008054906101000a900473ffffffffffffffffffffffffffffffffffffffff1673ffffffffffffffffffffffffffffffffffffffff163373ffffffffffffffffffffffffffffffffffffffff1614610357576040517f08c379a000000000000000000000000000000000000000000000000000000000815260040161034e90610703565b60405180910390fd5b61036b6703a6a43a7a2d6a9c60c01b6103db565b61037f67e3b51986aac8984260c01b6103db565b610393673250c9c0aeaea79160c01b6103db565b6103a767885801ea0112a41660c01b6103db565b6103bb67364115fefbca1c5660c01b6103db565b6103cf6706945023932c279360c01b6103db565b6103d881610473565b50565b50565b6103f267e86a543f964014b660c01b6103db565b6104066779e32909ad5c7dfc60c01b6103db565b61041a670435e5622c438a1960c01b6103db565b7f084d7536bcea784fc97ae33946b3efaaaedc28d728e856ef970a820d14748bfe6001548260405161044d929190610723565b60405180910390a161046967b60da84cb7023d6e60c01b6103db565b8060018190555050565b6104876730cfd29e517d10b860c01b6103db565b61049b67083dfa2b3621890e60c01b6103db565b6104af6726aea8296e7e1d1060c01b6103db565b7f3eadceefe02aa6afb5514ad1b2ab3f21eb26dd571b170168413057c70615606b60008054906101000a900473ffffffffffffffffffffffffffffffffffffffff168260405161050092919061074c565b60405180910390a161051c6722192b2f327609ea60c01b6103db565b806000806101000a81548173ffffffffffffffffffffffffffffffffffffffff021916908373ffffffffffffffffffffffffffffffffffffffff16021790555050565b600073ffffffffffffffffffffffffffffffffffffffff82169050919050565b600061058a8261055f565b9050919050565b61059a8161057f565b82525050565b60006020820190506105b56000830184610591565b92915050565b6000819050919050565b6105ce816105bb565b82525050565b60006020820190506105e960008301846105c5565b92915050565b600080fd5b6105fd816105bb565b811461060857600080fd5b50565b60008135905061061a816105f4565b92915050565b600060208284031215610636576106356105ef565b5b60006106448482850161060b565b91505092915050565b6106568161057f565b811461066157600080fd5b50565b6000813590506106738161064d565b92915050565b60006020828403121561068f5761068e6105ef565b5b600061069d84828501610664565b91505092915050565b600082825260208201905092915050565b7f4552525f4e4f545f4d414e414745520000000000000000000000000000000000600082015250565b60006106ed600f836106a6565b91506106f8826106b7565b602082019050919050565b6000602082019050818103600083015261071c816106e0565b9050919050565b600060408201905061073860008301856105c5565b61074560208301846105c5565b9392505050565b60006040820190506107616000830185610591565b61076e6020830184610591565b939250505056fea2646970667358221220a498b18304c2374eddbacd7db761b1be28ff846709324f009656d026c28936eb64736f6c634300080f0033",
  "linkReferences": {},
  "deployedLinkReferences": {}
}