{
  "_format": "hh-sol-artifact-1",
  "contractName": "ERC3525SlotEnumerableUpgradeable",
  "sourceName": "contracts/solvprotocol/erc-3525/ERC3525SlotEnumerableUpgradeable.sol",
  "abi": [
    {
      "anonymous": false,
      "inputs": [
        {
          "indexed": true,
          "internalType": "address",
          "name": "_owner",
          "type": "address"
        },
        {
          "indexed": true,
          "internalType": "address",
          "name": "_approved",
          "type": "address"
        },
        {
          "indexed": true,
          "internalType": "uint256",
          "name": "_tokenId",
          "type": "uint256"
        }
      ],
      "name": "Approval",
      "type": "event"
    },
    {
      "anonymous": false,
      "inputs": [
        {
          "indexed": true,
          "internalType": "address",
          "name": "_owner",
          "type": "address"
        },
        {
          "indexed": true,
          "internalType": "address",
          "name": "_operator",
          "type": "address"
        },
        {
          "indexed": false,
          "internalType": "bool",
          "name": "_approved",
          "type": "bool"
        }
      ],
      "name": "ApprovalForAll",
      "type": "event"
    },
    {
      "anonymous": false,
      "inputs": [
        {
          "indexed": true,
          "internalType": "uint256",
          "name": "_tokenId",
          "type": "uint256"
        },
        {
          "indexed": true,
          "internalType": "address",
          "name": "_operator",
          "type": "address"
        },
        {
          "indexed": false,
          "internalType": "uint256",
          "name": "_value",
          "type": "uint256"
        }
      ],
      "name": "ApprovalValue",
      "type": "event"
    },
    {
      "anonymous": false,
      "inputs": [
        {
          "indexed": false,
          "internalType": "uint8",
          "name": "version",
          "type": "uint8"
        }
      ],
      "name": "Initialized",
      "type": "event"
    },
    {
      "anonymous": false,
      "inputs": [
        {
          "indexed": true,
          "internalType": "address",
          "name": "metadataDescriptor",
          "type": "address"
        }
      ],
      "name": "SetMetadataDescriptor",
      "type": "event"
    },
    {
      "anonymous": false,
      "inputs": [
        {
          "indexed": true,
          "internalType": "uint256",
          "name": "_tokenId",
          "type": "uint256"
        },
        {
          "indexed": true,
          "internalType": "uint256",
          "name": "_oldSlot",
          "type": "uint256"
        },
        {
          "indexed": true,
          "internalType": "uint256",
          "name": "_newSlot",
          "type": "uint256"
        }
      ],
      "name": "SlotChanged",
      "type": "event"
    },
    {
      "anonymous": false,
      "inputs": [
        {
          "indexed": true,
          "internalType": "address",
          "name": "_from",
          "type": "address"
        },
        {
          "indexed": true,
          "internalType": "address",
          "name": "_to",
          "type": "address"
        },
        {
          "indexed": true,
          "internalType": "uint256",
          "name": "_tokenId",
          "type": "uint256"
        }
      ],
      "name": "Transfer",
      "type": "event"
    },
    {
      "anonymous": false,
      "inputs": [
        {
          "indexed": true,
          "internalType": "uint256",
          "name": "_fromTokenId",
          "type": "uint256"
        },
        {
          "indexed": true,
          "internalType": "uint256",
          "name": "_toTokenId",
          "type": "uint256"
        },
        {
          "indexed": false,
          "internalType": "uint256",
          "name": "_value",
          "type": "uint256"
        }
      ],
      "name": "TransferValue",
      "type": "event"
    },
    {
      "inputs": [
        {
          "internalType": "uint256",
          "name": "tokenId_",
          "type": "uint256"
        },
        {
          "internalType": "address",
          "name": "operator_",
          "type": "address"
        }
      ],
      "name": "allowance",
      "outputs": [
        {
          "internalType": "uint256",
          "name": "",
          "type": "uint256"
        }
      ],
      "stateMutability": "view",
      "type": "function"
    },
    {
      "inputs": [
        {
          "internalType": "address",
          "name": "to_",
          "type": "address"
        },
        {
          "internalType": "uint256",
          "name": "tokenId_",
          "type": "uint256"
        }
      ],
      "name": "approve",
      "outputs": [],
      "stateMutability": "payable",
      "type": "function"
    },
    {
      "inputs": [
        {
          "internalType": "uint256",
          "name": "tokenId_",
          "type": "uint256"
        },
        {
          "internalType": "address",
          "name": "to_",
          "type": "address"
        },
        {
          "internalType": "uint256",
          "name": "value_",
          "type": "uint256"
        }
      ],
      "name": "approve",
      "outputs": [],
      "stateMutability": "payable",
      "type": "function"
    },
    {
      "inputs": [
        {
          "internalType": "address",
          "name": "owner_",
          "type": "address"
        }
      ],
      "name": "balanceOf",
      "outputs": [
        {
          "internalType": "uint256",
          "name": "balance",
          "type": "uint256"
        }
      ],
      "stateMutability": "view",
      "type": "function"
    },
    {
      "inputs": [
        {
          "internalType": "uint256",
          "name": "tokenId_",
          "type": "uint256"
        }
      ],
      "name": "balanceOf",
      "outputs": [
        {
          "internalType": "uint256",
          "name": "",
          "type": "uint256"
        }
      ],
      "stateMutability": "view",
      "type": "function"
    },
    {
      "inputs": [],
      "name": "contractURI",
      "outputs": [
        {
          "internalType": "string",
          "name": "",
          "type": "string"
        }
      ],
      "stateMutability": "view",
      "type": "function"
    },
    {
      "inputs": [
        {
          "internalType": "uint256",
          "name": "tokenId_",
          "type": "uint256"
        }
      ],
      "name": "getApproved",
      "outputs": [
        {
          "internalType": "address",
          "name": "",
          "type": "address"
        }
      ],
      "stateMutability": "view",
      "type": "function"
    },
    {
      "inputs": [
        {
          "internalType": "address",
          "name": "owner_",
          "type": "address"
        },
        {
          "internalType": "address",
          "name": "operator_",
          "type": "address"
        }
      ],
      "name": "isApprovedForAll",
      "outputs": [
        {
          "internalType": "bool",
          "name": "",
          "type": "bool"
        }
      ],
      "stateMutability": "view",
      "type": "function"
    },
    {
      "inputs": [],
      "name": "metadataDescriptor",
      "outputs": [
        {
          "internalType": "contract IERC3525MetadataDescriptor",
          "name": "",
          "type": "address"
        }
      ],
      "stateMutability": "view",
      "type": "function"
    },
    {
      "inputs": [],
      "name": "name",
      "outputs": [
        {
          "internalType": "string",
          "name": "",
          "type": "string"
        }
      ],
      "stateMutability": "view",
      "type": "function"
    },
    {
      "inputs": [
        {
          "internalType": "uint256",
          "name": "tokenId_",
          "type": "uint256"
        }
      ],
      "name": "ownerOf",
      "outputs": [
        {
          "internalType": "address",
          "name": "owner_",
          "type": "address"
        }
      ],
      "stateMutability": "view",
      "type": "function"
    },
    {
      "inputs": [
        {
          "internalType": "address",
          "name": "from_",
          "type": "address"
        },
        {
          "internalType": "address",
          "name": "to_",
          "type": "address"
        },
        {
          "internalType": "uint256",
          "name": "tokenId_",
          "type": "uint256"
        }
      ],
      "name": "safeTransferFrom",
      "outputs": [],
      "stateMutability": "payable",
      "type": "function"
    },
    {
      "inputs": [
        {
          "internalType": "address",
          "name": "from_",
          "type": "address"
        },
        {
          "internalType": "address",
          "name": "to_",
          "type": "address"
        },
        {
          "internalType": "uint256",
          "name": "tokenId_",
          "type": "uint256"
        },
        {
          "internalType": "bytes",
          "name": "data_",
          "type": "bytes"
        }
      ],
      "name": "safeTransferFrom",
      "outputs": [],
      "stateMutability": "payable",
      "type": "function"
    },
    {
      "inputs": [
        {
          "internalType": "address",
          "name": "operator_",
          "type": "address"
        },
        {
          "internalType": "bool",
          "name": "approved_",
          "type": "bool"
        }
      ],
      "name": "setApprovalForAll",
      "outputs": [],
      "stateMutability": "nonpayable",
      "type": "function"
    },
    {
      "inputs": [
        {
          "internalType": "uint256",
          "name": "index_",
          "type": "uint256"
        }
      ],
      "name": "slotByIndex",
      "outputs": [
        {
          "internalType": "uint256",
          "name": "",
          "type": "uint256"
        }
      ],
      "stateMutability": "view",
      "type": "function"
    },
    {
      "inputs": [],
      "name": "slotCount",
      "outputs": [
        {
          "internalType": "uint256",
          "name": "",
          "type": "uint256"
        }
      ],
      "stateMutability": "view",
      "type": "function"
    },
    {
      "inputs": [
        {
          "internalType": "uint256",
          "name": "tokenId_",
          "type": "uint256"
        }
      ],
      "name": "slotOf",
      "outputs": [
        {
          "internalType": "uint256",
          "name": "",
          "type": "uint256"
        }
      ],
      "stateMutability": "view",
      "type": "function"
    },
    {
      "inputs": [
        {
          "internalType": "uint256",
          "name": "slot_",
          "type": "uint256"
        }
      ],
      "name": "slotURI",
      "outputs": [
        {
          "internalType": "string",
          "name": "",
          "type": "string"
        }
      ],
      "stateMutability": "view",
      "type": "function"
    },
    {
      "inputs": [
        {
          "internalType": "bytes4",
          "name": "interfaceId",
          "type": "bytes4"
        }
      ],
      "name": "supportsInterface",
      "outputs": [
        {
          "internalType": "bool",
          "name": "",
          "type": "bool"
        }
      ],
      "stateMutability": "view",
      "type": "function"
    },
    {
      "inputs": [],
      "name": "symbol",
      "outputs": [
        {
          "internalType": "string",
          "name": "",
          "type": "string"
        }
      ],
      "stateMutability": "view",
      "type": "function"
    },
    {
      "inputs": [
        {
          "internalType": "uint256",
          "name": "index_",
          "type": "uint256"
        }
      ],
      "name": "tokenByIndex",
      "outputs": [
        {
          "internalType": "uint256",
          "name": "",
          "type": "uint256"
        }
      ],
      "stateMutability": "view",
      "type": "function"
    },
    {
      "inputs": [
        {
          "internalType": "uint256",
          "name": "slot_",
          "type": "uint256"
        },
        {
          "internalType": "uint256",
          "name": "index_",
          "type": "uint256"
        }
      ],
      "name": "tokenInSlotByIndex",
      "outputs": [
        {
          "internalType": "uint256",
          "name": "",
          "type": "uint256"
        }
      ],
      "stateMutability": "view",
      "type": "function"
    },
    {
      "inputs": [
        {
          "internalType": "address",
          "name": "owner_",
          "type": "address"
        },
        {
          "internalType": "uint256",
          "name": "index_",
          "type": "uint256"
        }
      ],
      "name": "tokenOfOwnerByIndex",
      "outputs": [
        {
          "internalType": "uint256",
          "name": "",
          "type": "uint256"
        }
      ],
      "stateMutability": "view",
      "type": "function"
    },
    {
      "inputs": [
        {
          "internalType": "uint256",
          "name": "slot_",
          "type": "uint256"
        }
      ],
      "name": "tokenSupplyInSlot",
      "outputs": [
        {
          "internalType": "uint256",
          "name": "",
          "type": "uint256"
        }
      ],
      "stateMutability": "view",
      "type": "function"
    },
    {
      "inputs": [
        {
          "internalType": "uint256",
          "name": "tokenId_",
          "type": "uint256"
        }
      ],
      "name": "tokenURI",
      "outputs": [
        {
          "internalType": "string",
          "name": "",
          "type": "string"
        }
      ],
      "stateMutability": "view",
      "type": "function"
    },
    {
      "inputs": [],
      "name": "totalSupply",
      "outputs": [
        {
          "internalType": "uint256",
          "name": "",
          "type": "uint256"
        }
      ],
      "stateMutability": "view",
      "type": "function"
    },
    {
      "inputs": [
        {
          "internalType": "uint256",
          "name": "fromTokenId_",
          "type": "uint256"
        },
        {
          "internalType": "address",
          "name": "to_",
          "type": "address"
        },
        {
          "internalType": "uint256",
          "name": "value_",
          "type": "uint256"
        }
      ],
      "name": "transferFrom",
      "outputs": [
        {
          "internalType": "uint256",
          "name": "",
          "type": "uint256"
        }
      ],
      "stateMutability": "payable",
      "type": "function"
    },
    {
      "inputs": [
        {
          "internalType": "address",
          "name": "from_",
          "type": "address"
        },
        {
          "internalType": "address",
          "name": "to_",
          "type": "address"
        },
        {
          "internalType": "uint256",
          "name": "tokenId_",
          "type": "uint256"
        }
      ],
      "name": "transferFrom",
      "outputs": [],
      "stateMutability": "payable",
      "type": "function"
    },
    {
      "inputs": [
        {
          "internalType": "uint256",
          "name": "fromTokenId_",
          "type": "uint256"
        },
        {
          "internalType": "uint256",
          "name": "toTokenId_",
          "type": "uint256"
        },
        {
          "internalType": "uint256",
          "name": "value_",
          "type": "uint256"
        }
      ],
      "name": "transferFrom",
      "outputs": [],
      "stateMutability": "payable",
      "type": "function"
    },
    {
      "inputs": [],
      "name": "valueDecimals",
      "outputs": [
        {
          "internalType": "uint8",
          "name": "",
          "type": "uint8"
        }
      ],
      "stateMutability": "view",
      "type": "function"
    }
  ],
  "bytecode": "0x608060405234801561001057600080fd5b50613164806100206000396000f3fe6080604052600436106101cc5760003560e01c80634f8a0f83116100f75780639cc7f70811610095578063e345e0bc11610064578063e345e0bc146104e1578063e8a3d48514610501578063e985e9c514610516578063ed08fa801461056357600080fd5b80639cc7f7081461046e578063a22cb4651461048e578063b88d4fde146104ae578063c87b56dd146104c157600080fd5b8063840f7113116100d1578063840f7113146104065780638cb0a5111461042657806395d89b4114610439578063993bef8d1461044e57600080fd5b80634f8a0f83146103a65780636352211e146103c657806370a08231146103e657600080fd5b806318160ddd1161016f578063310ed7f01161013e578063310ed7f01461033e5780633e7e86691461035157806342842e0e146103735780634f6ccce71461038657600080fd5b806318160ddd146102d657806323b872dd146102eb578063263f3e7e146102fe5780632f745c591461031e57600080fd5b8063081812fc116101ab578063081812fc14610256578063095ea7b31461028e57806309c3dd87146102a35780630f485c02146102c357600080fd5b8062cd0110146101d157806301ffc9a71461020457806306fdde0314610234575b600080fd5b3480156101dd57600080fd5b506101f16101ec366004612a2b565b610578565b6040519081526020015b60405180910390f35b34801561021057600080fd5b5061022461021f366004612a63565b61064e565b60405190151581526020016101fb565b34801561024057600080fd5b50610249610673565b6040516101fb9190612ad8565b34801561026257600080fd5b50610276610271366004612aeb565b610705565b6040516001600160a01b0390911681526020016101fb565b6102a161029c366004612b1b565b610757565b005b3480156102af57600080fd5b506102496102be366004612aeb565b6107dc565b6101f16102d1366004612b45565b6108ce565b3480156102e257600080fd5b506037546101f1565b6102a16102f9366004612b7a565b610910565b34801561030a57600080fd5b506101f1610319366004612aeb565b610941565b34801561032a57600080fd5b506101f1610339366004612b1b565b610989565b6102a161034c366004612ba6565b610a17565b34801561035d57600080fd5b5060355460405160ff90911681526020016101fb565b6102a1610381366004612b7a565b610a2d565b34801561039257600080fd5b506101f16103a1366004612aeb565b610a48565b3480156103b257600080fd5b506101f16103c1366004612aeb565b610ad9565b3480156103d257600080fd5b506102766103e1366004612aeb565b610b2e565b3480156103f257600080fd5b506101f1610401366004612bd2565b610bca565b34801561041257600080fd5b50603a54610276906001600160a01b031681565b6102a1610434366004612b45565b610c52565b34801561044557600080fd5b50610249610cd9565b34801561045a57600080fd5b506101f1610469366004612aeb565b610ce8565b34801561047a57600080fd5b506101f1610489366004612aeb565b610d85565b34801561049a57600080fd5b506102a16104a9366004612bfb565b610dcd565b6102a16104bc366004612ca1565b610ddc565b3480156104cd57600080fd5b506102496104dc366004612aeb565b610e0e565b3480156104ed57600080fd5b506101f16104fc366004612d4c565b610ead565b34801561050d57600080fd5b50610249610ee1565b34801561052257600080fd5b50610224610531366004612d78565b6001600160a01b0391821660009081526039602090815260408083209390941682526002909201909152205460ff1690565b34801561056f57600080fd5b506066546101f1565b600061058383610ad9565b82106105f45760405162461bcd60e51b815260206004820152603560248201527f45524333353235536c6f74456e756d657261626c653a20736c6f7420746f6b656044820152746e20696e646578206f7574206f6620626f756e647360581b60648201526084015b60405180910390fd5b60008381526067602052604090205460668054909190811061061857610618612da2565b9060005260206000209060020201600101828154811061063a5761063a612da2565b906000526020600020015490505b92915050565b60006001600160e01b03198216631dba0dcf60e11b1480610648575061064882610fdb565b60606033805461068290612db8565b80601f01602080910402602001604051908101604052809291908181526020018280546106ae90612db8565b80156106fb5780601f106106d0576101008083540402835291602001916106fb565b820191906000526020600020905b8154815290600101906020018083116106de57829003601f168201915b5050505050905090565b60006107108261107d565b60008281526038602052604090205460378054909190811061073457610734612da2565b60009182526020909120600460069092020101546001600160a01b031692915050565b600061076282610b2e565b9050806001600160a01b0316836001600160a01b0316036107955760405162461bcd60e51b81526004016105eb90612df2565b336001600160a01b03821614806107b157506107b18133610531565b6107cd5760405162461bcd60e51b81526004016105eb90612e34565b6107d783836110d1565b505050565b606060006107f560408051602081019091526000815290565b603a549091506001600160a01b031661085557600081511161082657604051806020016040528060008152506108c7565b8061083084611168565b604051602001610841929190612e91565b6040516020818303038152906040526108c7565b603a54604051633601bfc560e11b8152600481018590526001600160a01b0390911690636c037f8a906024015b600060405180830381865afa15801561089f573d6000803e3d6000fd5b505050506040513d6000823e601f3d908101601f191682016040526108c79190810190612ed1565b9392505050565b60006108db3385846111fb565b60006108e68561128b565b90506108fd84826108f688610941565b6000611295565b6109088582856113da565b949350505050565b61091a33826116ab565b6109365760405162461bcd60e51b81526004016105eb90612f48565b6107d7838383611713565b600061094c8261107d565b60008281526038602052604090205460378054909190811061097057610970612da2565b9060005260206000209060060201600101549050919050565b600061099483610bca565b82106109ed5760405162461bcd60e51b815260206004820152602260248201527f455243333532353a206f776e657220696e646578206f7574206f6620626f756e604482015261647360f01b60648201526084016105eb565b6001600160a01b038316600090815260396020526040902080548390811061063a5761063a612da2565b610a223384836111fb565b6107d78383836113da565b6107d783838360405180602001604052806000815250610ddc565b6000610a5360375490565b8210610aad5760405162461bcd60e51b815260206004820152602360248201527f455243333532353a20676c6f62616c20696e646578206f7574206f6620626f756044820152626e647360e81b60648201526084016105eb565b60378281548110610ac057610ac0612da2565b9060005260206000209060060201600001549050919050565b6000610ae48261188b565b610af057506000919050565b600082815260676020526040902054606680549091908110610b1457610b14612da2565b600091825260209091206001600290920201015492915050565b6000610b398261107d565b600082815260386020526040902054603780549091908110610b5d57610b5d612da2565b60009182526020909120600360069092020101546001600160a01b0316905080610bc55760405162461bcd60e51b8152602060048201526019602482015278115490cccd4c8d4e881a5b9d985b1a59081d1bdad95b881251603a1b60448201526064016105eb565b919050565b60006001600160a01b038216610c365760405162461bcd60e51b815260206004820152602b60248201527f455243333532353a2062616c616e636520717565727920666f7220746865207a60448201526a65726f206164647265737360a81b60648201526084016105eb565b506001600160a01b031660009081526039602052604090205490565b6000610c5d84610b2e565b9050806001600160a01b0316836001600160a01b031603610c905760405162461bcd60e51b81526004016105eb90612df2565b336001600160a01b0382161480610cac5750610cac8133610531565b610cc85760405162461bcd60e51b81526004016105eb90612e34565b610cd38484846118d7565b50505050565b60606034805461068290612db8565b6000610cf360665490565b8210610d595760405162461bcd60e51b815260206004820152602f60248201527f45524333353235536c6f74456e756d657261626c653a20736c6f7420696e646560448201526e78206f7574206f6620626f756e647360881b60648201526084016105eb565b60668281548110610d6c57610d6c612da2565b9060005260206000209060020201600001549050919050565b6000610d908261107d565b600082815260386020526040902054603780549091908110610db457610db4612da2565b9060005260206000209060060201600201549050919050565b610dd8338383611a0f565b5050565b610de633836116ab565b610e025760405162461bcd60e51b81526004016105eb90612f48565b610cd384848484611ad9565b6060610e198261107d565b6000610e3060408051602081019091526000815290565b603a549091506001600160a01b0316610e7c576000815111610e6157604051806020016040528060008152506108c7565b80610e6b84611168565b604051602001610841929190612f9a565b603a546040516344a5a61760e11b8152600481018590526001600160a01b039091169063894b4c2e90602401610882565b6000610eb88361107d565b5060009182526036602090815260408084206001600160a01b0393909316845291905290205490565b60606000610efa60408051602081019091526000815290565b603a549091506001600160a01b0316610f5a576000815111610f2b5760405180602001604052806000815250610fd5565b80610f3530611b4c565b604051602001610f46929190612fc9565b604051602081830303815290604052610fd5565b603a60009054906101000a90046001600160a01b03166001600160a01b031663725fa09c6040518163ffffffff1660e01b8152600401600060405180830381865afa158015610fad573d6000803e3d6000fd5b505050506040513d6000823e601f3d908101601f19168201604052610fd59190810190612ed1565b91505090565b60006001600160e01b031982166301ffc9a760e01b148061100c57506001600160e01b03198216630354d60560e61b145b8061102757506001600160e01b031982166380ac58cd60e01b145b8061104257506001600160e01b031982166370b0048160e11b145b8061105d57506001600160e01b0319821663780e9d6360e01b145b8061064857506001600160e01b03198216635b5e139f60e01b1492915050565b61108681611b62565b6110ce5760405162461bcd60e51b8152602060048201526019602482015278115490cccd4c8d4e881a5b9d985b1a59081d1bdad95b881251603a1b60448201526064016105eb565b50565b6000818152603860205260409020546037805484929081106110f5576110f5612da2565b6000918252602090912060069091020160040180546001600160a01b0319166001600160a01b039283161790558190831661112f82610b2e565b6001600160a01b03167f8c5be1e5ebec7d5bd14f71427d1e84f3dd0314c0f7b2291e5b200ac8c7c3b92560405160405180910390a45050565b6060600061117583611bae565b600101905060008167ffffffffffffffff81111561119557611195612c32565b6040519080825280601f01601f1916602001820160405280156111bf576020820181803683370190505b5090508181016020015b600019016f181899199a1a9b1b9c1cb0b131b232b360811b600a86061a8153600a85049450846111c957509392505050565b60006112078385610ead565b905061121384846116ab565b15801561122257506000198114155b15610cd357818110156112775760405162461bcd60e51b815260206004820152601f60248201527f455243333532353a20696e73756666696369656e7420616c6c6f77616e63650060448201526064016105eb565b610cd383856112868585613023565b6118d7565b6000610648611c86565b6001600160a01b0384166112f55760405162461bcd60e51b815260206004820152602160248201527f455243333532353a206d696e7420746f20746865207a65726f206164647265736044820152607360f81b60648201526084016105eb565b8260000361134f5760405162461bcd60e51b815260206004820152602160248201527f455243333532353a2063616e6e6f74206d696e74207a65726f20746f6b656e496044820152601960fa1b60648201526084016105eb565b61135883611b62565b156113a55760405162461bcd60e51b815260206004820152601d60248201527f455243333532353a20746f6b656e20616c7265616479206d696e74656400000060448201526064016105eb565b6113b56000856000868686611ca1565b6113c0848484611cde565b6113ca8382611da4565b610cd36000856000868686611e29565b6113e383611b62565b61143f5760405162461bcd60e51b815260206004820152602760248201527f455243333532353a207472616e736665722066726f6d20696e76616c696420746044820152661bdad95b88125160ca1b60648201526084016105eb565b61144882611b62565b6114a25760405162461bcd60e51b815260206004820152602560248201527f455243333532353a207472616e7366657220746f20696e76616c696420746f6b604482015264195b88125160da1b60648201526084016105eb565b6000838152603860205260408120546037805490919081106114c6576114c6612da2565b90600052602060002090600602019050600060376038600086815260200190815260200160002054815481106114fe576114fe612da2565b9060005260206000209060060201905082826002015410156115755760405162461bcd60e51b815260206004820152602a60248201527f455243333532353a20696e73756666696369656e742062616c616e636520666f60448201526939103a3930b739b332b960b11b60648201526084016105eb565b80600101548260010154146115e35760405162461bcd60e51b815260206004820152602e60248201527f455243333532353a207472616e7366657220746f20746f6b656e20776974682060448201526d191a5999995c995b9d081cdb1bdd60921b60648201526084016105eb565b60038083015490820154600184015461160e926001600160a01b039081169216908890889088611ca1565b828260020160008282546116229190613023565b925050819055508281600201600082825461163d919061303a565b9091555050604051838152849086907f0b2aac84f3ec956911fd78eae5311062972ff949f38412e8da39069d9f068cc69060200160405180910390a36003808301549082015460018401546116a4926001600160a01b039081169216908890889088611e29565b5050505050565b60006116b68261107d565b60006116c183610b2e565b9050806001600160a01b0316846001600160a01b031614806116e857506116e88185610531565b806109085750836001600160a01b031661170184610705565b6001600160a01b031614949350505050565b826001600160a01b031661172682610b2e565b6001600160a01b0316146117885760405162461bcd60e51b8152602060048201526024808201527f455243333532353a207472616e736665722066726f6d20696e76616c6964206f6044820152633bb732b960e11b60648201526084016105eb565b6001600160a01b0382166117ec5760405162461bcd60e51b815260206004820152602560248201527f455243333532353a207472616e7366657220746f20746865207a65726f206164604482015264647265737360d81b60648201526084016105eb565b60006117f782610941565b9050600061180483610d85565b9050611814858585868686611ca1565b61181f6000846110d1565b61182883611e9a565b6118328584611f36565b61183c8484612057565b82846001600160a01b0316866001600160a01b03167fddf252ad1be2c89b69c2b068fc378daa952ba7f163c4a11628f55a4df523b3ef60405160405180910390a46116a4858585868686611e29565b6066546000901580159061064857506000828152606760205260409020546066805484929081106118be576118be612da2565b9060005260206000209060020201600001541492915050565b6001600160a01b0382166119405760405162461bcd60e51b815260206004820152602a60248201527f455243333532353a20617070726f76652076616c756520746f20746865207a65604482015269726f206164647265737360b01b60648201526084016105eb565b61194a82846120e0565b6119b05760008381526038602052604090205460378054909190811061197257611972612da2565b60009182526020808320600692909202909101600501805460018101825590835291200180546001600160a01b0319166001600160a01b0384161790555b60008381526036602090815260408083206001600160a01b038616808552908352928190208490555183815285917f621b050de0ad08b51d19b48b3e6df75348c4de6bdd93e81b252ca62e28265b1b91015b60405180910390a3505050565b816001600160a01b0316836001600160a01b031603611a705760405162461bcd60e51b815260206004820152601a60248201527f455243333532353a20617070726f766520746f2063616c6c657200000000000060448201526064016105eb565b6001600160a01b0383811660008181526039602090815260408083209487168084526002909501825291829020805460ff191686151590811790915591519182527f17307eab39ab6107e8899845ad3d59bd9653f200f220920489ca2b5937696c319101611a02565b611ae4848484611713565b611af0848484846121b3565b610cd35760405162461bcd60e51b815260206004820152602760248201527f455243333532353a207472616e7366657220746f206e6f6e204552433732315260448201526632b1b2b4bb32b960c91b60648201526084016105eb565b60606106486001600160a01b038316601461236b565b603754600090158015906106485750600082815260386020526040902054603780548492908110611b9557611b95612da2565b9060005260206000209060060201600001541492915050565b60008072184f03e93ff9f4daa797ed6e38ed64bf6a1f0160401b8310611bed5772184f03e93ff9f4daa797ed6e38ed64bf6a1f0160401b830492506040015b6d04ee2d6d415b85acef81000000008310611c19576d04ee2d6d415b85acef8100000000830492506020015b662386f26fc100008310611c3757662386f26fc10000830492506010015b6305f5e1008310611c4f576305f5e100830492506008015b6127108310611c6357612710830492506004015b60648310611c75576064830492506002015b600a83106106485760010192915050565b6000611c9160375490565b611c9c90600161303a565b905090565b6001600160a01b038616158015611cb6575083155b8015611cc85750611cc68261188b565b155b15611cd657611cd682612507565b505050505050565b6040805160c081018252838152602080820184905260008284018190526001600160a01b038716606084015260808301819052835181815291820190935260a08201529050611d2c816125ce565b611d368484612057565b60405183906001600160a01b038616906000907fddf252ad1be2c89b69c2b068fc378daa952ba7f163c4a11628f55a4df523b3ef908290a4816000847fe4f48c240d3b994948aa54f3e2f5fca59263dfe1d52b6e4cf39a5d249b5ccb6560405160405180910390a450505050565b600082815260386020526040902054603780548392908110611dc857611dc8612da2565b90600052602060002090600602016002016000828254611de8919061303a565b909155505060405181815282906000907f0b2aac84f3ec956911fd78eae5311062972ff949f38412e8da39069d9f068cc69060200160405180910390a35050565b6001600160a01b038616158015611e3e575083155b8015611e515750611e4f8284612720565b155b15611e6557611e6082846127ac565b611cd6565b6001600160a01b038516158015611e7a575082155b8015611e8b5750611e8b8285612720565b15611e6057611e60828561280d565b600081815260386020526040812054603780549091908110611ebe57611ebe612da2565b600091825260208220600560069092020190810154909250905b81811015610cd3576000836005018281548110611ef757611ef7612da2565b60009182526020808320909101548783526036825260408084206001600160a01b03909216845291528120555080611f2e81613052565b915050611ed8565b600081815260386020526040812054603780549091908110611f5a57611f5a612da2565b6000918252602080832060069290920290910160030180546001600160a01b0319166001600160a01b0394851617905591841681526039909152604081208054909190611fa990600190613023565b90506000826000018281548110611fc257611fc2612da2565b90600052602060002001549050600083600101600086815260200190815260200160002054905081846000018281548110611fff57611fff612da2565b600091825260208083209091019290925583815260018601909152604080822083905586825281205583548490806120395761203961306b565b60019003818190600052602060002001600090559055505050505050565b60008181526038602052604090205460378054849290811061207b5761207b612da2565b6000918252602080832060069290920290910160030180546001600160a01b0319166001600160a01b03948516179055939091168152603980845260408083208054858552600182810188529285208190559286529082018155825292902090910155565b60008181526038602052604081205460378054839290811061210457612104612da2565b6000918252602082206005600690920201015491505b818110156121a857600084815260386020526040902054603780546001600160a01b0388169290811061214f5761214f612da2565b9060005260206000209060060201600501828154811061217157612171612da2565b6000918252602090912001546001600160a01b03160361219657600192505050610648565b806121a081613052565b91505061211a565b506000949350505050565b60006001600160a01b0384163b1515801561223857506040516301ffc9a760e01b8152630a85bd0160e11b60048201526001600160a01b038516906301ffc9a790602401602060405180830381865afa158015612214573d6000803e3d6000fd5b505050506040513d601f19601f820116820180604052508101906122389190613081565b1561236057604051630a85bd0160e11b81526001600160a01b0385169063150b7a029061226f90339089908890889060040161309e565b6020604051808303816000875af19250505080156122aa575060408051601f3d908101601f191682019092526122a7918101906130db565b60015b612346573d8080156122d8576040519150601f19603f3d011682016040523d82523d6000602084013e6122dd565b606091505b50805160000361233e5760405162461bcd60e51b815260206004820152602660248201527f4552433732313a207472616e7366657220746f206e6f6e20455243373231526560448201526531b2b4bb32b960d11b60648201526084016105eb565b805181602001fd5b6001600160e01b031916630a85bd0160e11b149050610908565b506001949350505050565b6060600061237a8360026130f8565b61238590600261303a565b67ffffffffffffffff81111561239d5761239d612c32565b6040519080825280601f01601f1916602001820160405280156123c7576020820181803683370190505b509050600360fc1b816000815181106123e2576123e2612da2565b60200101906001600160f81b031916908160001a905350600f60fb1b8160018151811061241157612411612da2565b60200101906001600160f81b031916908160001a90535060006124358460026130f8565b61244090600161303a565b90505b60018111156124b8576f181899199a1a9b1b9c1cb0b131b232b360811b85600f166010811061247457612474612da2565b1a60f81b82828151811061248a5761248a612da2565b60200101906001600160f81b031916908160001a90535060049490941c936124b181613117565b9050612443565b5083156108c75760405162461bcd60e51b815260206004820181905260248201527f537472696e67733a20686578206c656e67746820696e73756666696369656e7460448201526064016105eb565b6125108161188b565b156125705760405162461bcd60e51b815260206004820152602a60248201527f45524333353235536c6f74456e756d657261626c653a20736c6f7420616c72656044820152696164792065786973747360b01b60648201526084016105eb565b60408051808201825282815281516000808252602082810190945292820152905061259a816128f1565b816000807fe4f48c240d3b994948aa54f3e2f5fca59263dfe1d52b6e4cf39a5d249b5ccb6560405160405180910390a45050565b603780548251600090815260386020908152604080832084905560018401855593909152835160069092027f42a7b7dd785cd69714a189dffb3fd7d7174edc9ece837694ce50f7078f7c31ae8101928355818501517f42a7b7dd785cd69714a189dffb3fd7d7174edc9ece837694ce50f7078f7c31af820155928401517f42a7b7dd785cd69714a189dffb3fd7d7174edc9ece837694ce50f7078f7c31b084015560608401517f42a7b7dd785cd69714a189dffb3fd7d7174edc9ece837694ce50f7078f7c31b1840180546001600160a01b039283166001600160a01b03199182161790915560808601517f42a7b7dd785cd69714a189dffb3fd7d7174edc9ece837694ce50f7078f7c31b28601805491909316911617905560a084015180518594610cd3937f42a7b7dd785cd69714a189dffb3fd7d7174edc9ece837694ce50f7078f7c31b3909101920190612976565b60008281526067602052604081205460668054839290811061274457612744612da2565b906000526020600020906002020190506000816001018054905011801561090857506000848152606560209081526040808320868452909152902054600182018054859290811061279757612797612da2565b90600052602060002001541491505092915050565b6000828152606760205260408120546066805490919081106127d0576127d0612da2565b6000918252602080832060016002909302018201805496845260658252604080852087865283528420879055918601825590825290209092015550565b60008281526067602052604081205460668054909190811061283157612831612da2565b6000918252602082206001600290920201818101549093506128539190613023565b9050600082600101828154811061286c5761286c612da2565b60009182526020808320909101548783526065825260408084208885529092529120546001850180549293509091839190839081106128ad576128ad612da2565b60009182526020808320919091019290925587815260658252604080822085835290925281812083905586815290812055600184018054806120395761203961306b565b60668054825160009081526067602090815260408220839055600183018455929052825160029091027f46501879b8ca8525e8c2fd519e2fbfcfa2ebea26501294aa02cbfcfb12e9435481019182558284015180518594610cd3937f46501879b8ca8525e8c2fd519e2fbfcfa2ebea26501294aa02cbfcfb12e94355019201906129db565b8280548282559060005260206000209081019282156129cb579160200282015b828111156129cb57825182546001600160a01b0319166001600160a01b03909116178255602090920191600190910190612996565b506129d7929150612a16565b5090565b8280548282559060005260206000209081019282156129cb579160200282015b828111156129cb5782518255916020019190600101906129fb565b5b808211156129d75760008155600101612a17565b60008060408385031215612a3e57600080fd5b50508035926020909101359150565b6001600160e01b0319811681146110ce57600080fd5b600060208284031215612a7557600080fd5b81356108c781612a4d565b60005b83811015612a9b578181015183820152602001612a83565b83811115610cd35750506000910152565b60008151808452612ac4816020860160208601612a80565b601f01601f19169290920160200192915050565b6020815260006108c76020830184612aac565b600060208284031215612afd57600080fd5b5035919050565b80356001600160a01b0381168114610bc557600080fd5b60008060408385031215612b2e57600080fd5b612b3783612b04565b946020939093013593505050565b600080600060608486031215612b5a57600080fd5b83359250612b6a60208501612b04565b9150604084013590509250925092565b600080600060608486031215612b8f57600080fd5b612b9884612b04565b9250612b6a60208501612b04565b600080600060608486031215612bbb57600080fd5b505081359360208301359350604090920135919050565b600060208284031215612be457600080fd5b6108c782612b04565b80151581146110ce57600080fd5b60008060408385031215612c0e57600080fd5b612c1783612b04565b91506020830135612c2781612bed565b809150509250929050565b634e487b7160e01b600052604160045260246000fd5b604051601f8201601f1916810167ffffffffffffffff81118282101715612c7157612c71612c32565b604052919050565b600067ffffffffffffffff821115612c9357612c93612c32565b50601f01601f191660200190565b60008060008060808587031215612cb757600080fd5b612cc085612b04565b9350612cce60208601612b04565b925060408501359150606085013567ffffffffffffffff811115612cf157600080fd5b8501601f81018713612d0257600080fd5b8035612d15612d1082612c79565b612c48565b818152886020838501011115612d2a57600080fd5b8160208401602083013760006020838301015280935050505092959194509250565b60008060408385031215612d5f57600080fd5b82359150612d6f60208401612b04565b90509250929050565b60008060408385031215612d8b57600080fd5b612d9483612b04565b9150612d6f60208401612b04565b634e487b7160e01b600052603260045260246000fd5b600181811c90821680612dcc57607f821691505b602082108103612dec57634e487b7160e01b600052602260045260246000fd5b50919050565b60208082526022908201527f455243333532353a20617070726f76616c20746f2063757272656e74206f776e60408201526132b960f11b606082015260800190565b60208082526039908201527f455243333532353a20617070726f76652063616c6c6572206973206e6f74206f60408201527f776e6572206e6f7220617070726f76656420666f7220616c6c00000000000000606082015260800190565b60008351612ea3818460208801612a80565b64736c6f742f60d81b9083019081528351612ec5816005840160208801612a80565b01600501949350505050565b600060208284031215612ee357600080fd5b815167ffffffffffffffff811115612efa57600080fd5b8201601f81018413612f0b57600080fd5b8051612f19612d1082612c79565b818152856020838501011115612f2e57600080fd5b612f3f826020830160208601612a80565b95945050505050565b60208082526032908201527f455243333532353a207472616e736665722063616c6c6572206973206e6f74206040820152711bdddb995c881b9bdc88185c1c1c9bdd995960721b606082015260800190565b60008351612fac818460208801612a80565b835190830190612fc0818360208801612a80565b01949350505050565b60008351612fdb818460208801612a80565b68636f6e74726163742f60b81b9083019081528351613001816009840160208801612a80565b01600901949350505050565b634e487b7160e01b600052601160045260246000fd5b6000828210156130355761303561300d565b500390565b6000821982111561304d5761304d61300d565b500190565b6000600182016130645761306461300d565b5060010190565b634e487b7160e01b600052603160045260246000fd5b60006020828403121561309357600080fd5b81516108c781612bed565b6001600160a01b03858116825284166020820152604081018390526080606082018190526000906130d190830184612aac565b9695505050505050565b6000602082840312156130ed57600080fd5b81516108c781612a4d565b60008160001904831182151516156131125761311261300d565b500290565b6000816131265761312661300d565b50600019019056fea26469706673582212202c3507bae9112d3991cad9206ecfd5a9d47cb1861c16be21957ca47f5acbdf5f64736f6c634300080f0033",
  "linkReferences": {},
  "deployedLinkReferences": {}
}