{
  "_format": "hh-sol-artifact-1",
  "contractName": "ERC3525ReceiverMock",
  "sourceName": "contracts/solvprotocol/erc-3525/mocks/ERC3525ReceiverMock.sol",
  "abi": [
    {
      "inputs": [
        {
          "internalType": "bytes4",
          "name": "retval",
          "type": "bytes4"
        },
        {
          "internalType": "enum ERC3525ReceiverMock.Error",
          "name": "error",
          "type": "uint8"
        }
      ],
      "stateMutability": "nonpayable",
      "type": "constructor"
    },
    {
      "anonymous": false,
      "inputs": [
        {
          "indexed": false,
          "internalType": "address",
          "name": "operator",
          "type": "address"
        },
        {
          "indexed": false,
          "internalType": "uint256",
          "name": "fromTokenId",
          "type": "uint256"
        },
        {
          "indexed": false,
          "internalType": "uint256",
          "name": "toTokenId",
          "type": "uint256"
        },
        {
          "indexed": false,
          "internalType": "uint256",
          "name": "value",
          "type": "uint256"
        },
        {
          "indexed": false,
          "internalType": "bytes",
          "name": "data",
          "type": "bytes"
        },
        {
          "indexed": false,
          "internalType": "uint256",
          "name": "gas",
          "type": "uint256"
        }
      ],
      "name": "Received",
      "type": "event"
    },
    {
      "inputs": [
        {
          "internalType": "address",
          "name": "operator",
          "type": "address"
        },
        {
          "internalType": "uint256",
          "name": "fromTokenId",
          "type": "uint256"
        },
        {
          "internalType": "uint256",
          "name": "toTokenId",
          "type": "uint256"
        },
        {
          "internalType": "uint256",
          "name": "value",
          "type": "uint256"
        },
        {
          "internalType": "bytes",
          "name": "data",
          "type": "bytes"
        }
      ],
      "name": "onERC3525Received",
      "outputs": [
        {
          "internalType": "bytes4",
          "name": "",
          "type": "bytes4"
        }
      ],
      "stateMutability": "nonpayable",
      "type": "function"
    },
    {
      "inputs": [
        {
          "internalType": "bytes4",
          "name": "interfaceId",
          "type": "bytes4"
        }
      ],
      "name": "supportsInterface",
      "outputs": [
        {
          "internalType": "bool",
          "name": "",
          "type": "bool"
        }
      ],
      "stateMutability": "view",
      "type": "function"
    }
  ],
  "bytecode": "0x60c060405234801561001057600080fd5b5060405161098b38038061098b8339818101604052810190610032919061012d565b817bffffffffffffffffffffffffffffffffffffffffffffffffffffffff19166080817bffffffffffffffffffffffffffffffffffffffffffffffffffffffff19168152505080600381111561008b5761008a61016d565b5b60a08160038111156100a05761009f61016d565b5b81525050505061019c565b600080fd5b60007fffffffff0000000000000000000000000000000000000000000000000000000082169050919050565b6100e5816100b0565b81146100f057600080fd5b50565b600081519050610102816100dc565b92915050565b6004811061011557600080fd5b50565b60008151905061012781610108565b92915050565b60008060408385031215610144576101436100ab565b5b6000610152858286016100f3565b925050602061016385828601610118565b9150509250929050565b7f4e487b7100000000000000000000000000000000000000000000000000000000600052602160045260246000fd5b60805160a0516107bd6101ce6000396000818160b20152818161013901526101890152600061021701526107bd6000f3fe608060405234801561001057600080fd5b50600436106100355760003560e01c80629ce20b1461003a57806301ffc9a71461006a575b600080fd5b610054600480360381019061004f9190610416565b61009a565b60405161006191906104eb565b60405180910390f35b610084600480360381019061007f9190610532565b610242565b604051610091919061057a565b60405180910390f35b6000600160038111156100b0576100af610595565b5b7f000000000000000000000000000000000000000000000000000000000000000060038111156100e3576100e2610595565b5b03610123576040517f08c379a000000000000000000000000000000000000000000000000000000000815260040161011a90610621565b60405180910390fd5b6002600381111561013757610136610595565b5b7f0000000000000000000000000000000000000000000000000000000000000000600381111561016a57610169610595565b5b0361017457600080fd5b60038081111561018757610186610595565b5b7f000000000000000000000000000000000000000000000000000000000000000060038111156101ba576101b9610595565b5b036101d25760008060006101ce9190610670565b9050505b7f7693f14379c435d2f83242a3efbdcca5efc90c59cbcf91f258ed512e511b19518787878787875a60405161020d979695949392919061071d565b60405180910390a17f000000000000000000000000000000000000000000000000000000000000000090509695505050505050565b60007f01ffc9a7000000000000000000000000000000000000000000000000000000007bffffffffffffffffffffffffffffffffffffffffffffffffffffffff1916827bffffffffffffffffffffffffffffffffffffffffffffffffffffffff1916148061030c57507e9ce20b000000000000000000000000000000000000000000000000000000007bffffffffffffffffffffffffffffffffffffffffffffffffffffffff1916827bffffffffffffffffffffffffffffffffffffffffffffffffffffffff1916145b9050919050565b600080fd5b600080fd5b600073ffffffffffffffffffffffffffffffffffffffff82169050919050565b60006103488261031d565b9050919050565b6103588161033d565b811461036357600080fd5b50565b6000813590506103758161034f565b92915050565b6000819050919050565b61038e8161037b565b811461039957600080fd5b50565b6000813590506103ab81610385565b92915050565b600080fd5b600080fd5b600080fd5b60008083601f8401126103d6576103d56103b1565b5b8235905067ffffffffffffffff8111156103f3576103f26103b6565b5b60208301915083600182028301111561040f5761040e6103bb565b5b9250929050565b60008060008060008060a0878903121561043357610432610313565b5b600061044189828a01610366565b965050602061045289828a0161039c565b955050604061046389828a0161039c565b945050606061047489828a0161039c565b935050608087013567ffffffffffffffff81111561049557610494610318565b5b6104a189828a016103c0565b92509250509295509295509295565b60007fffffffff0000000000000000000000000000000000000000000000000000000082169050919050565b6104e5816104b0565b82525050565b600060208201905061050060008301846104dc565b92915050565b61050f816104b0565b811461051a57600080fd5b50565b60008135905061052c81610506565b92915050565b60006020828403121561054857610547610313565b5b60006105568482850161051d565b91505092915050565b60008115159050919050565b6105748161055f565b82525050565b600060208201905061058f600083018461056b565b92915050565b7f4e487b7100000000000000000000000000000000000000000000000000000000600052602160045260246000fd5b600082825260208201905092915050565b7f4552433335323552656365697665724d6f636b3a20726576657274696e670000600082015250565b600061060b601e836105c4565b9150610616826105d5565b602082019050919050565b6000602082019050818103600083015261063a816105fe565b9050919050565b7f4e487b7100000000000000000000000000000000000000000000000000000000600052601260045260246000fd5b600061067b8261037b565b91506106868361037b565b92508261069657610695610641565b5b828204905092915050565b6106aa8161033d565b82525050565b6106b98161037b565b82525050565b600082825260208201905092915050565b82818337600083830152505050565b6000601f19601f8301169050919050565b60006106fc83856106bf565b93506107098385846106d0565b610712836106df565b840190509392505050565b600060c082019050610732600083018a6106a1565b61073f60208301896106b0565b61074c60408301886106b0565b61075960608301876106b0565b818103608083015261076c8185876106f0565b905061077b60a08301846106b0565b9897505050505050505056fea264697066735822122001315047b510843f07022cbc0408682147dcca3c0db4e64367a7229e936feed964736f6c634300080f0033",
  "linkReferences": {},
  "deployedLinkReferences": {}
}