{
  "_format": "hh-sol-artifact-1",
  "contractName": "Platform",
  "sourceName": "contracts/Platform/Platform.sol",
  "abi": [
    {
      "inputs": [],
      "stateMutability": "nonpayable",
      "type": "constructor"
    },
    {
      "anonymous": false,
      "inputs": [
        {
          "indexed": false,
          "internalType": "uint256",
          "name": "older",
          "type": "uint256"
        },
        {
          "indexed": false,
          "internalType": "uint256",
          "name": "renew",
          "type": "uint256"
        }
      ],
      "name": "ChangedManageFee",
      "type": "event"
    },
    {
      "anonymous": false,
      "inputs": [
        {
          "indexed": true,
          "internalType": "address",
          "name": "caller",
          "type": "address"
        },
        {
          "indexed": false,
          "internalType": "uint256",
          "name": "amount",
          "type": "uint256"
        }
      ],
      "name": "ClaimManagerFee",
      "type": "event"
    },
    {
      "anonymous": false,
      "inputs": [
        {
          "indexed": false,
          "internalType": "address",
          "name": "from",
          "type": "address"
        },
        {
          "indexed": false,
          "internalType": "address",
          "name": "to",
          "type": "address"
        }
      ],
      "name": "TransferOwner",
      "type": "event"
    },
    {
      "anonymous": false,
      "inputs": [
        {
          "indexed": false,
          "internalType": "address",
          "name": "from",
          "type": "address"
        },
        {
          "indexed": false,
          "internalType": "address",
          "name": "to",
          "type": "address"
        }
      ],
      "name": "TransferReciver",
      "type": "event"
    },
    {
      "inputs": [
        {
          "internalType": "uint256",
          "name": "manageFee_",
          "type": "uint256"
        }
      ],
      "name": "changeManageFee",
      "outputs": [],
      "stateMutability": "nonpayable",
      "type": "function"
    },
    {
      "inputs": [],
      "name": "manageFee",
      "outputs": [
        {
          "internalType": "uint256",
          "name": "",
          "type": "uint256"
        }
      ],
      "stateMutability": "view",
      "type": "function"
    },
    {
      "inputs": [],
      "name": "owner",
      "outputs": [
        {
          "internalType": "address",
          "name": "",
          "type": "address"
        }
      ],
      "stateMutability": "view",
      "type": "function"
    },
    {
      "inputs": [],
      "name": "receiver",
      "outputs": [
        {
          "internalType": "address",
          "name": "",
          "type": "address"
        }
      ],
      "stateMutability": "view",
      "type": "function"
    },
    {
      "inputs": [
        {
          "internalType": "address",
          "name": "owner_",
          "type": "address"
        }
      ],
      "name": "setOwner",
      "outputs": [],
      "stateMutability": "nonpayable",
      "type": "function"
    },
    {
      "inputs": [
        {
          "internalType": "address",
          "name": "receiver_",
          "type": "address"
        }
      ],
      "name": "setReceiver",
      "outputs": [],
      "stateMutability": "nonpayable",
      "type": "function"
    },
    {
      "inputs": [
        {
          "internalType": "address",
          "name": "mananger_",
          "type": "address"
        },
        {
          "internalType": "uint256",
          "name": "amount_",
          "type": "uint256"
        }
      ],
      "name": "withdrew",
      "outputs": [],
      "stateMutability": "nonpayable",
      "type": "function"
    },
    {
      "stateMutability": "payable",
      "type": "receive"
    }
  ],
  "bytecode": "0x608060405234801561001057600080fd5b5061002b67882631d226492f0c60c01b61010d60201b60201c565b610045677109105d8da4222060c01b61010d60201b60201c565b33600160006101000a81548173ffffffffffffffffffffffffffffffffffffffff021916908373ffffffffffffffffffffffffffffffffffffffff1602179055506100a067bfa9acd914ee88fe60c01b61010d60201b60201c565b306000806101000a81548173ffffffffffffffffffffffffffffffffffffffff021916908373ffffffffffffffffffffffffffffffffffffffff1602179055506100fa67b475a0c4d9cae33060c01b61010d60201b60201c565b666a94d74f430000600281905550610110565b50565b610ea08061011f6000396000f3fe6080604052600436106100745760003560e01c8063718da7ee1161004e578063718da7ee146100fd5780638da5cb5b14610126578063dce8ef6214610151578063f7260d3e1461017a5761007b565b806313af4035146100805780634bbdf4da146100a95780634c25b94a146100d45761007b565b3661007b57005b600080fd5b34801561008c57600080fd5b506100a760048036038101906100a29190610b59565b6101a5565b005b3480156100b557600080fd5b506100be6103c2565b6040516100cb9190610b9f565b60405180910390f35b3480156100e057600080fd5b506100fb60048036038101906100f69190610be6565b6103c8565b005b34801561010957600080fd5b50610124600480360381019061011f9190610b59565b61058d565b005b34801561013257600080fd5b5061013b6107a9565b6040516101489190610c22565b60405180910390f35b34801561015d57600080fd5b5061017860048036038101906101739190610c3d565b6107cf565b005b34801561018657600080fd5b5061018f610acf565b60405161019c9190610c22565b60405180910390f35b6101b967085b75b383e0e51860c01b610af3565b6101cd67aa9b928c24df94a860c01b610af3565b6101e16741980c43609e146960c01b610af3565b6101f567862539e43a3d577b60c01b610af3565b61020967480fefbdc367527560c01b610af3565b600160009054906101000a900473ffffffffffffffffffffffffffffffffffffffff1673ffffffffffffffffffffffffffffffffffffffff163373ffffffffffffffffffffffffffffffffffffffff1614610299576040517f08c379a000000000000000000000000000000000000000000000000000000000815260040161029090610cda565b60405180910390fd5b6102ad6748cee5aa04a9cd9760c01b610af3565b6102c167741c44a32a2bb8d160c01b610af3565b6102d567e5704fe4c868794f60c01b610af3565b6102e967716c21ba905c350160c01b610af3565b6102fd6753e867d4bd200ffa60c01b610af3565b610311677630b89b5171aeb960c01b610af3565b7f5bb496b3f951b55d3a1d8e479725a4d25bdc7644fc355f0b71c540354820a1c560008054906101000a900473ffffffffffffffffffffffffffffffffffffffff1682604051610362929190610cfa565b60405180910390a161037e6717197fa5752e136a60c01b610af3565b80600160006101000a81548173ffffffffffffffffffffffffffffffffffffffff021916908373ffffffffffffffffffffffffffffffffffffffff16021790555050565b60025481565b6103dc67a2d194d57fc11aed60c01b610af3565b6103f067aa9b928c24df94a860c01b610af3565b6104046741980c43609e146960c01b610af3565b61041867862539e43a3d577b60c01b610af3565b61042c67480fefbdc367527560c01b610af3565b600160009054906101000a900473ffffffffffffffffffffffffffffffffffffffff1673ffffffffffffffffffffffffffffffffffffffff163373ffffffffffffffffffffffffffffffffffffffff16146104bc576040517f08c379a00000000000000000000000000000000000000000000000000000000081526004016104b390610cda565b60405180910390fd5b6104d06748cee5aa04a9cd9760c01b610af3565b6104e467741c44a32a2bb8d160c01b610af3565b6104f86736b705d7410a382f60c01b610af3565b61050c675b8bd52857c6aa9160c01b610af3565b61052067e8d4756e5c14225a60c01b610af3565b610534670ea3b17b6ed7ee5960c01b610af3565b7f084d7536bcea784fc97ae33946b3efaaaedc28d728e856ef970a820d14748bfe60025482604051610567929190610d23565b60405180910390a161058367ecd52090bb0c86fc60c01b610af3565b8060028190555050565b6105a1672af15c219824852160c01b610af3565b6105b567aa9b928c24df94a860c01b610af3565b6105c96741980c43609e146960c01b610af3565b6105dd67862539e43a3d577b60c01b610af3565b6105f167480fefbdc367527560c01b610af3565b600160009054906101000a900473ffffffffffffffffffffffffffffffffffffffff1673ffffffffffffffffffffffffffffffffffffffff163373ffffffffffffffffffffffffffffffffffffffff1614610681576040517f08c379a000000000000000000000000000000000000000000000000000000000815260040161067890610cda565b60405180910390fd5b6106956748cee5aa04a9cd9760c01b610af3565b6106a967741c44a32a2bb8d160c01b610af3565b6106bd67b6438dd9cf2a670660c01b610af3565b6106d167f93c8e61ad92a55260c01b610af3565b6106e567cebe35389e59fbba60c01b610af3565b6106f9675a48b60d4317735860c01b610af3565b7f02109f86ad8cdbec269a37e6eefb45d885bbb7369f92e76ef1fdb3c1e58d956560008054906101000a900473ffffffffffffffffffffffffffffffffffffffff168260405161074a929190610cfa565b60405180910390a161076667e3e94bed73f93cc060c01b610af3565b806000806101000a81548173ffffffffffffffffffffffffffffffffffffffff021916908373ffffffffffffffffffffffffffffffffffffffff16021790555050565b600160009054906101000a900473ffffffffffffffffffffffffffffffffffffffff1681565b6107e3676b848e7ac080354160c01b610af3565b6107f767aa9b928c24df94a860c01b610af3565b61080b6741980c43609e146960c01b610af3565b61081f67862539e43a3d577b60c01b610af3565b61083367480fefbdc367527560c01b610af3565b600160009054906101000a900473ffffffffffffffffffffffffffffffffffffffff1673ffffffffffffffffffffffffffffffffffffffff163373ffffffffffffffffffffffffffffffffffffffff16146108c3576040517f08c379a00000000000000000000000000000000000000000000000000000000081526004016108ba90610cda565b60405180910390fd5b6108d76748cee5aa04a9cd9760c01b610af3565b6108eb67741c44a32a2bb8d160c01b610af3565b6108ff67731e4cee9f48ae4c60c01b610af3565b610913673b0f0f0c7cba044b60c01b610af3565b610927672e56da751c37aa6a60c01b610af3565b61093b676065d831def8291160c01b610af3565b61094f67ee0b553e7df4f35560c01b610af3565b80471015610992576040517f08c379a000000000000000000000000000000000000000000000000000000000815260040161098990610d98565b60405180910390fd5b6109a6679b48d9fd64418aac60c01b610af3565b6109ba67e95fe322b1064aca60c01b610af3565b6109ce6727d7c86ec01c3dfc60c01b610af3565b60008273ffffffffffffffffffffffffffffffffffffffff16826040516109f490610de9565b60006040518083038185875af1925050503d8060008114610a31576040519150601f19603f3d011682016040523d82523d6000602084013e610a36565b606091505b50509050610a4e67ff4cb87bd4aff54d60c01b610af3565b610a626756efb4d3c0a7088c60c01b610af3565b610a76675002b7afd910d07760c01b610af3565b80610ab6576040517f08c379a0000000000000000000000000000000000000000000000000000000008152600401610aad90610e4a565b60405180910390fd5b610aca6716399649b3052fd360c01b610af3565b505050565b60008054906101000a900473ffffffffffffffffffffffffffffffffffffffff1681565b50565b600080fd5b600073ffffffffffffffffffffffffffffffffffffffff82169050919050565b6000610b2682610afb565b9050919050565b610b3681610b1b565b8114610b4157600080fd5b50565b600081359050610b5381610b2d565b92915050565b600060208284031215610b6f57610b6e610af6565b5b6000610b7d84828501610b44565b91505092915050565b6000819050919050565b610b9981610b86565b82525050565b6000602082019050610bb46000830184610b90565b92915050565b610bc381610b86565b8114610bce57600080fd5b50565b600081359050610be081610bba565b92915050565b600060208284031215610bfc57610bfb610af6565b5b6000610c0a84828501610bd1565b91505092915050565b610c1c81610b1b565b82525050565b6000602082019050610c376000830184610c13565b92915050565b60008060408385031215610c5457610c53610af6565b5b6000610c6285828601610b44565b9250506020610c7385828601610bd1565b9150509250929050565b600082825260208201905092915050565b7f4552525f4e4f545f4f574e455200000000000000000000000000000000000000600082015250565b6000610cc4600d83610c7d565b9150610ccf82610c8e565b602082019050919050565b60006020820190508181036000830152610cf381610cb7565b9050919050565b6000604082019050610d0f6000830185610c13565b610d1c6020830184610c13565b9392505050565b6000604082019050610d386000830185610b90565b610d456020830184610b90565b9392505050565b7f4552525f4e4f545f454e4f554748000000000000000000000000000000000000600082015250565b6000610d82600e83610c7d565b9150610d8d82610d4c565b602082019050919050565b60006020820190508181036000830152610db181610d75565b9050919050565b600081905092915050565b50565b6000610dd3600083610db8565b9150610dde82610dc3565b600082019050919050565b6000610df482610dc6565b9150819050919050565b7f4552525f53595354454d5f4552524f5200000000000000000000000000000000600082015250565b6000610e34601083610c7d565b9150610e3f82610dfe565b602082019050919050565b60006020820190508181036000830152610e6381610e27565b905091905056fea2646970667358221220ac20e141448d479b285467a3239e45f700049f2fb27e656022abbc75375faa2664736f6c634300080f0033",
  "linkReferences": {},
  "deployedLinkReferences": {}
}