{
  "_format": "hh-sol-artifact-1",
  "contractName": "Platform",
  "sourceName": "contracts/Platform/Platform.sol",
  "abi": [
    {
      "inputs": [],
      "stateMutability": "nonpayable",
      "type": "constructor"
    },
    {
      "anonymous": false,
      "inputs": [
        {
          "indexed": false,
          "internalType": "uint256",
          "name": "older",
          "type": "uint256"
        },
        {
          "indexed": false,
          "internalType": "uint256",
          "name": "renew",
          "type": "uint256"
        }
      ],
      "name": "ChangedManageFee",
      "type": "event"
    },
    {
      "anonymous": false,
      "inputs": [
        {
          "indexed": true,
          "internalType": "address",
          "name": "caller",
          "type": "address"
        },
        {
          "indexed": false,
          "internalType": "uint256",
          "name": "amount",
          "type": "uint256"
        }
      ],
      "name": "ClaimManagerFee",
      "type": "event"
    },
    {
      "anonymous": false,
      "inputs": [
        {
          "indexed": false,
          "internalType": "address",
          "name": "from",
          "type": "address"
        },
        {
          "indexed": false,
          "internalType": "address",
          "name": "to",
          "type": "address"
        }
      ],
      "name": "TransferOwner",
      "type": "event"
    },
    {
      "anonymous": false,
      "inputs": [
        {
          "indexed": false,
          "internalType": "address",
          "name": "from",
          "type": "address"
        },
        {
          "indexed": false,
          "internalType": "address",
          "name": "to",
          "type": "address"
        }
      ],
      "name": "TransferReciver",
      "type": "event"
    },
    {
      "inputs": [
        {
          "internalType": "uint256",
          "name": "manageFee_",
          "type": "uint256"
        }
      ],
      "name": "changeManageFee",
      "outputs": [],
      "stateMutability": "nonpayable",
      "type": "function"
    },
    {
      "inputs": [],
      "name": "manageFee",
      "outputs": [
        {
          "internalType": "uint256",
          "name": "",
          "type": "uint256"
        }
      ],
      "stateMutability": "view",
      "type": "function"
    },
    {
      "inputs": [],
      "name": "owner",
      "outputs": [
        {
          "internalType": "address",
          "name": "",
          "type": "address"
        }
      ],
      "stateMutability": "view",
      "type": "function"
    },
    {
      "inputs": [],
      "name": "receiver",
      "outputs": [
        {
          "internalType": "address",
          "name": "",
          "type": "address"
        }
      ],
      "stateMutability": "view",
      "type": "function"
    },
    {
      "inputs": [
        {
          "internalType": "address",
          "name": "owner_",
          "type": "address"
        }
      ],
      "name": "setOwner",
      "outputs": [],
      "stateMutability": "nonpayable",
      "type": "function"
    },
    {
      "inputs": [
        {
          "internalType": "address",
          "name": "receiver_",
          "type": "address"
        }
      ],
      "name": "setReceiver",
      "outputs": [],
      "stateMutability": "nonpayable",
      "type": "function"
    },
    {
      "inputs": [
        {
          "internalType": "address",
          "name": "mananger_",
          "type": "address"
        },
        {
          "internalType": "uint256",
          "name": "amount_",
          "type": "uint256"
        }
      ],
      "name": "withdrew",
      "outputs": [],
      "stateMutability": "nonpayable",
      "type": "function"
    },
    {
      "stateMutability": "payable",
      "type": "receive"
    }
  ],
  "bytecode": "0x608060405234801561001057600080fd5b50600180546001600160a01b031990811633179091556000805490911630179055666a94d74f4300006002556105018061004b6000396000f3fe6080604052600436106100745760003560e01c8063718da7ee1161004e578063718da7ee146100eb5780638da5cb5b1461010b578063dce8ef6214610143578063f7260d3e1461016357600080fd5b806313af4035146100805780634bbdf4da146100a25780634c25b94a146100cb57600080fd5b3661007b57005b600080fd5b34801561008c57600080fd5b506100a061009b36600461043f565b610183565b005b3480156100ae57600080fd5b506100b860025481565b6040519081526020015b60405180910390f35b3480156100d757600080fd5b506100a06100e6366004610461565b61021f565b3480156100f757600080fd5b506100a061010636600461043f565b61028a565b34801561011757600080fd5b5060015461012b906001600160a01b031681565b6040516001600160a01b0390911681526020016100c2565b34801561014f57600080fd5b506100a061015e36600461047a565b61031d565b34801561016f57600080fd5b5060005461012b906001600160a01b031681565b6001546001600160a01b031633146101b65760405162461bcd60e51b81526004016101ad906104a4565b60405180910390fd5b600054604080516001600160a01b03928316815291831660208301527f5bb496b3f951b55d3a1d8e479725a4d25bdc7644fc355f0b71c540354820a1c5910160405180910390a1600180546001600160a01b0319166001600160a01b0392909216919091179055565b6001546001600160a01b031633146102495760405162461bcd60e51b81526004016101ad906104a4565b60025460408051918252602082018390527f084d7536bcea784fc97ae33946b3efaaaedc28d728e856ef970a820d14748bfe910160405180910390a1600255565b6001546001600160a01b031633146102b45760405162461bcd60e51b81526004016101ad906104a4565b600054604080516001600160a01b03928316815291831660208301527f02109f86ad8cdbec269a37e6eefb45d885bbb7369f92e76ef1fdb3c1e58d9565910160405180910390a1600080546001600160a01b0319166001600160a01b0392909216919091179055565b6001546001600160a01b031633146103475760405162461bcd60e51b81526004016101ad906104a4565b804710156103885760405162461bcd60e51b815260206004820152600e60248201526d08aa4a4be9c9ea8be8a9c9eaa8e960931b60448201526064016101ad565b6000826001600160a01b03168260405160006040518083038185875af1925050503d80600081146103d5576040519150601f19603f3d011682016040523d82523d6000602084013e6103da565b606091505b505090508061041e5760405162461bcd60e51b815260206004820152601060248201526f22a9292fa9aca9aa22a6afa2a92927a960811b60448201526064016101ad565b505050565b80356001600160a01b038116811461043a57600080fd5b919050565b60006020828403121561045157600080fd5b61045a82610423565b9392505050565b60006020828403121561047357600080fd5b5035919050565b6000806040838503121561048d57600080fd5b61049683610423565b946020939093013593505050565b6020808252600d908201526c22a9292fa727aa2fa7aba722a960991b60408201526060019056fea2646970667358221220c576c97606540bb9b28e9b7645a5757d58cf87c1356eaf5c27b16c73444bea7e64736f6c634300080f0033",
  "linkReferences": {},
  "deployedLinkReferences": {}
}