{
  "_format": "hh-sol-artifact-1",
  "contractName": "Factory",
  "sourceName": "contracts/Factory.sol",
  "abi": [
    {
      "anonymous": false,
      "inputs": [
        {
          "indexed": true,
          "internalType": "address",
          "name": "previousOwner",
          "type": "address"
        },
        {
          "indexed": true,
          "internalType": "address",
          "name": "newOwner",
          "type": "address"
        }
      ],
      "name": "OwnershipTransferred",
      "type": "event"
    },
    {
      "inputs": [
        {
          "internalType": "address",
          "name": "",
          "type": "address"
        }
      ],
      "name": "isDimensionX",
      "outputs": [
        {
          "internalType": "bool",
          "name": "",
          "type": "bool"
        }
      ],
      "stateMutability": "view",
      "type": "function"
    },
    {
      "inputs": [
        {
          "internalType": "string",
          "name": "name_",
          "type": "string"
        },
        {
          "internalType": "string",
          "name": "symbol_",
          "type": "string"
        },
        {
          "internalType": "uint8",
          "name": "decimals_",
          "type": "uint8"
        },
        {
          "internalType": "uint256",
          "name": "shareSupply_",
          "type": "uint256"
        },
        {
          "internalType": "address",
          "name": "manager_",
          "type": "address"
        }
      ],
      "name": "newDimensionX",
      "outputs": [
        {
          "internalType": "address",
          "name": "",
          "type": "address"
        }
      ],
      "stateMutability": "nonpayable",
      "type": "function"
    },
    {
      "inputs": [],
      "name": "owner",
      "outputs": [
        {
          "internalType": "address",
          "name": "",
          "type": "address"
        }
      ],
      "stateMutability": "view",
      "type": "function"
    },
    {
      "inputs": [],
      "name": "platform",
      "outputs": [
        {
          "internalType": "address",
          "name": "",
          "type": "address"
        }
      ],
      "stateMutability": "view",
      "type": "function"
    },
    {
      "inputs": [],
      "name": "renounceOwnership",
      "outputs": [],
      "stateMutability": "nonpayable",
      "type": "function"
    },
    {
      "inputs": [
        {
          "internalType": "address",
          "name": "platform_",
          "type": "address"
        }
      ],
      "name": "setPlatform",
      "outputs": [],
      "stateMutability": "nonpayable",
      "type": "function"
    },
    {
      "inputs": [
        {
          "internalType": "address",
          "name": "newOwner",
          "type": "address"
        }
      ],
      "name": "transferOwnership",
      "outputs": [],
      "stateMutability": "nonpayable",
      "type": "function"
    }
  ],
  "bytecode": "0x608060405234801561001057600080fd5b5061001a3361001f565b61006f565b600080546001600160a01b038381166001600160a01b0319831681178455604051919092169283917f8be0079c531659141344cd1fd0a4f28419497f9722a3daafe3b4186f6b6457e09190a35050565b614e8f8061007e6000396000f3fe608060405234801561001057600080fd5b506004361061007d5760003560e01c8063715018a61161005b578063715018a6146100da5780637da5f41b146100e25780638da5cb5b14610115578063f2fde38b1461012657600080fd5b80633bcf7f2b146100825780634bde38c8146100b25780636945c5ea146100c5575b600080fd5b610095610090366004610438565b610139565b6040516001600160a01b0390911681526020015b60405180910390f35b600254610095906001600160a01b031681565b6100d86100d33660046104cf565b610206565b005b6100d8610230565b6101056100f03660046104cf565b60016020526000908152604090205460ff1681565b60405190151581526020016100a9565b6000546001600160a01b0316610095565b6100d86101343660046104cf565b610244565b6000806040516101489061036c565b604051809103906000f080158015610164573d6000803e3d6000fd5b5060025460405163a3334e2d60e01b81529192506001600160a01b038084169263a3334e2d926101a4928c928c928c928c928c929091169060040161053e565b600060405180830381600087803b1580156101be57600080fd5b505af11580156101d2573d6000803e3d6000fd5b505050506001600160a01b0381166000908152600160208190526040909120805460ff191690911790559695505050505050565b61020e6102c2565b600280546001600160a01b0319166001600160a01b0392909216919091179055565b6102386102c2565b610242600061031c565b565b61024c6102c2565b6001600160a01b0381166102b65760405162461bcd60e51b815260206004820152602660248201527f4f776e61626c653a206e6577206f776e657220697320746865207a65726f206160448201526564647265737360d01b60648201526084015b60405180910390fd5b6102bf8161031c565b50565b6000546001600160a01b031633146102425760405162461bcd60e51b815260206004820181905260248201527f4f776e61626c653a2063616c6c6572206973206e6f7420746865206f776e657260448201526064016102ad565b600080546001600160a01b038381166001600160a01b0319831681178455604051919092169283917f8be0079c531659141344cd1fd0a4f28419497f9722a3daafe3b4186f6b6457e09190a35050565b6148c48061059683390190565b634e487b7160e01b600052604160045260246000fd5b600082601f8301126103a057600080fd5b813567ffffffffffffffff808211156103bb576103bb610379565b604051601f8301601f19908116603f011681019082821181831017156103e3576103e3610379565b816040528381528660208588010111156103fc57600080fd5b836020870160208301376000602085830101528094505050505092915050565b80356001600160a01b038116811461043357600080fd5b919050565b600080600080600060a0868803121561045057600080fd5b853567ffffffffffffffff8082111561046857600080fd5b61047489838a0161038f565b9650602088013591508082111561048a57600080fd5b506104978882890161038f565b945050604086013560ff811681146104ae57600080fd5b9250606086013591506104c36080870161041c565b90509295509295909350565b6000602082840312156104e157600080fd5b6104ea8261041c565b9392505050565b6000815180845260005b81811015610517576020818501810151868301820152016104fb565b81811115610529576000602083870101525b50601f01601f19169290920160200192915050565b60c08152600061055160c08301896104f1565b828103602084015261056381896104f1565b60ff979097166040840152505060608101939093526001600160a01b0391821660808401521660a0909101529291505056fe608060405234801561001057600080fd5b506148a4806100206000396000f3fe6080604052600436106102805760003560e01c80636352211e1161014f578063a3334e2d116100c1578063d85afce51161007a578063d85afce5146107ba578063e345e0bc146107da578063e8a3d485146107fa578063e985e9c51461080f578063ed08fa801461085c578063fa16ab6c1461087157600080fd5b8063a3334e2d14610712578063a3fbbaae14610732578063a4144c6614610752578063b88d4fde14610772578063c3038e5814610785578063c87b56dd1461079a57600080fd5b80638b7afe2e116101135780638b7afe2e146106745780638cb0a5111461068a57806395d89b411461069d578063993bef8d146106b25780639cc7f708146106d2578063a22cb465146106f257600080fd5b80636352211e146105c757806370a08231146105e757806372b0e8c014610607578063840f7113146106345780638587d8c01461065457600080fd5b8063263f3e7e116101f357806342842e0e116101ac57806342842e0e1461051e578063481c6a75146105315780634bbdf4da146105515780634c25b94a146105675780634f6ccce7146105875780634f8a0f83146105a757600080fd5b8063263f3e7e146104175780632afd0182146104375780632f745c5914610457578063310ed7f01461047757806333049e0e1461048a5780633e7e8669146104fc57600080fd5b8063095ea7b311610245578063095ea7b31461037757806309800d591461038c57806309c3dd87146103bc5780630f485c02146103dc57806318160ddd146103ef57806323b872dd1461040457600080fd5b8062cd0110146102a457806301f091c6146102d757806301ffc9a7146102ed57806306fdde031461031d578063081812fc1461033f57600080fd5b3661029f5734609960008282546102979190613eb0565b925050819055005b600080fd5b3480156102b057600080fd5b506102c46102bf366004613ec8565b610891565b6040519081526020015b60405180910390f35b3480156102e357600080fd5b506102c4609a5481565b3480156102f957600080fd5b5061030d610308366004613f00565b610967565b60405190151581526020016102ce565b34801561032957600080fd5b5061033261098c565b6040516102ce9190613f75565b34801561034b57600080fd5b5061035f61035a366004613f88565b610a1e565b6040516001600160a01b0390911681526020016102ce565b61038a610385366004613fb6565b610a70565b005b34801561039857600080fd5b5061030d6103a7366004613f88565b609f6020526000908152604090205460ff1681565b3480156103c857600080fd5b506103326103d7366004613f88565b610af5565b6102c46103ea366004613fe2565b610be7565b3480156103fb57600080fd5b506037546102c4565b61038a61041236600461401a565b610c29565b34801561042357600080fd5b506102c4610432366004613f88565b610c5a565b34801561044357600080fd5b506102c461045236600461404a565b610ca2565b34801561046357600080fd5b506102c4610472366004613fb6565b610e45565b61038a61048536600461404a565b610ed3565b34801561049657600080fd5b506104d46104a5366004614076565b609c60205260009081526040902080546001820154600283015460038401546004909401549293919290919085565b604080519586526020860194909452928401919091526060830152608082015260a0016102ce565b34801561050857600080fd5b5060355460405160ff90911681526020016102ce565b61038a61052c36600461401a565b610ee9565b34801561053d57600080fd5b5060975461035f906001600160a01b031681565b34801561055d57600080fd5b506102c460985481565b34801561057357600080fd5b5061038a610582366004613f88565b610f04565b34801561059357600080fd5b506102c46105a2366004613f88565b610f3a565b3480156105b357600080fd5b506102c46105c2366004613f88565b610fcb565b3480156105d357600080fd5b5061035f6105e2366004613f88565b611020565b3480156105f357600080fd5b506102c4610602366004614076565b6110bc565b34801561061357600080fd5b506102c4610622366004613f88565b609d6020526000908152604090205481565b34801561064057600080fd5b50603a5461035f906001600160a01b031681565b34801561066057600080fd5b5061038a61066f366004613f88565b611144565b34801561068057600080fd5b506102c460995481565b61038a610698366004613fe2565b6111d8565b3480156106a957600080fd5b5061033261125f565b3480156106be57600080fd5b506102c46106cd366004613f88565b61126e565b3480156106de57600080fd5b506102c46106ed366004613f88565b61130b565b3480156106fe57600080fd5b5061038a61070d3660046140a1565b611353565b34801561071e57600080fd5b5061038a61072d3660046141a7565b611362565b34801561073e57600080fd5b5061038a61074d366004614076565b611441565b34801561075e57600080fd5b506102c461076d366004614076565b611474565b61038a610780366004614253565b61147f565b34801561079157600080fd5b5061038a6114b2565b3480156107a657600080fd5b506103326107b5366004613f88565b6119ce565b3480156107c657600080fd5b506102c46107d5366004613f88565b611a6d565b3480156107e657600080fd5b506102c46107f53660046142d3565b611afa565b34801561080657600080fd5b50610332611b2e565b34801561081b57600080fd5b5061030d61082a3660046142f8565b6001600160a01b0391821660009081526039602090815260408083209390941682526002909201909152205460ff1690565b34801561086857600080fd5b506066546102c4565b34801561087d57600080fd5b50609b5461035f906001600160a01b031681565b600061089c83610fcb565b821061090d5760405162461bcd60e51b815260206004820152603560248201527f45524333353235536c6f74456e756d657261626c653a20736c6f7420746f6b656044820152746e20696e646578206f7574206f6620626f756e647360581b60648201526084015b60405180910390fd5b60008381526067602052604090205460668054909190811061093157610931614326565b9060005260206000209060020201600101828154811061095357610953614326565b906000526020600020015490505b92915050565b60006001600160e01b03198216631dba0dcf60e11b1480610961575061096182611c28565b60606033805461099b9061433c565b80601f01602080910402602001604051908101604052809291908181526020018280546109c79061433c565b8015610a145780601f106109e957610100808354040283529160200191610a14565b820191906000526020600020905b8154815290600101906020018083116109f757829003601f168201915b5050505050905090565b6000610a2982611cca565b600082815260386020526040902054603780549091908110610a4d57610a4d614326565b60009182526020909120600460069092020101546001600160a01b031692915050565b6000610a7b82611020565b9050806001600160a01b0316836001600160a01b031603610aae5760405162461bcd60e51b815260040161090490614376565b336001600160a01b0382161480610aca5750610aca813361082a565b610ae65760405162461bcd60e51b8152600401610904906143b8565b610af08383611d1b565b505050565b60606000610b0e60408051602081019091526000815290565b603a549091506001600160a01b0316610b6e576000815111610b3f5760405180602001604052806000815250610be0565b80610b4984611db2565b604051602001610b5a929190614415565b604051602081830303815290604052610be0565b603a54604051633601bfc560e11b8152600481018590526001600160a01b0390911690636c037f8a906024015b600060405180830381865afa158015610bb8573d6000803e3d6000fd5b505050506040513d6000823e601f3d908101601f19168201604052610be09190810190614455565b9392505050565b6000610bf4338584611e45565b6000610bff85611ed5565b9050610c168482610c0f88610c5a565b6000611edf565b610c21858285612024565b949350505050565b610c3333826122e3565b610c4f5760405162461bcd60e51b8152600401610904906144c3565b610af083838361234b565b6000610c6582611cca565b600082815260386020526040902054603780549091908110610c8957610c89614326565b9060005260206000209060060201600101549050919050565b60405163131f9f3f60e11b8152600481018490526000908190309063263f3e7e90602401602060405180830381865afa158015610ce3573d6000803e3d6000fd5b505050506040513d601f19601f82011682018060405250810190610d079190614515565b6000858152609f602052604090205490915060ff168015610d2757508315155b610d685760405162461bcd60e51b815260206004820152601260248201527111549497d393d517d5d212551157d4d313d560721b6044820152606401610904565b604051631398fee160e31b81526004810186905283906000903090639cc7f70890602401602060405180830381865afa158015610da9573d6000803e3d6000fd5b505050506040513d601f19601f82011682018060405250810190610dcd9190614515565b9050600086610ddc878661452e565b610de6919061454d565b90506000610df360a05490565b9050610e0133828a85611edf565b610e0f60a080546001019055565b838314610e2557610e2089856124c3565b610e2e565b610e2e8961253a565b610e39898286612665565b98975050505050505050565b6000610e50836110bc565b8210610ea95760405162461bcd60e51b815260206004820152602260248201527f455243333532353a206f776e657220696e646578206f7574206f6620626f756e604482015261647360f01b6064820152608401610904565b6001600160a01b038316600090815260396020526040902080548390811061095357610953614326565b610ede338483611e45565b610af0838383612024565b610af08383836040518060200160405280600081525061147f565b6097546001600160a01b03163314610f2e5760405162461bcd60e51b81526004016109049061456f565b610f3781612759565b50565b6000610f4560375490565b8210610f9f5760405162461bcd60e51b815260206004820152602360248201527f455243333532353a20676c6f62616c20696e646578206f7574206f6620626f756044820152626e647360e81b6064820152608401610904565b60378281548110610fb257610fb2614326565b9060005260206000209060060201600001549050919050565b6000610fd68261279a565b610fe257506000919050565b60008281526067602052604090205460668054909190811061100657611006614326565b600091825260209091206001600290920201015492915050565b600061102b82611cca565b60008281526038602052604090205460378054909190811061104f5761104f614326565b60009182526020909120600360069092020101546001600160a01b03169050806110b75760405162461bcd60e51b8152602060048201526019602482015278115490cccd4c8d4e881a5b9d985b1a59081d1bdad95b881251603a1b6044820152606401610904565b919050565b60006001600160a01b0382166111285760405162461bcd60e51b815260206004820152602b60248201527f455243333532353a2062616c616e636520717565727920666f7220746865207a60448201526a65726f206164647265737360a81b6064820152608401610904565b506001600160a01b031660009081526039602052604090205490565b6097546001600160a01b0316331461116e5760405162461bcd60e51b81526004016109049061456f565b6000818152609f602052604090205460ff166111c05760405162461bcd60e51b81526020600482015260116024820152704552525f4841535f4e4f545f574849544560781b6044820152606401610904565b6000908152609f60205260409020805460ff19169055565b60006111e384611020565b9050806001600160a01b0316836001600160a01b0316036112165760405162461bcd60e51b815260040161090490614376565b336001600160a01b03821614806112325750611232813361082a565b61124e5760405162461bcd60e51b8152600401610904906143b8565b6112598484846127e6565b50505050565b60606034805461099b9061433c565b600061127960665490565b82106112df5760405162461bcd60e51b815260206004820152602f60248201527f45524333353235536c6f74456e756d657261626c653a20736c6f7420696e646560448201526e78206f7574206f6620626f756e647360881b6064820152608401610904565b606682815481106112f2576112f2614326565b9060005260206000209060020201600001549050919050565b600061131682611cca565b60008281526038602052604090205460378054909190811061133a5761133a614326565b9060005260206000209060060201600201549050919050565b61135e33838361291e565b5050565b609e5460ff16156113a75760405162461bcd60e51b815260206004820152600f60248201526e11549497d253925512505312569151608a1b6044820152606401610904565b6113b560a080546001019055565b6113c08383836129e8565b6113cb868686612a21565b6113de826113d860a05490565b85612a2c565b506113ed60a080546001019055565b609e805460ff191660011790556040517f82a0f540be5e2257bf49933e1856d30557acb1b56563d276826692214e2485a09061143190339030906000903690614598565b60405180910390a1505050505050565b6097546001600160a01b0316331461146b5760405162461bcd60e51b81526004016109049061456f565b610f3781612a45565b600061096182612aae565b61148a335b836122e3565b6114a65760405162461bcd60e51b8152600401610904906144c3565b61125984848484612b4c565b609b54600160a01b900460ff16156114fb5760405162461bcd60e51b815260206004820152600c60248201526b4552525f4e4f545f5341464560a01b6044820152606401610904565b609b805460ff60a01b1916600160a01b17905560405163520a263360e11b8152336004820181905290600090309063a4144c66906024016020604051808303816000875af1158015611551573d6000803e3d6000fd5b505050506040513d601f19601f820116820180604052508101906115759190614515565b90506000670de0b6b3a764000082609b60009054906101000a90046001600160a01b03166001600160a01b0316634bbdf4da6040518163ffffffff1660e01b8152600401602060405180830381865afa1580156115d6573d6000803e3d6000fd5b505050506040513d601f19601f820116820180604052508101906115fa9190614515565b611604919061452e565b61160e919061454d565b90506000670de0b6b3a764000083609854611629919061452e565b611633919061454d565b905060008161164284866145e4565b61164c91906145e4565b90506000811161168f5760405162461bcd60e51b815260206004820152600e60248201526d11549497d393d517d49155d0549160921b6044820152606401610904565b6000856001600160a01b03168260405160006040518083038185875af1925050503d80600081146116dc576040519150601f19603f3d011682016040523d82523d6000602084013e6116e1565b606091505b505090506000609b60009054906101000a90046001600160a01b03166001600160a01b031663f7260d3e6040518163ffffffff1660e01b8152600401602060405180830381865afa15801561173a573d6000803e3d6000fd5b505050506040513d601f19601f8201168201806040525081019061175e91906145fb565b6001600160a01b03168560405160006040518083038185875af1925050503d80600081146117a8576040519150601f19603f3d011682016040523d82523d6000602084013e6117ad565b606091505b50506097546040519192506000916001600160a01b039091169086908381818185875af1925050503d8060008114611801576040519150601f19603f3d011682016040523d82523d6000602084013e611806565b606091505b50506001600160a01b0389166000908152609c6020526040812060020180549293508992909190611838908490613eb0565b90915550506001600160a01b0388166000908152609c602052604081206003018054869290611868908490613eb0565b90915550506001600160a01b0388166000908152609c6020526040812060040180549161189483614618565b9190505550876001600160a01b03167fe05c92009ad7a2dc1d087bac1908f1723f0ac35037a1942e0cc36771cd688333876040516118d491815260200190565b60405180910390a2876001600160a01b03167f97fbf4a315b9911bf54253961208dd75da3aae82429cab8a67f05e2e1cf627008660405161191791815260200190565b60405180910390a2876001600160a01b03167f805346440fb3a5be700772454d056a0de7c6c6651e206d1d547bff0f733932498560405161195a91815260200190565b60405180910390a282801561196c5750815b80156119755750805b6119b75760405162461bcd60e51b815260206004820152601360248201527211549497d5d2551211149155d7d19052531151606a1b6044820152606401610904565b5050609b805460ff60a01b19169055505050505050565b60606119d982611cca565b60006119f060408051602081019091526000815290565b603a549091506001600160a01b0316611a3c576000815111611a215760405180602001604052806000815250610be0565b80611a2b84611db2565b604051602001610b5a929190614631565b603a546040516344a5a61760e11b8152600481018590526001600160a01b039091169063894b4c2e90602401610b9b565b6097546000906001600160a01b03163314611a9a5760405162461bcd60e51b81526004016109049061456f565b81600003611add5760405162461bcd60e51b815260206004820152601060248201526f4552525f43414e545f42455f5a45524f60801b6044820152606401610904565b506000818152609f60205260409020805460ff1916600117905590565b6000611b0583611cca565b5060009182526036602090815260408084206001600160a01b0393909316845291905290205490565b60606000611b4760408051602081019091526000815290565b603a549091506001600160a01b0316611ba7576000815111611b785760405180602001604052806000815250611c22565b80611b8230612bbf565b604051602001611b93929190614660565b604051602081830303815290604052611c22565b603a60009054906101000a90046001600160a01b03166001600160a01b031663725fa09c6040518163ffffffff1660e01b8152600401600060405180830381865afa158015611bfa573d6000803e3d6000fd5b505050506040513d6000823e601f3d908101601f19168201604052611c229190810190614455565b91505090565b60006001600160e01b031982166301ffc9a760e01b1480611c5957506001600160e01b03198216630354d60560e61b145b80611c7457506001600160e01b031982166380ac58cd60e01b145b80611c8f57506001600160e01b031982166370b0048160e11b145b80611caa57506001600160e01b0319821663780e9d6360e01b145b8061096157506001600160e01b03198216635b5e139f60e01b1492915050565b611cd381612bd5565b610f375760405162461bcd60e51b8152602060048201526019602482015278115490cccd4c8d4e881a5b9d985b1a59081d1bdad95b881251603a1b6044820152606401610904565b600081815260386020526040902054603780548492908110611d3f57611d3f614326565b6000918252602090912060069091020160040180546001600160a01b0319166001600160a01b0392831617905581908316611d7982611020565b6001600160a01b03167f8c5be1e5ebec7d5bd14f71427d1e84f3dd0314c0f7b2291e5b200ac8c7c3b92560405160405180910390a45050565b60606000611dbf83612c21565b600101905060008167ffffffffffffffff811115611ddf57611ddf6140da565b6040519080825280601f01601f191660200182016040528015611e09576020820181803683370190505b5090508181016020015b600019016f181899199a1a9b1b9c1cb0b131b232b360811b600a86061a8153600a8504945084611e1357509392505050565b6000611e518385611afa565b9050611e5d84846122e3565b158015611e6c57506000198114155b156112595781811015611ec15760405162461bcd60e51b815260206004820152601f60248201527f455243333532353a20696e73756666696369656e7420616c6c6f77616e6365006044820152606401610904565b6112598385611ed085856145e4565b6127e6565b6000610961612cf9565b6001600160a01b038416611f3f5760405162461bcd60e51b815260206004820152602160248201527f455243333532353a206d696e7420746f20746865207a65726f206164647265736044820152607360f81b6064820152608401610904565b82600003611f995760405162461bcd60e51b815260206004820152602160248201527f455243333532353a2063616e6e6f74206d696e74207a65726f20746f6b656e496044820152601960fa1b6064820152608401610904565b611fa283612bd5565b15611fef5760405162461bcd60e51b815260206004820152601d60248201527f455243333532353a20746f6b656e20616c7265616479206d696e7465640000006044820152606401610904565b611fff6000856000868686612d14565b61200a848484612d51565b6120148382612e17565b6112596000856000868686612e8a565b61202d83612bd5565b6120895760405162461bcd60e51b815260206004820152602760248201527f455243333532353a207472616e736665722066726f6d20696e76616c696420746044820152661bdad95b88125160ca1b6064820152608401610904565b61209282612bd5565b6120ec5760405162461bcd60e51b815260206004820152602560248201527f455243333532353a207472616e7366657220746f20696e76616c696420746f6b604482015264195b88125160da1b6064820152608401610904565b60008381526038602052604081205460378054909190811061211057612110614326565b906000526020600020906006020190506000603760386000868152602001908152602001600020548154811061214857612148614326565b9060005260206000209060060201905082826002015410156121bf5760405162461bcd60e51b815260206004820152602a60248201527f455243333532353a20696e73756666696369656e742062616c616e636520666f60448201526939103a3930b739b332b960b11b6064820152608401610904565b806001015482600101541461222d5760405162461bcd60e51b815260206004820152602e60248201527f455243333532353a207472616e7366657220746f20746f6b656e20776974682060448201526d191a5999995c995b9d081cdb1bdd60921b6064820152608401610904565b600380830154908201546001840154612258926001600160a01b039081169216908890889088612d14565b8282600201600082825461226c91906145e4565b92505081905550828160020160008282546122879190613eb0565b90915550506040518381528490869060008051602061484f8339815191529060200160405180910390a36003808301549082015460018401546122dc926001600160a01b039081169216908890889088612e8a565b5050505050565b60006122ee82611cca565b60006122f983611020565b9050806001600160a01b0316846001600160a01b031614806123205750612320818561082a565b80610c215750836001600160a01b031661233984610a1e565b6001600160a01b031614949350505050565b826001600160a01b031661235e82611020565b6001600160a01b0316146123c05760405162461bcd60e51b8152602060048201526024808201527f455243333532353a207472616e736665722066726f6d20696e76616c6964206f6044820152633bb732b960e11b6064820152608401610904565b6001600160a01b0382166124245760405162461bcd60e51b815260206004820152602560248201527f455243333532353a207472616e7366657220746f20746865207a65726f206164604482015264647265737360d81b6064820152608401610904565b600061242f82610c5a565b9050600061243c8361130b565b905061244c858585868686612d14565b612457600084611d1b565b61246083612e9b565b61246a8584612f37565b6124748484613058565b82846001600160a01b0316866001600160a01b03167fddf252ad1be2c89b69c2b068fc378daa952ba7f163c4a11628f55a4df523b3ef60405160405180910390a46122dc858585868686612e8a565b6124cc33611484565b6125305760405162461bcd60e51b815260206004820152602f60248201527f455243333532353a2063616c6c6572206973206e6f7420746f6b656e206f776e60448201526e195c881b9bdc88185c1c1c9bdd9959608a1b6064820152608401610904565b61135e82826130e1565b61254381611cca565b60008181526038602052604081205460378054909190811061256757612567614326565b600091825260208220600360069092020190810154600182015460028301549294506001600160a01b03909116929091906125a790849087818686612d14565b6125b085612e9b565b6125ba8386612f37565b6125c3856131ef565b60008560008051602061484f833981519152836040516125e591815260200190565b60405180910390a3600082867fe4f48c240d3b994948aa54f3e2f5fca59263dfe1d52b6e4cf39a5d249b5ccb6560405160405180910390a460405185906000906001600160a01b038616907fddf252ad1be2c89b69c2b068fc378daa952ba7f163c4a11628f55a4df523b3ef908390a46122dc8360008760008686612e8a565b6000838152609d6020526040812054908190036126825750505050565b60008061268e86612bd5565b6126995760006126f9565b604051631398fee160e31b8152600481018790523090639cc7f70890602401602060405180830381865afa1580156126d5573d6000803e3d6000fd5b505050506040513d601f19601f820116820180604052508101906126f99190614515565b905060006127078286613eb0565b905080612714868661452e565b61271e919061454d565b92508061272b838661452e565b612735919061454d565b6000978852609d602052604080892091909155958752505092909320919091555050565b60985460408051918252602082018390527f084d7536bcea784fc97ae33946b3efaaaedc28d728e856ef970a820d14748bfe910160405180910390a1609855565b6066546000901580159061096157506000828152606760205260409020546066805484929081106127cd576127cd614326565b9060005260206000209060020201600001541492915050565b6001600160a01b03821661284f5760405162461bcd60e51b815260206004820152602a60248201527f455243333532353a20617070726f76652076616c756520746f20746865207a65604482015269726f206164647265737360b01b6064820152608401610904565b61285982846133fd565b6128bf5760008381526038602052604090205460378054909190811061288157612881614326565b60009182526020808320600692909202909101600501805460018101825590835291200180546001600160a01b0319166001600160a01b0384161790555b60008381526036602090815260408083206001600160a01b038616808552908352928190208490555183815285917f621b050de0ad08b51d19b48b3e6df75348c4de6bdd93e81b252ca62e28265b1b91015b60405180910390a3505050565b816001600160a01b0316836001600160a01b03160361297f5760405162461bcd60e51b815260206004820152601a60248201527f455243333532353a20617070726f766520746f2063616c6c65720000000000006044820152606401610904565b6001600160a01b0383811660008181526039602090815260408083209487168084526002909501825291829020805460ff191686151590811790915591519182527f17307eab39ab6107e8899845ad3d59bd9653f200f220920489ca2b5937696c319101612911565b609a839055609b80546001600160a01b0319166001600160a01b038316179055612a1182612a45565b610af06658d15e17628000612759565b610af08383836134d0565b600080612a37613502565b9050610c2185828686611edf565b609754604080516001600160a01b03928316815291831660208301527f3eadceefe02aa6afb5514ad1b2ab3f21eb26dd571b170168413057c70615606b910160405180910390a1609780546001600160a01b0319166001600160a01b0392909216919091179055565b6000806000612abc8461350c565b915091506000805b8351811015612b43576000848281518110612ae157612ae1614326565b602002602001015190506000848381518110612aff57612aff614326565b602002602001015190506000612b158383613767565b9050612b218186613eb0565b9450612b2d83826137ae565b5050508080612b3b90614618565b915050612ac4565b50949350505050565b612b5784848461234b565b612b63848484846137d5565b6112595760405162461bcd60e51b815260206004820152602760248201527f455243333532353a207472616e7366657220746f206e6f6e204552433732315260448201526632b1b2b4bb32b960c91b6064820152608401610904565b60606109616001600160a01b038316601461398d565b603754600090158015906109615750600082815260386020526040902054603780548492908110612c0857612c08614326565b9060005260206000209060060201600001541492915050565b60008072184f03e93ff9f4daa797ed6e38ed64bf6a1f0160401b8310612c605772184f03e93ff9f4daa797ed6e38ed64bf6a1f0160401b830492506040015b6d04ee2d6d415b85acef81000000008310612c8c576d04ee2d6d415b85acef8100000000830492506020015b662386f26fc100008310612caa57662386f26fc10000830492506010015b6305f5e1008310612cc2576305f5e100830492506008015b6127108310612cd657612710830492506004015b60648310612ce8576064830492506002015b600a83106109615760010192915050565b6000612d0460375490565b612d0f906001613eb0565b905090565b6001600160a01b038616158015612d29575083155b8015612d3b5750612d398261279a565b155b15612d4957612d4982613b29565b505050505050565b6040805160c081018252838152602080820184905260008284018190526001600160a01b038716606084015260808301819052835181815291820190935260a08201529050612d9f81613bf0565b612da98484613058565b60405183906001600160a01b038616906000907fddf252ad1be2c89b69c2b068fc378daa952ba7f163c4a11628f55a4df523b3ef908290a4816000847fe4f48c240d3b994948aa54f3e2f5fca59263dfe1d52b6e4cf39a5d249b5ccb6560405160405180910390a450505050565b600082815260386020526040902054603780548392908110612e3b57612e3b614326565b90600052602060002090600602016002016000828254612e5b9190613eb0565b9091555050604051818152829060009060008051602061484f8339815191529060200160405180910390a35050565b8315612d4957612d49848483612665565b600081815260386020526040812054603780549091908110612ebf57612ebf614326565b600091825260208220600560069092020190810154909250905b81811015611259576000836005018281548110612ef857612ef8614326565b60009182526020808320909101548783526036825260408084206001600160a01b03909216845291528120555080612f2f81614618565b915050612ed9565b600081815260386020526040812054603780549091908110612f5b57612f5b614326565b6000918252602080832060069290920290910160030180546001600160a01b0319166001600160a01b0394851617905591841681526039909152604081208054909190612faa906001906145e4565b90506000826000018281548110612fc357612fc3614326565b9060005260206000200154905060008360010160008681526020019081526020016000205490508184600001828154811061300057613000614326565b6000918252602080832090910192909255838152600186019091526040808220839055868252812055835484908061303a5761303a6146a4565b60019003818190600052602060002001600090559055505050505050565b60008181526038602052604090205460378054849290811061307c5761307c614326565b6000918252602080832060069290920290910160030180546001600160a01b0319166001600160a01b03948516179055939091168152603980845260408083208054858552600182810188529285208190559286529082018155825292902090910155565b6130ea82611cca565b60008281526038602052604081205460378054909190811061310e5761310e614326565b600091825260209091206006909102016003810154600182015460028301549293506001600160a01b0390911691848110156131985760405162461bcd60e51b815260206004820152602360248201527f455243333532353a206275726e2076616c756520657863656564732062616c616044820152626e636560e81b6064820152608401610904565b6131a8836000886000868a612d14565b848460020160008282546131bc91906145e4565b9091555050604051858152600090879060008051602061484f8339815191529060200160405180910390a3505050505050565b603754600090613201906001906145e4565b6000838152603860205260408120546037805493945090928490811061322957613229614326565b60009182526020918290206040805160c08101825260069093029091018054835260018101548385015260028101548383015260038101546001600160a01b03908116606085015260048201541660808401526005810180548351818702810187019094528084529394919360a0860193928301828280156132d457602002820191906000526020600020905b81546001600160a01b031681526001909101906020018083116132b6575b505050505081525050905080603783815481106132f3576132f3614326565b600091825260209182902083516006909202019081558282015160018201556040830151600282015560608301516003820180546001600160a01b039283166001600160a01b031991821617909155608085015160048401805491909316911617905560a08301518051919261337192600585019290910190613dc7565b5050815160009081526038602052604080822085905586825281205550603780548061339f5761339f6146a4565b60008281526020812060066000199093019283020181815560018101829055600281018290556003810180546001600160a01b03199081169091556004820180549091169055906133f36005830182613e2c565b5050905550505050565b60008181526038602052604081205460378054839290811061342157613421614326565b6000918252602082206005600690920201015491505b818110156134c557600084815260386020526040902054603780546001600160a01b0388169290811061346c5761346c614326565b9060005260206000209060060201600501828154811061348e5761348e614326565b6000918252602090912001546001600160a01b0316036134b357600192505050610961565b806134bd81614618565b915050613437565b506000949350505050565b60336134dc8482614700565b5060346134e98382614700565b506035805460ff191660ff929092169190911790555050565b6000612d0f612cf9565b606080600061352f846001600160a01b0316600090815260396020526040902090565b80546040805160208084028201810190925282815292935060009291849183018282801561357c57602002820191906000526020600020905b815481526020019060010190808311613568575b505050505090506000815167ffffffffffffffff81111561359f5761359f6140da565b6040519080825280602002602001820160405280156135c8578160200160208202803683370190505b50905081516000036136145760405162461bcd60e51b815260206004820152601560248201527422a9292faca7aaafa420ab22afa727afaa27a5a2a760591b6044820152606401610904565b60005b825181101561375b57600083828151811061363457613634614326565b602002602001015190506000306001600160a01b031663263f3e7e836040518263ffffffff1660e01b815260040161366e91815260200190565b602060405180830381865afa15801561368b573d6000803e3d6000fd5b505050506040513d601f19601f820116820180604052508101906136af9190614515565b604051631398fee160e31b8152600481018490529091506000903090639cc7f70890602401602060405180830381865afa1580156136f1573d6000803e3d6000fd5b505050506040513d601f19601f820116820180604052508101906137159190614515565b90506000613723828461452e565b90508086868151811061373857613738614326565b60200260200101818152505050505050808061375390614618565b915050613617565b50909590945092505050565b6000828152609d60205260408120546000609a548461378560995490565b61378f919061452e565b613799919061454d565b90506137a582826145e4565b95945050505050565b6000828152609d6020526040812080548392906137cc908490613eb0565b90915550505050565b60006001600160a01b0384163b1515801561385a57506040516301ffc9a760e01b8152630a85bd0160e11b60048201526001600160a01b038516906301ffc9a790602401602060405180830381865afa158015613836573d6000803e3d6000fd5b505050506040513d601f19601f8201168201806040525081019061385a91906147c0565b1561398257604051630a85bd0160e11b81526001600160a01b0385169063150b7a02906138919033908990889088906004016147dd565b6020604051808303816000875af19250505080156138cc575060408051601f3d908101601f191682019092526138c99181019061481a565b60015b613968573d8080156138fa576040519150601f19603f3d011682016040523d82523d6000602084013e6138ff565b606091505b5080516000036139605760405162461bcd60e51b815260206004820152602660248201527f4552433732313a207472616e7366657220746f206e6f6e20455243373231526560448201526531b2b4bb32b960d11b6064820152608401610904565b805181602001fd5b6001600160e01b031916630a85bd0160e11b149050610c21565b506001949350505050565b6060600061399c83600261452e565b6139a7906002613eb0565b67ffffffffffffffff8111156139bf576139bf6140da565b6040519080825280601f01601f1916602001820160405280156139e9576020820181803683370190505b509050600360fc1b81600081518110613a0457613a04614326565b60200101906001600160f81b031916908160001a905350600f60fb1b81600181518110613a3357613a33614326565b60200101906001600160f81b031916908160001a9053506000613a5784600261452e565b613a62906001613eb0565b90505b6001811115613ada576f181899199a1a9b1b9c1cb0b131b232b360811b85600f1660108110613a9657613a96614326565b1a60f81b828281518110613aac57613aac614326565b60200101906001600160f81b031916908160001a90535060049490941c93613ad381614837565b9050613a65565b508315610be05760405162461bcd60e51b815260206004820181905260248201527f537472696e67733a20686578206c656e67746820696e73756666696369656e746044820152606401610904565b613b328161279a565b15613b925760405162461bcd60e51b815260206004820152602a60248201527f45524333353235536c6f74456e756d657261626c653a20736c6f7420616c72656044820152696164792065786973747360b01b6064820152608401610904565b604080518082018252828152815160008082526020828101909452928201529050613bbc81613d42565b816000807fe4f48c240d3b994948aa54f3e2f5fca59263dfe1d52b6e4cf39a5d249b5ccb6560405160405180910390a45050565b603780548251600090815260386020908152604080832084905560018401855593909152835160069092027f42a7b7dd785cd69714a189dffb3fd7d7174edc9ece837694ce50f7078f7c31ae8101928355818501517f42a7b7dd785cd69714a189dffb3fd7d7174edc9ece837694ce50f7078f7c31af820155928401517f42a7b7dd785cd69714a189dffb3fd7d7174edc9ece837694ce50f7078f7c31b084015560608401517f42a7b7dd785cd69714a189dffb3fd7d7174edc9ece837694ce50f7078f7c31b1840180546001600160a01b039283166001600160a01b03199182161790915560808601517f42a7b7dd785cd69714a189dffb3fd7d7174edc9ece837694ce50f7078f7c31b28601805491909316911617905560a084015180518594611259937f42a7b7dd785cd69714a189dffb3fd7d7174edc9ece837694ce50f7078f7c31b3909101920190613dc7565b60668054825160009081526067602090815260408220839055600183018455929052825160029091027f46501879b8ca8525e8c2fd519e2fbfcfa2ebea26501294aa02cbfcfb12e9435481019182558284015180518594611259937f46501879b8ca8525e8c2fd519e2fbfcfa2ebea26501294aa02cbfcfb12e9435501920190613e4a565b828054828255906000526020600020908101928215613e1c579160200282015b82811115613e1c57825182546001600160a01b0319166001600160a01b03909116178255602090920191600190910190613de7565b50613e28929150613e85565b5090565b5080546000825590600052602060002090810190610f379190613e85565b828054828255906000526020600020908101928215613e1c579160200282015b82811115613e1c578251825591602001919060010190613e6a565b5b80821115613e285760008155600101613e86565b634e487b7160e01b600052601160045260246000fd5b60008219821115613ec357613ec3613e9a565b500190565b60008060408385031215613edb57600080fd5b50508035926020909101359150565b6001600160e01b031981168114610f3757600080fd5b600060208284031215613f1257600080fd5b8135610be081613eea565b60005b83811015613f38578181015183820152602001613f20565b838111156112595750506000910152565b60008151808452613f61816020860160208601613f1d565b601f01601f19169290920160200192915050565b602081526000610be06020830184613f49565b600060208284031215613f9a57600080fd5b5035919050565b6001600160a01b0381168114610f3757600080fd5b60008060408385031215613fc957600080fd5b8235613fd481613fa1565b946020939093013593505050565b600080600060608486031215613ff757600080fd5b83359250602084013561400981613fa1565b929592945050506040919091013590565b60008060006060848603121561402f57600080fd5b833561403a81613fa1565b9250602084013561400981613fa1565b60008060006060848603121561405f57600080fd5b505081359360208301359350604090920135919050565b60006020828403121561408857600080fd5b8135610be081613fa1565b8015158114610f3757600080fd5b600080604083850312156140b457600080fd5b82356140bf81613fa1565b915060208301356140cf81614093565b809150509250929050565b634e487b7160e01b600052604160045260246000fd5b604051601f8201601f1916810167ffffffffffffffff81118282101715614119576141196140da565b604052919050565b600067ffffffffffffffff82111561413b5761413b6140da565b50601f01601f191660200190565b600061415c61415784614121565b6140f0565b905082815283838301111561417057600080fd5b828260208301376000602084830101529392505050565b600082601f83011261419857600080fd5b610be083833560208501614149565b60008060008060008060c087890312156141c057600080fd5b863567ffffffffffffffff808211156141d857600080fd5b6141e48a838b01614187565b975060208901359150808211156141fa57600080fd5b5061420789828a01614187565b955050604087013560ff8116811461421e57600080fd5b935060608701359250608087013561423581613fa1565b915060a087013561424581613fa1565b809150509295509295509295565b6000806000806080858703121561426957600080fd5b843561427481613fa1565b9350602085013561428481613fa1565b925060408501359150606085013567ffffffffffffffff8111156142a757600080fd5b8501601f810187136142b857600080fd5b6142c787823560208401614149565b91505092959194509250565b600080604083850312156142e657600080fd5b8235915060208301356140cf81613fa1565b6000806040838503121561430b57600080fd5b823561431681613fa1565b915060208301356140cf81613fa1565b634e487b7160e01b600052603260045260246000fd5b600181811c9082168061435057607f821691505b60208210810361437057634e487b7160e01b600052602260045260246000fd5b50919050565b60208082526022908201527f455243333532353a20617070726f76616c20746f2063757272656e74206f776e60408201526132b960f11b606082015260800190565b60208082526039908201527f455243333532353a20617070726f76652063616c6c6572206973206e6f74206f60408201527f776e6572206e6f7220617070726f76656420666f7220616c6c00000000000000606082015260800190565b60008351614427818460208801613f1d565b64736c6f742f60d81b9083019081528351614449816005840160208801613f1d565b01600501949350505050565b60006020828403121561446757600080fd5b815167ffffffffffffffff81111561447e57600080fd5b8201601f8101841361448f57600080fd5b805161449d61415782614121565b8181528560208385010111156144b257600080fd5b6137a5826020830160208601613f1d565b60208082526032908201527f455243333532353a207472616e736665722063616c6c6572206973206e6f74206040820152711bdddb995c881b9bdc88185c1c1c9bdd995960721b606082015260800190565b60006020828403121561452757600080fd5b5051919050565b600081600019048311821515161561454857614548613e9a565b500290565b60008261456a57634e487b7160e01b600052601260045260246000fd5b500490565b6020808252600f908201526e22a9292fa727aa2fa6a0a720a3a2a960891b604082015260600190565b6001600160a01b0385811682528416602082015260606040820181905281018290526000828460808401376000608084840101526080601f19601f850116830101905095945050505050565b6000828210156145f6576145f6613e9a565b500390565b60006020828403121561460d57600080fd5b8151610be081613fa1565b60006001820161462a5761462a613e9a565b5060010190565b60008351614643818460208801613f1d565b835190830190614657818360208801613f1d565b01949350505050565b60008351614672818460208801613f1d565b68636f6e74726163742f60b81b9083019081528351614698816009840160208801613f1d565b01600901949350505050565b634e487b7160e01b600052603160045260246000fd5b601f821115610af057600081815260208120601f850160051c810160208610156146e15750805b601f850160051c820191505b81811015612d49578281556001016146ed565b815167ffffffffffffffff81111561471a5761471a6140da565b61472e81614728845461433c565b846146ba565b602080601f831160018114614763576000841561474b5750858301515b600019600386901b1c1916600185901b178555612d49565b600085815260208120601f198616915b8281101561479257888601518255948401946001909101908401614773565b50858210156147b05787850151600019600388901b60f8161c191681555b5050505050600190811b01905550565b6000602082840312156147d257600080fd5b8151610be081614093565b6001600160a01b038581168252841660208201526040810183905260806060820181905260009061481090830184613f49565b9695505050505050565b60006020828403121561482c57600080fd5b8151610be081613eea565b60008161484657614846613e9a565b50600019019056fe0b2aac84f3ec956911fd78eae5311062972ff949f38412e8da39069d9f068cc6a2646970667358221220744fd79a8df518d0a2812207863dd39580cb89640d9d88f0cae32796acbde0fe64736f6c634300080f0033a26469706673582212208491311a42add7b6de61d91d8347e354785fba2c93cd8b82399c433f11e1fc6864736f6c634300080f0033",
  "linkReferences": {},
  "deployedLinkReferences": {}
}