{
  "_format": "hh-sol-artifact-1",
  "contractName": "Factory",
  "sourceName": "contracts/Factory.sol",
  "abi": [
    {
      "anonymous": false,
      "inputs": [
        {
          "indexed": true,
          "internalType": "address",
          "name": "previousOwner",
          "type": "address"
        },
        {
          "indexed": true,
          "internalType": "address",
          "name": "newOwner",
          "type": "address"
        }
      ],
      "name": "OwnershipTransferred",
      "type": "event"
    },
    {
      "inputs": [
        {
          "internalType": "address",
          "name": "",
          "type": "address"
        }
      ],
      "name": "isDimensionX",
      "outputs": [
        {
          "internalType": "bool",
          "name": "",
          "type": "bool"
        }
      ],
      "stateMutability": "view",
      "type": "function"
    },
    {
      "inputs": [
        {
          "internalType": "string",
          "name": "name_",
          "type": "string"
        },
        {
          "internalType": "string",
          "name": "symbol_",
          "type": "string"
        },
        {
          "internalType": "uint8",
          "name": "decimals_",
          "type": "uint8"
        },
        {
          "internalType": "uint256",
          "name": "shareSupply_",
          "type": "uint256"
        },
        {
          "internalType": "address",
          "name": "manager_",
          "type": "address"
        }
      ],
      "name": "newDimensionX",
      "outputs": [
        {
          "internalType": "address",
          "name": "",
          "type": "address"
        }
      ],
      "stateMutability": "nonpayable",
      "type": "function"
    },
    {
      "inputs": [],
      "name": "owner",
      "outputs": [
        {
          "internalType": "address",
          "name": "",
          "type": "address"
        }
      ],
      "stateMutability": "view",
      "type": "function"
    },
    {
      "inputs": [],
      "name": "platform",
      "outputs": [
        {
          "internalType": "address",
          "name": "",
          "type": "address"
        }
      ],
      "stateMutability": "view",
      "type": "function"
    },
    {
      "inputs": [],
      "name": "renounceOwnership",
      "outputs": [],
      "stateMutability": "nonpayable",
      "type": "function"
    },
    {
      "inputs": [
        {
          "internalType": "address",
          "name": "platform_",
          "type": "address"
        }
      ],
      "name": "setPlatform",
      "outputs": [],
      "stateMutability": "nonpayable",
      "type": "function"
    },
    {
      "inputs": [
        {
          "internalType": "address",
          "name": "newOwner",
          "type": "address"
        }
      ],
      "name": "transferOwnership",
      "outputs": [],
      "stateMutability": "nonpayable",
      "type": "function"
    }
  ],
  "bytecode": "0x608060405234801561001057600080fd5b5061002d61002261003260201b60201c565b61003a60201b60201c565b6100fe565b600033905090565b60008060009054906101000a900473ffffffffffffffffffffffffffffffffffffffff169050816000806101000a81548173ffffffffffffffffffffffffffffffffffffffff021916908373ffffffffffffffffffffffffffffffffffffffff1602179055508173ffffffffffffffffffffffffffffffffffffffff168173ffffffffffffffffffffffffffffffffffffffff167f8be0079c531659141344cd1fd0a4f28419497f9722a3daafe3b4186f6b6457e060405160405180910390a35050565b619dcf8061010d6000396000f3fe608060405234801561001057600080fd5b506004361061007d5760003560e01c8063715018a61161005b578063715018a6146100ec5780637da5f41b146100f65780638da5cb5b14610126578063f2fde38b146101445761007d565b80633bcf7f2b146100825780634bde38c8146100b25780636945c5ea146100d0575b600080fd5b61009c6004803603810190610097919061087b565b610160565b6040516100a9919061093d565b60405180910390f35b6100ba610358565b6040516100c7919061093d565b60405180910390f35b6100ea60048036038101906100e59190610958565b61037e565b005b6100f461041a565b005b610110600480360381019061010b9190610958565b61042e565b60405161011d91906109a0565b60405180910390f35b61012e61044e565b60405161013b919061093d565b60405180910390f35b61015e60048036038101906101599190610958565b610477565b005b6000610176676972181a9444f87360c01b6104fa565b61018a67d12e8154fce73a0060c01b6104fa565b61019e67e7a560e21606898b60c01b6104fa565b60006040516101ac90610647565b604051809103906000f0801580156101c8573d6000803e3d6000fd5b5090506101df6729246b0166ae165a60c01b6104fa565b6101f3676acd905614f5d5bd60c01b6104fa565b8073ffffffffffffffffffffffffffffffffffffffff1663a3334e2d8888888888600260009054906101000a900473ffffffffffffffffffffffffffffffffffffffff166040518763ffffffff1660e01b815260040161025896959493929190610a61565b600060405180830381600087803b15801561027257600080fd5b505af1158015610286573d6000803e3d6000fd5b5050505061029e67209658285fe58cf660c01b6104fa565b6102b2676fee0cb20409a49760c01b6104fa565b60008190506102cb67a08e49582c10abf960c01b6104fa565b60018060008373ffffffffffffffffffffffffffffffffffffffff1673ffffffffffffffffffffffffffffffffffffffff16815260200190815260200160002060006101000a81548160ff021916908315150217905550610336674854cc959f20b09c60c01b6104fa565b61034a67892dfcf1ef3c36be60c01b6104fa565b809250505095945050505050565b600260009054906101000a900473ffffffffffffffffffffffffffffffffffffffff1681565b61039267aba4037fa0acad5360c01b6104fa565b61039a6104fd565b6103ae6743d26ec280e104d060c01b6104fa565b6103c267ec97d91fd9c45dfc60c01b6104fa565b6103d667f4600a204e949d8060c01b6104fa565b80600260006101000a81548173ffffffffffffffffffffffffffffffffffffffff021916908373ffffffffffffffffffffffffffffffffffffffff16021790555050565b6104226104fd565b61042c600061057b565b565b60016020528060005260406000206000915054906101000a900460ff1681565b60008060009054906101000a900473ffffffffffffffffffffffffffffffffffffffff16905090565b61047f6104fd565b600073ffffffffffffffffffffffffffffffffffffffff168173ffffffffffffffffffffffffffffffffffffffff16036104ee576040517f08c379a00000000000000000000000000000000000000000000000000000000081526004016104e590610b42565b60405180910390fd5b6104f78161057b565b50565b50565b61050561063f565b73ffffffffffffffffffffffffffffffffffffffff1661052361044e565b73ffffffffffffffffffffffffffffffffffffffff1614610579576040517f08c379a000000000000000000000000000000000000000000000000000000000815260040161057090610bae565b60405180910390fd5b565b60008060009054906101000a900473ffffffffffffffffffffffffffffffffffffffff169050816000806101000a81548173ffffffffffffffffffffffffffffffffffffffff021916908373ffffffffffffffffffffffffffffffffffffffff1602179055508173ffffffffffffffffffffffffffffffffffffffff168173ffffffffffffffffffffffffffffffffffffffff167f8be0079c531659141344cd1fd0a4f28419497f9722a3daafe3b4186f6b6457e060405160405180910390a35050565b600033905090565b6191cb80610bcf83390190565b6000604051905090565b600080fd5b600080fd5b600080fd5b600080fd5b6000601f19601f8301169050919050565b7f4e487b7100000000000000000000000000000000000000000000000000000000600052604160045260246000fd5b6106bb82610672565b810181811067ffffffffffffffff821117156106da576106d9610683565b5b80604052505050565b60006106ed610654565b90506106f982826106b2565b919050565b600067ffffffffffffffff82111561071957610718610683565b5b61072282610672565b9050602081019050919050565b82818337600083830152505050565b600061075161074c846106fe565b6106e3565b90508281526020810184848401111561076d5761076c61066d565b5b61077884828561072f565b509392505050565b600082601f83011261079557610794610668565b5b81356107a584826020860161073e565b91505092915050565b600060ff82169050919050565b6107c4816107ae565b81146107cf57600080fd5b50565b6000813590506107e1816107bb565b92915050565b6000819050919050565b6107fa816107e7565b811461080557600080fd5b50565b600081359050610817816107f1565b92915050565b600073ffffffffffffffffffffffffffffffffffffffff82169050919050565b60006108488261081d565b9050919050565b6108588161083d565b811461086357600080fd5b50565b6000813590506108758161084f565b92915050565b600080600080600060a086880312156108975761089661065e565b5b600086013567ffffffffffffffff8111156108b5576108b4610663565b5b6108c188828901610780565b955050602086013567ffffffffffffffff8111156108e2576108e1610663565b5b6108ee88828901610780565b94505060406108ff888289016107d2565b935050606061091088828901610808565b925050608061092188828901610866565b9150509295509295909350565b6109378161083d565b82525050565b6000602082019050610952600083018461092e565b92915050565b60006020828403121561096e5761096d61065e565b5b600061097c84828501610866565b91505092915050565b60008115159050919050565b61099a81610985565b82525050565b60006020820190506109b56000830184610991565b92915050565b600081519050919050565b600082825260208201905092915050565b60005b838110156109f55780820151818401526020810190506109da565b83811115610a04576000848401525b50505050565b6000610a15826109bb565b610a1f81856109c6565b9350610a2f8185602086016109d7565b610a3881610672565b840191505092915050565b610a4c816107ae565b82525050565b610a5b816107e7565b82525050565b600060c0820190508181036000830152610a7b8189610a0a565b90508181036020830152610a8f8188610a0a565b9050610a9e6040830187610a43565b610aab6060830186610a52565b610ab8608083018561092e565b610ac560a083018461092e565b979650505050505050565b7f4f776e61626c653a206e6577206f776e657220697320746865207a65726f206160008201527f6464726573730000000000000000000000000000000000000000000000000000602082015250565b6000610b2c6026836109c6565b9150610b3782610ad0565b604082019050919050565b60006020820190508181036000830152610b5b81610b1f565b9050919050565b7f4f776e61626c653a2063616c6c6572206973206e6f7420746865206f776e6572600082015250565b6000610b986020836109c6565b9150610ba382610b62565b602082019050919050565b60006020820190508181036000830152610bc781610b8b565b905091905056fe60806040523480156200001157600080fd5b506191a980620000226000396000f3fe6080604052600436106102805760003560e01c80636352211e1161014f578063a3334e2d116100c1578063d85afce51161007a578063d85afce514610a45578063e345e0bc14610a82578063e8a3d48514610abf578063e985e9c514610aea578063ed08fa8014610b27578063fa16ab6c14610b52576102b3565b8063a3334e2d14610946578063a3fbbaae1461096f578063a4144c6614610998578063b88d4fde146109d5578063c3038e58146109f1578063c87b56dd14610a08576102b3565b80638b7afe2e116101135780638b7afe2e146108315780638cb0a5111461085c57806395d89b4114610878578063993bef8d146108a35780639cc7f708146108e0578063a22cb4651461091d576102b3565b80636352211e1461072657806370a082311461076357806372b0e8c0146107a0578063840f7113146107dd5780638587d8c014610808576102b3565b8063263f3e7e116101f357806342842e0e116101ac57806342842e0e14610611578063481c6a751461062d5780634bbdf4da146106585780634c25b94a146106835780634f6ccce7146106ac5780634f8a0f83146106e9576102b3565b8063263f3e7e146104d25780632afd01821461050f5780632f745c591461054c578063310ed7f01461058957806333049e0e146105a55780633e7e8669146105e6576102b3565b8063095ea7b311610245578063095ea7b3146103c557806309800d59146103e157806309c3dd871461041e5780630f485c021461045b57806318160ddd1461048b57806323b872dd146104b6576102b3565b8062cd0110146102b857806301f091c6146102f557806301ffc9a71461032057806306fdde031461035d578063081812fc14610388576102b3565b366102b35761029967f7468482f9dab99460c01b610b7d565b34609a60008282546102ab9190616b80565b925050819055005b600080fd5b3480156102c457600080fd5b506102df60048036038101906102da9190616c16565b610b80565b6040516102ec9190616c65565b60405180910390f35b34801561030157600080fd5b5061030a610c29565b6040516103179190616c65565b60405180910390f35b34801561032c57600080fd5b5061034760048036038101906103429190616cd8565b610c2f565b6040516103549190616d20565b60405180910390f35b34801561036957600080fd5b50610372610ca9565b60405161037f9190616dd4565b60405180910390f35b34801561039457600080fd5b506103af60048036038101906103aa9190616df6565b610d3b565b6040516103bc9190616e64565b60405180910390f35b6103df60048036038101906103da9190616eab565b610da6565b005b3480156103ed57600080fd5b5061040860048036038101906104039190616df6565b610ebd565b6040516104159190616d20565b60405180910390f35b34801561042a57600080fd5b5061044560048036038101906104409190616df6565b610edd565b6040516104529190616dd4565b60405180910390f35b61047560048036038101906104709190616eeb565b611039565b6040516104829190616c65565b60405180910390f35b34801561049757600080fd5b506104a0611085565b6040516104ad9190616c65565b60405180910390f35b6104d060048036038101906104cb9190616f3e565b611092565b005b3480156104de57600080fd5b506104f960048036038101906104f49190616df6565b6110f2565b6040516105069190616c65565b60405180910390f35b34801561051b57600080fd5b5061053660048036038101906105319190616f91565b61113d565b6040516105439190616c65565b60405180910390f35b34801561055857600080fd5b50610573600480360381019061056e9190616eab565b6114d8565b6040516105809190616c65565b60405180910390f35b6105a3600480360381019061059e9190616f91565b61158b565b005b3480156105b157600080fd5b506105cc60048036038101906105c79190616fe4565b6115ad565b6040516105dd959493929190617011565b60405180910390f35b3480156105f257600080fd5b506105fb6115e3565b6040516106089190617080565b60405180910390f35b61062b60048036038101906106269190616f3e565b6115fa565b005b34801561063957600080fd5b5061064261161a565b60405161064f9190616e64565b60405180910390f35b34801561066457600080fd5b5061066d611640565b60405161067a9190616c65565b60405180910390f35b34801561068f57600080fd5b506106aa60048036038101906106a59190616df6565b611646565b005b3480156106b857600080fd5b506106d360048036038101906106ce9190616df6565b6117be565b6040516106e09190616c65565b60405180910390f35b3480156106f557600080fd5b50610710600480360381019061070b9190616df6565b611836565b60405161071d9190616c65565b60405180910390f35b34801561073257600080fd5b5061074d60048036038101906107489190616df6565b611892565b60405161075a9190616e64565b60405180910390f35b34801561076f57600080fd5b5061078a60048036038101906107859190616fe4565b61196c565b6040516107979190616c65565b60405180910390f35b3480156107ac57600080fd5b506107c760048036038101906107c29190616df6565b611a29565b6040516107d49190616c65565b60405180910390f35b3480156107e957600080fd5b506107f2611a41565b6040516107ff91906170fa565b60405180910390f35b34801561081457600080fd5b5061082f600480360381019061082a9190616df6565b611a67565b005b34801561083d57600080fd5b50610846611c9e565b6040516108539190616c65565b60405180910390f35b61087660048036038101906108719190616eeb565b611ca4565b005b34801561088457600080fd5b5061088d611dbd565b60405161089a9190616dd4565b60405180910390f35b3480156108af57600080fd5b506108ca60048036038101906108c59190616df6565b611e4f565b6040516108d79190616c65565b60405180910390f35b3480156108ec57600080fd5b5061090760048036038101906109029190616df6565b611ec7565b6040516109149190616c65565b60405180910390f35b34801561092957600080fd5b50610944600480360381019061093f9190617141565b611f12565b005b34801561095257600080fd5b5061096d600480360381019061096891906172e2565b611f28565b005b34801561097b57600080fd5b5061099660048036038101906109919190616fe4565b61216a565b005b3480156109a457600080fd5b506109bf60048036038101906109ba9190616fe4565b6122e2565b6040516109cc9190616c65565b60405180910390f35b6109ef60048036038101906109ea9190617448565b612330565b005b3480156109fd57600080fd5b50610a06612392565b005b348015610a1457600080fd5b50610a2f6004803603810190610a2a9190616df6565b612d8e565b604051610a3c9190616dd4565b60405180910390f35b348015610a5157600080fd5b50610a6c6004803603810190610a679190616df6565b612ef3565b604051610a799190616c65565b60405180910390f35b348015610a8e57600080fd5b50610aa96004803603810190610aa491906174cb565b61313c565b604051610ab69190616c65565b60405180910390f35b348015610acb57600080fd5b50610ad46131a0565b604051610ae19190616dd4565b60405180910390f35b348015610af657600080fd5b50610b116004803603810190610b0c919061750b565b6132ef565b604051610b1e9190616d20565b60405180910390f35b348015610b3357600080fd5b50610b3c613386565b604051610b499190616c65565b60405180910390f35b348015610b5e57600080fd5b50610b67613393565b604051610b74919061756c565b60405180910390f35b50565b6000610b8b83611836565b8210610bcc576040517f08c379a0000000000000000000000000000000000000000000000000000000008152600401610bc3906175f9565b60405180910390fd5b6067606860008581526020019081526020016000205481548110610bf357610bf2617619565b5b90600052602060002090600202016001018281548110610c1657610c15617619565b5b9060005260206000200154905092915050565b609b5481565b60007f3b741b9e000000000000000000000000000000000000000000000000000000007bffffffffffffffffffffffffffffffffffffffffffffffffffffffff1916827bffffffffffffffffffffffffffffffffffffffffffffffffffffffff19161480610ca25750610ca1826133b9565b5b9050919050565b606060338054610cb890617677565b80601f0160208091040260200160405190810160405280929190818152602001828054610ce490617677565b8015610d315780601f10610d0657610100808354040283529160200191610d31565b820191906000526020600020905b815481529060010190602001808311610d1457829003601f168201915b5050505050905090565b6000610d468261362b565b6038603960008481526020019081526020016000205481548110610d6d57610d6c617619565b5b906000526020600020906006020160040160009054906101000a900473ffffffffffffffffffffffffffffffffffffffff169050919050565b6000610db182611892565b90508073ffffffffffffffffffffffffffffffffffffffff168373ffffffffffffffffffffffffffffffffffffffff1603610e21576040517f08c379a0000000000000000000000000000000000000000000000000000000008152600401610e189061771a565b60405180910390fd5b8073ffffffffffffffffffffffffffffffffffffffff16610e40613676565b73ffffffffffffffffffffffffffffffffffffffff161480610e6f5750610e6e81610e69613676565b6132ef565b5b610eae576040517f08c379a0000000000000000000000000000000000000000000000000000000008152600401610ea5906177ac565b60405180910390fd5b610eb8838361367e565b505050565b60a06020528060005260406000206000915054906101000a900460ff1681565b60606000610ee961375c565b9050600073ffffffffffffffffffffffffffffffffffffffff16603b60009054906101000a900473ffffffffffffffffffffffffffffffffffffffff1673ffffffffffffffffffffffffffffffffffffffff1603610f8f576000815111610f5f5760405180602001604052806000815250610f8a565b80610f6984613773565b604051602001610f7a929190617854565b6040516020818303038152906040525b611031565b603b60009054906101000a900473ffffffffffffffffffffffffffffffffffffffff1673ffffffffffffffffffffffffffffffffffffffff16636c037f8a846040518263ffffffff1660e01b8152600401610fea9190616c65565b600060405180830381865afa158015611007573d6000803e3d6000fd5b505050506040513d6000823e3d601f19601f8201168201806040525081019061103091906178f3565b5b915050919050565b600061104d611046613676565b8584613841565b6000611058856138eb565b905061106f8482611068886110f2565b60006138fc565b61107a858285613a32565b809150509392505050565b6000603880549050905090565b6110a361109d613676565b82613cef565b6110e2576040517f08c379a00000000000000000000000000000000000000000000000000000000081526004016110d9906179ae565b60405180910390fd5b6110ed838383613d8e565b505050565b60006110fd8261362b565b603860396000848152602001908152602001600020548154811061112457611123617619565b5b9060005260206000209060060201600101549050919050565b6000611153678c80c2b1c193c32860c01b613f33565b61116767ebd1ba312b46085760c01b613f33565b61117b674055257cc89baaee60c01b613f33565b60003073ffffffffffffffffffffffffffffffffffffffff1663263f3e7e866040518263ffffffff1660e01b81526004016111b69190616c65565b602060405180830381865afa1580156111d3573d6000803e3d6000fd5b505050506040513d601f19601f820116820180604052508101906111f791906179e3565b905061120d67b3c06738ec7ff13260c01b613f33565b61122167c22f380ce4bd071c60c01b613f33565b6112356720acfa94d8a937b660c01b613f33565b60a0600085815260200190815260200160002060009054906101000a900460ff168015611263575060008414155b6112a2576040517f08c379a000000000000000000000000000000000000000000000000000000000815260040161129990617a5c565b60405180910390fd5b6112b667b9e6b623e166af1860c01b613f33565b6112ca678f23475df21afa6e60c01b613f33565b6112de675e1d30d2703e6de060c01b613f33565b60008390506112f767e9164f8284e6e9c460c01b613f33565b61130b67cbfa83c9aa40a38c60c01b613f33565b60003073ffffffffffffffffffffffffffffffffffffffff16639cc7f708886040518263ffffffff1660e01b81526004016113469190616c65565b602060405180830381865afa158015611363573d6000803e3d6000fd5b505050506040513d601f19601f8201168201806040525081019061138791906179e3565b905061139d6778133b4a7c54f18a60c01b613f33565b6113b167f364f5590096eb3b60c01b613f33565b60008686856113c09190617a7c565b6113ca9190617b05565b90506113e0677fde0a6e32e270bc60c01b613f33565b6113f467e8570b4737b9949060c01b613f33565b6000611401338984613f36565b905061141767d4bd42c803498cdf60c01b613f33565b838314801561143657506114356759000dd7f5755ffc60c01b613f5a565b5b8061145157506114506710190c60c550931b60c01b613f65565b5b6114645761145f8985613f6c565b61146e565b61146d89614056565b5b61148267615302d6cb548d7d60c01b613f33565b611496675e6a03781d3185bb60c01b613f33565b6114a18982866141dc565b6114b5670d89ba06bc44abed60c01b613f33565b6114c967916d431c17da39b560c01b613f33565b80955050505050509392505050565b60006114e38361196c565b8210611524576040517f08c379a000000000000000000000000000000000000000000000000000000000815260040161151b90617ba8565b60405180910390fd5b603a60008473ffffffffffffffffffffffffffffffffffffffff1673ffffffffffffffffffffffffffffffffffffffff168152602001908152602001600020600001828154811061157857611577617619565b5b9060005260206000200154905092915050565b61159d611596613676565b8483613841565b6115a8838383613a32565b505050565b609d6020528060005260406000206000915090508060000154908060010154908060020154908060030154908060040154905085565b6000603560009054906101000a900460ff16905090565b61161583838360405180602001604052806000815250612330565b505050565b609860009054906101000a900473ffffffffffffffffffffffffffffffffffffffff1681565b60995481565b61165a679cdd56e275fc025460c01b6144b3565b61166e67b74d5435e281506a60c01b6144b3565b611682676bc51b5cbdc3d81160c01b6144b3565b611696677aaef1cf465f383a60c01b6144b3565b6116aa67f82903caa5d73da560c01b6144b3565b609860009054906101000a900473ffffffffffffffffffffffffffffffffffffffff1673ffffffffffffffffffffffffffffffffffffffff163373ffffffffffffffffffffffffffffffffffffffff161461173a576040517f08c379a000000000000000000000000000000000000000000000000000000000815260040161173190617c14565b60405180910390fd5b61174e6703a6a43a7a2d6a9c60c01b6144b3565b61176267e3b51986aac8984260c01b6144b3565b6117766777245ce0eb1011e060c01b6144b3565b61178a6776afbd47edec53f360c01b6144b3565b61179e678323c2c351928bdd60c01b6144b3565b6117b267a9b89ba7b07bac7e60c01b6144b3565b6117bb816144b6565b50565b60006117c8611085565b8210611809576040517f08c379a000000000000000000000000000000000000000000000000000000000815260040161180090617ca6565b60405180910390fd5b6038828154811061181d5761181c617619565b5b9060005260206000209060060201600001549050919050565b60006118418261454b565b61184e576000905061188d565b606760686000848152602001908152602001600020548154811061187557611874617619565b5b90600052602060002090600202016001018054905090505b919050565b600061189d8261362b565b60386039600084815260200190815260200160002054815481106118c4576118c3617619565b5b906000526020600020906006020160030160009054906101000a900473ffffffffffffffffffffffffffffffffffffffff169050600073ffffffffffffffffffffffffffffffffffffffff168173ffffffffffffffffffffffffffffffffffffffff1603611967576040517f08c379a000000000000000000000000000000000000000000000000000000000815260040161195e90617d12565b60405180910390fd5b919050565b60008073ffffffffffffffffffffffffffffffffffffffff168273ffffffffffffffffffffffffffffffffffffffff16036119dc576040517f08c379a00000000000000000000000000000000000000000000000000000000081526004016119d390617da4565b60405180910390fd5b603a60008373ffffffffffffffffffffffffffffffffffffffff1673ffffffffffffffffffffffffffffffffffffffff168152602001908152602001600020600001805490509050919050565b609e6020528060005260406000206000915090505481565b603b60009054906101000a900473ffffffffffffffffffffffffffffffffffffffff1681565b611a7b675ae06e8e863a768a60c01b613f33565b611a8f67b74d5435e281506a60c01b6144b3565b611aa3676bc51b5cbdc3d81160c01b6144b3565b611ab7677aaef1cf465f383a60c01b6144b3565b611acb67f82903caa5d73da560c01b6144b3565b609860009054906101000a900473ffffffffffffffffffffffffffffffffffffffff1673ffffffffffffffffffffffffffffffffffffffff163373ffffffffffffffffffffffffffffffffffffffff1614611b5b576040517f08c379a0000000000000000000000000000000000000000000000000000000008152600401611b5290617c14565b60405180910390fd5b611b6f6703a6a43a7a2d6a9c60c01b6144b3565b611b8367e3b51986aac8984260c01b6144b3565b611b97671671270a8055149360c01b613f33565b611bab6772a068b64977a43f60c01b613f33565b611bbf675e25727e423460ba60c01b613f33565b611bd367ef5934c578719ea260c01b613f33565b611be7671848cef173c490eb60c01b613f33565b60a0600082815260200190815260200160002060009054906101000a900460ff16611c47576040517f08c379a0000000000000000000000000000000000000000000000000000000008152600401611c3e90617e10565b60405180910390fd5b611c5b6783d408dcb306a3e460c01b613f33565b611c6f67f6deaa712ee0a5b760c01b613f33565b600060a0600083815260200190815260200160002060006101000a81548160ff02191690831515021790555050565b609a5481565b6000611caf84611892565b90508073ffffffffffffffffffffffffffffffffffffffff168373ffffffffffffffffffffffffffffffffffffffff1603611d1f576040517f08c379a0000000000000000000000000000000000000000000000000000000008152600401611d169061771a565b60405180910390fd5b8073ffffffffffffffffffffffffffffffffffffffff16611d3e613676565b73ffffffffffffffffffffffffffffffffffffffff161480611d6d5750611d6c81611d67613676565b6132ef565b5b611dac576040517f08c379a0000000000000000000000000000000000000000000000000000000008152600401611da3906177ac565b60405180910390fd5b611db78484846145a0565b50505050565b606060348054611dcc90617677565b80601f0160208091040260200160405190810160405280929190818152602001828054611df890617677565b8015611e455780601f10611e1a57610100808354040283529160200191611e45565b820191906000526020600020905b815481529060010190602001808311611e2857829003601f168201915b5050505050905090565b6000611e59613386565b8210611e9a576040517f08c379a0000000000000000000000000000000000000000000000000000000008152600401611e9190617ea2565b60405180910390fd5b60678281548110611eae57611ead617619565b5b9060005260206000209060020201600001549050919050565b6000611ed28261362b565b6038603960008481526020019081526020016000205481548110611ef957611ef8617619565b5b9060005260206000209060060201600201549050919050565b611f24611f1d613676565b8383614760565b5050565b611f3c67ca742632aed9dfb060c01b613f33565b611f506787796af613cc1eb860c01b6148cf565b611f6467638e86a86b48cfef60c01b6148cf565b611f7867ba363032bbec2e5060c01b6148cf565b611f8c67c19ee6b0ccccc74260c01b6148cf565b60001515609f60009054906101000a900460ff16151514611fe2576040517f08c379a0000000000000000000000000000000000000000000000000000000008152600401611fd990617f0e565b60405180910390fd5b611ff6671064d58a69f5dee960c01b6148cf565b61200a676af0163ae0abf57360c01b6148cf565b61201e67a9031d46f10a64f260c01b613f33565b612032673bb1aed9b590892560c01b613f33565b61204667e5f3ac21733dbc4460c01b613f33565b61205a6716cdd313e814b99160c01b613f33565b6120658383836148d2565b61207967c4b053a8d568aae660c01b613f33565b61208d6704d231fccc0b12d260c01b613f33565b6120988686866149c4565b6120ac671a03843bb7ff232660c01b613f33565b6120c067062cbf66fe66308960c01b613f33565b6120cc82600185613f36565b506120e167f85892bd7c77415660c01b6148cf565b6001609f60006101000a81548160ff0219169083151502179055506121106768a81d89cb85f87b60c01b6148cf565b612124670b70116652c9dcbb60c01b6148cf565b7f82a0f540be5e2257bf49933e1856d30557acb1b56563d276826692214e2485a0333060003660405161215a9493929190617f6c565b60405180910390a1505050505050565b61217e6733f1c155d11e344460c01b6144b3565b61219267b74d5435e281506a60c01b6144b3565b6121a6676bc51b5cbdc3d81160c01b6144b3565b6121ba677aaef1cf465f383a60c01b6144b3565b6121ce67f82903caa5d73da560c01b6144b3565b609860009054906101000a900473ffffffffffffffffffffffffffffffffffffffff1673ffffffffffffffffffffffffffffffffffffffff163373ffffffffffffffffffffffffffffffffffffffff161461225e576040517f08c379a000000000000000000000000000000000000000000000000000000000815260040161225590617c14565b60405180910390fd5b6122726703a6a43a7a2d6a9c60c01b6144b3565b61228667e3b51986aac8984260c01b6144b3565b61229a673250c9c0aeaea79160c01b6144b3565b6122ae67885801ea0112a41660c01b6144b3565b6122c267364115fefbca1c5660c01b6144b3565b6122d66706945023932c279360c01b6144b3565b6122df816149d4565b50565b60006122f86789bd44323d35f43a60c01b610b7d565b61230c67f8ae3b8fa96cc26a60c01b610b7d565b6123206726e31ed99bcbbe2960c01b610b7d565b61232982614ac3565b9050919050565b61234161233b613676565b83613cef565b612380576040517f08c379a0000000000000000000000000000000000000000000000000000000008152600401612377906179ae565b60405180910390fd5b61238c84848484614cd1565b50505050565b6123a667d049c4ea6d35792560c01b610b7d565b6123ba67ff16f29f6821856e60c01b610b7d565b6123ce67d505c43a6128226860c01b610b7d565b6123e267ac8da4215f5d978f60c01b610b7d565b6123f6672ae2225ba560dac460c01b610b7d565b60001515609c60149054906101000a900460ff1615151461244c576040517f08c379a000000000000000000000000000000000000000000000000000000000815260040161244390617ff8565b60405180910390fd5b612460676c5d0e17b0aae3de60c01b610b7d565b612474675e38bdf439d2e21060c01b610b7d565b6001609c60146101000a81548160ff0219169083151502179055506124a36774091516b9bac29e60c01b610b7d565b6124b767b27e7b14a3752bd560c01b610b7d565b6124cb676d59d6d76198b11e60c01b610b7d565b6124df6738318f7eac9680e260c01b610b7d565b6124f367a8fac0b41095d21d60c01b610b7d565b600033905061250c677a9df7a99f9a2c6d60c01b610b7d565b612520675d3297b4f8e69a8460c01b610b7d565b60003073ffffffffffffffffffffffffffffffffffffffff1663a4144c66836040518263ffffffff1660e01b815260040161255b9190616e64565b6020604051808303816000875af115801561257a573d6000803e3d6000fd5b505050506040513d601f19601f8201168201806040525081019061259e91906179e3565b90506125b467d5943b45816421cc60c01b610b7d565b6125c86726958bff784dc4f160c01b610b7d565b6000670de0b6b3a764000082609c60009054906101000a900473ffffffffffffffffffffffffffffffffffffffff1673ffffffffffffffffffffffffffffffffffffffff16634bbdf4da6040518163ffffffff1660e01b8152600401602060405180830381865afa158015612641573d6000803e3d6000fd5b505050506040513d601f19601f8201168201806040525081019061266591906179e3565b61266f9190617a7c565b6126799190617b05565b905061268f67e758b3061723536860c01b610b7d565b6126a367df1369625e905d8760c01b610b7d565b6000670de0b6b3a7640000836099546126bc9190617a7c565b6126c69190617b05565b90506126dc67021456000006960360c01b610b7d565b6126ef662dcd20a13e81a660c01b610b7d565b60008183856126fe9190618018565b6127089190618018565b905061271e678277a41da19239e960c01b610b7d565b612732676a9b7ee718508db160c01b610b7d565b61274667afa89c842ef85c5260c01b610b7d565b60008111612789576040517f08c379a000000000000000000000000000000000000000000000000000000000815260040161278090618098565b60405180910390fd5b61279d67b06aa7bebe34520d60c01b610b7d565b6127b1671c3b2124a4d7d10b60c01b610b7d565b6127c567c5b23614db501ada60c01b610b7d565b60008573ffffffffffffffffffffffffffffffffffffffff16826040516127eb906180e9565b60006040518083038185875af1925050503d8060008114612828576040519150601f19603f3d011682016040523d82523d6000602084013e61282d565b606091505b5050905061284567b6cf703a6142974160c01b610b7d565b61285967ed67492203e7adf360c01b610b7d565b6000609c60009054906101000a900473ffffffffffffffffffffffffffffffffffffffff1673ffffffffffffffffffffffffffffffffffffffff1663f7260d3e6040518163ffffffff1660e01b8152600401602060405180830381865afa1580156128c8573d6000803e3d6000fd5b505050506040513d601f19601f820116820180604052508101906128ec9190618113565b73ffffffffffffffffffffffffffffffffffffffff168560405161290f906180e9565b60006040518083038185875af1925050503d806000811461294c576040519150601f19603f3d011682016040523d82523d6000602084013e612951565b606091505b5050905061296967e8f7f989ab03ce4360c01b610b7d565b61297d67e617a9cd0567691360c01b610b7d565b6000609860009054906101000a900473ffffffffffffffffffffffffffffffffffffffff1673ffffffffffffffffffffffffffffffffffffffff16856040516129c5906180e9565b60006040518083038185875af1925050503d8060008114612a02576040519150601f19603f3d011682016040523d82523d6000602084013e612a07565b606091505b50509050612a1f6746fa2c78113ce98860c01b610b7d565b86609d60008a73ffffffffffffffffffffffffffffffffffffffff1673ffffffffffffffffffffffffffffffffffffffff1681526020019081526020016000206002016000828254612a719190616b80565b92505081905550612a8c67cf9b4933466bb16660c01b610b7d565b83609d60008a73ffffffffffffffffffffffffffffffffffffffff1673ffffffffffffffffffffffffffffffffffffffff1681526020019081526020016000206003016000828254612ade9190616b80565b92505081905550612af96703b4ce515bbe8cf160c01b610b7d565b609d60008973ffffffffffffffffffffffffffffffffffffffff1673ffffffffffffffffffffffffffffffffffffffff1681526020019081526020016000206004016000815480929190612b4c90618140565b9190505550612b656741826ed3b322867760c01b610b7d565b612b796762b1f60ed58717e660c01b610b7d565b8773ffffffffffffffffffffffffffffffffffffffff167fe05c92009ad7a2dc1d087bac1908f1723f0ac35037a1942e0cc36771cd68833387604051612bbf9190616c65565b60405180910390a2612bdb67de28ea8343ea115360c01b610b7d565b612bef675aa6fe500d9bca6b60c01b610b7d565b8773ffffffffffffffffffffffffffffffffffffffff167f97fbf4a315b9911bf54253961208dd75da3aae82429cab8a67f05e2e1cf6270086604051612c359190616c65565b60405180910390a2612c5167aa7c8f1330423ecd60c01b610b7d565b612c65679ea94dba371b3aa360c01b610b7d565b8773ffffffffffffffffffffffffffffffffffffffff167f805346440fb3a5be700772454d056a0de7c6c6651e206d1d547bff0f7339324985604051612cab9190616c65565b60405180910390a2612cc76765f54e1ceeba42d260c01b610b7d565b612cdb67e1f10aac8a84869760c01b610b7d565b612cef67a9da7714637fbdeb60c01b610b7d565b828015612cf95750815b8015612d025750805b612d41576040517f08c379a0000000000000000000000000000000000000000000000000000000008152600401612d38906181d4565b60405180910390fd5b612d55676190c34d6e47907860c01b610b7d565b5050505050505050612d7167f33aec307e506c5560c01b610b7d565b6000609c60146101000a81548160ff021916908315150217905550565b6060612d998261362b565b6000612da361375c565b9050600073ffffffffffffffffffffffffffffffffffffffff16603b60009054906101000a900473ffffffffffffffffffffffffffffffffffffffff1673ffffffffffffffffffffffffffffffffffffffff1603612e49576000815111612e195760405180602001604052806000815250612e44565b80612e2384613773565b604051602001612e349291906181f4565b6040516020818303038152906040525b612eeb565b603b60009054906101000a900473ffffffffffffffffffffffffffffffffffffffff1673ffffffffffffffffffffffffffffffffffffffff1663894b4c2e846040518263ffffffff1660e01b8152600401612ea49190616c65565b600060405180830381865afa158015612ec1573d6000803e3d6000fd5b505050506040513d6000823e3d601f19601f82011682018060405250810190612eea91906178f3565b5b915050919050565b6000612f09679faf2b86daccb09460c01b613f33565b612f1d67b74d5435e281506a60c01b6144b3565b612f31676bc51b5cbdc3d81160c01b6144b3565b612f45677aaef1cf465f383a60c01b6144b3565b612f5967f82903caa5d73da560c01b6144b3565b609860009054906101000a900473ffffffffffffffffffffffffffffffffffffffff1673ffffffffffffffffffffffffffffffffffffffff163373ffffffffffffffffffffffffffffffffffffffff1614612fe9576040517f08c379a0000000000000000000000000000000000000000000000000000000008152600401612fe090617c14565b60405180910390fd5b612ffd6703a6a43a7a2d6a9c60c01b6144b3565b61301167e3b51986aac8984260c01b6144b3565b61302567931ce69b7a1a28d060c01b613f33565b613039677c9bedca0da15b1560c01b613f33565b61304d6799a3c6d869443e4460c01b613f33565b61306167d73d19093f35769f60c01b613f33565b613075671ea5379d0e27279060c01b613f33565b600082036130b8576040517f08c379a00000000000000000000000000000000000000000000000000000000081526004016130af90618264565b60405180910390fd5b6130cc673dbff0eb0fe40ac460c01b613f33565b6130e067ef855b1d70583add60c01b613f33565b600160a0600084815260200190815260200160002060006101000a81548160ff0219169083151502179055506131206756eccb5adb54c05160c01b613f33565b613134670896edcb4ef2bfc760c01b613f33565b819050919050565b60006131478361362b565b6037600084815260200190815260200160002060008373ffffffffffffffffffffffffffffffffffffffff1673ffffffffffffffffffffffffffffffffffffffff16815260200190815260200160002054905092915050565b606060006131ac61375c565b9050600073ffffffffffffffffffffffffffffffffffffffff16603b60009054906101000a900473ffffffffffffffffffffffffffffffffffffffff1673ffffffffffffffffffffffffffffffffffffffff1603613252576000815111613222576040518060200160405280600081525061324d565b8061322c30614d2d565b60405160200161323d9291906182d0565b6040516020818303038152906040525b6132e9565b603b60009054906101000a900473ffffffffffffffffffffffffffffffffffffffff1673ffffffffffffffffffffffffffffffffffffffff1663725fa09c6040518163ffffffff1660e01b8152600401600060405180830381865afa1580156132bf573d6000803e3d6000fd5b505050506040513d6000823e3d601f19601f820116820180604052508101906132e891906178f3565b5b91505090565b6000603a60008473ffffffffffffffffffffffffffffffffffffffff1673ffffffffffffffffffffffffffffffffffffffff16815260200190815260200160002060020160008373ffffffffffffffffffffffffffffffffffffffff1673ffffffffffffffffffffffffffffffffffffffff16815260200190815260200160002060009054906101000a900460ff16905092915050565b6000606780549050905090565b609c60009054906101000a900473ffffffffffffffffffffffffffffffffffffffff1681565b60007f01ffc9a7000000000000000000000000000000000000000000000000000000007bffffffffffffffffffffffffffffffffffffffffffffffffffffffff1916827bffffffffffffffffffffffffffffffffffffffffffffffffffffffff1916148061348457507fd5358140000000000000000000000000000000000000000000000000000000007bffffffffffffffffffffffffffffffffffffffffffffffffffffffff1916827bffffffffffffffffffffffffffffffffffffffffffffffffffffffff1916145b806134ec57507f80ac58cd000000000000000000000000000000000000000000000000000000007bffffffffffffffffffffffffffffffffffffffffffffffffffffffff1916827bffffffffffffffffffffffffffffffffffffffffffffffffffffffff1916145b8061355457507fe1600902000000000000000000000000000000000000000000000000000000007bffffffffffffffffffffffffffffffffffffffffffffffffffffffff1916827bffffffffffffffffffffffffffffffffffffffffffffffffffffffff1916145b806135bc57507f780e9d63000000000000000000000000000000000000000000000000000000007bffffffffffffffffffffffffffffffffffffffffffffffffffffffff1916827bffffffffffffffffffffffffffffffffffffffffffffffffffffffff1916145b8061362457507f5b5e139f000000000000000000000000000000000000000000000000000000007bffffffffffffffffffffffffffffffffffffffffffffffffffffffff1916827bffffffffffffffffffffffffffffffffffffffffffffffffffffffff1916145b9050919050565b61363481614d5a565b613673576040517f08c379a000000000000000000000000000000000000000000000000000000000815260040161366a90617d12565b60405180910390fd5b50565b600033905090565b8160386039600084815260200190815260200160002054815481106136a6576136a5617619565b5b906000526020600020906006020160040160006101000a81548173ffffffffffffffffffffffffffffffffffffffff021916908373ffffffffffffffffffffffffffffffffffffffff160217905550808273ffffffffffffffffffffffffffffffffffffffff1661371683611892565b73ffffffffffffffffffffffffffffffffffffffff167f8c5be1e5ebec7d5bd14f71427d1e84f3dd0314c0f7b2291e5b200ac8c7c3b92560405160405180910390a45050565b606060405180602001604052806000815250905090565b60606000600161378284614daf565b01905060008167ffffffffffffffff8111156137a1576137a061718b565b5b6040519080825280601f01601f1916602001820160405280156137d35781602001600182028036833780820191505090505b509050600082602001820190505b600115613836578080600190039150507f3031323334353637383961626364656600000000000000000000000000000000600a86061a8153600a858161382a57613829617ad6565b5b049450600085036137e1575b819350505050919050565b600061384d838561313c565b90506138598484613cef565b15801561388657507fffffffffffffffffffffffffffffffffffffffffffffffffffffffffffffffff8114155b156138e557818110156138ce576040517f08c379a00000000000000000000000000000000000000000000000000000000081526004016138c59061834b565b60405180910390fd5b6138e4838584846138df9190618018565b6145a0565b5b50505050565b60006138f5614f02565b9050919050565b600073ffffffffffffffffffffffffffffffffffffffff168473ffffffffffffffffffffffffffffffffffffffff160361396b576040517f08c379a0000000000000000000000000000000000000000000000000000000008152600401613962906183dd565b60405180910390fd5b600083036139ae576040517f08c379a00000000000000000000000000000000000000000000000000000000081526004016139a59061846f565b60405180910390fd5b6139b783614d5a565b156139f7576040517f08c379a00000000000000000000000000000000000000000000000000000000081526004016139ee906184db565b60405180910390fd5b613a076000856000868686614f1d565b613a12848484614f90565b613a1c83826150dd565b613a2c600085600086868661516a565b50505050565b613a3b83614d5a565b613a7a576040517f08c379a0000000000000000000000000000000000000000000000000000000008152600401613a719061856d565b60405180910390fd5b613a8382614d5a565b613ac2576040517f08c379a0000000000000000000000000000000000000000000000000000000008152600401613ab9906185ff565b60405180910390fd5b60006038603960008681526020019081526020016000205481548110613aeb57613aea617619565b5b9060005260206000209060060201905060006038603960008681526020019081526020016000205481548110613b2457613b23617619565b5b906000526020600020906006020190508282600201541015613b7b576040517f08c379a0000000000000000000000000000000000000000000000000000000008152600401613b7290618691565b60405180910390fd5b8060010154826001015414613bc5576040517f08c379a0000000000000000000000000000000000000000000000000000000008152600401613bbc90618723565b60405180910390fd5b613c1f8260030160009054906101000a900473ffffffffffffffffffffffffffffffffffffffff168260030160009054906101000a900473ffffffffffffffffffffffffffffffffffffffff168787866001015488614f1d565b82826002016000828254613c339190618018565b9250508190555082816002016000828254613c4e9190616b80565b9250508190555083857f0b2aac84f3ec956911fd78eae5311062972ff949f38412e8da39069d9f068cc685604051613c869190616c65565b60405180910390a3613ce88260030160009054906101000a900473ffffffffffffffffffffffffffffffffffffffff168260030160009054906101000a900473ffffffffffffffffffffffffffffffffffffffff16878786600101548861516a565b5050505050565b6000613cfa8261362b565b6000613d0583611892565b90508073ffffffffffffffffffffffffffffffffffffffff168473ffffffffffffffffffffffffffffffffffffffff161480613d475750613d4681856132ef565b5b80613d8557508373ffffffffffffffffffffffffffffffffffffffff16613d6d84610d3b565b73ffffffffffffffffffffffffffffffffffffffff16145b91505092915050565b8273ffffffffffffffffffffffffffffffffffffffff16613dae82611892565b73ffffffffffffffffffffffffffffffffffffffff1614613e04576040517f08c379a0000000000000000000000000000000000000000000000000000000008152600401613dfb906187b5565b60405180910390fd5b600073ffffffffffffffffffffffffffffffffffffffff168273ffffffffffffffffffffffffffffffffffffffff1603613e73576040517f08c379a0000000000000000000000000000000000000000000000000000000008152600401613e6a90618847565b60405180910390fd5b6000613e7e826110f2565b90506000613e8b83611ec7565b9050613e9b858585868686614f1d565b613ea660008461367e565b613eaf8361522b565b613eb9858461532e565b613ec384846154ca565b828473ffffffffffffffffffffffffffffffffffffffff168673ffffffffffffffffffffffffffffffffffffffff167fddf252ad1be2c89b69c2b068fc378daa952ba7f163c4a11628f55a4df523b3ef60405160405180910390a4613f2c85858586868661516a565b5050505050565b50565b600080613f41614f02565b9050613f4f858286866138fc565b809150509392505050565b600060019050919050565b6000919050565b613f80676b9757911b77b21960c01b613f33565b613f946711773ffd84a4305360c01b613f33565b613fa8675d36528d24c4911160c01b613f33565b613fbc678d09cdc90ec4cb2e60c01b613f33565b613fcd613fc7613676565b83613cef565b61400c576040517f08c379a0000000000000000000000000000000000000000000000000000000008152600401614003906188d9565b60405180910390fd5b614020673f6e8fae24ad2b0360c01b613f33565b61403467efbe0b07e4b1a14a60c01b613f33565b614048670547a0ecd25b5aa160c01b613f33565b614052828261564b565b5050565b61405f8161362b565b6000603860396000848152602001908152602001600020548154811061408857614087617619565b5b9060005260206000209060060201905060008160030160009054906101000a900473ffffffffffffffffffffffffffffffffffffffff1690506000826001015490506000836002015490506140e38360008760008686614f1d565b6140ec8561522b565b6140f6838661532e565b6140ff85615778565b6000857f0b2aac84f3ec956911fd78eae5311062972ff949f38412e8da39069d9f068cc6836040516141319190616c65565b60405180910390a3600082867fe4f48c240d3b994948aa54f3e2f5fca59263dfe1d52b6e4cf39a5d249b5ccb6560405160405180910390a484600073ffffffffffffffffffffffffffffffffffffffff168473ffffffffffffffffffffffffffffffffffffffff167fddf252ad1be2c89b69c2b068fc378daa952ba7f163c4a11628f55a4df523b3ef60405160405180910390a46141d5836000876000868661516a565b5050505050565b6141f06717fad5965fa42ead60c01b613f33565b61420467c125f8d84491cea160c01b613f33565b61421867c278ac48f3b1a6ff60c01b613f33565b600061422384615af8565b90506142396733fde97c10bd053560c01b613f33565b61424d672223e425f79797fc60c01b613f33565b600081036142835761426967c88b9986634499cb60c01b613f33565b61427d6762b997cf7459cf5960c01b613f33565b506144ae565b61429767dd12963b0fefa02a60c01b613f33565b6142ab67a33b7d158c8180ab60c01b613f33565b6142bf676658f3a264b8677760c01b613f33565b60006142d567dec4bba01283cc7760c01b613f33565b6142e9671d3bdd3b415f1a0760c01b613f33565b60006142f486614d5a565b8015614310575061430f677cb5163df87d503360c01b613f5a565b5b8061432b575061432a67c2933312967b55c060c01b613f65565b5b6143365760006143b1565b3073ffffffffffffffffffffffffffffffffffffffff16639cc7f708876040518263ffffffff1660e01b815260040161436f9190616c65565b602060405180830381865afa15801561438c573d6000803e3d6000fd5b505050506040513d601f19601f820116820180604052508101906143b091906179e3565b5b90506143c7675947f9f1768ea6de60c01b613f33565b6143db67f770419e1f1ac57060c01b613f33565b600081856143e99190616b80565b90506143ff6711815c0a7030dd3460c01b613f33565b80858561440c9190617a7c565b6144169190617b05565b925061442c675264b94a70a87eec60c01b613f33565b8082856144399190617a7c565b6144439190617b05565b935061445967b8fb90353349998060c01b613f33565b61446d6774a3aa0805efdc7360c01b613f33565b6144778785615b51565b61448b67689f605ed9a4d31560c01b613f33565b61449f67cf1848295820a10160c01b613f33565b6144a98684615b51565b505050505b505050565b50565b6144ca67e86a543f964014b660c01b6144b3565b6144de6779e32909ad5c7dfc60c01b6144b3565b6144f2670435e5622c438a1960c01b6144b3565b7f084d7536bcea784fc97ae33946b3efaaaedc28d728e856ef970a820d14748bfe609954826040516145259291906188f9565b60405180910390a161454167b60da84cb7023d6e60c01b6144b3565b8060998190555050565b60008060678054905014158015614599575081606760686000858152602001908152602001600020548154811061458557614584617619565b5b906000526020600020906002020160000154145b9050919050565b600073ffffffffffffffffffffffffffffffffffffffff168273ffffffffffffffffffffffffffffffffffffffff160361460f576040517f08c379a000000000000000000000000000000000000000000000000000000000815260040161460690618994565b60405180910390fd5b6146198284615b95565b6146b757603860396000858152602001908152602001600020548154811061464457614643617619565b5b9060005260206000209060060201600501829080600181540180825580915050600190039060005260206000200160009091909190916101000a81548173ffffffffffffffffffffffffffffffffffffffff021916908373ffffffffffffffffffffffffffffffffffffffff1602179055505b806037600085815260200190815260200160002060008473ffffffffffffffffffffffffffffffffffffffff1673ffffffffffffffffffffffffffffffffffffffff168152602001908152602001600020819055508173ffffffffffffffffffffffffffffffffffffffff16837f621b050de0ad08b51d19b48b3e6df75348c4de6bdd93e81b252ca62e28265b1b836040516147539190616c65565b60405180910390a3505050565b8173ffffffffffffffffffffffffffffffffffffffff168373ffffffffffffffffffffffffffffffffffffffff16036147ce576040517f08c379a00000000000000000000000000000000000000000000000000000000081526004016147c590618a00565b60405180910390fd5b80603a60008573ffffffffffffffffffffffffffffffffffffffff1673ffffffffffffffffffffffffffffffffffffffff16815260200190815260200160002060020160008473ffffffffffffffffffffffffffffffffffffffff1673ffffffffffffffffffffffffffffffffffffffff16815260200190815260200160002060006101000a81548160ff0219169083151502179055508173ffffffffffffffffffffffffffffffffffffffff168373ffffffffffffffffffffffffffffffffffffffff167f17307eab39ab6107e8899845ad3d59bd9653f200f220920489ca2b5937696c31836040516148c29190616d20565b60405180910390a3505050565b50565b6148e667830d4ae719475f0f60c01b610b7d565b6148fa67767d80b8771311b560c01b610b7d565b82609b819055506149156734556b06cf9a7cbc60c01b610b7d565b80609c60006101000a81548173ffffffffffffffffffffffffffffffffffffffff021916908373ffffffffffffffffffffffffffffffffffffffff16021790555061496a6752da852a0a7d4bcc60c01b610b7d565b61497e67e5311fd537420d3160c01b610b7d565b614987826149d4565b61499b67a6ddddbdb13ce2a660c01b610b7d565b6149af67c6892cf9906dc7fb60c01b610b7d565b6149bf6658d15e176280006144b6565b505050565b6149cf838383615cb3565b505050565b6149e86730cfd29e517d10b860c01b6144b3565b6149fc67083dfa2b3621890e60c01b6144b3565b614a106726aea8296e7e1d1060c01b6144b3565b7f3eadceefe02aa6afb5514ad1b2ab3f21eb26dd571b170168413057c70615606b609860009054906101000a900473ffffffffffffffffffffffffffffffffffffffff1682604051614a63929190618a20565b60405180910390a1614a7f6722192b2f327609ea60c01b6144b3565b80609860006101000a81548173ffffffffffffffffffffffffffffffffffffffff021916908373ffffffffffffffffffffffffffffffffffffffff16021790555050565b6000614ad967d1ec494d17b1c8d260c01b610b7d565b614aed675423d98c9e43693e60c01b610b7d565b614b01673be46207dc7848f660c01b610b7d565b600080614b0d84615cf3565b91509150614b25674b1e7df1378e292d60c01b610b7d565b614b3967862be14b873eb46d60c01b610b7d565b6000614b4f67a8975f8db401b83160c01b610b7d565b614b6367ec4b6cd5cdee4fac60c01b610b7d565b60005b8351811015614c9d57614b836763f60db2d889768a60c01b610b7d565b614b97674d82ff9a8c2c87fa60c01b610b7d565b6000848281518110614bac57614bab617619565b5b60200260200101519050614bca672231e1176d13f32a60c01b610b7d565b614bde67733a8adfd438d23f60c01b610b7d565b6000848381518110614bf357614bf2617619565b5b60200260200101519050614c116789e0bfbe50f8c26c60c01b610b7d565b614c25678eb7a958b6d7cce760c01b610b7d565b6000614c318383616149565b9050614c4767bcc4745047a391c960c01b610b7d565b8085614c539190616b80565b9450614c6967d4c172ceab2a544660c01b610b7d565b614c7d674e05c53a2837ffb460c01b610b7d565b614c87838261621e565b5050508080614c9590618140565b915050614b66565b50614cb267406e549f11c8facf60c01b610b7d565b614cc6671a56041d1adfd1e060c01b610b7d565b809350505050919050565b614cdc848484613d8e565b614ce884848484616274565b614d27576040517f08c379a0000000000000000000000000000000000000000000000000000000008152600401614d1e90618abb565b60405180910390fd5b50505050565b6060614d538273ffffffffffffffffffffffffffffffffffffffff16601460ff1661649d565b9050919050565b60008060388054905014158015614da85750816038603960008581526020019081526020016000205481548110614d9457614d93617619565b5b906000526020600020906006020160000154145b9050919050565b600080600090507a184f03e93ff9f4daa797ed6e38ed64bf6a1f0100000000000000008310614e0d577a184f03e93ff9f4daa797ed6e38ed64bf6a1f0100000000000000008381614e0357614e02617ad6565b5b0492506040810190505b6d04ee2d6d415b85acef81000000008310614e4a576d04ee2d6d415b85acef81000000008381614e4057614e3f617ad6565b5b0492506020810190505b662386f26fc100008310614e7957662386f26fc100008381614e6f57614e6e617ad6565b5b0492506010810190505b6305f5e1008310614ea2576305f5e1008381614e9857614e97617ad6565b5b0492506008810190505b6127108310614ec7576127108381614ebd57614ebc617ad6565b5b0492506004810190505b60648310614eea5760648381614ee057614edf617ad6565b5b0492506002810190505b600a8310614ef9576001810190505b80915050919050565b6000614f0e60366166d9565b614f1860366166ef565b905090565b614f2b8686868686866166fd565b600073ffffffffffffffffffffffffffffffffffffffff168673ffffffffffffffffffffffffffffffffffffffff16148015614f675750600084145b8015614f795750614f778261454b565b155b15614f8857614f8782616705565b5b505050505050565b60006040518060c00160405280848152602001838152602001600081526020018573ffffffffffffffffffffffffffffffffffffffff168152602001600073ffffffffffffffffffffffffffffffffffffffff168152602001600067ffffffffffffffff8111156150045761500361718b565b5b6040519080825280602002602001820160405280156150325781602001602082028036833780820191505090505b508152509050615041816167ed565b61504b84846154ca565b828473ffffffffffffffffffffffffffffffffffffffff16600073ffffffffffffffffffffffffffffffffffffffff167fddf252ad1be2c89b69c2b068fc378daa952ba7f163c4a11628f55a4df523b3ef60405160405180910390a4816000847fe4f48c240d3b994948aa54f3e2f5fca59263dfe1d52b6e4cf39a5d249b5ccb6560405160405180910390a450505050565b80603860396000858152602001908152602001600020548154811061510557615104617619565b5b906000526020600020906006020160020160008282546151259190616b80565b925050819055508160007f0b2aac84f3ec956911fd78eae5311062972ff949f38412e8da39069d9f068cc68360405161515e9190616c65565b60405180910390a35050565b61517e678fa973801b9c26ca60c01b613f33565b615192677d6695f7fef2b64860c01b613f33565b6151a667fd97e60db3c3898960c01b613f33565b600084036151db576151c267d71a19f1663f831360c01b613f33565b6151d6672aa4a7159082168460c01b613f33565b615223565b6151ef67875b610fc065a0b060c01b613f33565b61520367e6c03c33e38ab08f60c01b613f33565b61521767fd6c01ef90b61ed260c01b613f33565b6152228484836141dc565b5b505050505050565b6000603860396000848152602001908152602001600020548154811061525457615253617619565b5b9060005260206000209060060201905060008160050180549050905060005b8181101561532857600083600501828154811061529357615292617619565b5b9060005260206000200160009054906101000a900473ffffffffffffffffffffffffffffffffffffffff1690506037600086815260200190815260200160002060008273ffffffffffffffffffffffffffffffffffffffff1673ffffffffffffffffffffffffffffffffffffffff1681526020019081526020016000206000905550808061532090618140565b915050615273565b50505050565b6000603860396000848152602001908152602001600020548154811061535757615356617619565b5b906000526020600020906006020160030160006101000a81548173ffffffffffffffffffffffffffffffffffffffff021916908373ffffffffffffffffffffffffffffffffffffffff1602179055506000603a60008473ffffffffffffffffffffffffffffffffffffffff1673ffffffffffffffffffffffffffffffffffffffff16815260200190815260200160002090506000600182600001805490506153ff9190618018565b9050600082600001828154811061541957615418617619565b5b9060005260206000200154905060008360010160008681526020019081526020016000205490508184600001828154811061545757615456617619565b5b9060005260206000200181905550808460010160008481526020019081526020016000208190555083600101600086815260200190815260200160002060009055836000018054806154ac576154ab618adb565b5b60019003818190600052602060002001600090559055505050505050565b8160386039600084815260200190815260200160002054815481106154f2576154f1617619565b5b906000526020600020906006020160030160006101000a81548173ffffffffffffffffffffffffffffffffffffffff021916908373ffffffffffffffffffffffffffffffffffffffff160217905550603a60008373ffffffffffffffffffffffffffffffffffffffff1673ffffffffffffffffffffffffffffffffffffffff16815260200190815260200160002060000180549050603a60008473ffffffffffffffffffffffffffffffffffffffff1673ffffffffffffffffffffffffffffffffffffffff168152602001908152602001600020600101600083815260200190815260200160002081905550603a60008373ffffffffffffffffffffffffffffffffffffffff1673ffffffffffffffffffffffffffffffffffffffff1681526020019081526020016000206000018190806001815401808255809150506001900390600052602060002001600090919091909150555050565b6156548261362b565b6000603860396000858152602001908152602001600020548154811061567d5761567c617619565b5b9060005260206000209060060201905060008160030160009054906101000a900473ffffffffffffffffffffffffffffffffffffffff1690506000826001015490506000836002015490508481101561570b576040517f08c379a000000000000000000000000000000000000000000000000000000000815260040161570290618b7c565b60405180910390fd5b61571b836000886000868a614f1d565b8484600201600082825461572f9190618018565b925050819055506000867f0b2aac84f3ec956911fd78eae5311062972ff949f38412e8da39069d9f068cc6876040516157689190616c65565b60405180910390a3505050505050565b6000600160388054905061578c9190618018565b90506000603960008481526020019081526020016000205490506000603883815481106157bc576157bb617619565b5b90600052602060002090600602016040518060c00160405290816000820154815260200160018201548152602001600282015481526020016003820160009054906101000a900473ffffffffffffffffffffffffffffffffffffffff1673ffffffffffffffffffffffffffffffffffffffff1673ffffffffffffffffffffffffffffffffffffffff1681526020016004820160009054906101000a900473ffffffffffffffffffffffffffffffffffffffff1673ffffffffffffffffffffffffffffffffffffffff1673ffffffffffffffffffffffffffffffffffffffff1681526020016005820180548060200260200160405190810160405280929190818152602001828054801561592457602002820191906000526020600020905b8160009054906101000a900473ffffffffffffffffffffffffffffffffffffffff1673ffffffffffffffffffffffffffffffffffffffff16815260200190600101908083116158da575b5050505050815250509050806038838154811061594457615943617619565b5b906000526020600020906006020160008201518160000155602082015181600101556040820151816002015560608201518160030160006101000a81548173ffffffffffffffffffffffffffffffffffffffff021916908373ffffffffffffffffffffffffffffffffffffffff16021790555060808201518160040160006101000a81548173ffffffffffffffffffffffffffffffffffffffff021916908373ffffffffffffffffffffffffffffffffffffffff16021790555060a0820151816005019080519060200190615a1a929190616a32565b509050508160396000836000015181526020019081526020016000208190555060396000858152602001908152602001600020600090556038805480615a6357615a62618adb565b5b6001900381819060005260206000209060060201600080820160009055600182016000905560028201600090556003820160006101000a81549073ffffffffffffffffffffffffffffffffffffffff02191690556004820160006101000a81549073ffffffffffffffffffffffffffffffffffffffff0219169055600582016000615aee9190616abc565b5050905550505050565b6000615b0e67c8a73a1421f29a3e60c01b610b7d565b615b22674c5b6576e8302ba860c01b610b7d565b615b366779c7f47875cf45eb60c01b610b7d565b609e6000838152602001908152602001600020549050919050565b615b656764db111e08840fc960c01b610b7d565b615b796722cec3e6bdd9b94a60c01b610b7d565b80609e6000848152602001908152602001600020819055505050565b6000806038603960008581526020019081526020016000205481548110615bbf57615bbe617619565b5b906000526020600020906006020160050180549050905060005b81811015615ca6578473ffffffffffffffffffffffffffffffffffffffff166038603960008781526020019081526020016000205481548110615c1f57615c1e617619565b5b90600052602060002090600602016005018281548110615c4257615c41617619565b5b9060005260206000200160009054906101000a900473ffffffffffffffffffffffffffffffffffffffff1673ffffffffffffffffffffffffffffffffffffffff1603615c9357600192505050615cad565b8080615c9e90618140565b915050615bd9565b5060009150505b92915050565b8260339081615cc29190618d3e565b508160349081615cd29190618d3e565b5080603560006101000a81548160ff021916908360ff160217905550505050565b606080615d0a67c6781ce8886dd9df60c01b613f33565b615d1e67698122a3585512b760c01b613f33565b615d326787bea9f30ab6359060c01b613f33565b6000615d3d84616908565b9050615d5367f324af44f3582db860c01b613f33565b615d6767c54e3f52fd92b0b060c01b613f33565b600081600001805480602002602001604051908101604052809291908181526020018280548015615db757602002820191906000526020600020905b815481526020019060010190808311615da3575b50505050509050615dd267d8ff5927eae5be6560c01b613f33565b615de66727206c232301581160c01b613f33565b6000815167ffffffffffffffff811115615e0357615e0261718b565b5b604051908082528060200260200182016040528015615e315781602001602082028036833780820191505090505b509050615e48674add90180831bfd060c01b613f33565b615e5c675ec2c6d6038ff8df60c01b613f33565b615e70673c79c706660e3bad60c01b613f33565b6000825103615eb4576040517f08c379a0000000000000000000000000000000000000000000000000000000008152600401615eab90618e5c565b60405180910390fd5b615ec867ba67c9a62c00da8760c01b613f33565b615edc6715780d6d3dfa7c4560c01b613f33565b615ef0679b57cd9f7386487d60c01b613f33565b60005b825181101561611257615f10679dd8ca1e1bc18bd960c01b613f33565b615f2467bfa55e7d718d870a60c01b613f33565b6000838281518110615f3957615f38617619565b5b60200260200101519050615f5767750421aa8ab8c95d60c01b613f33565b615f6b672444fb5f554895c260c01b613f33565b60003073ffffffffffffffffffffffffffffffffffffffff1663263f3e7e836040518263ffffffff1660e01b8152600401615fa69190616c65565b602060405180830381865afa158015615fc3573d6000803e3d6000fd5b505050506040513d601f19601f82011682018060405250810190615fe791906179e3565b9050615ffd672277865311ab8aa460c01b613f33565b61601167c5b591fd5026cc7660c01b613f33565b60003073ffffffffffffffffffffffffffffffffffffffff16639cc7f708846040518263ffffffff1660e01b815260040161604c9190616c65565b602060405180830381865afa158015616069573d6000803e3d6000fd5b505050506040513d601f19601f8201168201806040525081019061608d91906179e3565b90506160a3677d7826ac3fc8f11760c01b613f33565b6160b7676dbaf0ad9015543360c01b613f33565b600081836160c59190617a7c565b90506160db67ffde228c4ffc511b60c01b613f33565b808686815181106160ef576160ee617619565b5b60200260200101818152505050505050808061610a90618140565b915050615ef3565b5061612767b4adf0733d73d4af60c01b613f33565b61613b671c659ca4b2cc255260c01b613f33565b818194509450505050915091565b600061615f6785eebd2386899cce60c01b610b7d565b616173677458bb02b756cfee60c01b610b7d565b616187679efb35a3cd7cdf7e60c01b610b7d565b600061619284615af8565b90506161a8676093714e17e9d02f60c01b610b7d565b6161bc678d3da59f1981c98e60c01b610b7d565b6000609b54846161ca616950565b6161d49190617a7c565b6161de9190617b05565b90506161f46773c28098fa21afc660c01b610b7d565b616208674dded28cd2f2bf9b60c01b610b7d565b81816162149190618018565b9250505092915050565b61623267690f8284fd4e9e2260c01b610b7d565b616246677c54878f44cd011160c01b610b7d565b80609e600084815260200190815260200160002060008282546162699190616b80565b925050819055505050565b60006162958473ffffffffffffffffffffffffffffffffffffffff16616996565b801561633757508373ffffffffffffffffffffffffffffffffffffffff166301ffc9a77f150b7a02000000000000000000000000000000000000000000000000000000006040518263ffffffff1660e01b81526004016162f59190618e8b565b602060405180830381865afa158015616312573d6000803e3d6000fd5b505050506040513d601f19601f820116820180604052508101906163369190618ebb565b5b15616490578373ffffffffffffffffffffffffffffffffffffffff1663150b7a02616360613676565b8786866040518563ffffffff1660e01b81526004016163829493929190618f2c565b6020604051808303816000875af19250505080156163be57506040513d601f19601f820116820180604052508101906163bb9190618f8d565b60015b616440573d80600081146163ee576040519150601f19603f3d011682016040523d82523d6000602084013e6163f3565b606091505b506000815103616438576040517f08c379a000000000000000000000000000000000000000000000000000000000815260040161642f9061902c565b60405180910390fd5b805181602001fd5b63150b7a0260e01b7bffffffffffffffffffffffffffffffffffffffffffffffffffffffff1916817bffffffffffffffffffffffffffffffffffffffffffffffffffffffff191614915050616495565b600190505b949350505050565b6060600060028360026164b09190617a7c565b6164ba9190616b80565b67ffffffffffffffff8111156164d3576164d261718b565b5b6040519080825280601f01601f1916602001820160405280156165055781602001600182028036833780820191505090505b5090507f30000000000000000000000000000000000000000000000000000000000000008160008151811061653d5761653c617619565b5b60200101907effffffffffffffffffffffffffffffffffffffffffffffffffffffffffffff1916908160001a9053507f7800000000000000000000000000000000000000000000000000000000000000816001815181106165a1576165a0617619565b5b60200101907effffffffffffffffffffffffffffffffffffffffffffffffffffffffffffff1916908160001a905350600060018460026165e19190617a7c565b6165eb9190616b80565b90505b600181111561668b577f3031323334353637383961626364656600000000000000000000000000000000600f86166010811061662d5761662c617619565b5b1a60f81b82828151811061664457616643617619565b5b60200101907effffffffffffffffffffffffffffffffffffffffffffffffffffffffffffff1916908160001a905350600485901c9450806166849061904c565b90506165ee565b50600084146166cf576040517f08c379a00000000000000000000000000000000000000000000000000000000081526004016166c6906190c1565b60405180910390fd5b8091505092915050565b6001816000016000828254019250508190555050565b600081600001549050919050565b505050505050565b61670e8161454b565b1561674e576040517f08c379a000000000000000000000000000000000000000000000000000000000815260040161674590619153565b60405180910390fd5b60006040518060400160405280838152602001600067ffffffffffffffff81111561677c5761677b61718b565b5b6040519080825280602002602001820160405280156167aa5781602001602082028036833780820191505090505b5081525090506167b9816169b9565b816000807fe4f48c240d3b994948aa54f3e2f5fca59263dfe1d52b6e4cf39a5d249b5ccb6560405160405180910390a45050565b603880549050603960008360000151815260200190815260200160002081905550603881908060018154018082558091505060019003906000526020600020906006020160009091909190915060008201518160000155602082015181600101556040820151816002015560608201518160030160006101000a81548173ffffffffffffffffffffffffffffffffffffffff021916908373ffffffffffffffffffffffffffffffffffffffff16021790555060808201518160040160006101000a81548173ffffffffffffffffffffffffffffffffffffffff021916908373ffffffffffffffffffffffffffffffffffffffff16021790555060a0820151816005019080519060200190616902929190616a32565b50505050565b6000603a60008373ffffffffffffffffffffffffffffffffffffffff1673ffffffffffffffffffffffffffffffffffffffff1681526020019081526020016000209050919050565b6000616966672990a07bbed37f7b60c01b610b7d565b61697a67ab1ef1763ef4754360c01b610b7d565b61698e67c320a1874a72f25660c01b610b7d565b609a54905090565b6000808273ffffffffffffffffffffffffffffffffffffffff163b119050919050565b6067805490506068600083600001518152602001908152602001600020819055506067819080600181540180825580915050600190039060005260206000209060020201600090919091909150600082015181600001556020820151816001019080519060200190616a2c929190616add565b50505050565b828054828255906000526020600020908101928215616aab579160200282015b82811115616aaa5782518260006101000a81548173ffffffffffffffffffffffffffffffffffffffff021916908373ffffffffffffffffffffffffffffffffffffffff16021790555091602001919060010190616a52565b5b509050616ab89190616b2a565b5090565b5080546000825590600052602060002090810190616ada9190616b2a565b50565b828054828255906000526020600020908101928215616b19579160200282015b82811115616b18578251825591602001919060010190616afd565b5b509050616b269190616b2a565b5090565b5b80821115616b43576000816000905550600101616b2b565b5090565b6000819050919050565b7f4e487b7100000000000000000000000000000000000000000000000000000000600052601160045260246000fd5b6000616b8b82616b47565b9150616b9683616b47565b9250827fffffffffffffffffffffffffffffffffffffffffffffffffffffffffffffffff03821115616bcb57616bca616b51565b5b828201905092915050565b6000604051905090565b600080fd5b600080fd5b616bf381616b47565b8114616bfe57600080fd5b50565b600081359050616c1081616bea565b92915050565b60008060408385031215616c2d57616c2c616be0565b5b6000616c3b85828601616c01565b9250506020616c4c85828601616c01565b9150509250929050565b616c5f81616b47565b82525050565b6000602082019050616c7a6000830184616c56565b92915050565b60007fffffffff0000000000000000000000000000000000000000000000000000000082169050919050565b616cb581616c80565b8114616cc057600080fd5b50565b600081359050616cd281616cac565b92915050565b600060208284031215616cee57616ced616be0565b5b6000616cfc84828501616cc3565b91505092915050565b60008115159050919050565b616d1a81616d05565b82525050565b6000602082019050616d356000830184616d11565b92915050565b600081519050919050565b600082825260208201905092915050565b60005b83811015616d75578082015181840152602081019050616d5a565b83811115616d84576000848401525b50505050565b6000601f19601f8301169050919050565b6000616da682616d3b565b616db08185616d46565b9350616dc0818560208601616d57565b616dc981616d8a565b840191505092915050565b60006020820190508181036000830152616dee8184616d9b565b905092915050565b600060208284031215616e0c57616e0b616be0565b5b6000616e1a84828501616c01565b91505092915050565b600073ffffffffffffffffffffffffffffffffffffffff82169050919050565b6000616e4e82616e23565b9050919050565b616e5e81616e43565b82525050565b6000602082019050616e796000830184616e55565b92915050565b616e8881616e43565b8114616e9357600080fd5b50565b600081359050616ea581616e7f565b92915050565b60008060408385031215616ec257616ec1616be0565b5b6000616ed085828601616e96565b9250506020616ee185828601616c01565b9150509250929050565b600080600060608486031215616f0457616f03616be0565b5b6000616f1286828701616c01565b9350506020616f2386828701616e96565b9250506040616f3486828701616c01565b9150509250925092565b600080600060608486031215616f5757616f56616be0565b5b6000616f6586828701616e96565b9350506020616f7686828701616e96565b9250506040616f8786828701616c01565b9150509250925092565b600080600060608486031215616faa57616fa9616be0565b5b6000616fb886828701616c01565b9350506020616fc986828701616c01565b9250506040616fda86828701616c01565b9150509250925092565b600060208284031215616ffa57616ff9616be0565b5b600061700884828501616e96565b91505092915050565b600060a0820190506170266000830188616c56565b6170336020830187616c56565b6170406040830186616c56565b61704d6060830185616c56565b61705a6080830184616c56565b9695505050505050565b600060ff82169050919050565b61707a81617064565b82525050565b60006020820190506170956000830184617071565b92915050565b6000819050919050565b60006170c06170bb6170b684616e23565b61709b565b616e23565b9050919050565b60006170d2826170a5565b9050919050565b60006170e4826170c7565b9050919050565b6170f4816170d9565b82525050565b600060208201905061710f60008301846170eb565b92915050565b61711e81616d05565b811461712957600080fd5b50565b60008135905061713b81617115565b92915050565b6000806040838503121561715857617157616be0565b5b600061716685828601616e96565b92505060206171778582860161712c565b9150509250929050565b600080fd5b600080fd5b7f4e487b7100000000000000000000000000000000000000000000000000000000600052604160045260246000fd5b6171c382616d8a565b810181811067ffffffffffffffff821117156171e2576171e161718b565b5b80604052505050565b60006171f5616bd6565b905061720182826171ba565b919050565b600067ffffffffffffffff8211156172215761722061718b565b5b61722a82616d8a565b9050602081019050919050565b82818337600083830152505050565b600061725961725484617206565b6171eb565b90508281526020810184848401111561727557617274617186565b5b617280848285617237565b509392505050565b600082601f83011261729d5761729c617181565b5b81356172ad848260208601617246565b91505092915050565b6172bf81617064565b81146172ca57600080fd5b50565b6000813590506172dc816172b6565b92915050565b60008060008060008060c087890312156172ff576172fe616be0565b5b600087013567ffffffffffffffff81111561731d5761731c616be5565b5b61732989828a01617288565b965050602087013567ffffffffffffffff81111561734a57617349616be5565b5b61735689828a01617288565b955050604061736789828a016172cd565b945050606061737889828a01616c01565b935050608061738989828a01616e96565b92505060a061739a89828a01616e96565b9150509295509295509295565b600067ffffffffffffffff8211156173c2576173c161718b565b5b6173cb82616d8a565b9050602081019050919050565b60006173eb6173e6846173a7565b6171eb565b90508281526020810184848401111561740757617406617186565b5b617412848285617237565b509392505050565b600082601f83011261742f5761742e617181565b5b813561743f8482602086016173d8565b91505092915050565b6000806000806080858703121561746257617461616be0565b5b600061747087828801616e96565b945050602061748187828801616e96565b935050604061749287828801616c01565b925050606085013567ffffffffffffffff8111156174b3576174b2616be5565b5b6174bf8782880161741a565b91505092959194509250565b600080604083850312156174e2576174e1616be0565b5b60006174f085828601616c01565b925050602061750185828601616e96565b9150509250929050565b6000806040838503121561752257617521616be0565b5b600061753085828601616e96565b925050602061754185828601616e96565b9150509250929050565b6000617556826170c7565b9050919050565b6175668161754b565b82525050565b6000602082019050617581600083018461755d565b92915050565b7f45524333353235536c6f74456e756d657261626c653a20736c6f7420746f6b6560008201527f6e20696e646578206f7574206f6620626f756e64730000000000000000000000602082015250565b60006175e3603583616d46565b91506175ee82617587565b604082019050919050565b60006020820190508181036000830152617612816175d6565b9050919050565b7f4e487b7100000000000000000000000000000000000000000000000000000000600052603260045260246000fd5b7f4e487b7100000000000000000000000000000000000000000000000000000000600052602260045260246000fd5b6000600282049050600182168061768f57607f821691505b6020821081036176a2576176a1617648565b5b50919050565b7f455243333532353a20617070726f76616c20746f2063757272656e74206f776e60008201527f6572000000000000000000000000000000000000000000000000000000000000602082015250565b6000617704602283616d46565b915061770f826176a8565b604082019050919050565b60006020820190508181036000830152617733816176f7565b9050919050565b7f455243333532353a20617070726f76652063616c6c6572206973206e6f74206f60008201527f776e6572206e6f7220617070726f76656420666f7220616c6c00000000000000602082015250565b6000617796603983616d46565b91506177a18261773a565b604082019050919050565b600060208201905081810360008301526177c581617789565b9050919050565b600081905092915050565b60006177e282616d3b565b6177ec81856177cc565b93506177fc818560208601616d57565b80840191505092915050565b7f736c6f742f000000000000000000000000000000000000000000000000000000600082015250565b600061783e6005836177cc565b915061784982617808565b600582019050919050565b600061786082856177d7565b915061786b82617831565b915061787782846177d7565b91508190509392505050565b600061789661789184617206565b6171eb565b9050828152602081018484840111156178b2576178b1617186565b5b6178bd848285616d57565b509392505050565b600082601f8301126178da576178d9617181565b5b81516178ea848260208601617883565b91505092915050565b60006020828403121561790957617908616be0565b5b600082015167ffffffffffffffff81111561792757617926616be5565b5b617933848285016178c5565b91505092915050565b7f455243333532353a207472616e736665722063616c6c6572206973206e6f742060008201527f6f776e6572206e6f7220617070726f7665640000000000000000000000000000602082015250565b6000617998603283616d46565b91506179a38261793c565b604082019050919050565b600060208201905081810360008301526179c78161798b565b9050919050565b6000815190506179dd81616bea565b92915050565b6000602082840312156179f9576179f8616be0565b5b6000617a07848285016179ce565b91505092915050565b7f4552525f4e4f545f57484954455f534c4f540000000000000000000000000000600082015250565b6000617a46601283616d46565b9150617a5182617a10565b602082019050919050565b60006020820190508181036000830152617a7581617a39565b9050919050565b6000617a8782616b47565b9150617a9283616b47565b9250817fffffffffffffffffffffffffffffffffffffffffffffffffffffffffffffffff0483118215151615617acb57617aca616b51565b5b828202905092915050565b7f4e487b7100000000000000000000000000000000000000000000000000000000600052601260045260246000fd5b6000617b1082616b47565b9150617b1b83616b47565b925082617b2b57617b2a617ad6565b5b828204905092915050565b7f455243333532353a206f776e657220696e646578206f7574206f6620626f756e60008201527f6473000000000000000000000000000000000000000000000000000000000000602082015250565b6000617b92602283616d46565b9150617b9d82617b36565b604082019050919050565b60006020820190508181036000830152617bc181617b85565b9050919050565b7f4552525f4e4f545f4d414e414745520000000000000000000000000000000000600082015250565b6000617bfe600f83616d46565b9150617c0982617bc8565b602082019050919050565b60006020820190508181036000830152617c2d81617bf1565b9050919050565b7f455243333532353a20676c6f62616c20696e646578206f7574206f6620626f7560008201527f6e64730000000000000000000000000000000000000000000000000000000000602082015250565b6000617c90602383616d46565b9150617c9b82617c34565b604082019050919050565b60006020820190508181036000830152617cbf81617c83565b9050919050565b7f455243333532353a20696e76616c696420746f6b656e20494400000000000000600082015250565b6000617cfc601983616d46565b9150617d0782617cc6565b602082019050919050565b60006020820190508181036000830152617d2b81617cef565b9050919050565b7f455243333532353a2062616c616e636520717565727920666f7220746865207a60008201527f65726f2061646472657373000000000000000000000000000000000000000000602082015250565b6000617d8e602b83616d46565b9150617d9982617d32565b604082019050919050565b60006020820190508181036000830152617dbd81617d81565b9050919050565b7f4552525f4841535f4e4f545f5748495445000000000000000000000000000000600082015250565b6000617dfa601183616d46565b9150617e0582617dc4565b602082019050919050565b60006020820190508181036000830152617e2981617ded565b9050919050565b7f45524333353235536c6f74456e756d657261626c653a20736c6f7420696e646560008201527f78206f7574206f6620626f756e64730000000000000000000000000000000000602082015250565b6000617e8c602f83616d46565b9150617e9782617e30565b604082019050919050565b60006020820190508181036000830152617ebb81617e7f565b9050919050565b7f4552525f494e495449414c495a45440000000000000000000000000000000000600082015250565b6000617ef8600f83616d46565b9150617f0382617ec2565b602082019050919050565b60006020820190508181036000830152617f2781617eeb565b9050919050565b600082825260208201905092915050565b6000617f4b8385617f2e565b9350617f58838584617237565b617f6183616d8a565b840190509392505050565b6000606082019050617f816000830187616e55565b617f8e6020830186616e55565b8181036040830152617fa1818486617f3f565b905095945050505050565b7f4552525f4e4f545f534146450000000000000000000000000000000000000000600082015250565b6000617fe2600c83616d46565b9150617fed82617fac565b602082019050919050565b6000602082019050818103600083015261801181617fd5565b9050919050565b600061802382616b47565b915061802e83616b47565b92508282101561804157618040616b51565b5b828203905092915050565b7f4552525f4e4f545f524557415244000000000000000000000000000000000000600082015250565b6000618082600e83616d46565b915061808d8261804c565b602082019050919050565b600060208201905081810360008301526180b181618075565b9050919050565b600081905092915050565b50565b60006180d36000836180b8565b91506180de826180c3565b600082019050919050565b60006180f4826180c6565b9150819050919050565b60008151905061810d81616e7f565b92915050565b60006020828403121561812957618128616be0565b5b6000618137848285016180fe565b91505092915050565b600061814b82616b47565b91507fffffffffffffffffffffffffffffffffffffffffffffffffffffffffffffffff820361817d5761817c616b51565b5b600182019050919050565b7f4552525f57495448445245575f4641494c454400000000000000000000000000600082015250565b60006181be601383616d46565b91506181c982618188565b602082019050919050565b600060208201905081810360008301526181ed816181b1565b9050919050565b600061820082856177d7565b915061820c82846177d7565b91508190509392505050565b7f4552525f43414e545f42455f5a45524f00000000000000000000000000000000600082015250565b600061824e601083616d46565b915061825982618218565b602082019050919050565b6000602082019050818103600083015261827d81618241565b9050919050565b7f636f6e74726163742f0000000000000000000000000000000000000000000000600082015250565b60006182ba6009836177cc565b91506182c582618284565b600982019050919050565b60006182dc82856177d7565b91506182e7826182ad565b91506182f382846177d7565b91508190509392505050565b7f455243333532353a20696e73756666696369656e7420616c6c6f77616e636500600082015250565b6000618335601f83616d46565b9150618340826182ff565b602082019050919050565b6000602082019050818103600083015261836481618328565b9050919050565b7f455243333532353a206d696e7420746f20746865207a65726f2061646472657360008201527f7300000000000000000000000000000000000000000000000000000000000000602082015250565b60006183c7602183616d46565b91506183d28261836b565b604082019050919050565b600060208201905081810360008301526183f6816183ba565b9050919050565b7f455243333532353a2063616e6e6f74206d696e74207a65726f20746f6b656e4960008201527f6400000000000000000000000000000000000000000000000000000000000000602082015250565b6000618459602183616d46565b9150618464826183fd565b604082019050919050565b600060208201905081810360008301526184888161844c565b9050919050565b7f455243333532353a20746f6b656e20616c7265616479206d696e746564000000600082015250565b60006184c5601d83616d46565b91506184d08261848f565b602082019050919050565b600060208201905081810360008301526184f4816184b8565b9050919050565b7f455243333532353a207472616e736665722066726f6d20696e76616c6964207460008201527f6f6b656e20494400000000000000000000000000000000000000000000000000602082015250565b6000618557602783616d46565b9150618562826184fb565b604082019050919050565b600060208201905081810360008301526185868161854a565b9050919050565b7f455243333532353a207472616e7366657220746f20696e76616c696420746f6b60008201527f656e204944000000000000000000000000000000000000000000000000000000602082015250565b60006185e9602583616d46565b91506185f48261858d565b604082019050919050565b60006020820190508181036000830152618618816185dc565b9050919050565b7f455243333532353a20696e73756666696369656e742062616c616e636520666f60008201527f72207472616e7366657200000000000000000000000000000000000000000000602082015250565b600061867b602a83616d46565b91506186868261861f565b604082019050919050565b600060208201905081810360008301526186aa8161866e565b9050919050565b7f455243333532353a207472616e7366657220746f20746f6b656e20776974682060008201527f646966666572656e7420736c6f74000000000000000000000000000000000000602082015250565b600061870d602e83616d46565b9150618718826186b1565b604082019050919050565b6000602082019050818103600083015261873c81618700565b9050919050565b7f455243333532353a207472616e736665722066726f6d20696e76616c6964206f60008201527f776e657200000000000000000000000000000000000000000000000000000000602082015250565b600061879f602483616d46565b91506187aa82618743565b604082019050919050565b600060208201905081810360008301526187ce81618792565b9050919050565b7f455243333532353a207472616e7366657220746f20746865207a65726f20616460008201527f6472657373000000000000000000000000000000000000000000000000000000602082015250565b6000618831602583616d46565b915061883c826187d5565b604082019050919050565b6000602082019050818103600083015261886081618824565b9050919050565b7f455243333532353a2063616c6c6572206973206e6f7420746f6b656e206f776e60008201527f6572206e6f7220617070726f7665640000000000000000000000000000000000602082015250565b60006188c3602f83616d46565b91506188ce82618867565b604082019050919050565b600060208201905081810360008301526188f2816188b6565b9050919050565b600060408201905061890e6000830185616c56565b61891b6020830184616c56565b9392505050565b7f455243333532353a20617070726f76652076616c756520746f20746865207a6560008201527f726f206164647265737300000000000000000000000000000000000000000000602082015250565b600061897e602a83616d46565b915061898982618922565b604082019050919050565b600060208201905081810360008301526189ad81618971565b9050919050565b7f455243333532353a20617070726f766520746f2063616c6c6572000000000000600082015250565b60006189ea601a83616d46565b91506189f5826189b4565b602082019050919050565b60006020820190508181036000830152618a19816189dd565b9050919050565b6000604082019050618a356000830185616e55565b618a426020830184616e55565b9392505050565b7f455243333532353a207472616e7366657220746f206e6f6e204552433732315260008201527f6563656976657200000000000000000000000000000000000000000000000000602082015250565b6000618aa5602783616d46565b9150618ab082618a49565b604082019050919050565b60006020820190508181036000830152618ad481618a98565b9050919050565b7f4e487b7100000000000000000000000000000000000000000000000000000000600052603160045260246000fd5b7f455243333532353a206275726e2076616c756520657863656564732062616c6160008201527f6e63650000000000000000000000000000000000000000000000000000000000602082015250565b6000618b66602383616d46565b9150618b7182618b0a565b604082019050919050565b60006020820190508181036000830152618b9581618b59565b9050919050565b60008190508160005260206000209050919050565b60006020601f8301049050919050565b600082821b905092915050565b600060088302618bfe7fffffffffffffffffffffffffffffffffffffffffffffffffffffffffffffffff82618bc1565b618c088683618bc1565b95508019841693508086168417925050509392505050565b6000618c3b618c36618c3184616b47565b61709b565b616b47565b9050919050565b6000819050919050565b618c5583618c20565b618c69618c6182618c42565b848454618bce565b825550505050565b600090565b618c7e618c71565b618c89818484618c4c565b505050565b5b81811015618cad57618ca2600082618c76565b600181019050618c8f565b5050565b601f821115618cf257618cc381618b9c565b618ccc84618bb1565b81016020851015618cdb578190505b618cef618ce785618bb1565b830182618c8e565b50505b505050565b600082821c905092915050565b6000618d1560001984600802618cf7565b1980831691505092915050565b6000618d2e8383618d04565b9150826002028217905092915050565b618d4782616d3b565b67ffffffffffffffff811115618d6057618d5f61718b565b5b618d6a8254617677565b618d75828285618cb1565b600060209050601f831160018114618da85760008415618d96578287015190505b618da08582618d22565b865550618e08565b601f198416618db686618b9c565b60005b82811015618dde57848901518255600182019150602085019450602081019050618db9565b86831015618dfb5784890151618df7601f891682618d04565b8355505b6001600288020188555050505b505050505050565b7f4552525f594f555f484156455f4e4f5f544f4b454e0000000000000000000000600082015250565b6000618e46601583616d46565b9150618e5182618e10565b602082019050919050565b60006020820190508181036000830152618e7581618e39565b9050919050565b618e8581616c80565b82525050565b6000602082019050618ea06000830184618e7c565b92915050565b600081519050618eb581617115565b92915050565b600060208284031215618ed157618ed0616be0565b5b6000618edf84828501618ea6565b91505092915050565b600081519050919050565b6000618efe82618ee8565b618f088185617f2e565b9350618f18818560208601616d57565b618f2181616d8a565b840191505092915050565b6000608082019050618f416000830187616e55565b618f4e6020830186616e55565b618f5b6040830185616c56565b8181036060830152618f6d8184618ef3565b905095945050505050565b600081519050618f8781616cac565b92915050565b600060208284031215618fa357618fa2616be0565b5b6000618fb184828501618f78565b91505092915050565b7f4552433732313a207472616e7366657220746f206e6f6e20455243373231526560008201527f6365697665720000000000000000000000000000000000000000000000000000602082015250565b6000619016602683616d46565b915061902182618fba565b604082019050919050565b6000602082019050818103600083015261904581619009565b9050919050565b600061905782616b47565b91506000820361906a57619069616b51565b5b600182039050919050565b7f537472696e67733a20686578206c656e67746820696e73756666696369656e74600082015250565b60006190ab602083616d46565b91506190b682619075565b602082019050919050565b600060208201905081810360008301526190da8161909e565b9050919050565b7f45524333353235536c6f74456e756d657261626c653a20736c6f7420616c726560008201527f6164792065786973747300000000000000000000000000000000000000000000602082015250565b600061913d602a83616d46565b9150619148826190e1565b604082019050919050565b6000602082019050818103600083015261916c81619130565b905091905056fea2646970667358221220de0f9ea5a5ed53128e4aca7585fe7d1e57e6ff5a0301e0ab29b8675a65e3675064736f6c634300080f0033a2646970667358221220e883472380ff6c19142a3ff0fbc8cc38d99518fd8929222cb45a9aaccc8e0c7864736f6c634300080f0033",
  "linkReferences": {},
  "deployedLinkReferences": {}
}