{
  "_format": "hh-sol-artifact-1",
  "contractName": "ERC3525BaseMockUpgradeable",
  "sourceName": "contracts/solvprotocol/erc-3525/mocks/ERC3525BaseMockUpgradeable.sol",
  "abi": [
    {
      "anonymous": false,
      "inputs": [
        {
          "indexed": true,
          "internalType": "address",
          "name": "_owner",
          "type": "address"
        },
        {
          "indexed": true,
          "internalType": "address",
          "name": "_approved",
          "type": "address"
        },
        {
          "indexed": true,
          "internalType": "uint256",
          "name": "_tokenId",
          "type": "uint256"
        }
      ],
      "name": "Approval",
      "type": "event"
    },
    {
      "anonymous": false,
      "inputs": [
        {
          "indexed": true,
          "internalType": "address",
          "name": "_owner",
          "type": "address"
        },
        {
          "indexed": true,
          "internalType": "address",
          "name": "_operator",
          "type": "address"
        },
        {
          "indexed": false,
          "internalType": "bool",
          "name": "_approved",
          "type": "bool"
        }
      ],
      "name": "ApprovalForAll",
      "type": "event"
    },
    {
      "anonymous": false,
      "inputs": [
        {
          "indexed": true,
          "internalType": "uint256",
          "name": "_tokenId",
          "type": "uint256"
        },
        {
          "indexed": true,
          "internalType": "address",
          "name": "_operator",
          "type": "address"
        },
        {
          "indexed": false,
          "internalType": "uint256",
          "name": "_value",
          "type": "uint256"
        }
      ],
      "name": "ApprovalValue",
      "type": "event"
    },
    {
      "anonymous": false,
      "inputs": [
        {
          "indexed": false,
          "internalType": "uint8",
          "name": "version",
          "type": "uint8"
        }
      ],
      "name": "Initialized",
      "type": "event"
    },
    {
      "anonymous": false,
      "inputs": [
        {
          "indexed": true,
          "internalType": "address",
          "name": "metadataDescriptor",
          "type": "address"
        }
      ],
      "name": "SetMetadataDescriptor",
      "type": "event"
    },
    {
      "anonymous": false,
      "inputs": [
        {
          "indexed": true,
          "internalType": "uint256",
          "name": "_tokenId",
          "type": "uint256"
        },
        {
          "indexed": true,
          "internalType": "uint256",
          "name": "_oldSlot",
          "type": "uint256"
        },
        {
          "indexed": true,
          "internalType": "uint256",
          "name": "_newSlot",
          "type": "uint256"
        }
      ],
      "name": "SlotChanged",
      "type": "event"
    },
    {
      "anonymous": false,
      "inputs": [
        {
          "indexed": true,
          "internalType": "address",
          "name": "_from",
          "type": "address"
        },
        {
          "indexed": true,
          "internalType": "address",
          "name": "_to",
          "type": "address"
        },
        {
          "indexed": true,
          "internalType": "uint256",
          "name": "_tokenId",
          "type": "uint256"
        }
      ],
      "name": "Transfer",
      "type": "event"
    },
    {
      "anonymous": false,
      "inputs": [
        {
          "indexed": true,
          "internalType": "uint256",
          "name": "_fromTokenId",
          "type": "uint256"
        },
        {
          "indexed": true,
          "internalType": "uint256",
          "name": "_toTokenId",
          "type": "uint256"
        },
        {
          "indexed": false,
          "internalType": "uint256",
          "name": "_value",
          "type": "uint256"
        }
      ],
      "name": "TransferValue",
      "type": "event"
    },
    {
      "inputs": [
        {
          "internalType": "uint256",
          "name": "tokenId_",
          "type": "uint256"
        },
        {
          "internalType": "address",
          "name": "operator_",
          "type": "address"
        }
      ],
      "name": "allowance",
      "outputs": [
        {
          "internalType": "uint256",
          "name": "",
          "type": "uint256"
        }
      ],
      "stateMutability": "view",
      "type": "function"
    },
    {
      "inputs": [
        {
          "internalType": "address",
          "name": "to_",
          "type": "address"
        },
        {
          "internalType": "uint256",
          "name": "tokenId_",
          "type": "uint256"
        }
      ],
      "name": "approve",
      "outputs": [],
      "stateMutability": "payable",
      "type": "function"
    },
    {
      "inputs": [
        {
          "internalType": "uint256",
          "name": "tokenId_",
          "type": "uint256"
        },
        {
          "internalType": "address",
          "name": "to_",
          "type": "address"
        },
        {
          "internalType": "uint256",
          "name": "value_",
          "type": "uint256"
        }
      ],
      "name": "approve",
      "outputs": [],
      "stateMutability": "payable",
      "type": "function"
    },
    {
      "inputs": [
        {
          "internalType": "address",
          "name": "owner_",
          "type": "address"
        }
      ],
      "name": "balanceOf",
      "outputs": [
        {
          "internalType": "uint256",
          "name": "balance",
          "type": "uint256"
        }
      ],
      "stateMutability": "view",
      "type": "function"
    },
    {
      "inputs": [
        {
          "internalType": "uint256",
          "name": "tokenId_",
          "type": "uint256"
        }
      ],
      "name": "balanceOf",
      "outputs": [
        {
          "internalType": "uint256",
          "name": "",
          "type": "uint256"
        }
      ],
      "stateMutability": "view",
      "type": "function"
    },
    {
      "inputs": [
        {
          "internalType": "uint256",
          "name": "tokenId_",
          "type": "uint256"
        }
      ],
      "name": "burn",
      "outputs": [],
      "stateMutability": "nonpayable",
      "type": "function"
    },
    {
      "inputs": [
        {
          "internalType": "uint256",
          "name": "tokenId_",
          "type": "uint256"
        },
        {
          "internalType": "uint256",
          "name": "burnValue_",
          "type": "uint256"
        }
      ],
      "name": "burnValue",
      "outputs": [],
      "stateMutability": "nonpayable",
      "type": "function"
    },
    {
      "inputs": [],
      "name": "contractURI",
      "outputs": [
        {
          "internalType": "string",
          "name": "",
          "type": "string"
        }
      ],
      "stateMutability": "view",
      "type": "function"
    },
    {
      "inputs": [
        {
          "internalType": "uint256",
          "name": "tokenId_",
          "type": "uint256"
        }
      ],
      "name": "getApproved",
      "outputs": [
        {
          "internalType": "address",
          "name": "",
          "type": "address"
        }
      ],
      "stateMutability": "view",
      "type": "function"
    },
    {
      "inputs": [
        {
          "internalType": "string",
          "name": "name_",
          "type": "string"
        },
        {
          "internalType": "string",
          "name": "symbol_",
          "type": "string"
        },
        {
          "internalType": "uint8",
          "name": "decimals_",
          "type": "uint8"
        }
      ],
      "name": "initialize",
      "outputs": [],
      "stateMutability": "nonpayable",
      "type": "function"
    },
    {
      "inputs": [
        {
          "internalType": "address",
          "name": "owner_",
          "type": "address"
        },
        {
          "internalType": "address",
          "name": "operator_",
          "type": "address"
        }
      ],
      "name": "isApprovedForAll",
      "outputs": [
        {
          "internalType": "bool",
          "name": "",
          "type": "bool"
        }
      ],
      "stateMutability": "view",
      "type": "function"
    },
    {
      "inputs": [],
      "name": "metadataDescriptor",
      "outputs": [
        {
          "internalType": "contract IERC3525MetadataDescriptor",
          "name": "",
          "type": "address"
        }
      ],
      "stateMutability": "view",
      "type": "function"
    },
    {
      "inputs": [
        {
          "internalType": "address",
          "name": "mintTo_",
          "type": "address"
        },
        {
          "internalType": "uint256",
          "name": "tokenId_",
          "type": "uint256"
        },
        {
          "internalType": "uint256",
          "name": "slot_",
          "type": "uint256"
        },
        {
          "internalType": "uint256",
          "name": "value_",
          "type": "uint256"
        }
      ],
      "name": "mint",
      "outputs": [],
      "stateMutability": "nonpayable",
      "type": "function"
    },
    {
      "inputs": [
        {
          "internalType": "uint256",
          "name": "tokenId_",
          "type": "uint256"
        },
        {
          "internalType": "uint256",
          "name": "value_",
          "type": "uint256"
        }
      ],
      "name": "mintValue",
      "outputs": [],
      "stateMutability": "nonpayable",
      "type": "function"
    },
    {
      "inputs": [],
      "name": "name",
      "outputs": [
        {
          "internalType": "string",
          "name": "",
          "type": "string"
        }
      ],
      "stateMutability": "view",
      "type": "function"
    },
    {
      "inputs": [
        {
          "internalType": "uint256",
          "name": "tokenId_",
          "type": "uint256"
        }
      ],
      "name": "ownerOf",
      "outputs": [
        {
          "internalType": "address",
          "name": "owner_",
          "type": "address"
        }
      ],
      "stateMutability": "view",
      "type": "function"
    },
    {
      "inputs": [
        {
          "internalType": "address",
          "name": "from_",
          "type": "address"
        },
        {
          "internalType": "address",
          "name": "to_",
          "type": "address"
        },
        {
          "internalType": "uint256",
          "name": "tokenId_",
          "type": "uint256"
        }
      ],
      "name": "safeTransferFrom",
      "outputs": [],
      "stateMutability": "payable",
      "type": "function"
    },
    {
      "inputs": [
        {
          "internalType": "address",
          "name": "from_",
          "type": "address"
        },
        {
          "internalType": "address",
          "name": "to_",
          "type": "address"
        },
        {
          "internalType": "uint256",
          "name": "tokenId_",
          "type": "uint256"
        },
        {
          "internalType": "bytes",
          "name": "data_",
          "type": "bytes"
        }
      ],
      "name": "safeTransferFrom",
      "outputs": [],
      "stateMutability": "payable",
      "type": "function"
    },
    {
      "inputs": [
        {
          "internalType": "address",
          "name": "operator_",
          "type": "address"
        },
        {
          "internalType": "bool",
          "name": "approved_",
          "type": "bool"
        }
      ],
      "name": "setApprovalForAll",
      "outputs": [],
      "stateMutability": "nonpayable",
      "type": "function"
    },
    {
      "inputs": [
        {
          "internalType": "uint256",
          "name": "tokenId_",
          "type": "uint256"
        }
      ],
      "name": "slotOf",
      "outputs": [
        {
          "internalType": "uint256",
          "name": "",
          "type": "uint256"
        }
      ],
      "stateMutability": "view",
      "type": "function"
    },
    {
      "inputs": [
        {
          "internalType": "uint256",
          "name": "slot_",
          "type": "uint256"
        }
      ],
      "name": "slotURI",
      "outputs": [
        {
          "internalType": "string",
          "name": "",
          "type": "string"
        }
      ],
      "stateMutability": "view",
      "type": "function"
    },
    {
      "inputs": [
        {
          "internalType": "bytes4",
          "name": "interfaceId",
          "type": "bytes4"
        }
      ],
      "name": "supportsInterface",
      "outputs": [
        {
          "internalType": "bool",
          "name": "",
          "type": "bool"
        }
      ],
      "stateMutability": "view",
      "type": "function"
    },
    {
      "inputs": [],
      "name": "symbol",
      "outputs": [
        {
          "internalType": "string",
          "name": "",
          "type": "string"
        }
      ],
      "stateMutability": "view",
      "type": "function"
    },
    {
      "inputs": [
        {
          "internalType": "uint256",
          "name": "index_",
          "type": "uint256"
        }
      ],
      "name": "tokenByIndex",
      "outputs": [
        {
          "internalType": "uint256",
          "name": "",
          "type": "uint256"
        }
      ],
      "stateMutability": "view",
      "type": "function"
    },
    {
      "inputs": [
        {
          "internalType": "address",
          "name": "owner_",
          "type": "address"
        },
        {
          "internalType": "uint256",
          "name": "index_",
          "type": "uint256"
        }
      ],
      "name": "tokenOfOwnerByIndex",
      "outputs": [
        {
          "internalType": "uint256",
          "name": "",
          "type": "uint256"
        }
      ],
      "stateMutability": "view",
      "type": "function"
    },
    {
      "inputs": [
        {
          "internalType": "uint256",
          "name": "tokenId_",
          "type": "uint256"
        }
      ],
      "name": "tokenURI",
      "outputs": [
        {
          "internalType": "string",
          "name": "",
          "type": "string"
        }
      ],
      "stateMutability": "view",
      "type": "function"
    },
    {
      "inputs": [],
      "name": "totalSupply",
      "outputs": [
        {
          "internalType": "uint256",
          "name": "",
          "type": "uint256"
        }
      ],
      "stateMutability": "view",
      "type": "function"
    },
    {
      "inputs": [
        {
          "internalType": "uint256",
          "name": "fromTokenId_",
          "type": "uint256"
        },
        {
          "internalType": "address",
          "name": "to_",
          "type": "address"
        },
        {
          "internalType": "uint256",
          "name": "value_",
          "type": "uint256"
        }
      ],
      "name": "transferFrom",
      "outputs": [
        {
          "internalType": "uint256",
          "name": "",
          "type": "uint256"
        }
      ],
      "stateMutability": "payable",
      "type": "function"
    },
    {
      "inputs": [
        {
          "internalType": "address",
          "name": "from_",
          "type": "address"
        },
        {
          "internalType": "address",
          "name": "to_",
          "type": "address"
        },
        {
          "internalType": "uint256",
          "name": "tokenId_",
          "type": "uint256"
        }
      ],
      "name": "transferFrom",
      "outputs": [],
      "stateMutability": "payable",
      "type": "function"
    },
    {
      "inputs": [
        {
          "internalType": "uint256",
          "name": "fromTokenId_",
          "type": "uint256"
        },
        {
          "internalType": "uint256",
          "name": "toTokenId_",
          "type": "uint256"
        },
        {
          "internalType": "uint256",
          "name": "value_",
          "type": "uint256"
        }
      ],
      "name": "transferFrom",
      "outputs": [],
      "stateMutability": "payable",
      "type": "function"
    },
    {
      "inputs": [],
      "name": "valueDecimals",
      "outputs": [
        {
          "internalType": "uint8",
          "name": "",
          "type": "uint8"
        }
      ],
      "stateMutability": "view",
      "type": "function"
    }
  ],
  "bytecode": "0x608060405234801561001057600080fd5b50615d8880620000216000396000f3fe6080604052600436106101d85760003560e01c80634f6ccce711610102578063a22cb46511610095578063e345e0bc11610064578063e345e0bc146106bb578063e8a3d485146106f8578063e985e9c514610723578063f0e88e7f14610760576101d8565b8063a22cb46514610610578063a647e8ec14610639578063b88d4fde14610662578063c87b56dd1461067e576101d8565b806387fe8611116100d157806387fe8611146105635780638cb0a5111461058c57806395d89b41146105a85780639cc7f708146105d3576101d8565b80634f6ccce7146104815780636352211e146104be57806370a08231146104fb578063840f711314610538576101d8565b806318160ddd1161017a578063310ed7f011610149578063310ed7f0146103f55780633e7e86691461041157806342842e0e1461043c57806342966c6814610458576101d8565b806318160ddd1461033457806323b872dd1461035f578063263f3e7e1461037b5780632f745c59146103b8576101d8565b8063095ea7b3116101b6578063095ea7b31461028257806309c3dd871461029e5780630f485c02146102db5780631624f6c61461030b576101d8565b806301ffc9a7146101dd57806306fdde031461021a578063081812fc14610245575b600080fd5b3480156101e957600080fd5b5061020460048036038101906101ff9190613db6565b610789565b6040516102119190613dfe565b60405180910390f35b34801561022657600080fd5b5061022f6109fb565b60405161023c9190613eb2565b60405180910390f35b34801561025157600080fd5b5061026c60048036038101906102679190613f0a565b610a8d565b6040516102799190613f78565b60405180910390f35b61029c60048036038101906102979190613fbf565b610af8565b005b3480156102aa57600080fd5b506102c560048036038101906102c09190613f0a565b610c0f565b6040516102d29190613eb2565b60405180910390f35b6102f560048036038101906102f09190613fff565b610d6b565b6040516103029190614061565b60405180910390f35b34801561031757600080fd5b50610332600480360381019061032d91906141ea565b610db7565b005b34801561034057600080fd5b50610349610efb565b6040516103569190614061565b60405180910390f35b61037960048036038101906103749190614275565b610f08565b005b34801561038757600080fd5b506103a2600480360381019061039d9190613f0a565b610f68565b6040516103af9190614061565b60405180910390f35b3480156103c457600080fd5b506103df60048036038101906103da9190613fbf565b610fb3565b6040516103ec9190614061565b60405180910390f35b61040f600480360381019061040a91906142c8565b611066565b005b34801561041d57600080fd5b50610426611088565b604051610433919061432a565b60405180910390f35b61045660048036038101906104519190614275565b61109f565b005b34801561046457600080fd5b5061047f600480360381019061047a9190613f0a565b6110bf565b005b34801561048d57600080fd5b506104a860048036038101906104a39190613f0a565b61111b565b6040516104b59190614061565b60405180910390f35b3480156104ca57600080fd5b506104e560048036038101906104e09190613f0a565b611193565b6040516104f29190613f78565b60405180910390f35b34801561050757600080fd5b50610522600480360381019061051d9190614345565b61126d565b60405161052f9190614061565b60405180910390f35b34801561054457600080fd5b5061054d61132a565b60405161055a91906143d1565b60405180910390f35b34801561056f57600080fd5b5061058a600480360381019061058591906143ec565b611350565b005b6105a660048036038101906105a19190613fff565b6113ae565b005b3480156105b457600080fd5b506105bd6114c7565b6040516105ca9190613eb2565b60405180910390f35b3480156105df57600080fd5b506105fa60048036038101906105f59190613f0a565b611559565b6040516106079190614061565b60405180910390f35b34801561061c57600080fd5b5061063760048036038101906106329190614458565b6115a4565b005b34801561064557600080fd5b50610660600480360381019061065b9190614498565b6115ba565b005b61067c600480360381019061067791906145a0565b6115cc565b005b34801561068a57600080fd5b506106a560048036038101906106a09190613f0a565b61162e565b6040516106b29190613eb2565b60405180910390f35b3480156106c757600080fd5b506106e260048036038101906106dd9190614623565b611793565b6040516106ef9190614061565b60405180910390f35b34801561070457600080fd5b5061070d6117f7565b60405161071a9190613eb2565b60405180910390f35b34801561072f57600080fd5b5061074a60048036038101906107459190614663565b611946565b6040516107579190613dfe565b60405180910390f35b34801561076c57600080fd5b50610787600480360381019061078291906143ec565b6119dd565b005b60007f01ffc9a7000000000000000000000000000000000000000000000000000000007bffffffffffffffffffffffffffffffffffffffffffffffffffffffff1916827bffffffffffffffffffffffffffffffffffffffffffffffffffffffff1916148061085457507fd5358140000000000000000000000000000000000000000000000000000000007bffffffffffffffffffffffffffffffffffffffffffffffffffffffff1916827bffffffffffffffffffffffffffffffffffffffffffffffffffffffff1916145b806108bc57507f80ac58cd000000000000000000000000000000000000000000000000000000007bffffffffffffffffffffffffffffffffffffffffffffffffffffffff1916827bffffffffffffffffffffffffffffffffffffffffffffffffffffffff1916145b8061092457507fe1600902000000000000000000000000000000000000000000000000000000007bffffffffffffffffffffffffffffffffffffffffffffffffffffffff1916827bffffffffffffffffffffffffffffffffffffffffffffffffffffffff1916145b8061098c57507f780e9d63000000000000000000000000000000000000000000000000000000007bffffffffffffffffffffffffffffffffffffffffffffffffffffffff1916827bffffffffffffffffffffffffffffffffffffffffffffffffffffffff1916145b806109f457507f5b5e139f000000000000000000000000000000000000000000000000000000007bffffffffffffffffffffffffffffffffffffffffffffffffffffffff1916827bffffffffffffffffffffffffffffffffffffffffffffffffffffffff1916145b9050919050565b606060338054610a0a906146d2565b80601f0160208091040260200160405190810160405280929190818152602001828054610a36906146d2565b8015610a835780601f10610a5857610100808354040283529160200191610a83565b820191906000526020600020905b815481529060010190602001808311610a6657829003601f168201915b5050505050905090565b6000610a98826119eb565b6038603960008481526020019081526020016000205481548110610abf57610abe614703565b5b906000526020600020906006020160040160009054906101000a900473ffffffffffffffffffffffffffffffffffffffff169050919050565b6000610b0382611193565b90508073ffffffffffffffffffffffffffffffffffffffff168373ffffffffffffffffffffffffffffffffffffffff1603610b73576040517f08c379a0000000000000000000000000000000000000000000000000000000008152600401610b6a906147a4565b60405180910390fd5b8073ffffffffffffffffffffffffffffffffffffffff16610b92611a36565b73ffffffffffffffffffffffffffffffffffffffff161480610bc15750610bc081610bbb611a36565b611946565b5b610c00576040517f08c379a0000000000000000000000000000000000000000000000000000000008152600401610bf790614836565b60405180910390fd5b610c0a8383611a3e565b505050565b60606000610c1b611b1c565b9050600073ffffffffffffffffffffffffffffffffffffffff16603b60009054906101000a900473ffffffffffffffffffffffffffffffffffffffff1673ffffffffffffffffffffffffffffffffffffffff1603610cc1576000815111610c915760405180602001604052806000815250610cbc565b80610c9b84611b33565b604051602001610cac9291906148de565b6040516020818303038152906040525b610d63565b603b60009054906101000a900473ffffffffffffffffffffffffffffffffffffffff1673ffffffffffffffffffffffffffffffffffffffff16636c037f8a846040518263ffffffff1660e01b8152600401610d1c9190614061565b600060405180830381865afa158015610d39573d6000803e3d6000fd5b505050506040513d6000823e3d601f19601f82011682018060405250810190610d62919061497d565b5b915050919050565b6000610d7f610d78611a36565b8584611c01565b6000610d8a85611cab565b9050610da18482610d9a88610f68565b6000611cbc565b610dac858285611df2565b809150509392505050565b60008060019054906101000a900460ff16159050808015610de85750600160008054906101000a900460ff1660ff16105b80610e155750610df7306120af565b158015610e145750600160008054906101000a900460ff1660ff16145b5b610e54576040517f08c379a0000000000000000000000000000000000000000000000000000000008152600401610e4b90614a38565b60405180910390fd5b60016000806101000a81548160ff021916908360ff1602179055508015610e91576001600060016101000a81548160ff0219169083151502179055505b610e9c8484846120d2565b8015610ef55760008060016101000a81548160ff0219169083151502179055507f7f26b83ff96e1f2b6a682f133852f6798a09c465da95921460cefb38474024986001604051610eec9190614a93565b60405180910390a15b50505050565b6000603880549050905090565b610f19610f13611a36565b82612131565b610f58576040517f08c379a0000000000000000000000000000000000000000000000000000000008152600401610f4f90614b20565b60405180910390fd5b610f638383836121d0565b505050565b6000610f73826119eb565b6038603960008481526020019081526020016000205481548110610f9a57610f99614703565b5b9060005260206000209060060201600101549050919050565b6000610fbe8361126d565b8210610fff576040517f08c379a0000000000000000000000000000000000000000000000000000000008152600401610ff690614bb2565b60405180910390fd5b603a60008473ffffffffffffffffffffffffffffffffffffffff1673ffffffffffffffffffffffffffffffffffffffff168152602001908152602001600020600001828154811061105357611052614703565b5b9060005260206000200154905092915050565b611078611071611a36565b8483611c01565b611083838383611df2565b505050565b6000603560009054906101000a900460ff16905090565b6110ba838383604051806020016040528060008152506115cc565b505050565b6110d06110ca611a36565b82612131565b61110f576040517f08c379a000000000000000000000000000000000000000000000000000000000815260040161110690614c44565b60405180910390fd5b61111881612375565b50565b6000611125610efb565b8210611166576040517f08c379a000000000000000000000000000000000000000000000000000000000815260040161115d90614cd6565b60405180910390fd5b6038828154811061117a57611179614703565b5b9060005260206000209060060201600001549050919050565b600061119e826119eb565b60386039600084815260200190815260200160002054815481106111c5576111c4614703565b5b906000526020600020906006020160030160009054906101000a900473ffffffffffffffffffffffffffffffffffffffff169050600073ffffffffffffffffffffffffffffffffffffffff168173ffffffffffffffffffffffffffffffffffffffff1603611268576040517f08c379a000000000000000000000000000000000000000000000000000000000815260040161125f90614d42565b60405180910390fd5b919050565b60008073ffffffffffffffffffffffffffffffffffffffff168273ffffffffffffffffffffffffffffffffffffffff16036112dd576040517f08c379a00000000000000000000000000000000000000000000000000000000081526004016112d490614dd4565b60405180910390fd5b603a60008373ffffffffffffffffffffffffffffffffffffffff1673ffffffffffffffffffffffffffffffffffffffff168152602001908152602001600020600001805490509050919050565b603b60009054906101000a900473ffffffffffffffffffffffffffffffffffffffff1681565b61136161135b611a36565b83612131565b6113a0576040517f08c379a000000000000000000000000000000000000000000000000000000000815260040161139790614c44565b60405180910390fd5b6113aa82826124fb565b5050565b60006113b984611193565b90508073ffffffffffffffffffffffffffffffffffffffff168373ffffffffffffffffffffffffffffffffffffffff1603611429576040517f08c379a0000000000000000000000000000000000000000000000000000000008152600401611420906147a4565b60405180910390fd5b8073ffffffffffffffffffffffffffffffffffffffff16611448611a36565b73ffffffffffffffffffffffffffffffffffffffff161480611477575061147681611471611a36565b611946565b5b6114b6576040517f08c379a00000000000000000000000000000000000000000000000000000000081526004016114ad90614836565b60405180910390fd5b6114c1848484612628565b50505050565b6060603480546114d6906146d2565b80601f0160208091040260200160405190810160405280929190818152602001828054611502906146d2565b801561154f5780601f106115245761010080835404028352916020019161154f565b820191906000526020600020905b81548152906001019060200180831161153257829003601f168201915b5050505050905090565b6000611564826119eb565b603860396000848152602001908152602001600020548154811061158b5761158a614703565b5b9060005260206000209060060201600201549050919050565b6115b66115af611a36565b83836127e8565b5050565b6115c684848484611cbc565b50505050565b6115dd6115d7611a36565b83612131565b61161c576040517f08c379a000000000000000000000000000000000000000000000000000000000815260040161161390614b20565b60405180910390fd5b61162884848484612957565b50505050565b6060611639826119eb565b6000611643611b1c565b9050600073ffffffffffffffffffffffffffffffffffffffff16603b60009054906101000a900473ffffffffffffffffffffffffffffffffffffffff1673ffffffffffffffffffffffffffffffffffffffff16036116e95760008151116116b957604051806020016040528060008152506116e4565b806116c384611b33565b6040516020016116d4929190614df4565b6040516020818303038152906040525b61178b565b603b60009054906101000a900473ffffffffffffffffffffffffffffffffffffffff1673ffffffffffffffffffffffffffffffffffffffff1663894b4c2e846040518263ffffffff1660e01b81526004016117449190614061565b600060405180830381865afa158015611761573d6000803e3d6000fd5b505050506040513d6000823e3d601f19601f8201168201806040525081019061178a919061497d565b5b915050919050565b600061179e836119eb565b6037600084815260200190815260200160002060008373ffffffffffffffffffffffffffffffffffffffff1673ffffffffffffffffffffffffffffffffffffffff16815260200190815260200160002054905092915050565b60606000611803611b1c565b9050600073ffffffffffffffffffffffffffffffffffffffff16603b60009054906101000a900473ffffffffffffffffffffffffffffffffffffffff1673ffffffffffffffffffffffffffffffffffffffff16036118a957600081511161187957604051806020016040528060008152506118a4565b80611883306129b3565b604051602001611894929190614e64565b6040516020818303038152906040525b611940565b603b60009054906101000a900473ffffffffffffffffffffffffffffffffffffffff1673ffffffffffffffffffffffffffffffffffffffff1663725fa09c6040518163ffffffff1660e01b8152600401600060405180830381865afa158015611916573d6000803e3d6000fd5b505050506040513d6000823e3d601f19601f8201168201806040525081019061193f919061497d565b5b91505090565b6000603a60008473ffffffffffffffffffffffffffffffffffffffff1673ffffffffffffffffffffffffffffffffffffffff16815260200190815260200160002060020160008373ffffffffffffffffffffffffffffffffffffffff1673ffffffffffffffffffffffffffffffffffffffff16815260200190815260200160002060009054906101000a900460ff16905092915050565b6119e782826129e0565b5050565b6119f481612a33565b611a33576040517f08c379a0000000000000000000000000000000000000000000000000000000008152600401611a2a90614d42565b60405180910390fd5b50565b600033905090565b816038603960008481526020019081526020016000205481548110611a6657611a65614703565b5b906000526020600020906006020160040160006101000a81548173ffffffffffffffffffffffffffffffffffffffff021916908373ffffffffffffffffffffffffffffffffffffffff160217905550808273ffffffffffffffffffffffffffffffffffffffff16611ad683611193565b73ffffffffffffffffffffffffffffffffffffffff167f8c5be1e5ebec7d5bd14f71427d1e84f3dd0314c0f7b2291e5b200ac8c7c3b92560405160405180910390a45050565b606060405180602001604052806000815250905090565b606060006001611b4284612a88565b01905060008167ffffffffffffffff811115611b6157611b60614086565b5b6040519080825280601f01601f191660200182016040528015611b935781602001600182028036833780820191505090505b509050600082602001820190505b600115611bf6578080600190039150507f3031323334353637383961626364656600000000000000000000000000000000600a86061a8153600a8581611bea57611be9614e93565b5b04945060008503611ba1575b819350505050919050565b6000611c0d8385611793565b9050611c198484612131565b158015611c4657507fffffffffffffffffffffffffffffffffffffffffffffffffffffffffffffffff8114155b15611ca55781811015611c8e576040517f08c379a0000000000000000000000000000000000000000000000000000000008152600401611c8590614f0e565b60405180910390fd5b611ca483858484611c9f9190614f5d565b612628565b5b50505050565b6000611cb5612bdb565b9050919050565b600073ffffffffffffffffffffffffffffffffffffffff168473ffffffffffffffffffffffffffffffffffffffff1603611d2b576040517f08c379a0000000000000000000000000000000000000000000000000000000008152600401611d2290615003565b60405180910390fd5b60008303611d6e576040517f08c379a0000000000000000000000000000000000000000000000000000000008152600401611d6590615095565b60405180910390fd5b611d7783612a33565b15611db7576040517f08c379a0000000000000000000000000000000000000000000000000000000008152600401611dae90615101565b60405180910390fd5b611dc76000856000868686612bf6565b611dd2848484612bfe565b611ddc8382612d4b565b611dec6000856000868686612dd8565b50505050565b611dfb83612a33565b611e3a576040517f08c379a0000000000000000000000000000000000000000000000000000000008152600401611e3190615193565b60405180910390fd5b611e4382612a33565b611e82576040517f08c379a0000000000000000000000000000000000000000000000000000000008152600401611e7990615225565b60405180910390fd5b60006038603960008681526020019081526020016000205481548110611eab57611eaa614703565b5b9060005260206000209060060201905060006038603960008681526020019081526020016000205481548110611ee457611ee3614703565b5b906000526020600020906006020190508282600201541015611f3b576040517f08c379a0000000000000000000000000000000000000000000000000000000008152600401611f32906152b7565b60405180910390fd5b8060010154826001015414611f85576040517f08c379a0000000000000000000000000000000000000000000000000000000008152600401611f7c90615349565b60405180910390fd5b611fdf8260030160009054906101000a900473ffffffffffffffffffffffffffffffffffffffff168260030160009054906101000a900473ffffffffffffffffffffffffffffffffffffffff168787866001015488612bf6565b82826002016000828254611ff39190614f5d565b925050819055508281600201600082825461200e9190615369565b9250508190555083857f0b2aac84f3ec956911fd78eae5311062972ff949f38412e8da39069d9f068cc6856040516120469190614061565b60405180910390a36120a88260030160009054906101000a900473ffffffffffffffffffffffffffffffffffffffff168260030160009054906101000a900473ffffffffffffffffffffffffffffffffffffffff168787866001015488612dd8565b5050505050565b6000808273ffffffffffffffffffffffffffffffffffffffff163b119050919050565b600060019054906101000a900460ff16612121576040517f08c379a000000000000000000000000000000000000000000000000000000000815260040161211890615431565b60405180910390fd5b61212c838383612de0565b505050565b600061213c826119eb565b600061214783611193565b90508073ffffffffffffffffffffffffffffffffffffffff168473ffffffffffffffffffffffffffffffffffffffff16148061218957506121888185611946565b5b806121c757508373ffffffffffffffffffffffffffffffffffffffff166121af84610a8d565b73ffffffffffffffffffffffffffffffffffffffff16145b91505092915050565b8273ffffffffffffffffffffffffffffffffffffffff166121f082611193565b73ffffffffffffffffffffffffffffffffffffffff1614612246576040517f08c379a000000000000000000000000000000000000000000000000000000000815260040161223d906154c3565b60405180910390fd5b600073ffffffffffffffffffffffffffffffffffffffff168273ffffffffffffffffffffffffffffffffffffffff16036122b5576040517f08c379a00000000000000000000000000000000000000000000000000000000081526004016122ac90615555565b60405180910390fd5b60006122c082610f68565b905060006122cd83611559565b90506122dd858585868686612bf6565b6122e8600084611a3e565b6122f183612e20565b6122fb8584612f23565b61230584846130bf565b828473ffffffffffffffffffffffffffffffffffffffff168673ffffffffffffffffffffffffffffffffffffffff167fddf252ad1be2c89b69c2b068fc378daa952ba7f163c4a11628f55a4df523b3ef60405160405180910390a461236e858585868686612dd8565b5050505050565b61237e816119eb565b600060386039600084815260200190815260200160002054815481106123a7576123a6614703565b5b9060005260206000209060060201905060008160030160009054906101000a900473ffffffffffffffffffffffffffffffffffffffff1690506000826001015490506000836002015490506124028360008760008686612bf6565b61240b85612e20565b6124158386612f23565b61241e85613240565b6000857f0b2aac84f3ec956911fd78eae5311062972ff949f38412e8da39069d9f068cc6836040516124509190614061565b60405180910390a3600082867fe4f48c240d3b994948aa54f3e2f5fca59263dfe1d52b6e4cf39a5d249b5ccb6560405160405180910390a484600073ffffffffffffffffffffffffffffffffffffffff168473ffffffffffffffffffffffffffffffffffffffff167fddf252ad1be2c89b69c2b068fc378daa952ba7f163c4a11628f55a4df523b3ef60405160405180910390a46124f48360008760008686612dd8565b5050505050565b612504826119eb565b6000603860396000858152602001908152602001600020548154811061252d5761252c614703565b5b9060005260206000209060060201905060008160030160009054906101000a900473ffffffffffffffffffffffffffffffffffffffff169050600082600101549050600083600201549050848110156125bb576040517f08c379a00000000000000000000000000000000000000000000000000000000081526004016125b2906155e7565b60405180910390fd5b6125cb836000886000868a612bf6565b848460020160008282546125df9190614f5d565b925050819055506000867f0b2aac84f3ec956911fd78eae5311062972ff949f38412e8da39069d9f068cc6876040516126189190614061565b60405180910390a3505050505050565b600073ffffffffffffffffffffffffffffffffffffffff168273ffffffffffffffffffffffffffffffffffffffff1603612697576040517f08c379a000000000000000000000000000000000000000000000000000000000815260040161268e90615679565b60405180910390fd5b6126a182846135c0565b61273f5760386039600085815260200190815260200160002054815481106126cc576126cb614703565b5b9060005260206000209060060201600501829080600181540180825580915050600190039060005260206000200160009091909190916101000a81548173ffffffffffffffffffffffffffffffffffffffff021916908373ffffffffffffffffffffffffffffffffffffffff1602179055505b806037600085815260200190815260200160002060008473ffffffffffffffffffffffffffffffffffffffff1673ffffffffffffffffffffffffffffffffffffffff168152602001908152602001600020819055508173ffffffffffffffffffffffffffffffffffffffff16837f621b050de0ad08b51d19b48b3e6df75348c4de6bdd93e81b252ca62e28265b1b836040516127db9190614061565b60405180910390a3505050565b8173ffffffffffffffffffffffffffffffffffffffff168373ffffffffffffffffffffffffffffffffffffffff1603612856576040517f08c379a000000000000000000000000000000000000000000000000000000000815260040161284d906156e5565b60405180910390fd5b80603a60008573ffffffffffffffffffffffffffffffffffffffff1673ffffffffffffffffffffffffffffffffffffffff16815260200190815260200160002060020160008473ffffffffffffffffffffffffffffffffffffffff1673ffffffffffffffffffffffffffffffffffffffff16815260200190815260200160002060006101000a81548160ff0219169083151502179055508173ffffffffffffffffffffffffffffffffffffffff168373ffffffffffffffffffffffffffffffffffffffff167f17307eab39ab6107e8899845ad3d59bd9653f200f220920489ca2b5937696c318360405161294a9190613dfe565b60405180910390a3505050565b6129628484846121d0565b61296e848484846136de565b6129ad576040517f08c379a00000000000000000000000000000000000000000000000000000000081526004016129a490615777565b60405180910390fd5b50505050565b60606129d98273ffffffffffffffffffffffffffffffffffffffff16601460ff16613907565b9050919050565b6129e9826119eb565b60006129f483611193565b90506000612a0184610f68565b9050612a136000836000878588612bf6565b612a1d8484612d4b565b612a2d6000836000878588612dd8565b50505050565b60008060388054905014158015612a815750816038603960008581526020019081526020016000205481548110612a6d57612a6c614703565b5b906000526020600020906006020160000154145b9050919050565b600080600090507a184f03e93ff9f4daa797ed6e38ed64bf6a1f0100000000000000008310612ae6577a184f03e93ff9f4daa797ed6e38ed64bf6a1f0100000000000000008381612adc57612adb614e93565b5b0492506040810190505b6d04ee2d6d415b85acef81000000008310612b23576d04ee2d6d415b85acef81000000008381612b1957612b18614e93565b5b0492506020810190505b662386f26fc100008310612b5257662386f26fc100008381612b4857612b47614e93565b5b0492506010810190505b6305f5e1008310612b7b576305f5e1008381612b7157612b70614e93565b5b0492506008810190505b6127108310612ba0576127108381612b9657612b95614e93565b5b0492506004810190505b60648310612bc35760648381612bb957612bb8614e93565b5b0492506002810190505b600a8310612bd2576001810190505b80915050919050565b6000612be76036613b43565b612bf16036613b59565b905090565b505050505050565b60006040518060c00160405280848152602001838152602001600081526020018573ffffffffffffffffffffffffffffffffffffffff168152602001600073ffffffffffffffffffffffffffffffffffffffff168152602001600067ffffffffffffffff811115612c7257612c71614086565b5b604051908082528060200260200182016040528015612ca05781602001602082028036833780820191505090505b508152509050612caf81613b67565b612cb984846130bf565b828473ffffffffffffffffffffffffffffffffffffffff16600073ffffffffffffffffffffffffffffffffffffffff167fddf252ad1be2c89b69c2b068fc378daa952ba7f163c4a11628f55a4df523b3ef60405160405180910390a4816000847fe4f48c240d3b994948aa54f3e2f5fca59263dfe1d52b6e4cf39a5d249b5ccb6560405160405180910390a450505050565b806038603960008581526020019081526020016000205481548110612d7357612d72614703565b5b90600052602060002090600602016002016000828254612d939190615369565b925050819055508160007f0b2aac84f3ec956911fd78eae5311062972ff949f38412e8da39069d9f068cc683604051612dcc9190614061565b60405180910390a35050565b505050505050565b8260339081612def9190615939565b508160349081612dff9190615939565b5080603560006101000a81548160ff021916908360ff160217905550505050565b60006038603960008481526020019081526020016000205481548110612e4957612e48614703565b5b9060005260206000209060060201905060008160050180549050905060005b81811015612f1d576000836005018281548110612e8857612e87614703565b5b9060005260206000200160009054906101000a900473ffffffffffffffffffffffffffffffffffffffff1690506037600086815260200190815260200160002060008273ffffffffffffffffffffffffffffffffffffffff1673ffffffffffffffffffffffffffffffffffffffff16815260200190815260200160002060009055508080612f1590615a0b565b915050612e68565b50505050565b60006038603960008481526020019081526020016000205481548110612f4c57612f4b614703565b5b906000526020600020906006020160030160006101000a81548173ffffffffffffffffffffffffffffffffffffffff021916908373ffffffffffffffffffffffffffffffffffffffff1602179055506000603a60008473ffffffffffffffffffffffffffffffffffffffff1673ffffffffffffffffffffffffffffffffffffffff1681526020019081526020016000209050600060018260000180549050612ff49190614f5d565b9050600082600001828154811061300e5761300d614703565b5b9060005260206000200154905060008360010160008681526020019081526020016000205490508184600001828154811061304c5761304b614703565b5b9060005260206000200181905550808460010160008481526020019081526020016000208190555083600101600086815260200190815260200160002060009055836000018054806130a1576130a0615a53565b5b60019003818190600052602060002001600090559055505050505050565b8160386039600084815260200190815260200160002054815481106130e7576130e6614703565b5b906000526020600020906006020160030160006101000a81548173ffffffffffffffffffffffffffffffffffffffff021916908373ffffffffffffffffffffffffffffffffffffffff160217905550603a60008373ffffffffffffffffffffffffffffffffffffffff1673ffffffffffffffffffffffffffffffffffffffff16815260200190815260200160002060000180549050603a60008473ffffffffffffffffffffffffffffffffffffffff1673ffffffffffffffffffffffffffffffffffffffff168152602001908152602001600020600101600083815260200190815260200160002081905550603a60008373ffffffffffffffffffffffffffffffffffffffff1673ffffffffffffffffffffffffffffffffffffffff1681526020019081526020016000206000018190806001815401808255809150506001900390600052602060002001600090919091909150555050565b600060016038805490506132549190614f5d565b905060006039600084815260200190815260200160002054905060006038838154811061328457613283614703565b5b90600052602060002090600602016040518060c00160405290816000820154815260200160018201548152602001600282015481526020016003820160009054906101000a900473ffffffffffffffffffffffffffffffffffffffff1673ffffffffffffffffffffffffffffffffffffffff1673ffffffffffffffffffffffffffffffffffffffff1681526020016004820160009054906101000a900473ffffffffffffffffffffffffffffffffffffffff1673ffffffffffffffffffffffffffffffffffffffff1673ffffffffffffffffffffffffffffffffffffffff168152602001600582018054806020026020016040519081016040528092919081815260200182805480156133ec57602002820191906000526020600020905b8160009054906101000a900473ffffffffffffffffffffffffffffffffffffffff1673ffffffffffffffffffffffffffffffffffffffff16815260200190600101908083116133a2575b5050505050815250509050806038838154811061340c5761340b614703565b5b906000526020600020906006020160008201518160000155602082015181600101556040820151816002015560608201518160030160006101000a81548173ffffffffffffffffffffffffffffffffffffffff021916908373ffffffffffffffffffffffffffffffffffffffff16021790555060808201518160040160006101000a81548173ffffffffffffffffffffffffffffffffffffffff021916908373ffffffffffffffffffffffffffffffffffffffff16021790555060a08201518160050190805190602001906134e2929190613c82565b50905050816039600083600001518152602001908152602001600020819055506039600085815260200190815260200160002060009055603880548061352b5761352a615a53565b5b6001900381819060005260206000209060060201600080820160009055600182016000905560028201600090556003820160006101000a81549073ffffffffffffffffffffffffffffffffffffffff02191690556004820160006101000a81549073ffffffffffffffffffffffffffffffffffffffff02191690556005820160006135b69190613d0c565b5050905550505050565b60008060386039600085815260200190815260200160002054815481106135ea576135e9614703565b5b906000526020600020906006020160050180549050905060005b818110156136d1578473ffffffffffffffffffffffffffffffffffffffff16603860396000878152602001908152602001600020548154811061364a57613649614703565b5b9060005260206000209060060201600501828154811061366d5761366c614703565b5b9060005260206000200160009054906101000a900473ffffffffffffffffffffffffffffffffffffffff1673ffffffffffffffffffffffffffffffffffffffff16036136be576001925050506136d8565b80806136c990615a0b565b915050613604565b5060009150505b92915050565b60006136ff8473ffffffffffffffffffffffffffffffffffffffff166120af565b80156137a157508373ffffffffffffffffffffffffffffffffffffffff166301ffc9a77f150b7a02000000000000000000000000000000000000000000000000000000006040518263ffffffff1660e01b815260040161375f9190615a91565b602060405180830381865afa15801561377c573d6000803e3d6000fd5b505050506040513d601f19601f820116820180604052508101906137a09190615ac1565b5b156138fa578373ffffffffffffffffffffffffffffffffffffffff1663150b7a026137ca611a36565b8786866040518563ffffffff1660e01b81526004016137ec9493929190615b43565b6020604051808303816000875af192505050801561382857506040513d601f19601f820116820180604052508101906138259190615ba4565b60015b6138aa573d8060008114613858576040519150601f19603f3d011682016040523d82523d6000602084013e61385d565b606091505b5060008151036138a2576040517f08c379a000000000000000000000000000000000000000000000000000000000815260040161389990615c43565b60405180910390fd5b805181602001fd5b63150b7a0260e01b7bffffffffffffffffffffffffffffffffffffffffffffffffffffffff1916817bffffffffffffffffffffffffffffffffffffffffffffffffffffffff1916149150506138ff565b600190505b949350505050565b60606000600283600261391a9190615c63565b6139249190615369565b67ffffffffffffffff81111561393d5761393c614086565b5b6040519080825280601f01601f19166020018201604052801561396f5781602001600182028036833780820191505090505b5090507f3000000000000000000000000000000000000000000000000000000000000000816000815181106139a7576139a6614703565b5b60200101907effffffffffffffffffffffffffffffffffffffffffffffffffffffffffffff1916908160001a9053507f780000000000000000000000000000000000000000000000000000000000000081600181518110613a0b57613a0a614703565b5b60200101907effffffffffffffffffffffffffffffffffffffffffffffffffffffffffffff1916908160001a90535060006001846002613a4b9190615c63565b613a559190615369565b90505b6001811115613af5577f3031323334353637383961626364656600000000000000000000000000000000600f861660108110613a9757613a96614703565b5b1a60f81b828281518110613aae57613aad614703565b5b60200101907effffffffffffffffffffffffffffffffffffffffffffffffffffffffffffff1916908160001a905350600485901c945080613aee90615cbd565b9050613a58565b5060008414613b39576040517f08c379a0000000000000000000000000000000000000000000000000000000008152600401613b3090615d32565b60405180910390fd5b8091505092915050565b6001816000016000828254019250508190555050565b600081600001549050919050565b603880549050603960008360000151815260200190815260200160002081905550603881908060018154018082558091505060019003906000526020600020906006020160009091909190915060008201518160000155602082015181600101556040820151816002015560608201518160030160006101000a81548173ffffffffffffffffffffffffffffffffffffffff021916908373ffffffffffffffffffffffffffffffffffffffff16021790555060808201518160040160006101000a81548173ffffffffffffffffffffffffffffffffffffffff021916908373ffffffffffffffffffffffffffffffffffffffff16021790555060a0820151816005019080519060200190613c7c929190613c82565b50505050565b828054828255906000526020600020908101928215613cfb579160200282015b82811115613cfa5782518260006101000a81548173ffffffffffffffffffffffffffffffffffffffff021916908373ffffffffffffffffffffffffffffffffffffffff16021790555091602001919060010190613ca2565b5b509050613d089190613d2d565b5090565b5080546000825590600052602060002090810190613d2a9190613d2d565b50565b5b80821115613d46576000816000905550600101613d2e565b5090565b6000604051905090565b600080fd5b600080fd5b60007fffffffff0000000000000000000000000000000000000000000000000000000082169050919050565b613d9381613d5e565b8114613d9e57600080fd5b50565b600081359050613db081613d8a565b92915050565b600060208284031215613dcc57613dcb613d54565b5b6000613dda84828501613da1565b91505092915050565b60008115159050919050565b613df881613de3565b82525050565b6000602082019050613e136000830184613def565b92915050565b600081519050919050565b600082825260208201905092915050565b60005b83811015613e53578082015181840152602081019050613e38565b83811115613e62576000848401525b50505050565b6000601f19601f8301169050919050565b6000613e8482613e19565b613e8e8185613e24565b9350613e9e818560208601613e35565b613ea781613e68565b840191505092915050565b60006020820190508181036000830152613ecc8184613e79565b905092915050565b6000819050919050565b613ee781613ed4565b8114613ef257600080fd5b50565b600081359050613f0481613ede565b92915050565b600060208284031215613f2057613f1f613d54565b5b6000613f2e84828501613ef5565b91505092915050565b600073ffffffffffffffffffffffffffffffffffffffff82169050919050565b6000613f6282613f37565b9050919050565b613f7281613f57565b82525050565b6000602082019050613f8d6000830184613f69565b92915050565b613f9c81613f57565b8114613fa757600080fd5b50565b600081359050613fb981613f93565b92915050565b60008060408385031215613fd657613fd5613d54565b5b6000613fe485828601613faa565b9250506020613ff585828601613ef5565b9150509250929050565b60008060006060848603121561401857614017613d54565b5b600061402686828701613ef5565b935050602061403786828701613faa565b925050604061404886828701613ef5565b9150509250925092565b61405b81613ed4565b82525050565b60006020820190506140766000830184614052565b92915050565b600080fd5b600080fd5b7f4e487b7100000000000000000000000000000000000000000000000000000000600052604160045260246000fd5b6140be82613e68565b810181811067ffffffffffffffff821117156140dd576140dc614086565b5b80604052505050565b60006140f0613d4a565b90506140fc82826140b5565b919050565b600067ffffffffffffffff82111561411c5761411b614086565b5b61412582613e68565b9050602081019050919050565b82818337600083830152505050565b600061415461414f84614101565b6140e6565b9050828152602081018484840111156141705761416f614081565b5b61417b848285614132565b509392505050565b600082601f8301126141985761419761407c565b5b81356141a8848260208601614141565b91505092915050565b600060ff82169050919050565b6141c7816141b1565b81146141d257600080fd5b50565b6000813590506141e4816141be565b92915050565b60008060006060848603121561420357614202613d54565b5b600084013567ffffffffffffffff81111561422157614220613d59565b5b61422d86828701614183565b935050602084013567ffffffffffffffff81111561424e5761424d613d59565b5b61425a86828701614183565b925050604061426b868287016141d5565b9150509250925092565b60008060006060848603121561428e5761428d613d54565b5b600061429c86828701613faa565b93505060206142ad86828701613faa565b92505060406142be86828701613ef5565b9150509250925092565b6000806000606084860312156142e1576142e0613d54565b5b60006142ef86828701613ef5565b935050602061430086828701613ef5565b925050604061431186828701613ef5565b9150509250925092565b614324816141b1565b82525050565b600060208201905061433f600083018461431b565b92915050565b60006020828403121561435b5761435a613d54565b5b600061436984828501613faa565b91505092915050565b6000819050919050565b600061439761439261438d84613f37565b614372565b613f37565b9050919050565b60006143a98261437c565b9050919050565b60006143bb8261439e565b9050919050565b6143cb816143b0565b82525050565b60006020820190506143e660008301846143c2565b92915050565b6000806040838503121561440357614402613d54565b5b600061441185828601613ef5565b925050602061442285828601613ef5565b9150509250929050565b61443581613de3565b811461444057600080fd5b50565b6000813590506144528161442c565b92915050565b6000806040838503121561446f5761446e613d54565b5b600061447d85828601613faa565b925050602061448e85828601614443565b9150509250929050565b600080600080608085870312156144b2576144b1613d54565b5b60006144c087828801613faa565b94505060206144d187828801613ef5565b93505060406144e287828801613ef5565b92505060606144f387828801613ef5565b91505092959194509250565b600067ffffffffffffffff82111561451a57614519614086565b5b61452382613e68565b9050602081019050919050565b600061454361453e846144ff565b6140e6565b90508281526020810184848401111561455f5761455e614081565b5b61456a848285614132565b509392505050565b600082601f8301126145875761458661407c565b5b8135614597848260208601614530565b91505092915050565b600080600080608085870312156145ba576145b9613d54565b5b60006145c887828801613faa565b94505060206145d987828801613faa565b93505060406145ea87828801613ef5565b925050606085013567ffffffffffffffff81111561460b5761460a613d59565b5b61461787828801614572565b91505092959194509250565b6000806040838503121561463a57614639613d54565b5b600061464885828601613ef5565b925050602061465985828601613faa565b9150509250929050565b6000806040838503121561467a57614679613d54565b5b600061468885828601613faa565b925050602061469985828601613faa565b9150509250929050565b7f4e487b7100000000000000000000000000000000000000000000000000000000600052602260045260246000fd5b600060028204905060018216806146ea57607f821691505b6020821081036146fd576146fc6146a3565b5b50919050565b7f4e487b7100000000000000000000000000000000000000000000000000000000600052603260045260246000fd5b7f455243333532353a20617070726f76616c20746f2063757272656e74206f776e60008201527f6572000000000000000000000000000000000000000000000000000000000000602082015250565b600061478e602283613e24565b915061479982614732565b604082019050919050565b600060208201905081810360008301526147bd81614781565b9050919050565b7f455243333532353a20617070726f76652063616c6c6572206973206e6f74206f60008201527f776e6572206e6f7220617070726f76656420666f7220616c6c00000000000000602082015250565b6000614820603983613e24565b915061482b826147c4565b604082019050919050565b6000602082019050818103600083015261484f81614813565b9050919050565b600081905092915050565b600061486c82613e19565b6148768185614856565b9350614886818560208601613e35565b80840191505092915050565b7f736c6f742f000000000000000000000000000000000000000000000000000000600082015250565b60006148c8600583614856565b91506148d382614892565b600582019050919050565b60006148ea8285614861565b91506148f5826148bb565b91506149018284614861565b91508190509392505050565b600061492061491b84614101565b6140e6565b90508281526020810184848401111561493c5761493b614081565b5b614947848285613e35565b509392505050565b600082601f8301126149645761496361407c565b5b815161497484826020860161490d565b91505092915050565b60006020828403121561499357614992613d54565b5b600082015167ffffffffffffffff8111156149b1576149b0613d59565b5b6149bd8482850161494f565b91505092915050565b7f496e697469616c697a61626c653a20636f6e747261637420697320616c72656160008201527f647920696e697469616c697a6564000000000000000000000000000000000000602082015250565b6000614a22602e83613e24565b9150614a2d826149c6565b604082019050919050565b60006020820190508181036000830152614a5181614a15565b9050919050565b6000819050919050565b6000614a7d614a78614a7384614a58565b614372565b6141b1565b9050919050565b614a8d81614a62565b82525050565b6000602082019050614aa86000830184614a84565b92915050565b7f455243333532353a207472616e736665722063616c6c6572206973206e6f742060008201527f6f776e6572206e6f7220617070726f7665640000000000000000000000000000602082015250565b6000614b0a603283613e24565b9150614b1582614aae565b604082019050919050565b60006020820190508181036000830152614b3981614afd565b9050919050565b7f455243333532353a206f776e657220696e646578206f7574206f6620626f756e60008201527f6473000000000000000000000000000000000000000000000000000000000000602082015250565b6000614b9c602283613e24565b9150614ba782614b40565b604082019050919050565b60006020820190508181036000830152614bcb81614b8f565b9050919050565b7f455243333532353a2063616c6c6572206973206e6f7420746f6b656e206f776e60008201527f6572206e6f7220617070726f7665640000000000000000000000000000000000602082015250565b6000614c2e602f83613e24565b9150614c3982614bd2565b604082019050919050565b60006020820190508181036000830152614c5d81614c21565b9050919050565b7f455243333532353a20676c6f62616c20696e646578206f7574206f6620626f7560008201527f6e64730000000000000000000000000000000000000000000000000000000000602082015250565b6000614cc0602383613e24565b9150614ccb82614c64565b604082019050919050565b60006020820190508181036000830152614cef81614cb3565b9050919050565b7f455243333532353a20696e76616c696420746f6b656e20494400000000000000600082015250565b6000614d2c601983613e24565b9150614d3782614cf6565b602082019050919050565b60006020820190508181036000830152614d5b81614d1f565b9050919050565b7f455243333532353a2062616c616e636520717565727920666f7220746865207a60008201527f65726f2061646472657373000000000000000000000000000000000000000000602082015250565b6000614dbe602b83613e24565b9150614dc982614d62565b604082019050919050565b60006020820190508181036000830152614ded81614db1565b9050919050565b6000614e008285614861565b9150614e0c8284614861565b91508190509392505050565b7f636f6e74726163742f0000000000000000000000000000000000000000000000600082015250565b6000614e4e600983614856565b9150614e5982614e18565b600982019050919050565b6000614e708285614861565b9150614e7b82614e41565b9150614e878284614861565b91508190509392505050565b7f4e487b7100000000000000000000000000000000000000000000000000000000600052601260045260246000fd5b7f455243333532353a20696e73756666696369656e7420616c6c6f77616e636500600082015250565b6000614ef8601f83613e24565b9150614f0382614ec2565b602082019050919050565b60006020820190508181036000830152614f2781614eeb565b9050919050565b7f4e487b7100000000000000000000000000000000000000000000000000000000600052601160045260246000fd5b6000614f6882613ed4565b9150614f7383613ed4565b925082821015614f8657614f85614f2e565b5b828203905092915050565b7f455243333532353a206d696e7420746f20746865207a65726f2061646472657360008201527f7300000000000000000000000000000000000000000000000000000000000000602082015250565b6000614fed602183613e24565b9150614ff882614f91565b604082019050919050565b6000602082019050818103600083015261501c81614fe0565b9050919050565b7f455243333532353a2063616e6e6f74206d696e74207a65726f20746f6b656e4960008201527f6400000000000000000000000000000000000000000000000000000000000000602082015250565b600061507f602183613e24565b915061508a82615023565b604082019050919050565b600060208201905081810360008301526150ae81615072565b9050919050565b7f455243333532353a20746f6b656e20616c7265616479206d696e746564000000600082015250565b60006150eb601d83613e24565b91506150f6826150b5565b602082019050919050565b6000602082019050818103600083015261511a816150de565b9050919050565b7f455243333532353a207472616e736665722066726f6d20696e76616c6964207460008201527f6f6b656e20494400000000000000000000000000000000000000000000000000602082015250565b600061517d602783613e24565b915061518882615121565b604082019050919050565b600060208201905081810360008301526151ac81615170565b9050919050565b7f455243333532353a207472616e7366657220746f20696e76616c696420746f6b60008201527f656e204944000000000000000000000000000000000000000000000000000000602082015250565b600061520f602583613e24565b915061521a826151b3565b604082019050919050565b6000602082019050818103600083015261523e81615202565b9050919050565b7f455243333532353a20696e73756666696369656e742062616c616e636520666f60008201527f72207472616e7366657200000000000000000000000000000000000000000000602082015250565b60006152a1602a83613e24565b91506152ac82615245565b604082019050919050565b600060208201905081810360008301526152d081615294565b9050919050565b7f455243333532353a207472616e7366657220746f20746f6b656e20776974682060008201527f646966666572656e7420736c6f74000000000000000000000000000000000000602082015250565b6000615333602e83613e24565b915061533e826152d7565b604082019050919050565b6000602082019050818103600083015261536281615326565b9050919050565b600061537482613ed4565b915061537f83613ed4565b9250827fffffffffffffffffffffffffffffffffffffffffffffffffffffffffffffffff038211156153b4576153b3614f2e565b5b828201905092915050565b7f496e697469616c697a61626c653a20636f6e7472616374206973206e6f74206960008201527f6e697469616c697a696e67000000000000000000000000000000000000000000602082015250565b600061541b602b83613e24565b9150615426826153bf565b604082019050919050565b6000602082019050818103600083015261544a8161540e565b9050919050565b7f455243333532353a207472616e736665722066726f6d20696e76616c6964206f60008201527f776e657200000000000000000000000000000000000000000000000000000000602082015250565b60006154ad602483613e24565b91506154b882615451565b604082019050919050565b600060208201905081810360008301526154dc816154a0565b9050919050565b7f455243333532353a207472616e7366657220746f20746865207a65726f20616460008201527f6472657373000000000000000000000000000000000000000000000000000000602082015250565b600061553f602583613e24565b915061554a826154e3565b604082019050919050565b6000602082019050818103600083015261556e81615532565b9050919050565b7f455243333532353a206275726e2076616c756520657863656564732062616c6160008201527f6e63650000000000000000000000000000000000000000000000000000000000602082015250565b60006155d1602383613e24565b91506155dc82615575565b604082019050919050565b60006020820190508181036000830152615600816155c4565b9050919050565b7f455243333532353a20617070726f76652076616c756520746f20746865207a6560008201527f726f206164647265737300000000000000000000000000000000000000000000602082015250565b6000615663602a83613e24565b915061566e82615607565b604082019050919050565b6000602082019050818103600083015261569281615656565b9050919050565b7f455243333532353a20617070726f766520746f2063616c6c6572000000000000600082015250565b60006156cf601a83613e24565b91506156da82615699565b602082019050919050565b600060208201905081810360008301526156fe816156c2565b9050919050565b7f455243333532353a207472616e7366657220746f206e6f6e204552433732315260008201527f6563656976657200000000000000000000000000000000000000000000000000602082015250565b6000615761602783613e24565b915061576c82615705565b604082019050919050565b6000602082019050818103600083015261579081615754565b9050919050565b60008190508160005260206000209050919050565b60006020601f8301049050919050565b600082821b905092915050565b6000600883026157f97fffffffffffffffffffffffffffffffffffffffffffffffffffffffffffffffff826157bc565b61580386836157bc565b95508019841693508086168417925050509392505050565b600061583661583161582c84613ed4565b614372565b613ed4565b9050919050565b6000819050919050565b6158508361581b565b61586461585c8261583d565b8484546157c9565b825550505050565b600090565b61587961586c565b615884818484615847565b505050565b5b818110156158a85761589d600082615871565b60018101905061588a565b5050565b601f8211156158ed576158be81615797565b6158c7846157ac565b810160208510156158d6578190505b6158ea6158e2856157ac565b830182615889565b50505b505050565b600082821c905092915050565b6000615910600019846008026158f2565b1980831691505092915050565b600061592983836158ff565b9150826002028217905092915050565b61594282613e19565b67ffffffffffffffff81111561595b5761595a614086565b5b61596582546146d2565b6159708282856158ac565b600060209050601f8311600181146159a35760008415615991578287015190505b61599b858261591d565b865550615a03565b601f1984166159b186615797565b60005b828110156159d9578489015182556001820191506020850194506020810190506159b4565b868310156159f657848901516159f2601f8916826158ff565b8355505b6001600288020188555050505b505050505050565b6000615a1682613ed4565b91507fffffffffffffffffffffffffffffffffffffffffffffffffffffffffffffffff8203615a4857615a47614f2e565b5b600182019050919050565b7f4e487b7100000000000000000000000000000000000000000000000000000000600052603160045260246000fd5b615a8b81613d5e565b82525050565b6000602082019050615aa66000830184615a82565b92915050565b600081519050615abb8161442c565b92915050565b600060208284031215615ad757615ad6613d54565b5b6000615ae584828501615aac565b91505092915050565b600081519050919050565b600082825260208201905092915050565b6000615b1582615aee565b615b1f8185615af9565b9350615b2f818560208601613e35565b615b3881613e68565b840191505092915050565b6000608082019050615b586000830187613f69565b615b656020830186613f69565b615b726040830185614052565b8181036060830152615b848184615b0a565b905095945050505050565b600081519050615b9e81613d8a565b92915050565b600060208284031215615bba57615bb9613d54565b5b6000615bc884828501615b8f565b91505092915050565b7f4552433732313a207472616e7366657220746f206e6f6e20455243373231526560008201527f6365697665720000000000000000000000000000000000000000000000000000602082015250565b6000615c2d602683613e24565b9150615c3882615bd1565b604082019050919050565b60006020820190508181036000830152615c5c81615c20565b9050919050565b6000615c6e82613ed4565b9150615c7983613ed4565b9250817fffffffffffffffffffffffffffffffffffffffffffffffffffffffffffffffff0483118215151615615cb257615cb1614f2e565b5b828202905092915050565b6000615cc882613ed4565b915060008203615cdb57615cda614f2e565b5b600182039050919050565b7f537472696e67733a20686578206c656e67746820696e73756666696369656e74600082015250565b6000615d1c602083613e24565b9150615d2782615ce6565b602082019050919050565b60006020820190508181036000830152615d4b81615d0f565b905091905056fea264697066735822122032e0112a5add903adb3f4014bcd6075fd9eefd8af35bb9b7b2a0d388f359dfcc64736f6c634300080f0033",
  "linkReferences": {},
  "deployedLinkReferences": {}
}