{
  "_format": "hh-sol-artifact-1",
  "contractName": "ERC3525BaseMockUpgradeable",
  "sourceName": "contracts/solvprotocol/erc-3525/mocks/ERC3525BaseMockUpgradeable.sol",
  "abi": [
    {
      "anonymous": false,
      "inputs": [
        {
          "indexed": true,
          "internalType": "address",
          "name": "_owner",
          "type": "address"
        },
        {
          "indexed": true,
          "internalType": "address",
          "name": "_approved",
          "type": "address"
        },
        {
          "indexed": true,
          "internalType": "uint256",
          "name": "_tokenId",
          "type": "uint256"
        }
      ],
      "name": "Approval",
      "type": "event"
    },
    {
      "anonymous": false,
      "inputs": [
        {
          "indexed": true,
          "internalType": "address",
          "name": "_owner",
          "type": "address"
        },
        {
          "indexed": true,
          "internalType": "address",
          "name": "_operator",
          "type": "address"
        },
        {
          "indexed": false,
          "internalType": "bool",
          "name": "_approved",
          "type": "bool"
        }
      ],
      "name": "ApprovalForAll",
      "type": "event"
    },
    {
      "anonymous": false,
      "inputs": [
        {
          "indexed": true,
          "internalType": "uint256",
          "name": "_tokenId",
          "type": "uint256"
        },
        {
          "indexed": true,
          "internalType": "address",
          "name": "_operator",
          "type": "address"
        },
        {
          "indexed": false,
          "internalType": "uint256",
          "name": "_value",
          "type": "uint256"
        }
      ],
      "name": "ApprovalValue",
      "type": "event"
    },
    {
      "anonymous": false,
      "inputs": [
        {
          "indexed": false,
          "internalType": "uint8",
          "name": "version",
          "type": "uint8"
        }
      ],
      "name": "Initialized",
      "type": "event"
    },
    {
      "anonymous": false,
      "inputs": [
        {
          "indexed": true,
          "internalType": "address",
          "name": "metadataDescriptor",
          "type": "address"
        }
      ],
      "name": "SetMetadataDescriptor",
      "type": "event"
    },
    {
      "anonymous": false,
      "inputs": [
        {
          "indexed": true,
          "internalType": "uint256",
          "name": "_tokenId",
          "type": "uint256"
        },
        {
          "indexed": true,
          "internalType": "uint256",
          "name": "_oldSlot",
          "type": "uint256"
        },
        {
          "indexed": true,
          "internalType": "uint256",
          "name": "_newSlot",
          "type": "uint256"
        }
      ],
      "name": "SlotChanged",
      "type": "event"
    },
    {
      "anonymous": false,
      "inputs": [
        {
          "indexed": true,
          "internalType": "address",
          "name": "_from",
          "type": "address"
        },
        {
          "indexed": true,
          "internalType": "address",
          "name": "_to",
          "type": "address"
        },
        {
          "indexed": true,
          "internalType": "uint256",
          "name": "_tokenId",
          "type": "uint256"
        }
      ],
      "name": "Transfer",
      "type": "event"
    },
    {
      "anonymous": false,
      "inputs": [
        {
          "indexed": true,
          "internalType": "uint256",
          "name": "_fromTokenId",
          "type": "uint256"
        },
        {
          "indexed": true,
          "internalType": "uint256",
          "name": "_toTokenId",
          "type": "uint256"
        },
        {
          "indexed": false,
          "internalType": "uint256",
          "name": "_value",
          "type": "uint256"
        }
      ],
      "name": "TransferValue",
      "type": "event"
    },
    {
      "inputs": [
        {
          "internalType": "uint256",
          "name": "tokenId_",
          "type": "uint256"
        },
        {
          "internalType": "address",
          "name": "operator_",
          "type": "address"
        }
      ],
      "name": "allowance",
      "outputs": [
        {
          "internalType": "uint256",
          "name": "",
          "type": "uint256"
        }
      ],
      "stateMutability": "view",
      "type": "function"
    },
    {
      "inputs": [
        {
          "internalType": "address",
          "name": "to_",
          "type": "address"
        },
        {
          "internalType": "uint256",
          "name": "tokenId_",
          "type": "uint256"
        }
      ],
      "name": "approve",
      "outputs": [],
      "stateMutability": "payable",
      "type": "function"
    },
    {
      "inputs": [
        {
          "internalType": "uint256",
          "name": "tokenId_",
          "type": "uint256"
        },
        {
          "internalType": "address",
          "name": "to_",
          "type": "address"
        },
        {
          "internalType": "uint256",
          "name": "value_",
          "type": "uint256"
        }
      ],
      "name": "approve",
      "outputs": [],
      "stateMutability": "payable",
      "type": "function"
    },
    {
      "inputs": [
        {
          "internalType": "address",
          "name": "owner_",
          "type": "address"
        }
      ],
      "name": "balanceOf",
      "outputs": [
        {
          "internalType": "uint256",
          "name": "balance",
          "type": "uint256"
        }
      ],
      "stateMutability": "view",
      "type": "function"
    },
    {
      "inputs": [
        {
          "internalType": "uint256",
          "name": "tokenId_",
          "type": "uint256"
        }
      ],
      "name": "balanceOf",
      "outputs": [
        {
          "internalType": "uint256",
          "name": "",
          "type": "uint256"
        }
      ],
      "stateMutability": "view",
      "type": "function"
    },
    {
      "inputs": [
        {
          "internalType": "uint256",
          "name": "tokenId_",
          "type": "uint256"
        }
      ],
      "name": "burn",
      "outputs": [],
      "stateMutability": "nonpayable",
      "type": "function"
    },
    {
      "inputs": [
        {
          "internalType": "uint256",
          "name": "tokenId_",
          "type": "uint256"
        },
        {
          "internalType": "uint256",
          "name": "burnValue_",
          "type": "uint256"
        }
      ],
      "name": "burnValue",
      "outputs": [],
      "stateMutability": "nonpayable",
      "type": "function"
    },
    {
      "inputs": [],
      "name": "contractURI",
      "outputs": [
        {
          "internalType": "string",
          "name": "",
          "type": "string"
        }
      ],
      "stateMutability": "view",
      "type": "function"
    },
    {
      "inputs": [
        {
          "internalType": "uint256",
          "name": "tokenId_",
          "type": "uint256"
        }
      ],
      "name": "getApproved",
      "outputs": [
        {
          "internalType": "address",
          "name": "",
          "type": "address"
        }
      ],
      "stateMutability": "view",
      "type": "function"
    },
    {
      "inputs": [
        {
          "internalType": "string",
          "name": "name_",
          "type": "string"
        },
        {
          "internalType": "string",
          "name": "symbol_",
          "type": "string"
        },
        {
          "internalType": "uint8",
          "name": "decimals_",
          "type": "uint8"
        }
      ],
      "name": "initialize",
      "outputs": [],
      "stateMutability": "nonpayable",
      "type": "function"
    },
    {
      "inputs": [
        {
          "internalType": "address",
          "name": "owner_",
          "type": "address"
        },
        {
          "internalType": "address",
          "name": "operator_",
          "type": "address"
        }
      ],
      "name": "isApprovedForAll",
      "outputs": [
        {
          "internalType": "bool",
          "name": "",
          "type": "bool"
        }
      ],
      "stateMutability": "view",
      "type": "function"
    },
    {
      "inputs": [],
      "name": "metadataDescriptor",
      "outputs": [
        {
          "internalType": "contract IERC3525MetadataDescriptor",
          "name": "",
          "type": "address"
        }
      ],
      "stateMutability": "view",
      "type": "function"
    },
    {
      "inputs": [
        {
          "internalType": "address",
          "name": "mintTo_",
          "type": "address"
        },
        {
          "internalType": "uint256",
          "name": "tokenId_",
          "type": "uint256"
        },
        {
          "internalType": "uint256",
          "name": "slot_",
          "type": "uint256"
        },
        {
          "internalType": "uint256",
          "name": "value_",
          "type": "uint256"
        }
      ],
      "name": "mint",
      "outputs": [],
      "stateMutability": "nonpayable",
      "type": "function"
    },
    {
      "inputs": [
        {
          "internalType": "uint256",
          "name": "tokenId_",
          "type": "uint256"
        },
        {
          "internalType": "uint256",
          "name": "value_",
          "type": "uint256"
        }
      ],
      "name": "mintValue",
      "outputs": [],
      "stateMutability": "nonpayable",
      "type": "function"
    },
    {
      "inputs": [],
      "name": "name",
      "outputs": [
        {
          "internalType": "string",
          "name": "",
          "type": "string"
        }
      ],
      "stateMutability": "view",
      "type": "function"
    },
    {
      "inputs": [
        {
          "internalType": "uint256",
          "name": "tokenId_",
          "type": "uint256"
        }
      ],
      "name": "ownerOf",
      "outputs": [
        {
          "internalType": "address",
          "name": "owner_",
          "type": "address"
        }
      ],
      "stateMutability": "view",
      "type": "function"
    },
    {
      "inputs": [
        {
          "internalType": "address",
          "name": "from_",
          "type": "address"
        },
        {
          "internalType": "address",
          "name": "to_",
          "type": "address"
        },
        {
          "internalType": "uint256",
          "name": "tokenId_",
          "type": "uint256"
        }
      ],
      "name": "safeTransferFrom",
      "outputs": [],
      "stateMutability": "payable",
      "type": "function"
    },
    {
      "inputs": [
        {
          "internalType": "address",
          "name": "from_",
          "type": "address"
        },
        {
          "internalType": "address",
          "name": "to_",
          "type": "address"
        },
        {
          "internalType": "uint256",
          "name": "tokenId_",
          "type": "uint256"
        },
        {
          "internalType": "bytes",
          "name": "data_",
          "type": "bytes"
        }
      ],
      "name": "safeTransferFrom",
      "outputs": [],
      "stateMutability": "payable",
      "type": "function"
    },
    {
      "inputs": [
        {
          "internalType": "address",
          "name": "operator_",
          "type": "address"
        },
        {
          "internalType": "bool",
          "name": "approved_",
          "type": "bool"
        }
      ],
      "name": "setApprovalForAll",
      "outputs": [],
      "stateMutability": "nonpayable",
      "type": "function"
    },
    {
      "inputs": [
        {
          "internalType": "uint256",
          "name": "tokenId_",
          "type": "uint256"
        }
      ],
      "name": "slotOf",
      "outputs": [
        {
          "internalType": "uint256",
          "name": "",
          "type": "uint256"
        }
      ],
      "stateMutability": "view",
      "type": "function"
    },
    {
      "inputs": [
        {
          "internalType": "uint256",
          "name": "slot_",
          "type": "uint256"
        }
      ],
      "name": "slotURI",
      "outputs": [
        {
          "internalType": "string",
          "name": "",
          "type": "string"
        }
      ],
      "stateMutability": "view",
      "type": "function"
    },
    {
      "inputs": [
        {
          "internalType": "bytes4",
          "name": "interfaceId",
          "type": "bytes4"
        }
      ],
      "name": "supportsInterface",
      "outputs": [
        {
          "internalType": "bool",
          "name": "",
          "type": "bool"
        }
      ],
      "stateMutability": "view",
      "type": "function"
    },
    {
      "inputs": [],
      "name": "symbol",
      "outputs": [
        {
          "internalType": "string",
          "name": "",
          "type": "string"
        }
      ],
      "stateMutability": "view",
      "type": "function"
    },
    {
      "inputs": [
        {
          "internalType": "uint256",
          "name": "index_",
          "type": "uint256"
        }
      ],
      "name": "tokenByIndex",
      "outputs": [
        {
          "internalType": "uint256",
          "name": "",
          "type": "uint256"
        }
      ],
      "stateMutability": "view",
      "type": "function"
    },
    {
      "inputs": [
        {
          "internalType": "address",
          "name": "owner_",
          "type": "address"
        },
        {
          "internalType": "uint256",
          "name": "index_",
          "type": "uint256"
        }
      ],
      "name": "tokenOfOwnerByIndex",
      "outputs": [
        {
          "internalType": "uint256",
          "name": "",
          "type": "uint256"
        }
      ],
      "stateMutability": "view",
      "type": "function"
    },
    {
      "inputs": [
        {
          "internalType": "uint256",
          "name": "tokenId_",
          "type": "uint256"
        }
      ],
      "name": "tokenURI",
      "outputs": [
        {
          "internalType": "string",
          "name": "",
          "type": "string"
        }
      ],
      "stateMutability": "view",
      "type": "function"
    },
    {
      "inputs": [],
      "name": "totalSupply",
      "outputs": [
        {
          "internalType": "uint256",
          "name": "",
          "type": "uint256"
        }
      ],
      "stateMutability": "view",
      "type": "function"
    },
    {
      "inputs": [
        {
          "internalType": "uint256",
          "name": "fromTokenId_",
          "type": "uint256"
        },
        {
          "internalType": "address",
          "name": "to_",
          "type": "address"
        },
        {
          "internalType": "uint256",
          "name": "value_",
          "type": "uint256"
        }
      ],
      "name": "transferFrom",
      "outputs": [
        {
          "internalType": "uint256",
          "name": "",
          "type": "uint256"
        }
      ],
      "stateMutability": "payable",
      "type": "function"
    },
    {
      "inputs": [
        {
          "internalType": "address",
          "name": "from_",
          "type": "address"
        },
        {
          "internalType": "address",
          "name": "to_",
          "type": "address"
        },
        {
          "internalType": "uint256",
          "name": "tokenId_",
          "type": "uint256"
        }
      ],
      "name": "transferFrom",
      "outputs": [],
      "stateMutability": "payable",
      "type": "function"
    },
    {
      "inputs": [
        {
          "internalType": "uint256",
          "name": "fromTokenId_",
          "type": "uint256"
        },
        {
          "internalType": "uint256",
          "name": "toTokenId_",
          "type": "uint256"
        },
        {
          "internalType": "uint256",
          "name": "value_",
          "type": "uint256"
        }
      ],
      "name": "transferFrom",
      "outputs": [],
      "stateMutability": "payable",
      "type": "function"
    },
    {
      "inputs": [],
      "name": "valueDecimals",
      "outputs": [
        {
          "internalType": "uint8",
          "name": "",
          "type": "uint8"
        }
      ],
      "stateMutability": "view",
      "type": "function"
    }
  ],
  "bytecode": "0x608060405234801561001057600080fd5b506133bd806100206000396000f3fe6080604052600436106101d85760003560e01c80634f6ccce711610102578063a22cb46511610095578063e345e0bc11610064578063e345e0bc1461050d578063e8a3d4851461052d578063e985e9c514610542578063f0e88e7f1461058f57600080fd5b8063a22cb4651461049a578063a647e8ec146104ba578063b88d4fde146104da578063c87b56dd146104ed57600080fd5b806387fe8611116100d157806387fe8611146104325780638cb0a5111461045257806395d89b41146104655780639cc7f7081461047a57600080fd5b80634f6ccce7146103b25780636352211e146103d257806370a08231146103f2578063840f71131461041257600080fd5b806318160ddd1161017a578063310ed7f011610149578063310ed7f01461034a5780633e7e86691461035d57806342842e0e1461037f57806342966c681461039257600080fd5b806318160ddd146102e257806323b872dd146102f7578063263f3e7e1461030a5780632f745c591461032a57600080fd5b8063095ea7b3116101b6578063095ea7b31461026c57806309c3dd87146102815780630f485c02146102a15780631624f6c6146102c257600080fd5b806301ffc9a7146101dd57806306fdde0314610212578063081812fc14610234575b600080fd5b3480156101e957600080fd5b506101fd6101f8366004612a3f565b6105af565b60405190151581526020015b60405180910390f35b34801561021e57600080fd5b50610227610652565b6040516102099190612ab4565b34801561024057600080fd5b5061025461024f366004612ac7565b6106e4565b6040516001600160a01b039091168152602001610209565b61027f61027a366004612af7565b610736565b005b34801561028d57600080fd5b5061022761029c366004612ac7565b6107c4565b6102b46102af366004612b21565b6108b6565b604051908152602001610209565b3480156102ce57600080fd5b5061027f6102dd366004612c23565b6108f8565b3480156102ee57600080fd5b506037546102b4565b61027f610305366004612ca1565b610a0f565b34801561031657600080fd5b506102b4610325366004612ac7565b610a41565b34801561033657600080fd5b506102b4610345366004612af7565b610a89565b61027f610358366004612ccd565b610b2a565b34801561036957600080fd5b5060355460405160ff9091168152602001610209565b61027f61038d366004612ca1565b610b40565b34801561039e57600080fd5b5061027f6103ad366004612ac7565b610b5b565b3480156103be57600080fd5b506102b46103cd366004612ac7565b610b8c565b3480156103de57600080fd5b506102546103ed366004612ac7565b610c1d565b3480156103fe57600080fd5b506102b461040d366004612cf9565b610cb9565b34801561041e57600080fd5b50603a54610254906001600160a01b031681565b34801561043e57600080fd5b5061027f61044d366004612d14565b610d41565b61027f610460366004612b21565b610d76565b34801561047157600080fd5b50610227610df7565b34801561048657600080fd5b506102b4610495366004612ac7565b610e06565b3480156104a657600080fd5b5061027f6104b5366004612d44565b610e4e565b3480156104c657600080fd5b5061027f6104d5366004612d7b565b610e59565b61027f6104e8366004612db4565b610e65565b3480156104f957600080fd5b50610227610508366004612ac7565b610e96565b34801561051957600080fd5b506102b4610528366004612e30565b610f35565b34801561053957600080fd5b50610227610f69565b34801561054e57600080fd5b506101fd61055d366004612e5c565b6001600160a01b0391821660009081526039602090815260408083209390941682526002909201909152205460ff1690565b34801561059b57600080fd5b5061027f6105aa366004612d14565b611063565b60006001600160e01b031982166301ffc9a760e01b14806105e057506001600160e01b03198216630354d60560e61b145b806105fb57506001600160e01b031982166380ac58cd60e01b145b8061061657506001600160e01b031982166370b0048160e11b145b8061063157506001600160e01b0319821663780e9d6360e01b145b8061064c57506001600160e01b03198216635b5e139f60e01b145b92915050565b60606033805461066190612e86565b80601f016020809104026020016040519081016040528092919081815260200182805461068d90612e86565b80156106da5780601f106106af576101008083540402835291602001916106da565b820191906000526020600020905b8154815290600101906020018083116106bd57829003601f168201915b5050505050905090565b60006106ef8261106d565b60008281526038602052604090205460378054909190811061071357610713612ec0565b60009182526020909120600460069092020101546001600160a01b031692915050565b600061074182610c1d565b9050806001600160a01b0316836001600160a01b03160361077d5760405162461bcd60e51b815260040161077490612ed6565b60405180910390fd5b336001600160a01b03821614806107995750610799813361055d565b6107b55760405162461bcd60e51b815260040161077490612f18565b6107bf83836110be565b505050565b606060006107dd60408051602081019091526000815290565b603a549091506001600160a01b031661083d57600081511161080e57604051806020016040528060008152506108af565b8061081884611155565b604051602001610829929190612f75565b6040516020818303038152906040526108af565b603a54604051633601bfc560e11b8152600481018590526001600160a01b0390911690636c037f8a906024015b600060405180830381865afa158015610887573d6000803e3d6000fd5b505050506040513d6000823e601f3d908101601f191682016040526108af9190810190612fb5565b9392505050565b60006108c33385846111e8565b60006108ce85611278565b90506108e584826108de88610a41565b6000611282565b6108f08582856113ac565b949350505050565b600054610100900460ff16158080156109185750600054600160ff909116105b806109325750303b158015610932575060005460ff166001145b6109955760405162461bcd60e51b815260206004820152602e60248201527f496e697469616c697a61626c653a20636f6e747261637420697320616c72656160448201526d191e481a5b9a5d1a585b1a5e995960921b6064820152608401610774565b6000805460ff1916600117905580156109b8576000805461ff0019166101001790555b6109c3848484611616565b8015610a09576000805461ff0019169055604051600181527f7f26b83ff96e1f2b6a682f133852f6798a09c465da95921460cefb38474024989060200160405180910390a15b50505050565b610a1a335b8261168c565b610a365760405162461bcd60e51b81526004016107749061302c565b6107bf8383836116f4565b6000610a4c8261106d565b600082815260386020526040902054603780549091908110610a7057610a70612ec0565b9060005260206000209060060201600101549050919050565b6000610a9483610cb9565b8210610aed5760405162461bcd60e51b815260206004820152602260248201527f455243333532353a206f776e657220696e646578206f7574206f6620626f756e604482015261647360f01b6064820152608401610774565b6001600160a01b0383166000908152603960205260409020805483908110610b1757610b17612ec0565b9060005260206000200154905092915050565b610b353384836111e8565b6107bf8383836113ac565b6107bf83838360405180602001604052806000815250610e65565b610b6433610a14565b610b805760405162461bcd60e51b81526004016107749061307e565b610b8981611855565b50565b6000610b9760375490565b8210610bf15760405162461bcd60e51b815260206004820152602360248201527f455243333532353a20676c6f62616c20696e646578206f7574206f6620626f756044820152626e647360e81b6064820152608401610774565b60378281548110610c0457610c04612ec0565b9060005260206000209060060201600001549050919050565b6000610c288261106d565b600082815260386020526040902054603780549091908110610c4c57610c4c612ec0565b60009182526020909120600360069092020101546001600160a01b0316905080610cb45760405162461bcd60e51b8152602060048201526019602482015278115490cccd4c8d4e881a5b9d985b1a59081d1bdad95b881251603a1b6044820152606401610774565b919050565b60006001600160a01b038216610d255760405162461bcd60e51b815260206004820152602b60248201527f455243333532353a2062616c616e636520717565727920666f7220746865207a60448201526a65726f206164647265737360a81b6064820152608401610774565b506001600160a01b031660009081526039602052604090205490565b610d4c335b8361168c565b610d685760405162461bcd60e51b81526004016107749061307e565b610d728282611964565b5050565b6000610d8184610c1d565b9050806001600160a01b0316836001600160a01b031603610db45760405162461bcd60e51b815260040161077490612ed6565b336001600160a01b0382161480610dd05750610dd0813361055d565b610dec5760405162461bcd60e51b815260040161077490612f18565b610a09848484611a62565b60606034805461066190612e86565b6000610e118261106d565b600082815260386020526040902054603780549091908110610e3557610e35612ec0565b9060005260206000209060060201600201549050919050565b610d72338383611b9a565b610a0984848484611282565b610e6e33610d46565b610e8a5760405162461bcd60e51b81526004016107749061302c565b610a0984848484611c64565b6060610ea18261106d565b6000610eb860408051602081019091526000815290565b603a549091506001600160a01b0316610f04576000815111610ee957604051806020016040528060008152506108af565b80610ef384611155565b6040516020016108299291906130cd565b603a546040516344a5a61760e11b8152600481018590526001600160a01b039091169063894b4c2e9060240161086a565b6000610f408361106d565b5060009182526036602090815260408084206001600160a01b0393909316845291905290205490565b60606000610f8260408051602081019091526000815290565b603a549091506001600160a01b0316610fe2576000815111610fb3576040518060200160405280600081525061105d565b80610fbd30611cd7565b604051602001610fce9291906130fc565b60405160208183030381529060405261105d565b603a60009054906101000a90046001600160a01b03166001600160a01b031663725fa09c6040518163ffffffff1660e01b8152600401600060405180830381865afa158015611035573d6000803e3d6000fd5b505050506040513d6000823e601f3d908101601f1916820160405261105d9190810190612fb5565b91505090565b610d728282611ced565b61107681611d1a565b610b895760405162461bcd60e51b8152602060048201526019602482015278115490cccd4c8d4e881a5b9d985b1a59081d1bdad95b881251603a1b6044820152606401610774565b6000818152603860205260409020546037805484929081106110e2576110e2612ec0565b6000918252602090912060069091020160040180546001600160a01b0319166001600160a01b039283161790558190831661111c82610c1d565b6001600160a01b03167f8c5be1e5ebec7d5bd14f71427d1e84f3dd0314c0f7b2291e5b200ac8c7c3b92560405160405180910390a45050565b6060600061116283611d66565b600101905060008167ffffffffffffffff81111561118257611182612b56565b6040519080825280601f01601f1916602001820160405280156111ac576020820181803683370190505b5090508181016020015b600019016f181899199a1a9b1b9c1cb0b131b232b360811b600a86061a8153600a85049450846111b657509392505050565b60006111f48385610f35565b9050611200848461168c565b15801561120f57506000198114155b15610a0957818110156112645760405162461bcd60e51b815260206004820152601f60248201527f455243333532353a20696e73756666696369656e7420616c6c6f77616e6365006044820152606401610774565b610a0983856112738585613156565b611a62565b600061064c611e3e565b6001600160a01b0384166112e25760405162461bcd60e51b815260206004820152602160248201527f455243333532353a206d696e7420746f20746865207a65726f206164647265736044820152607360f81b6064820152608401610774565b8260000361133c5760405162461bcd60e51b815260206004820152602160248201527f455243333532353a2063616e6e6f74206d696e74207a65726f20746f6b656e496044820152601960fa1b6064820152608401610774565b61134583611d1a565b156113925760405162461bcd60e51b815260206004820152601d60248201527f455243333532353a20746f6b656e20616c7265616479206d696e7465640000006044820152606401610774565b61139d848484611e61565b6113a78382611f27565b610a09565b6113b583611d1a565b6114115760405162461bcd60e51b815260206004820152602760248201527f455243333532353a207472616e736665722066726f6d20696e76616c696420746044820152661bdad95b88125160ca1b6064820152608401610774565b61141a82611d1a565b6114745760405162461bcd60e51b815260206004820152602560248201527f455243333532353a207472616e7366657220746f20696e76616c696420746f6b604482015264195b88125160da1b6064820152608401610774565b60008381526038602052604081205460378054909190811061149857611498612ec0565b90600052602060002090600602019050600060376038600086815260200190815260200160002054815481106114d0576114d0612ec0565b9060005260206000209060060201905082826002015410156115475760405162461bcd60e51b815260206004820152602a60248201527f455243333532353a20696e73756666696369656e742062616c616e636520666f60448201526939103a3930b739b332b960b11b6064820152608401610774565b80600101548260010154146115b55760405162461bcd60e51b815260206004820152602e60248201527f455243333532353a207472616e7366657220746f20746f6b656e20776974682060448201526d191a5999995c995b9d081cdb1bdd60921b6064820152608401610774565b828260020160008282546115c99190613156565b92505081905550828160020160008282546115e4919061316d565b9091555050604051838152849086906000805160206133688339815191529060200160405180910390a35b5050505050565b600054610100900460ff166116815760405162461bcd60e51b815260206004820152602b60248201527f496e697469616c697a61626c653a20636f6e7472616374206973206e6f74206960448201526a6e697469616c697a696e6760a81b6064820152608401610774565b6107bf838383611f9a565b60006116978261106d565b60006116a283610c1d565b9050806001600160a01b0316846001600160a01b031614806116c957506116c9818561055d565b806108f05750836001600160a01b03166116e2846106e4565b6001600160a01b031614949350505050565b826001600160a01b031661170782610c1d565b6001600160a01b0316146117695760405162461bcd60e51b8152602060048201526024808201527f455243333532353a207472616e736665722066726f6d20696e76616c6964206f6044820152633bb732b960e11b6064820152608401610774565b6001600160a01b0382166117cd5760405162461bcd60e51b815260206004820152602560248201527f455243333532353a207472616e7366657220746f20746865207a65726f206164604482015264647265737360d81b6064820152608401610774565b60006117d882610a41565b905060006117e583610e06565b90506117f26000846110be565b6117fb83611fcc565b6118058584612068565b61180f8484612189565b82846001600160a01b0316866001600160a01b03167fddf252ad1be2c89b69c2b068fc378daa952ba7f163c4a11628f55a4df523b3ef60405160405180910390a461160f565b61185e8161106d565b60008181526038602052604081205460378054909190811061188257611882612ec0565b60009182526020909120600691909102016003810154600182015460028301549293506001600160a01b03909116916118ba85611fcc565b6118c48386612068565b6118cd85612212565b600085600080516020613368833981519152836040516118ef91815260200190565b60405180910390a3600082867fe4f48c240d3b994948aa54f3e2f5fca59263dfe1d52b6e4cf39a5d249b5ccb6560405160405180910390a460405185906000906001600160a01b038616907fddf252ad1be2c89b69c2b068fc378daa952ba7f163c4a11628f55a4df523b3ef908390a461160f565b61196d8261106d565b60008281526038602052604081205460378054909190811061199157611991612ec0565b600091825260209091206006909102016003810154600182015460028301549293506001600160a01b039091169184811015611a1b5760405162461bcd60e51b815260206004820152602360248201527f455243333532353a206275726e2076616c756520657863656564732062616c616044820152626e636560e81b6064820152608401610774565b84846002016000828254611a2f9190613156565b909155505060405185815260009087906000805160206133688339815191529060200160405180910390a3505050505050565b6001600160a01b038216611acb5760405162461bcd60e51b815260206004820152602a60248201527f455243333532353a20617070726f76652076616c756520746f20746865207a65604482015269726f206164647265737360b01b6064820152608401610774565b611ad58284612420565b611b3b57600083815260386020526040902054603780549091908110611afd57611afd612ec0565b60009182526020808320600692909202909101600501805460018101825590835291200180546001600160a01b0319166001600160a01b0384161790555b60008381526036602090815260408083206001600160a01b038616808552908352928190208490555183815285917f621b050de0ad08b51d19b48b3e6df75348c4de6bdd93e81b252ca62e28265b1b91015b60405180910390a3505050565b816001600160a01b0316836001600160a01b031603611bfb5760405162461bcd60e51b815260206004820152601a60248201527f455243333532353a20617070726f766520746f2063616c6c65720000000000006044820152606401610774565b6001600160a01b0383811660008181526039602090815260408083209487168084526002909501825291829020805460ff191686151590811790915591519182527f17307eab39ab6107e8899845ad3d59bd9653f200f220920489ca2b5937696c319101611b8d565b611c6f8484846116f4565b611c7b848484846124f3565b610a095760405162461bcd60e51b815260206004820152602760248201527f455243333532353a207472616e7366657220746f206e6f6e204552433732315260448201526632b1b2b4bb32b960c91b6064820152608401610774565b606061064c6001600160a01b03831660146126ab565b611cf68261106d565b6000611d0183610c1d565b90506000611d0e84610a41565b90506113a78484611f27565b6037546000901580159061064c5750600082815260386020526040902054603780548492908110611d4d57611d4d612ec0565b9060005260206000209060060201600001541492915050565b60008072184f03e93ff9f4daa797ed6e38ed64bf6a1f0160401b8310611da55772184f03e93ff9f4daa797ed6e38ed64bf6a1f0160401b830492506040015b6d04ee2d6d415b85acef81000000008310611dd1576d04ee2d6d415b85acef8100000000830492506020015b662386f26fc100008310611def57662386f26fc10000830492506010015b6305f5e1008310611e07576305f5e100830492506008015b6127108310611e1b57612710830492506004015b60648310611e2d576064830492506002015b600a831061064c5760010192915050565b6000611e4960375490565b611e5490600161316d565b905090565b505050505050565b6040805160c081018252838152602080820184905260008284018190526001600160a01b038716606084015260808301819052835181815291820190935260a08201529050611eaf81612847565b611eb98484612189565b60405183906001600160a01b038616906000907fddf252ad1be2c89b69c2b068fc378daa952ba7f163c4a11628f55a4df523b3ef908290a4816000847fe4f48c240d3b994948aa54f3e2f5fca59263dfe1d52b6e4cf39a5d249b5ccb6560405160405180910390a450505050565b600082815260386020526040902054603780548392908110611f4b57611f4b612ec0565b90600052602060002090600602016002016000828254611f6b919061316d565b909155505060405181815282906000906000805160206133688339815191529060200160405180910390a35050565b6033611fa684826131cb565b506034611fb383826131cb565b506035805460ff191660ff929092169190911790555050565b600081815260386020526040812054603780549091908110611ff057611ff0612ec0565b600091825260208220600560069092020190810154909250905b81811015610a0957600083600501828154811061202957612029612ec0565b60009182526020808320909101548783526036825260408084206001600160a01b039092168452915281205550806120608161328b565b91505061200a565b60008181526038602052604081205460378054909190811061208c5761208c612ec0565b6000918252602080832060069290920290910160030180546001600160a01b0319166001600160a01b03948516179055918416815260399091526040812080549091906120db90600190613156565b905060008260000182815481106120f4576120f4612ec0565b9060005260206000200154905060008360010160008681526020019081526020016000205490508184600001828154811061213157612131612ec0565b6000918252602080832090910192909255838152600186019091526040808220839055868252812055835484908061216b5761216b6132a4565b60019003818190600052602060002001600090559055505050505050565b6000818152603860205260409020546037805484929081106121ad576121ad612ec0565b6000918252602080832060069290920290910160030180546001600160a01b0319166001600160a01b03948516179055939091168152603980845260408083208054858552600182810188529285208190559286529082018155825292902090910155565b60375460009061222490600190613156565b6000838152603860205260408120546037805493945090928490811061224c5761224c612ec0565b60009182526020918290206040805160c08101825260069093029091018054835260018101548385015260028101548383015260038101546001600160a01b03908116606085015260048201541660808401526005810180548351818702810187019094528084529394919360a0860193928301828280156122f757602002820191906000526020600020905b81546001600160a01b031681526001909101906020018083116122d9575b5050505050815250509050806037838154811061231657612316612ec0565b600091825260209182902083516006909202019081558282015160018201556040830151600282015560608301516003820180546001600160a01b039283166001600160a01b031991821617909155608085015160048401805491909316911617905560a08301518051919261239492600585019290910190612995565b505081516000908152603860205260408082208590558682528120555060378054806123c2576123c26132a4565b60008281526020812060066000199093019283020181815560018101829055600281018290556003810180546001600160a01b031990811690915560048201805490911690559061241660058301826129fa565b5050905550505050565b60008181526038602052604081205460378054839290811061244457612444612ec0565b6000918252602082206005600690920201015491505b818110156124e857600084815260386020526040902054603780546001600160a01b0388169290811061248f5761248f612ec0565b906000526020600020906006020160050182815481106124b1576124b1612ec0565b6000918252602090912001546001600160a01b0316036124d65760019250505061064c565b806124e08161328b565b91505061245a565b506000949350505050565b60006001600160a01b0384163b1515801561257857506040516301ffc9a760e01b8152630a85bd0160e11b60048201526001600160a01b038516906301ffc9a790602401602060405180830381865afa158015612554573d6000803e3d6000fd5b505050506040513d601f19601f8201168201806040525081019061257891906132ba565b156126a057604051630a85bd0160e11b81526001600160a01b0385169063150b7a02906125af9033908990889088906004016132d7565b6020604051808303816000875af19250505080156125ea575060408051601f3d908101601f191682019092526125e791810190613314565b60015b612686573d808015612618576040519150601f19603f3d011682016040523d82523d6000602084013e61261d565b606091505b50805160000361267e5760405162461bcd60e51b815260206004820152602660248201527f4552433732313a207472616e7366657220746f206e6f6e20455243373231526560448201526531b2b4bb32b960d11b6064820152608401610774565b805181602001fd5b6001600160e01b031916630a85bd0160e11b1490506108f0565b506001949350505050565b606060006126ba836002613331565b6126c590600261316d565b67ffffffffffffffff8111156126dd576126dd612b56565b6040519080825280601f01601f191660200182016040528015612707576020820181803683370190505b509050600360fc1b8160008151811061272257612722612ec0565b60200101906001600160f81b031916908160001a905350600f60fb1b8160018151811061275157612751612ec0565b60200101906001600160f81b031916908160001a9053506000612775846002613331565b61278090600161316d565b90505b60018111156127f8576f181899199a1a9b1b9c1cb0b131b232b360811b85600f16601081106127b4576127b4612ec0565b1a60f81b8282815181106127ca576127ca612ec0565b60200101906001600160f81b031916908160001a90535060049490941c936127f181613350565b9050612783565b5083156108af5760405162461bcd60e51b815260206004820181905260248201527f537472696e67733a20686578206c656e67746820696e73756666696369656e746044820152606401610774565b603780548251600090815260386020908152604080832084905560018401855593909152835160069092027f42a7b7dd785cd69714a189dffb3fd7d7174edc9ece837694ce50f7078f7c31ae8101928355818501517f42a7b7dd785cd69714a189dffb3fd7d7174edc9ece837694ce50f7078f7c31af820155928401517f42a7b7dd785cd69714a189dffb3fd7d7174edc9ece837694ce50f7078f7c31b084015560608401517f42a7b7dd785cd69714a189dffb3fd7d7174edc9ece837694ce50f7078f7c31b1840180546001600160a01b039283166001600160a01b03199182161790915560808601517f42a7b7dd785cd69714a189dffb3fd7d7174edc9ece837694ce50f7078f7c31b28601805491909316911617905560a084015180518594610a09937f42a7b7dd785cd69714a189dffb3fd7d7174edc9ece837694ce50f7078f7c31b39091019201905b8280548282559060005260206000209081019282156129ea579160200282015b828111156129ea57825182546001600160a01b0319166001600160a01b039091161782556020909201916001909101906129b5565b506129f6929150612a14565b5090565b5080546000825590600052602060002090810190610b8991905b5b808211156129f65760008155600101612a15565b6001600160e01b031981168114610b8957600080fd5b600060208284031215612a5157600080fd5b81356108af81612a29565b60005b83811015612a77578181015183820152602001612a5f565b83811115610a095750506000910152565b60008151808452612aa0816020860160208601612a5c565b601f01601f19169290920160200192915050565b6020815260006108af6020830184612a88565b600060208284031215612ad957600080fd5b5035919050565b80356001600160a01b0381168114610cb457600080fd5b60008060408385031215612b0a57600080fd5b612b1383612ae0565b946020939093013593505050565b600080600060608486031215612b3657600080fd5b83359250612b4660208501612ae0565b9150604084013590509250925092565b634e487b7160e01b600052604160045260246000fd5b604051601f8201601f1916810167ffffffffffffffff81118282101715612b9557612b95612b56565b604052919050565b600067ffffffffffffffff821115612bb757612bb7612b56565b50601f01601f191660200190565b6000612bd8612bd384612b9d565b612b6c565b9050828152838383011115612bec57600080fd5b828260208301376000602084830101529392505050565b600082601f830112612c1457600080fd5b6108af83833560208501612bc5565b600080600060608486031215612c3857600080fd5b833567ffffffffffffffff80821115612c5057600080fd5b612c5c87838801612c03565b94506020860135915080821115612c7257600080fd5b50612c7f86828701612c03565b925050604084013560ff81168114612c9657600080fd5b809150509250925092565b600080600060608486031215612cb657600080fd5b612cbf84612ae0565b9250612b4660208501612ae0565b600080600060608486031215612ce257600080fd5b505081359360208301359350604090920135919050565b600060208284031215612d0b57600080fd5b6108af82612ae0565b60008060408385031215612d2757600080fd5b50508035926020909101359150565b8015158114610b8957600080fd5b60008060408385031215612d5757600080fd5b612d6083612ae0565b91506020830135612d7081612d36565b809150509250929050565b60008060008060808587031215612d9157600080fd5b612d9a85612ae0565b966020860135965060408601359560600135945092505050565b60008060008060808587031215612dca57600080fd5b612dd385612ae0565b9350612de160208601612ae0565b925060408501359150606085013567ffffffffffffffff811115612e0457600080fd5b8501601f81018713612e1557600080fd5b612e2487823560208401612bc5565b91505092959194509250565b60008060408385031215612e4357600080fd5b82359150612e5360208401612ae0565b90509250929050565b60008060408385031215612e6f57600080fd5b612e7883612ae0565b9150612e5360208401612ae0565b600181811c90821680612e9a57607f821691505b602082108103612eba57634e487b7160e01b600052602260045260246000fd5b50919050565b634e487b7160e01b600052603260045260246000fd5b60208082526022908201527f455243333532353a20617070726f76616c20746f2063757272656e74206f776e60408201526132b960f11b606082015260800190565b60208082526039908201527f455243333532353a20617070726f76652063616c6c6572206973206e6f74206f60408201527f776e6572206e6f7220617070726f76656420666f7220616c6c00000000000000606082015260800190565b60008351612f87818460208801612a5c565b64736c6f742f60d81b9083019081528351612fa9816005840160208801612a5c565b01600501949350505050565b600060208284031215612fc757600080fd5b815167ffffffffffffffff811115612fde57600080fd5b8201601f81018413612fef57600080fd5b8051612ffd612bd382612b9d565b81815285602083850101111561301257600080fd5b613023826020830160208601612a5c565b95945050505050565b60208082526032908201527f455243333532353a207472616e736665722063616c6c6572206973206e6f74206040820152711bdddb995c881b9bdc88185c1c1c9bdd995960721b606082015260800190565b6020808252602f908201527f455243333532353a2063616c6c6572206973206e6f7420746f6b656e206f776e60408201526e195c881b9bdc88185c1c1c9bdd9959608a1b606082015260800190565b600083516130df818460208801612a5c565b8351908301906130f3818360208801612a5c565b01949350505050565b6000835161310e818460208801612a5c565b68636f6e74726163742f60b81b9083019081528351613134816009840160208801612a5c565b01600901949350505050565b634e487b7160e01b600052601160045260246000fd5b60008282101561316857613168613140565b500390565b6000821982111561318057613180613140565b500190565b601f8211156107bf57600081815260208120601f850160051c810160208610156131ac5750805b601f850160051c820191505b81811015611e59578281556001016131b8565b815167ffffffffffffffff8111156131e5576131e5612b56565b6131f9816131f38454612e86565b84613185565b602080601f83116001811461322e57600084156132165750858301515b600019600386901b1c1916600185901b178555611e59565b600085815260208120601f198616915b8281101561325d5788860151825594840194600190910190840161323e565b508582101561327b5787850151600019600388901b60f8161c191681555b5050505050600190811b01905550565b60006001820161329d5761329d613140565b5060010190565b634e487b7160e01b600052603160045260246000fd5b6000602082840312156132cc57600080fd5b81516108af81612d36565b6001600160a01b038581168252841660208201526040810183905260806060820181905260009061330a90830184612a88565b9695505050505050565b60006020828403121561332657600080fd5b81516108af81612a29565b600081600019048311821515161561334b5761334b613140565b500290565b60008161335f5761335f613140565b50600019019056fe0b2aac84f3ec956911fd78eae5311062972ff949f38412e8da39069d9f068cc6a26469706673582212201c445fa41451f5a1ceded837f127a9bf91177301cf75e4363239f54bba5733b664736f6c634300080f0033",
  "linkReferences": {},
  "deployedLinkReferences": {}
}