{
  "_format": "hh-sol-artifact-1",
  "contractName": "ERC3525MetadataDescriptor",
  "sourceName": "contracts/solvprotocol/erc-3525/periphery/ERC3525MetadataDescriptor.sol",
  "abi": [
    {
      "inputs": [],
      "name": "constructContractURI",
      "outputs": [
        {
          "internalType": "string",
          "name": "",
          "type": "string"
        }
      ],
      "stateMutability": "view",
      "type": "function"
    },
    {
      "inputs": [
        {
          "internalType": "uint256",
          "name": "slot_",
          "type": "uint256"
        }
      ],
      "name": "constructSlotURI",
      "outputs": [
        {
          "internalType": "string",
          "name": "",
          "type": "string"
        }
      ],
      "stateMutability": "view",
      "type": "function"
    },
    {
      "inputs": [
        {
          "internalType": "uint256",
          "name": "tokenId_",
          "type": "uint256"
        }
      ],
      "name": "constructTokenURI",
      "outputs": [
        {
          "internalType": "string",
          "name": "",
          "type": "string"
        }
      ],
      "stateMutability": "view",
      "type": "function"
    }
  ],
  "bytecode": "0x608060405234801561001057600080fd5b50611432806100206000396000f3fe608060405234801561001057600080fd5b50600436106100415760003560e01c80636c037f8a14610046578063725fa09c14610076578063894b4c2e14610094575b600080fd5b610060600480360381019061005b91906109ad565b6100c4565b60405161006d9190610a73565b60405180910390f35b61007e61013a565b60405161008b9190610a73565b60405180910390f35b6100ae60048036038101906100a991906109ad565b61028e565b6040516100bb9190610a73565b60405180910390f35b60606101146100d283610410565b6100db84610429565b6100e485610442565b6100ed8661045b565b6040516020016101009493929190610c94565b60405160208183030381529060405261049a565b6040516020016101249190610d55565b6040516020818303038152906040529050919050565b606060003390506102698173ffffffffffffffffffffffffffffffffffffffff166306fdde036040518163ffffffff1660e01b8152600401600060405180830381865afa15801561018f573d6000803e3d6000fd5b505050506040513d6000823e3d601f19601f820116820180604052508101906101b89190610e9d565b6101c06105fd565b6101c8610614565b6102428573ffffffffffffffffffffffffffffffffffffffff16633e7e86696040518163ffffffff1660e01b8152600401602060405180830381865afa158015610216573d6000803e3d6000fd5b505050506040513d601f19601f8201168201806040525081019061023a9190610f1f565b60ff1661062b565b6040516020016102559493929190610fe4565b60405160208183030381529060405261049a565b6040516020016102799190610d55565b60405160208183030381529060405291505090565b606060003390506103e96102a1846106f9565b6102aa8561079f565b6102b3866107b8565b6103358573ffffffffffffffffffffffffffffffffffffffff16639cc7f708896040518263ffffffff1660e01b81526004016102ef9190611068565b602060405180830381865afa15801561030c573d6000803e3d6000fd5b505050506040513d601f19601f820116820180604052508101906103309190611098565b61062b565b6103b78673ffffffffffffffffffffffffffffffffffffffff1663263f3e7e8a6040518263ffffffff1660e01b81526004016103719190611068565b602060405180830381865afa15801561038e573d6000803e3d6000fd5b505050506040513d601f19601f820116820180604052508101906103b29190611098565b61062b565b6103c0896107d1565b6040516020016103d59695949392919061115d565b60405160208183030381529060405261049a565b6040516020016103f99190610d55565b604051602081830303815290604052915050919050565b6060604051806020016040528060008152509050919050565b6060604051806020016040528060008152509050919050565b6060604051806020016040528060008152509050919050565b60606040518060400160405280600281526020017f5b5d0000000000000000000000000000000000000000000000000000000000008152509050919050565b606060008251036104bc576040518060200160405280600081525090506105f8565b60006040518060600160405280604081526020016113bd60409139905060006003600285516104eb9190611231565b6104f591906112b6565b600461050191906112e7565b67ffffffffffffffff81111561051a57610519610d81565b5b6040519080825280601f01601f19166020018201604052801561054c5781602001600182028036833780820191505090505b509050600182016020820185865187015b808210156105b8576003820191508151603f8160121c168501518453600184019350603f81600c1c168501518453600184019350603f8160061c168501518453600184019350603f811685015184536001840193505061055d565b50506003865106600181146105d457600281146105e7576105ef565b603d6001830353603d60028303536105ef565b603d60018303535b50505080925050505b919050565b606060405180602001604052806000815250905090565b606060405180602001604052806000815250905090565b60606000600161063a84610810565b01905060008167ffffffffffffffff81111561065957610658610d81565b5b6040519080825280601f01601f19166020018201604052801561068b5781602001600182028036833780820191505090505b509050600082602001820190505b6001156106ee578080600190039150507f3031323334353637383961626364656600000000000000000000000000000000600a86061a8153600a85816106e2576106e1611287565b5b04945060008503610699575b819350505050919050565b60603373ffffffffffffffffffffffffffffffffffffffff166306fdde036040518163ffffffff1660e01b8152600401600060405180830381865afa158015610746573d6000803e3d6000fd5b505050506040513d6000823e3d601f19601f8201168201806040525081019061076f9190610e9d565b6107788361062b565b60405160200161078992919061138d565b6040516020818303038152906040529050919050565b6060604051806020016040528060008152509050919050565b6060604051806020016040528060008152509050919050565b60606040518060400160405280600281526020017f7b7d0000000000000000000000000000000000000000000000000000000000008152509050919050565b600080600090507a184f03e93ff9f4daa797ed6e38ed64bf6a1f010000000000000000831061086e577a184f03e93ff9f4daa797ed6e38ed64bf6a1f010000000000000000838161086457610863611287565b5b0492506040810190505b6d04ee2d6d415b85acef810000000083106108ab576d04ee2d6d415b85acef810000000083816108a1576108a0611287565b5b0492506020810190505b662386f26fc1000083106108da57662386f26fc1000083816108d0576108cf611287565b5b0492506010810190505b6305f5e1008310610903576305f5e10083816108f9576108f8611287565b5b0492506008810190505b612710831061092857612710838161091e5761091d611287565b5b0492506004810190505b6064831061094b576064838161094157610940611287565b5b0492506002810190505b600a831061095a576001810190505b80915050919050565b6000604051905090565b600080fd5b600080fd5b6000819050919050565b61098a81610977565b811461099557600080fd5b50565b6000813590506109a781610981565b92915050565b6000602082840312156109c3576109c261096d565b5b60006109d184828501610998565b91505092915050565b600081519050919050565b600082825260208201905092915050565b60005b83811015610a145780820151818401526020810190506109f9565b83811115610a23576000848401525b50505050565b6000601f19601f8301169050919050565b6000610a45826109da565b610a4f81856109e5565b9350610a5f8185602086016109f6565b610a6881610a29565b840191505092915050565b60006020820190508181036000830152610a8d8184610a3a565b905092915050565b600081905092915050565b7f7b226e616d65223a220000000000000000000000000000000000000000000000600082015250565b6000610ad6600983610a95565b9150610ae182610aa0565b600982019050919050565b6000610af7826109da565b610b018185610a95565b9350610b118185602086016109f6565b80840191505092915050565b7f222c226465736372697074696f6e223a22000000000000000000000000000000600082015250565b6000610b53601183610a95565b9150610b5e82610b1d565b601182019050919050565b7f222c22696d616765223a22000000000000000000000000000000000000000000600082015250565b6000610b9f600b83610a95565b9150610baa82610b69565b600b82019050919050565b600081519050919050565b600081905092915050565b6000610bd682610bb5565b610be08185610bc0565b9350610bf08185602086016109f6565b80840191505092915050565b7f222c2270726f70657274696573223a0000000000000000000000000000000000600082015250565b6000610c32600f83610a95565b9150610c3d82610bfc565b600f82019050919050565b7f7d00000000000000000000000000000000000000000000000000000000000000600082015250565b6000610c7e600183610a95565b9150610c8982610c48565b600182019050919050565b6000610c9f82610ac9565b9150610cab8287610aec565b9150610cb682610b46565b9150610cc28286610aec565b9150610ccd82610b92565b9150610cd98285610bcb565b9150610ce482610c25565b9150610cf08284610aec565b9150610cfb82610c71565b915081905095945050505050565b7f646174613a6170706c69636174696f6e2f6a736f6e3b6261736536342c000000600082015250565b6000610d3f601d83610a95565b9150610d4a82610d09565b601d82019050919050565b6000610d6082610d32565b9150610d6c8284610aec565b915081905092915050565b600080fd5b600080fd5b7f4e487b7100000000000000000000000000000000000000000000000000000000600052604160045260246000fd5b610db982610a29565b810181811067ffffffffffffffff82111715610dd857610dd7610d81565b5b80604052505050565b6000610deb610963565b9050610df78282610db0565b919050565b600067ffffffffffffffff821115610e1757610e16610d81565b5b610e2082610a29565b9050602081019050919050565b6000610e40610e3b84610dfc565b610de1565b905082815260208101848484011115610e5c57610e5b610d7c565b5b610e678482856109f6565b509392505050565b600082601f830112610e8457610e83610d77565b5b8151610e94848260208601610e2d565b91505092915050565b600060208284031215610eb357610eb261096d565b5b600082015167ffffffffffffffff811115610ed157610ed0610972565b5b610edd84828501610e6f565b91505092915050565b600060ff82169050919050565b610efc81610ee6565b8114610f0757600080fd5b50565b600081519050610f1981610ef3565b92915050565b600060208284031215610f3557610f3461096d565b5b6000610f4384828501610f0a565b91505092915050565b7f222c2276616c7565446563696d616c73223a2200000000000000000000000000600082015250565b6000610f82601383610a95565b9150610f8d82610f4c565b601382019050919050565b7f227d000000000000000000000000000000000000000000000000000000000000600082015250565b6000610fce600283610a95565b9150610fd982610f98565b600282019050919050565b6000610fef82610ac9565b9150610ffb8287610aec565b915061100682610b46565b91506110128286610aec565b915061101d82610b92565b91506110298285610bcb565b915061103482610f75565b91506110408284610aec565b915061104b82610fc1565b915081905095945050505050565b61106281610977565b82525050565b600060208201905061107d6000830184611059565b92915050565b60008151905061109281610981565b92915050565b6000602082840312156110ae576110ad61096d565b5b60006110bc84828501611083565b91505092915050565b7f222c2262616c616e6365223a2200000000000000000000000000000000000000600082015250565b60006110fb600d83610a95565b9150611106826110c5565b600d82019050919050565b7f222c22736c6f74223a2200000000000000000000000000000000000000000000600082015250565b6000611147600a83610a95565b915061115282611111565b600a82019050919050565b600061116882610ac9565b91506111748289610aec565b915061117f82610b46565b915061118b8288610aec565b915061119682610b92565b91506111a28287610bcb565b91506111ad826110ee565b91506111b98286610aec565b91506111c48261113a565b91506111d08285610aec565b91506111db82610c25565b91506111e78284610aec565b91506111f282610c71565b9150819050979650505050505050565b7f4e487b7100000000000000000000000000000000000000000000000000000000600052601160045260246000fd5b600061123c82610977565b915061124783610977565b9250827fffffffffffffffffffffffffffffffffffffffffffffffffffffffffffffffff0382111561127c5761127b611202565b5b828201905092915050565b7f4e487b7100000000000000000000000000000000000000000000000000000000600052601260045260246000fd5b60006112c182610977565b91506112cc83610977565b9250826112dc576112db611287565b5b828204905092915050565b60006112f282610977565b91506112fd83610977565b9250817fffffffffffffffffffffffffffffffffffffffffffffffffffffffffffffffff048311821515161561133657611335611202565b5b828202905092915050565b7f2023000000000000000000000000000000000000000000000000000000000000600082015250565b6000611377600283610a95565b915061138282611341565b600282019050919050565b60006113998285610aec565b91506113a48261136a565b91506113b08284610aec565b9150819050939250505056fe4142434445464748494a4b4c4d4e4f505152535455565758595a6162636465666768696a6b6c6d6e6f707172737475767778797a303132333435363738392b2fa2646970667358221220689ce8a3a162009d71be8e44f5369a63f1726fa8463eb364bce0f6284edb6b2964736f6c634300080f0033",
  "linkReferences": {},
  "deployedLinkReferences": {}
}