{
  "_format": "hh-sol-artifact-1",
  "contractName": "ERC3525MetadataDescriptor",
  "sourceName": "contracts/solvprotocol/erc-3525/periphery/ERC3525MetadataDescriptor.sol",
  "abi": [
    {
      "inputs": [],
      "name": "constructContractURI",
      "outputs": [
        {
          "internalType": "string",
          "name": "",
          "type": "string"
        }
      ],
      "stateMutability": "view",
      "type": "function"
    },
    {
      "inputs": [
        {
          "internalType": "uint256",
          "name": "slot_",
          "type": "uint256"
        }
      ],
      "name": "constructSlotURI",
      "outputs": [
        {
          "internalType": "string",
          "name": "",
          "type": "string"
        }
      ],
      "stateMutability": "view",
      "type": "function"
    },
    {
      "inputs": [
        {
          "internalType": "uint256",
          "name": "tokenId_",
          "type": "uint256"
        }
      ],
      "name": "constructTokenURI",
      "outputs": [
        {
          "internalType": "string",
          "name": "",
          "type": "string"
        }
      ],
      "stateMutability": "view",
      "type": "function"
    }
  ],
  "bytecode": "0x608060405234801561001057600080fd5b50610c82806100206000396000f3fe608060405234801561001057600080fd5b50600436106100415760003560e01c80636c037f8a14610046578063725fa09c1461006f578063894b4c2e14610077575b600080fd5b6100596100543660046106b6565b61008a565b60405161006691906106ff565b60405180910390f35b61005961011c565b6100596100853660046106b6565b61024f565b60606100f66100a460408051602081019091526000815290565b60408051602080820183526000808352835180830185529081528351808501855260028152615b5d60f01b8184015293516100e2959491920161074e565b604051602081830303815290604052610375565b604051602001610106919061081c565b6040516020818303038152906040529050919050565b6060600033905061022a816001600160a01b03166306fdde036040518163ffffffff1660e01b8152600401600060405180830381865afa158015610164573d6000803e3d6000fd5b505050506040513d6000823e601f3d908101601f1916820160405261018c9190810190610877565b604080516020810190915260008152604080516020810190915260008152610217856001600160a01b0316633e7e86696040518163ffffffff1660e01b8152600401602060405180830381865afa1580156101eb573d6000803e3d6000fd5b505050506040513d601f19601f8201168201806040525081019061020f9190610924565b60ff166104c8565b6040516020016100e2949392919061094e565b60405160200161023a919061081c565b60405160208183030381529060405291505090565b60603361034e61025e8461055b565b604080516020810190915260008152604080516020810190915260008152604051631398fee160e31b8152600481018890526102ef906001600160a01b03871690639cc7f708906024015b602060405180830381865afa1580156102c6573d6000803e3d6000fd5b505050506040513d601f19601f820116820180604052508101906102ea9190610a21565b6104c8565b60405163131f9f3f60e11b815260048101899052610320906001600160a01b0388169063263f3e7e906024016102a9565b6040805180820190915260028152617b7d60f01b60208201526040516020016100e296959493929190610a3a565b60405160200161035e919061081c565b604051602081830303815290604052915050919050565b6060815160000361039457505060408051602081019091526000815290565b6000604051806060016040528060408152602001610c0d60409139905060006003845160026103c39190610b76565b6103cd9190610b8e565b6103d8906004610bb0565b67ffffffffffffffff8111156103f0576103f0610861565b6040519080825280601f01601f19166020018201604052801561041a576020820181803683370190505b509050600182016020820185865187015b80821015610486576003820191508151603f8160121c168501518453600184019350603f81600c1c168501518453600184019350603f8160061c168501518453600184019350603f811685015184535060018301925061042b565b50506003865106600181146104a257600281146104b5576104bd565b603d6001830353603d60028303536104bd565b603d60018303535b509195945050505050565b606060006104d5836105dd565b600101905060008167ffffffffffffffff8111156104f5576104f5610861565b6040519080825280601f01601f19166020018201604052801561051f576020820181803683370190505b5090508181016020015b600019016f181899199a1a9b1b9c1cb0b131b232b360811b600a86061a8153600a850494508461052957509392505050565b6060336001600160a01b03166306fdde036040518163ffffffff1660e01b8152600401600060405180830381865afa15801561059b573d6000803e3d6000fd5b505050506040513d6000823e601f3d908101601f191682016040526105c39190810190610877565b6105cc836104c8565b604051602001610106929190610bcf565b60008072184f03e93ff9f4daa797ed6e38ed64bf6a1f0160401b831061061c5772184f03e93ff9f4daa797ed6e38ed64bf6a1f0160401b830492506040015b6d04ee2d6d415b85acef81000000008310610648576d04ee2d6d415b85acef8100000000830492506020015b662386f26fc10000831061066657662386f26fc10000830492506010015b6305f5e100831061067e576305f5e100830492506008015b612710831061069257612710830492506004015b606483106106a4576064830492506002015b600a83106106b0576001015b92915050565b6000602082840312156106c857600080fd5b5035919050565b60005b838110156106ea5781810151838201526020016106d2565b838111156106f9576000848401525b50505050565b602081526000825180602084015261071e8160408501602087016106cf565b601f01601f19169190910160400192915050565b600081516107448185602086016106cf565b9290920192915050565b683d913730b6b2911d1160b91b81528451600090610773816009850160208a016106cf565b701116113232b9b1b934b83a34b7b7111d1160791b60099184019182015285516107a481601a840160208a016106cf565b6a11161134b6b0b3b2911d1160a91b601a929091019182015284516107d08160258401602089016106cf565b6e111611383937b832b93a34b2b9911d60891b6025929091019182015283516108008160348401602088016106cf565b607d60f81b603492909101918201526035019695505050505050565b7f646174613a6170706c69636174696f6e2f6a736f6e3b6261736536342c00000081526000825161085481601d8501602087016106cf565b91909101601d0192915050565b634e487b7160e01b600052604160045260246000fd5b60006020828403121561088957600080fd5b815167ffffffffffffffff808211156108a157600080fd5b818401915084601f8301126108b557600080fd5b8151818111156108c7576108c7610861565b604051601f8201601f19908116603f011681019083821181831017156108ef576108ef610861565b8160405282815287602084870101111561090857600080fd5b6109198360208301602088016106cf565b979650505050505050565b60006020828403121561093657600080fd5b815160ff8116811461094757600080fd5b9392505050565b683d913730b6b2911d1160b91b81528451600090610973816009850160208a016106cf565b701116113232b9b1b934b83a34b7b7111d1160791b60099184019182015285516109a481601a840160208a016106cf565b6a11161134b6b0b3b2911d1160a91b601a929091019182015284516109d08160258401602089016106cf565b721116113b30b63ab2a232b1b4b6b0b639911d1160691b602592909101918201528351610a048160388401602088016106cf565b61227d60f01b60389290910191820152603a019695505050505050565b600060208284031215610a3357600080fd5b5051919050565b683d913730b6b2911d1160b91b81528651600090610a5f816009850160208c016106cf565b701116113232b9b1b934b83a34b7b7111d1160791b6009918401918201528751610a9081601a840160208c016106cf565b6a11161134b6b0b3b2911d1160a91b601a92909101918201528651610abc816025840160208b016106cf565b6c1116113130b630b731b2911d1160991b602592909101918201528551610aea816032840160208a016106cf565b6911161139b637ba111d1160b11b603292909101918201528451610b1581603c8401602089016106cf565b610b52610b45610b3f603c848601016e111611383937b832b93a34b2b9911d60891b8152600f0190565b87610732565b607d60f81b815260010190565b9a9950505050505050505050565b634e487b7160e01b600052601160045260246000fd5b60008219821115610b8957610b89610b60565b500190565b600082610bab57634e487b7160e01b600052601260045260246000fd5b500490565b6000816000190483118215151615610bca57610bca610b60565b500290565b60008351610be18184602088016106cf565b61202360f01b9083019081528351610c008160028401602088016106cf565b0160020194935050505056fe4142434445464748494a4b4c4d4e4f505152535455565758595a6162636465666768696a6b6c6d6e6f707172737475767778797a303132333435363738392b2fa2646970667358221220641b20a61655713888ee4d911c13e1b88b246cf6182a9c828e22e06aca672b0764736f6c634300080f0033",
  "linkReferences": {},
  "deployedLinkReferences": {}
}