{
  "_format": "hh-sol-artifact-1",
  "contractName": "ERC3525AllRoundMockUpgradeable",
  "sourceName": "contracts/solvprotocol/erc-3525/mocks/ERC3525AllRoundMockUpgradeable.sol",
  "abi": [
    {
      "anonymous": false,
      "inputs": [
        {
          "indexed": true,
          "internalType": "address",
          "name": "_owner",
          "type": "address"
        },
        {
          "indexed": true,
          "internalType": "address",
          "name": "_approved",
          "type": "address"
        },
        {
          "indexed": true,
          "internalType": "uint256",
          "name": "_tokenId",
          "type": "uint256"
        }
      ],
      "name": "Approval",
      "type": "event"
    },
    {
      "anonymous": false,
      "inputs": [
        {
          "indexed": true,
          "internalType": "address",
          "name": "_owner",
          "type": "address"
        },
        {
          "indexed": true,
          "internalType": "address",
          "name": "_operator",
          "type": "address"
        },
        {
          "indexed": false,
          "internalType": "bool",
          "name": "_approved",
          "type": "bool"
        }
      ],
      "name": "ApprovalForAll",
      "type": "event"
    },
    {
      "anonymous": false,
      "inputs": [
        {
          "indexed": true,
          "internalType": "address",
          "name": "_owner",
          "type": "address"
        },
        {
          "indexed": true,
          "internalType": "uint256",
          "name": "_slot",
          "type": "uint256"
        },
        {
          "indexed": true,
          "internalType": "address",
          "name": "_operator",
          "type": "address"
        },
        {
          "indexed": false,
          "internalType": "bool",
          "name": "_approved",
          "type": "bool"
        }
      ],
      "name": "ApprovalForSlot",
      "type": "event"
    },
    {
      "anonymous": false,
      "inputs": [
        {
          "indexed": true,
          "internalType": "uint256",
          "name": "_tokenId",
          "type": "uint256"
        },
        {
          "indexed": true,
          "internalType": "address",
          "name": "_operator",
          "type": "address"
        },
        {
          "indexed": false,
          "internalType": "uint256",
          "name": "_value",
          "type": "uint256"
        }
      ],
      "name": "ApprovalValue",
      "type": "event"
    },
    {
      "anonymous": false,
      "inputs": [
        {
          "indexed": false,
          "internalType": "uint8",
          "name": "version",
          "type": "uint8"
        }
      ],
      "name": "Initialized",
      "type": "event"
    },
    {
      "anonymous": false,
      "inputs": [
        {
          "indexed": true,
          "internalType": "address",
          "name": "metadataDescriptor",
          "type": "address"
        }
      ],
      "name": "SetMetadataDescriptor",
      "type": "event"
    },
    {
      "anonymous": false,
      "inputs": [
        {
          "indexed": true,
          "internalType": "uint256",
          "name": "_tokenId",
          "type": "uint256"
        },
        {
          "indexed": true,
          "internalType": "uint256",
          "name": "_oldSlot",
          "type": "uint256"
        },
        {
          "indexed": true,
          "internalType": "uint256",
          "name": "_newSlot",
          "type": "uint256"
        }
      ],
      "name": "SlotChanged",
      "type": "event"
    },
    {
      "anonymous": false,
      "inputs": [
        {
          "indexed": true,
          "internalType": "address",
          "name": "_from",
          "type": "address"
        },
        {
          "indexed": true,
          "internalType": "address",
          "name": "_to",
          "type": "address"
        },
        {
          "indexed": true,
          "internalType": "uint256",
          "name": "_tokenId",
          "type": "uint256"
        }
      ],
      "name": "Transfer",
      "type": "event"
    },
    {
      "anonymous": false,
      "inputs": [
        {
          "indexed": true,
          "internalType": "uint256",
          "name": "_fromTokenId",
          "type": "uint256"
        },
        {
          "indexed": true,
          "internalType": "uint256",
          "name": "_toTokenId",
          "type": "uint256"
        },
        {
          "indexed": false,
          "internalType": "uint256",
          "name": "_value",
          "type": "uint256"
        }
      ],
      "name": "TransferValue",
      "type": "event"
    },
    {
      "inputs": [
        {
          "internalType": "uint256",
          "name": "tokenId_",
          "type": "uint256"
        },
        {
          "internalType": "address",
          "name": "operator_",
          "type": "address"
        }
      ],
      "name": "allowance",
      "outputs": [
        {
          "internalType": "uint256",
          "name": "",
          "type": "uint256"
        }
      ],
      "stateMutability": "view",
      "type": "function"
    },
    {
      "inputs": [
        {
          "internalType": "address",
          "name": "to_",
          "type": "address"
        },
        {
          "internalType": "uint256",
          "name": "tokenId_",
          "type": "uint256"
        }
      ],
      "name": "approve",
      "outputs": [],
      "stateMutability": "payable",
      "type": "function"
    },
    {
      "inputs": [
        {
          "internalType": "uint256",
          "name": "tokenId_",
          "type": "uint256"
        },
        {
          "internalType": "address",
          "name": "to_",
          "type": "address"
        },
        {
          "internalType": "uint256",
          "name": "value_",
          "type": "uint256"
        }
      ],
      "name": "approve",
      "outputs": [],
      "stateMutability": "payable",
      "type": "function"
    },
    {
      "inputs": [
        {
          "internalType": "address",
          "name": "owner_",
          "type": "address"
        }
      ],
      "name": "balanceOf",
      "outputs": [
        {
          "internalType": "uint256",
          "name": "balance",
          "type": "uint256"
        }
      ],
      "stateMutability": "view",
      "type": "function"
    },
    {
      "inputs": [
        {
          "internalType": "uint256",
          "name": "tokenId_",
          "type": "uint256"
        }
      ],
      "name": "balanceOf",
      "outputs": [
        {
          "internalType": "uint256",
          "name": "",
          "type": "uint256"
        }
      ],
      "stateMutability": "view",
      "type": "function"
    },
    {
      "inputs": [
        {
          "internalType": "uint256",
          "name": "tokenId_",
          "type": "uint256"
        }
      ],
      "name": "burn",
      "outputs": [],
      "stateMutability": "nonpayable",
      "type": "function"
    },
    {
      "inputs": [
        {
          "internalType": "uint256",
          "name": "tokenId_",
          "type": "uint256"
        },
        {
          "internalType": "uint256",
          "name": "burnValue_",
          "type": "uint256"
        }
      ],
      "name": "burnValue",
      "outputs": [],
      "stateMutability": "nonpayable",
      "type": "function"
    },
    {
      "inputs": [],
      "name": "contractURI",
      "outputs": [
        {
          "internalType": "string",
          "name": "",
          "type": "string"
        }
      ],
      "stateMutability": "view",
      "type": "function"
    },
    {
      "inputs": [
        {
          "internalType": "uint256",
          "name": "tokenId_",
          "type": "uint256"
        }
      ],
      "name": "getApproved",
      "outputs": [
        {
          "internalType": "address",
          "name": "",
          "type": "address"
        }
      ],
      "stateMutability": "view",
      "type": "function"
    },
    {
      "inputs": [
        {
          "internalType": "string",
          "name": "name_",
          "type": "string"
        },
        {
          "internalType": "string",
          "name": "symbol_",
          "type": "string"
        },
        {
          "internalType": "uint8",
          "name": "decimals_",
          "type": "uint8"
        }
      ],
      "name": "initialize",
      "outputs": [],
      "stateMutability": "nonpayable",
      "type": "function"
    },
    {
      "inputs": [
        {
          "internalType": "address",
          "name": "owner_",
          "type": "address"
        },
        {
          "internalType": "address",
          "name": "operator_",
          "type": "address"
        }
      ],
      "name": "isApprovedForAll",
      "outputs": [
        {
          "internalType": "bool",
          "name": "",
          "type": "bool"
        }
      ],
      "stateMutability": "view",
      "type": "function"
    },
    {
      "inputs": [
        {
          "internalType": "address",
          "name": "owner_",
          "type": "address"
        },
        {
          "internalType": "uint256",
          "name": "slot_",
          "type": "uint256"
        },
        {
          "internalType": "address",
          "name": "operator_",
          "type": "address"
        }
      ],
      "name": "isApprovedForSlot",
      "outputs": [
        {
          "internalType": "bool",
          "name": "",
          "type": "bool"
        }
      ],
      "stateMutability": "view",
      "type": "function"
    },
    {
      "inputs": [],
      "name": "metadataDescriptor",
      "outputs": [
        {
          "internalType": "contract IERC3525MetadataDescriptor",
          "name": "",
          "type": "address"
        }
      ],
      "stateMutability": "view",
      "type": "function"
    },
    {
      "inputs": [
        {
          "internalType": "address",
          "name": "mintTo_",
          "type": "address"
        },
        {
          "internalType": "uint256",
          "name": "tokenId_",
          "type": "uint256"
        },
        {
          "internalType": "uint256",
          "name": "slot_",
          "type": "uint256"
        },
        {
          "internalType": "uint256",
          "name": "value_",
          "type": "uint256"
        }
      ],
      "name": "mint",
      "outputs": [],
      "stateMutability": "nonpayable",
      "type": "function"
    },
    {
      "inputs": [
        {
          "internalType": "uint256",
          "name": "tokenId_",
          "type": "uint256"
        },
        {
          "internalType": "uint256",
          "name": "value_",
          "type": "uint256"
        }
      ],
      "name": "mintValue",
      "outputs": [],
      "stateMutability": "nonpayable",
      "type": "function"
    },
    {
      "inputs": [],
      "name": "name",
      "outputs": [
        {
          "internalType": "string",
          "name": "",
          "type": "string"
        }
      ],
      "stateMutability": "view",
      "type": "function"
    },
    {
      "inputs": [
        {
          "internalType": "uint256",
          "name": "tokenId_",
          "type": "uint256"
        }
      ],
      "name": "ownerOf",
      "outputs": [
        {
          "internalType": "address",
          "name": "owner_",
          "type": "address"
        }
      ],
      "stateMutability": "view",
      "type": "function"
    },
    {
      "inputs": [
        {
          "internalType": "address",
          "name": "from_",
          "type": "address"
        },
        {
          "internalType": "address",
          "name": "to_",
          "type": "address"
        },
        {
          "internalType": "uint256",
          "name": "tokenId_",
          "type": "uint256"
        }
      ],
      "name": "safeTransferFrom",
      "outputs": [],
      "stateMutability": "payable",
      "type": "function"
    },
    {
      "inputs": [
        {
          "internalType": "address",
          "name": "from_",
          "type": "address"
        },
        {
          "internalType": "address",
          "name": "to_",
          "type": "address"
        },
        {
          "internalType": "uint256",
          "name": "tokenId_",
          "type": "uint256"
        },
        {
          "internalType": "bytes",
          "name": "data_",
          "type": "bytes"
        }
      ],
      "name": "safeTransferFrom",
      "outputs": [],
      "stateMutability": "payable",
      "type": "function"
    },
    {
      "inputs": [
        {
          "internalType": "address",
          "name": "operator_",
          "type": "address"
        },
        {
          "internalType": "bool",
          "name": "approved_",
          "type": "bool"
        }
      ],
      "name": "setApprovalForAll",
      "outputs": [],
      "stateMutability": "nonpayable",
      "type": "function"
    },
    {
      "inputs": [
        {
          "internalType": "address",
          "name": "owner_",
          "type": "address"
        },
        {
          "internalType": "uint256",
          "name": "slot_",
          "type": "uint256"
        },
        {
          "internalType": "address",
          "name": "operator_",
          "type": "address"
        },
        {
          "internalType": "bool",
          "name": "approved_",
          "type": "bool"
        }
      ],
      "name": "setApprovalForSlot",
      "outputs": [],
      "stateMutability": "payable",
      "type": "function"
    },
    {
      "inputs": [
        {
          "internalType": "uint256",
          "name": "index_",
          "type": "uint256"
        }
      ],
      "name": "slotByIndex",
      "outputs": [
        {
          "internalType": "uint256",
          "name": "",
          "type": "uint256"
        }
      ],
      "stateMutability": "view",
      "type": "function"
    },
    {
      "inputs": [],
      "name": "slotCount",
      "outputs": [
        {
          "internalType": "uint256",
          "name": "",
          "type": "uint256"
        }
      ],
      "stateMutability": "view",
      "type": "function"
    },
    {
      "inputs": [
        {
          "internalType": "uint256",
          "name": "tokenId_",
          "type": "uint256"
        }
      ],
      "name": "slotOf",
      "outputs": [
        {
          "internalType": "uint256",
          "name": "",
          "type": "uint256"
        }
      ],
      "stateMutability": "view",
      "type": "function"
    },
    {
      "inputs": [
        {
          "internalType": "uint256",
          "name": "slot_",
          "type": "uint256"
        }
      ],
      "name": "slotURI",
      "outputs": [
        {
          "internalType": "string",
          "name": "",
          "type": "string"
        }
      ],
      "stateMutability": "view",
      "type": "function"
    },
    {
      "inputs": [
        {
          "internalType": "bytes4",
          "name": "interfaceId",
          "type": "bytes4"
        }
      ],
      "name": "supportsInterface",
      "outputs": [
        {
          "internalType": "bool",
          "name": "",
          "type": "bool"
        }
      ],
      "stateMutability": "view",
      "type": "function"
    },
    {
      "inputs": [],
      "name": "symbol",
      "outputs": [
        {
          "internalType": "string",
          "name": "",
          "type": "string"
        }
      ],
      "stateMutability": "view",
      "type": "function"
    },
    {
      "inputs": [
        {
          "internalType": "uint256",
          "name": "index_",
          "type": "uint256"
        }
      ],
      "name": "tokenByIndex",
      "outputs": [
        {
          "internalType": "uint256",
          "name": "",
          "type": "uint256"
        }
      ],
      "stateMutability": "view",
      "type": "function"
    },
    {
      "inputs": [
        {
          "internalType": "uint256",
          "name": "slot_",
          "type": "uint256"
        },
        {
          "internalType": "uint256",
          "name": "index_",
          "type": "uint256"
        }
      ],
      "name": "tokenInSlotByIndex",
      "outputs": [
        {
          "internalType": "uint256",
          "name": "",
          "type": "uint256"
        }
      ],
      "stateMutability": "view",
      "type": "function"
    },
    {
      "inputs": [
        {
          "internalType": "address",
          "name": "owner_",
          "type": "address"
        },
        {
          "internalType": "uint256",
          "name": "index_",
          "type": "uint256"
        }
      ],
      "name": "tokenOfOwnerByIndex",
      "outputs": [
        {
          "internalType": "uint256",
          "name": "",
          "type": "uint256"
        }
      ],
      "stateMutability": "view",
      "type": "function"
    },
    {
      "inputs": [
        {
          "internalType": "uint256",
          "name": "slot_",
          "type": "uint256"
        }
      ],
      "name": "tokenSupplyInSlot",
      "outputs": [
        {
          "internalType": "uint256",
          "name": "",
          "type": "uint256"
        }
      ],
      "stateMutability": "view",
      "type": "function"
    },
    {
      "inputs": [
        {
          "internalType": "uint256",
          "name": "tokenId_",
          "type": "uint256"
        }
      ],
      "name": "tokenURI",
      "outputs": [
        {
          "internalType": "string",
          "name": "",
          "type": "string"
        }
      ],
      "stateMutability": "view",
      "type": "function"
    },
    {
      "inputs": [],
      "name": "totalSupply",
      "outputs": [
        {
          "internalType": "uint256",
          "name": "",
          "type": "uint256"
        }
      ],
      "stateMutability": "view",
      "type": "function"
    },
    {
      "inputs": [
        {
          "internalType": "uint256",
          "name": "fromTokenId_",
          "type": "uint256"
        },
        {
          "internalType": "address",
          "name": "to_",
          "type": "address"
        },
        {
          "internalType": "uint256",
          "name": "value_",
          "type": "uint256"
        }
      ],
      "name": "transferFrom",
      "outputs": [
        {
          "internalType": "uint256",
          "name": "",
          "type": "uint256"
        }
      ],
      "stateMutability": "payable",
      "type": "function"
    },
    {
      "inputs": [
        {
          "internalType": "address",
          "name": "from_",
          "type": "address"
        },
        {
          "internalType": "address",
          "name": "to_",
          "type": "address"
        },
        {
          "internalType": "uint256",
          "name": "tokenId_",
          "type": "uint256"
        }
      ],
      "name": "transferFrom",
      "outputs": [],
      "stateMutability": "payable",
      "type": "function"
    },
    {
      "inputs": [
        {
          "internalType": "uint256",
          "name": "fromTokenId_",
          "type": "uint256"
        },
        {
          "internalType": "uint256",
          "name": "toTokenId_",
          "type": "uint256"
        },
        {
          "internalType": "uint256",
          "name": "value_",
          "type": "uint256"
        }
      ],
      "name": "transferFrom",
      "outputs": [],
      "stateMutability": "payable",
      "type": "function"
    },
    {
      "inputs": [],
      "name": "valueDecimals",
      "outputs": [
        {
          "internalType": "uint8",
          "name": "",
          "type": "uint8"
        }
      ],
      "stateMutability": "view",
      "type": "function"
    }
  ],
  "bytecode": "0x608060405234801561001057600080fd5b50613e57806100206000396000f3fe6080604052600436106102195760003560e01c806355cd4e0611610123578063a22cb465116100ab578063e345f05e1161006f578063e345f05e146105e1578063e8a3d48514610632578063e985e9c514610647578063ed08fa8014610694578063f0e88e7f146106a957600080fd5b8063a22cb4651461054e578063a647e8ec1461056e578063b88d4fde1461058e578063c87b56dd146105a1578063e345e0bc146105c157600080fd5b806387fe8611116100f257806387fe8611146104c65780638cb0a511146104e657806395d89b41146104f9578063993bef8d1461050e5780639cc7f7081461052e57600080fd5b806355cd4e06146104535780636352211e1461046657806370a0823114610486578063840f7113146104a657600080fd5b806323b872dd116101a65780633e7e8669116101755780633e7e8669146103be57806342842e0e146103e057806342966c68146103f35780634f6ccce7146104135780634f8a0f831461043357600080fd5b806323b872dd14610358578063263f3e7e1461036b5780632f745c591461038b578063310ed7f0146103ab57600080fd5b8063095ea7b3116101ed578063095ea7b3146102db57806309c3dd87146102f05780630f485c02146103105780631624f6c61461032357806318160ddd1461034357600080fd5b8062cd01101461021e57806301ffc9a71461025157806306fdde0314610281578063081812fc146102a3575b600080fd5b34801561022a57600080fd5b5061023e610239366004613441565b6106c9565b6040519081526020015b60405180910390f35b34801561025d57600080fd5b5061027161026c366004613479565b61079f565b6040519015158152602001610248565b34801561028d57600080fd5b506102966107c4565b60405161024891906134ee565b3480156102af57600080fd5b506102c36102be366004613501565b610856565b6040516001600160a01b039091168152602001610248565b6102ee6102e9366004613531565b6108a8565b005b3480156102fc57600080fd5b5061029661030b366004613501565b61094c565b61023e61031e36600461355b565b610a3e565b34801561032f57600080fd5b506102ee61033e36600461365d565b610a80565b34801561034f57600080fd5b5060375461023e565b6102ee6103663660046136db565b610b96565b34801561037757600080fd5b5061023e610386366004613501565b610bcd565b34801561039757600080fd5b5061023e6103a6366004613531565b610c15565b6102ee6103b9366004613707565b610ca3565b3480156103ca57600080fd5b5060355460405160ff9091168152602001610248565b6102ee6103ee3660046136db565b610cb9565b3480156103ff57600080fd5b506102ee61040e366004613501565b610cd4565b34801561041f57600080fd5b5061023e61042e366004613501565b610d05565b34801561043f57600080fd5b5061023e61044e366004613501565b610d96565b6102ee610461366004613741565b610deb565b34801561047257600080fd5b506102c3610481366004613501565b610e85565b34801561049257600080fd5b5061023e6104a1366004613790565b610f21565b3480156104b257600080fd5b50603a546102c3906001600160a01b031681565b3480156104d257600080fd5b506102ee6104e1366004613441565b610fa9565b6102ee6104f436600461355b565b610fde565b34801561050557600080fd5b50610296611084565b34801561051a57600080fd5b5061023e610529366004613501565b611093565b34801561053a57600080fd5b5061023e610549366004613501565b611130565b34801561055a57600080fd5b506102ee6105693660046137ab565b611178565b34801561057a57600080fd5b506102ee6105893660046137e2565b611183565b6102ee61059c36600461381b565b61118f565b3480156105ad57600080fd5b506102966105bc366004613501565b6111c0565b3480156105cd57600080fd5b5061023e6105dc366004613897565b61125f565b3480156105ed57600080fd5b506102716105fc3660046138c3565b6001600160a01b039283166000908152609760209081526040808320948352938152838220929094168152925290205460ff1690565b34801561063e57600080fd5b50610296611293565b34801561065357600080fd5b506102716106623660046138ff565b6001600160a01b0391821660009081526039602090815260408083209390941682526002909201909152205460ff1690565b3480156106a057600080fd5b5060665461023e565b3480156106b557600080fd5b506102ee6106c4366004613441565b61138d565b60006106d483610d96565b82106107455760405162461bcd60e51b815260206004820152603560248201527f45524333353235536c6f74456e756d657261626c653a20736c6f7420746f6b656044820152746e20696e646578206f7574206f6620626f756e647360581b60648201526084015b60405180910390fd5b60008381526067602052604090205460668054909190811061076957610769613929565b9060005260206000209060020201600101828154811061078b5761078b613929565b906000526020600020015490505b92915050565b60006001600160e01b031982166316d117cb60e31b1480610799575061079982611397565b6060603380546107d39061393f565b80601f01602080910402602001604051908101604052809291908181526020018280546107ff9061393f565b801561084c5780601f106108215761010080835404028352916020019161084c565b820191906000526020600020905b81548152906001019060200180831161082f57829003601f168201915b5050505050905090565b6000610861826113bc565b60008281526038602052604090205460378054909190811061088557610885613929565b60009182526020909120600460069092020101546001600160a01b031692915050565b60006108b382610e85565b905060006108c083610bcd565b9050816001600160a01b0316846001600160a01b0316036108f35760405162461bcd60e51b815260040161073c90613979565b336001600160a01b038316148061090f575061090f8233610662565b8061092057506109208282336105fc565b61093c5760405162461bcd60e51b815260040161073c906139bb565b610946848461140d565b50505050565b6060600061096560408051602081019091526000815290565b603a549091506001600160a01b03166109c55760008151116109965760405180602001604052806000815250610a37565b806109a0846114a4565b6040516020016109b1929190613a18565b604051602081830303815290604052610a37565b603a54604051633601bfc560e11b8152600481018590526001600160a01b0390911690636c037f8a906024015b600060405180830381865afa158015610a0f573d6000803e3d6000fd5b505050506040513d6000823e601f3d908101601f19168201604052610a379190810190613a58565b9392505050565b6000610a4b338584611537565b6000610a56856115c7565b9050610a6d8482610a6688610bcd565b60006115d1565b610a78858285611716565b949350505050565b600054610100900460ff1615808015610aa05750600054600160ff909116105b80610aba5750303b158015610aba575060005460ff166001145b610b1d5760405162461bcd60e51b815260206004820152602e60248201527f496e697469616c697a61626c653a20636f6e747261637420697320616c72656160448201526d191e481a5b9a5d1a585b1a5e995960921b606482015260840161073c565b6000805460ff191660011790558015610b40576000805461ff0019166101001790555b610b4b8484846119ce565b8015610946576000805461ff0019169055604051600181527f7f26b83ff96e1f2b6a682f133852f6798a09c465da95921460cefb38474024989060200160405180910390a150505050565b610ba1335b82611a44565b610bbd5760405162461bcd60e51b815260040161073c90613ac6565b610bc8838383611acc565b505050565b6000610bd8826113bc565b600082815260386020526040902054603780549091908110610bfc57610bfc613929565b9060005260206000209060060201600101549050919050565b6000610c2083610f21565b8210610c795760405162461bcd60e51b815260206004820152602260248201527f455243333532353a206f776e657220696e646578206f7574206f6620626f756e604482015261647360f01b606482015260840161073c565b6001600160a01b038316600090815260396020526040902080548390811061078b5761078b613929565b610cae338483611537565b610bc8838383611716565b610bc88383836040518060200160405280600081525061118f565b610cdd33610b9b565b610cf95760405162461bcd60e51b815260040161073c90613b18565b610d0281611c44565b50565b6000610d1060375490565b8210610d6a5760405162461bcd60e51b815260206004820152602360248201527f455243333532353a20676c6f62616c20696e646578206f7574206f6620626f756044820152626e647360e81b606482015260840161073c565b60378281548110610d7d57610d7d613929565b9060005260206000209060060201600001549050919050565b6000610da182611d6f565b610dad57506000919050565b600082815260676020526040902054606680549091908110610dd157610dd1613929565b600091825260209091206001600290920201015492915050565b336001600160a01b0385161480610e075750610e078433610662565b610e795760405162461bcd60e51b815260206004820152603f60248201527f45524333353235536c6f74417070726f7661626c653a2063616c6c657220697360448201527f206e6f74206f776e6572206e6f7220617070726f76656420666f7220616c6c00606482015260840161073c565b61094684848484611dbb565b6000610e90826113bc565b600082815260386020526040902054603780549091908110610eb457610eb4613929565b60009182526020909120600360069092020101546001600160a01b0316905080610f1c5760405162461bcd60e51b8152602060048201526019602482015278115490cccd4c8d4e881a5b9d985b1a59081d1bdad95b881251603a1b604482015260640161073c565b919050565b60006001600160a01b038216610f8d5760405162461bcd60e51b815260206004820152602b60248201527f455243333532353a2062616c616e636520717565727920666f7220746865207a60448201526a65726f206164647265737360a81b606482015260840161073c565b506001600160a01b031660009081526039602052604090205490565b610fb4335b83611a44565b610fd05760405162461bcd60e51b815260040161073c90613b18565b610fda8282611ea5565b5050565b6000610fe984610e85565b90506000610ff685610bcd565b9050816001600160a01b0316846001600160a01b0316036110295760405162461bcd60e51b815260040161073c90613979565b336001600160a01b038316148061104557506110458233610662565b8061105657506110568282336105fc565b6110725760405162461bcd60e51b815260040161073c906139bb565b61107d858585611fb3565b5050505050565b6060603480546107d39061393f565b600061109e60665490565b82106111045760405162461bcd60e51b815260206004820152602f60248201527f45524333353235536c6f74456e756d657261626c653a20736c6f7420696e646560448201526e78206f7574206f6620626f756e647360881b606482015260840161073c565b6066828154811061111757611117613929565b9060005260206000209060020201600001549050919050565b600061113b826113bc565b60008281526038602052604090205460378054909190811061115f5761115f613929565b9060005260206000209060060201600201549050919050565b610fda3383836120eb565b610946848484846115d1565b61119833610fae565b6111b45760405162461bcd60e51b815260040161073c90613ac6565b610946848484846121b5565b60606111cb826113bc565b60006111e260408051602081019091526000815290565b603a549091506001600160a01b031661122e5760008151116112135760405180602001604052806000815250610a37565b8061121d846114a4565b6040516020016109b1929190613b67565b603a546040516344a5a61760e11b8152600481018590526001600160a01b039091169063894b4c2e906024016109f2565b600061126a836113bc565b5060009182526036602090815260408084206001600160a01b0393909316845291905290205490565b606060006112ac60408051602081019091526000815290565b603a549091506001600160a01b031661130c5760008151116112dd5760405180602001604052806000815250611387565b806112e730612228565b6040516020016112f8929190613b96565b604051602081830303815290604052611387565b603a60009054906101000a90046001600160a01b03166001600160a01b031663725fa09c6040518163ffffffff1660e01b8152600401600060405180830381865afa15801561135f573d6000803e3d6000fd5b505050506040513d6000823e601f3d908101601f191682016040526113879190810190613a58565b91505090565b610fda828261223e565b60006001600160e01b03198216631dba0dcf60e11b148061079957506107998261228b565b6113c58161232d565b610d025760405162461bcd60e51b8152602060048201526019602482015278115490cccd4c8d4e881a5b9d985b1a59081d1bdad95b881251603a1b604482015260640161073c565b60008181526038602052604090205460378054849290811061143157611431613929565b6000918252602090912060069091020160040180546001600160a01b0319166001600160a01b039283161790558190831661146b82610e85565b6001600160a01b03167f8c5be1e5ebec7d5bd14f71427d1e84f3dd0314c0f7b2291e5b200ac8c7c3b92560405160405180910390a45050565b606060006114b183612379565b600101905060008167ffffffffffffffff8111156114d1576114d1613590565b6040519080825280601f01601f1916602001820160405280156114fb576020820181803683370190505b5090508181016020015b600019016f181899199a1a9b1b9c1cb0b131b232b360811b600a86061a8153600a850494508461150557509392505050565b6000611543838561125f565b905061154f8484611a44565b15801561155e57506000198114155b1561094657818110156115b35760405162461bcd60e51b815260206004820152601f60248201527f455243333532353a20696e73756666696369656e7420616c6c6f77616e636500604482015260640161073c565b61094683856115c28585613bf0565b611fb3565b6000610799612451565b6001600160a01b0384166116315760405162461bcd60e51b815260206004820152602160248201527f455243333532353a206d696e7420746f20746865207a65726f206164647265736044820152607360f81b606482015260840161073c565b8260000361168b5760405162461bcd60e51b815260206004820152602160248201527f455243333532353a2063616e6e6f74206d696e74207a65726f20746f6b656e496044820152601960fa1b606482015260840161073c565b6116948361232d565b156116e15760405162461bcd60e51b815260206004820152601d60248201527f455243333532353a20746f6b656e20616c7265616479206d696e746564000000604482015260640161073c565b6116f1600085600086868661246c565b6116fc8484846124a9565b611706838261256f565b61094660008560008686866125e2565b61171f8361232d565b61177b5760405162461bcd60e51b815260206004820152602760248201527f455243333532353a207472616e736665722066726f6d20696e76616c696420746044820152661bdad95b88125160ca1b606482015260840161073c565b6117848261232d565b6117de5760405162461bcd60e51b815260206004820152602560248201527f455243333532353a207472616e7366657220746f20696e76616c696420746f6b604482015264195b88125160da1b606482015260840161073c565b60008381526038602052604081205460378054909190811061180257611802613929565b906000526020600020906006020190506000603760386000868152602001908152602001600020548154811061183a5761183a613929565b9060005260206000209060060201905082826002015410156118b15760405162461bcd60e51b815260206004820152602a60248201527f455243333532353a20696e73756666696369656e742062616c616e636520666f60448201526939103a3930b739b332b960b11b606482015260840161073c565b806001015482600101541461191f5760405162461bcd60e51b815260206004820152602e60248201527f455243333532353a207472616e7366657220746f20746f6b656e20776974682060448201526d191a5999995c995b9d081cdb1bdd60921b606482015260840161073c565b60038083015490820154600184015461194a926001600160a01b03908116921690889088908861246c565b8282600201600082825461195e9190613bf0565b92505081905550828160020160008282546119799190613c07565b909155505060405183815284908690600080516020613e028339815191529060200160405180910390a360038083015490820154600184015461107d926001600160a01b0390811692169088908890886125e2565b600054610100900460ff16611a395760405162461bcd60e51b815260206004820152602b60248201527f496e697469616c697a61626c653a20636f6e7472616374206973206e6f74206960448201526a6e697469616c697a696e6760a81b606482015260840161073c565b610bc8838383612653565b6000611a4f826113bc565b6000611a5a83610e85565b90506000611a6784610bcd565b9050816001600160a01b0316856001600160a01b03161480611aa25750846001600160a01b0316611a9785610856565b6001600160a01b0316145b80611ab25750611ab28286610662565b80611ac35750611ac38282876105fc565b95945050505050565b826001600160a01b0316611adf82610e85565b6001600160a01b031614611b415760405162461bcd60e51b8152602060048201526024808201527f455243333532353a207472616e736665722066726f6d20696e76616c6964206f6044820152633bb732b960e11b606482015260840161073c565b6001600160a01b038216611ba55760405162461bcd60e51b815260206004820152602560248201527f455243333532353a207472616e7366657220746f20746865207a65726f206164604482015264647265737360d81b606482015260840161073c565b6000611bb082610bcd565b90506000611bbd83611130565b9050611bcd85858586868661246c565b611bd860008461140d565b611be183612685565b611beb8584612721565b611bf58484612842565b82846001600160a01b0316866001600160a01b03167fddf252ad1be2c89b69c2b068fc378daa952ba7f163c4a11628f55a4df523b3ef60405160405180910390a461107d8585858686866125e2565b611c4d816113bc565b600081815260386020526040812054603780549091908110611c7157611c71613929565b600091825260208220600360069092020190810154600182015460028301549294506001600160a01b0390911692909190611cb19084908781868661246c565b611cba85612685565b611cc48386612721565b611ccd856128cb565b600085600080516020613e0283398151915283604051611cef91815260200190565b60405180910390a3600082867fe4f48c240d3b994948aa54f3e2f5fca59263dfe1d52b6e4cf39a5d249b5ccb6560405160405180910390a460405185906000906001600160a01b038616907fddf252ad1be2c89b69c2b068fc378daa952ba7f163c4a11628f55a4df523b3ef908390a461107d83600087600086866125e2565b606654600090158015906107995750600082815260676020526040902054606680548492908110611da257611da2613929565b9060005260206000209060020201600001541492915050565b816001600160a01b0316846001600160a01b031603611e2c5760405162461bcd60e51b815260206004820152602760248201527f45524333353235536c6f74417070726f7661626c653a20617070726f76652074604482015266379037bbb732b960c91b606482015260840161073c565b6001600160a01b038481166000818152609760209081526040808320888452825280832094871680845294825291829020805460ff191686151590811790915591519182528692917f7bdf71e6625aa496095bf08b60c677cf81c963f402cf258981e3bd7507d3480c910160405180910390a450505050565b611eae826113bc565b600082815260386020526040812054603780549091908110611ed257611ed2613929565b600091825260209091206006909102016003810154600182015460028301549293506001600160a01b039091169184811015611f5c5760405162461bcd60e51b815260206004820152602360248201527f455243333532353a206275726e2076616c756520657863656564732062616c616044820152626e636560e81b606482015260840161073c565b611f6c836000886000868a61246c565b84846002016000828254611f809190613bf0565b90915550506040518581526000908790600080516020613e028339815191529060200160405180910390a3505050505050565b6001600160a01b03821661201c5760405162461bcd60e51b815260206004820152602a60248201527f455243333532353a20617070726f76652076616c756520746f20746865207a65604482015269726f206164647265737360b01b606482015260840161073c565b6120268284612ad9565b61208c5760008381526038602052604090205460378054909190811061204e5761204e613929565b60009182526020808320600692909202909101600501805460018101825590835291200180546001600160a01b0319166001600160a01b0384161790555b60008381526036602090815260408083206001600160a01b038616808552908352928190208490555183815285917f621b050de0ad08b51d19b48b3e6df75348c4de6bdd93e81b252ca62e28265b1b91015b60405180910390a3505050565b816001600160a01b0316836001600160a01b03160361214c5760405162461bcd60e51b815260206004820152601a60248201527f455243333532353a20617070726f766520746f2063616c6c6572000000000000604482015260640161073c565b6001600160a01b0383811660008181526039602090815260408083209487168084526002909501825291829020805460ff191686151590811790915591519182527f17307eab39ab6107e8899845ad3d59bd9653f200f220920489ca2b5937696c3191016120de565b6121c0848484611acc565b6121cc84848484612bac565b6109465760405162461bcd60e51b815260206004820152602760248201527f455243333532353a207472616e7366657220746f206e6f6e204552433732315260448201526632b1b2b4bb32b960c91b606482015260840161073c565b60606107996001600160a01b0383166014612d64565b612247826113bc565b600061225283610e85565b9050600061225f84610bcd565b9050612271600083600087858861246c565b61227b848461256f565b61094660008360008785886125e2565b60006001600160e01b031982166301ffc9a760e01b14806122bc57506001600160e01b03198216630354d60560e61b145b806122d757506001600160e01b031982166380ac58cd60e01b145b806122f257506001600160e01b031982166370b0048160e11b145b8061230d57506001600160e01b0319821663780e9d6360e01b145b8061079957506001600160e01b03198216635b5e139f60e01b1492915050565b60375460009015801590610799575060008281526038602052604090205460378054849290811061236057612360613929565b9060005260206000209060060201600001541492915050565b60008072184f03e93ff9f4daa797ed6e38ed64bf6a1f0160401b83106123b85772184f03e93ff9f4daa797ed6e38ed64bf6a1f0160401b830492506040015b6d04ee2d6d415b85acef810000000083106123e4576d04ee2d6d415b85acef8100000000830492506020015b662386f26fc10000831061240257662386f26fc10000830492506010015b6305f5e100831061241a576305f5e100830492506008015b612710831061242e57612710830492506004015b60648310612440576064830492506002015b600a83106107995760010192915050565b600061245c60375490565b612467906001613c07565b905090565b6001600160a01b038616158015612481575083155b8015612493575061249182611d6f565b155b156124a1576124a182612f00565b505050505050565b6040805160c081018252838152602080820184905260008284018190526001600160a01b038716606084015260808301819052835181815291820190935260a082015290506124f781612fc7565b6125018484612842565b60405183906001600160a01b038616906000907fddf252ad1be2c89b69c2b068fc378daa952ba7f163c4a11628f55a4df523b3ef908290a4816000847fe4f48c240d3b994948aa54f3e2f5fca59263dfe1d52b6e4cf39a5d249b5ccb6560405160405180910390a450505050565b60008281526038602052604090205460378054839290811061259357612593613929565b906000526020600020906006020160020160008282546125b39190613c07565b90915550506040518181528290600090600080516020613e028339815191529060200160405180910390a35050565b6001600160a01b0386161580156125f7575083155b801561260a57506126088284613119565b155b1561261e5761261982846131a4565b6124a1565b6001600160a01b038516158015612633575082155b801561264457506126448285613119565b15612619576126198285613205565b603361265f8482613c65565b50603461266c8382613c65565b506035805460ff191660ff929092169190911790555050565b6000818152603860205260408120546037805490919081106126a9576126a9613929565b600091825260208220600560069092020190810154909250905b818110156109465760008360050182815481106126e2576126e2613929565b60009182526020808320909101548783526036825260408084206001600160a01b0390921684529152812055508061271981613d25565b9150506126c3565b60008181526038602052604081205460378054909190811061274557612745613929565b6000918252602080832060069290920290910160030180546001600160a01b0319166001600160a01b039485161790559184168152603990915260408120805490919061279490600190613bf0565b905060008260000182815481106127ad576127ad613929565b906000526020600020015490506000836001016000868152602001908152602001600020549050818460000182815481106127ea576127ea613929565b6000918252602080832090910192909255838152600186019091526040808220839055868252812055835484908061282457612824613d3e565b60019003818190600052602060002001600090559055505050505050565b60008181526038602052604090205460378054849290811061286657612866613929565b6000918252602080832060069290920290910160030180546001600160a01b0319166001600160a01b03948516179055939091168152603980845260408083208054858552600182810188529285208190559286529082018155825292902090910155565b6037546000906128dd90600190613bf0565b6000838152603860205260408120546037805493945090928490811061290557612905613929565b60009182526020918290206040805160c08101825260069093029091018054835260018101548385015260028101548383015260038101546001600160a01b03908116606085015260048201541660808401526005810180548351818702810187019094528084529394919360a0860193928301828280156129b057602002820191906000526020600020905b81546001600160a01b03168152600190910190602001808311612992575b505050505081525050905080603783815481106129cf576129cf613929565b600091825260209182902083516006909202019081558282015160018201556040830151600282015560608301516003820180546001600160a01b039283166001600160a01b031991821617909155608085015160048401805491909316911617905560a083015180519192612a4d9260058501929091019061336e565b50508151600090815260386020526040808220859055868252812055506037805480612a7b57612a7b613d3e565b60008281526020812060066000199093019283020181815560018101829055600281018290556003810180546001600160a01b0319908116909155600482018054909116905590612acf60058301826133d3565b5050905550505050565b600081815260386020526040812054603780548392908110612afd57612afd613929565b6000918252602082206005600690920201015491505b81811015612ba157600084815260386020526040902054603780546001600160a01b03881692908110612b4857612b48613929565b90600052602060002090600602016005018281548110612b6a57612b6a613929565b6000918252602090912001546001600160a01b031603612b8f57600192505050610799565b80612b9981613d25565b915050612b13565b506000949350505050565b60006001600160a01b0384163b15158015612c3157506040516301ffc9a760e01b8152630a85bd0160e11b60048201526001600160a01b038516906301ffc9a790602401602060405180830381865afa158015612c0d573d6000803e3d6000fd5b505050506040513d601f19601f82011682018060405250810190612c319190613d54565b15612d5957604051630a85bd0160e11b81526001600160a01b0385169063150b7a0290612c68903390899088908890600401613d71565b6020604051808303816000875af1925050508015612ca3575060408051601f3d908101601f19168201909252612ca091810190613dae565b60015b612d3f573d808015612cd1576040519150601f19603f3d011682016040523d82523d6000602084013e612cd6565b606091505b508051600003612d375760405162461bcd60e51b815260206004820152602660248201527f4552433732313a207472616e7366657220746f206e6f6e20455243373231526560448201526531b2b4bb32b960d11b606482015260840161073c565b805181602001fd5b6001600160e01b031916630a85bd0160e11b149050610a78565b506001949350505050565b60606000612d73836002613dcb565b612d7e906002613c07565b67ffffffffffffffff811115612d9657612d96613590565b6040519080825280601f01601f191660200182016040528015612dc0576020820181803683370190505b509050600360fc1b81600081518110612ddb57612ddb613929565b60200101906001600160f81b031916908160001a905350600f60fb1b81600181518110612e0a57612e0a613929565b60200101906001600160f81b031916908160001a9053506000612e2e846002613dcb565b612e39906001613c07565b90505b6001811115612eb1576f181899199a1a9b1b9c1cb0b131b232b360811b85600f1660108110612e6d57612e6d613929565b1a60f81b828281518110612e8357612e83613929565b60200101906001600160f81b031916908160001a90535060049490941c93612eaa81613dea565b9050612e3c565b508315610a375760405162461bcd60e51b815260206004820181905260248201527f537472696e67733a20686578206c656e67746820696e73756666696369656e74604482015260640161073c565b612f0981611d6f565b15612f695760405162461bcd60e51b815260206004820152602a60248201527f45524333353235536c6f74456e756d657261626c653a20736c6f7420616c72656044820152696164792065786973747360b01b606482015260840161073c565b604080518082018252828152815160008082526020828101909452928201529050612f93816132e9565b816000807fe4f48c240d3b994948aa54f3e2f5fca59263dfe1d52b6e4cf39a5d249b5ccb6560405160405180910390a45050565b603780548251600090815260386020908152604080832084905560018401855593909152835160069092027f42a7b7dd785cd69714a189dffb3fd7d7174edc9ece837694ce50f7078f7c31ae8101928355818501517f42a7b7dd785cd69714a189dffb3fd7d7174edc9ece837694ce50f7078f7c31af820155928401517f42a7b7dd785cd69714a189dffb3fd7d7174edc9ece837694ce50f7078f7c31b084015560608401517f42a7b7dd785cd69714a189dffb3fd7d7174edc9ece837694ce50f7078f7c31b1840180546001600160a01b039283166001600160a01b03199182161790915560808601517f42a7b7dd785cd69714a189dffb3fd7d7174edc9ece837694ce50f7078f7c31b28601805491909316911617905560a084015180518594610946937f42a7b7dd785cd69714a189dffb3fd7d7174edc9ece837694ce50f7078f7c31b390910192019061336e565b60008281526067602052604081205460668054839290811061313d5761313d613929565b9060005260206000209060020201905060008160010180549050118015610a7857506000848152606560209081526040808320868452909152902054600182018054859290811061319057613190613929565b906000526020600020015414949350505050565b6000828152606760205260408120546066805490919081106131c8576131c8613929565b6000918252602080832060016002909302018201805496845260658252604080852087865283528420879055918601825590825290209092015550565b60008281526067602052604081205460668054909190811061322957613229613929565b60009182526020822060016002909202018181015490935061324b9190613bf0565b9050600082600101828154811061326457613264613929565b60009182526020808320909101548783526065825260408084208885529092529120546001850180549293509091839190839081106132a5576132a5613929565b600091825260208083209190910192909255878152606582526040808220858352909252818120839055868152908120556001840180548061282457612824613d3e565b60668054825160009081526067602090815260408220839055600183018455929052825160029091027f46501879b8ca8525e8c2fd519e2fbfcfa2ebea26501294aa02cbfcfb12e9435481019182558284015180518594610946937f46501879b8ca8525e8c2fd519e2fbfcfa2ebea26501294aa02cbfcfb12e94355019201906133f1565b8280548282559060005260206000209081019282156133c3579160200282015b828111156133c357825182546001600160a01b0319166001600160a01b0390911617825560209092019160019091019061338e565b506133cf92915061342c565b5090565b5080546000825590600052602060002090810190610d02919061342c565b8280548282559060005260206000209081019282156133c3579160200282015b828111156133c3578251825591602001919060010190613411565b5b808211156133cf576000815560010161342d565b6000806040838503121561345457600080fd5b50508035926020909101359150565b6001600160e01b031981168114610d0257600080fd5b60006020828403121561348b57600080fd5b8135610a3781613463565b60005b838110156134b1578181015183820152602001613499565b838111156109465750506000910152565b600081518084526134da816020860160208601613496565b601f01601f19169290920160200192915050565b602081526000610a3760208301846134c2565b60006020828403121561351357600080fd5b5035919050565b80356001600160a01b0381168114610f1c57600080fd5b6000806040838503121561354457600080fd5b61354d8361351a565b946020939093013593505050565b60008060006060848603121561357057600080fd5b833592506135806020850161351a565b9150604084013590509250925092565b634e487b7160e01b600052604160045260246000fd5b604051601f8201601f1916810167ffffffffffffffff811182821017156135cf576135cf613590565b604052919050565b600067ffffffffffffffff8211156135f1576135f1613590565b50601f01601f191660200190565b600061361261360d846135d7565b6135a6565b905082815283838301111561362657600080fd5b828260208301376000602084830101529392505050565b600082601f83011261364e57600080fd5b610a37838335602085016135ff565b60008060006060848603121561367257600080fd5b833567ffffffffffffffff8082111561368a57600080fd5b6136968783880161363d565b945060208601359150808211156136ac57600080fd5b506136b98682870161363d565b925050604084013560ff811681146136d057600080fd5b809150509250925092565b6000806000606084860312156136f057600080fd5b6136f98461351a565b92506135806020850161351a565b60008060006060848603121561371c57600080fd5b505081359360208301359350604090920135919050565b8015158114610d0257600080fd5b6000806000806080858703121561375757600080fd5b6137608561351a565b9350602085013592506137756040860161351a565b9150606085013561378581613733565b939692955090935050565b6000602082840312156137a257600080fd5b610a378261351a565b600080604083850312156137be57600080fd5b6137c78361351a565b915060208301356137d781613733565b809150509250929050565b600080600080608085870312156137f857600080fd5b6138018561351a565b966020860135965060408601359560600135945092505050565b6000806000806080858703121561383157600080fd5b61383a8561351a565b93506138486020860161351a565b925060408501359150606085013567ffffffffffffffff81111561386b57600080fd5b8501601f8101871361387c57600080fd5b61388b878235602084016135ff565b91505092959194509250565b600080604083850312156138aa57600080fd5b823591506138ba6020840161351a565b90509250929050565b6000806000606084860312156138d857600080fd5b6138e18461351a565b9250602084013591506138f66040850161351a565b90509250925092565b6000806040838503121561391257600080fd5b61391b8361351a565b91506138ba6020840161351a565b634e487b7160e01b600052603260045260246000fd5b600181811c9082168061395357607f821691505b60208210810361397357634e487b7160e01b600052602260045260246000fd5b50919050565b60208082526022908201527f455243333532353a20617070726f76616c20746f2063757272656e74206f776e60408201526132b960f11b606082015260800190565b6020808252603e908201527f455243333532353a20617070726f76652063616c6c6572206973206e6f74206f60408201527f776e6572206e6f7220617070726f76656420666f7220616c6c2f736c6f740000606082015260800190565b60008351613a2a818460208801613496565b64736c6f742f60d81b9083019081528351613a4c816005840160208801613496565b01600501949350505050565b600060208284031215613a6a57600080fd5b815167ffffffffffffffff811115613a8157600080fd5b8201601f81018413613a9257600080fd5b8051613aa061360d826135d7565b818152856020838501011115613ab557600080fd5b611ac3826020830160208601613496565b60208082526032908201527f455243333532353a207472616e736665722063616c6c6572206973206e6f74206040820152711bdddb995c881b9bdc88185c1c1c9bdd995960721b606082015260800190565b6020808252602f908201527f455243333532353a2063616c6c6572206973206e6f7420746f6b656e206f776e60408201526e195c881b9bdc88185c1c1c9bdd9959608a1b606082015260800190565b60008351613b79818460208801613496565b835190830190613b8d818360208801613496565b01949350505050565b60008351613ba8818460208801613496565b68636f6e74726163742f60b81b9083019081528351613bce816009840160208801613496565b01600901949350505050565b634e487b7160e01b600052601160045260246000fd5b600082821015613c0257613c02613bda565b500390565b60008219821115613c1a57613c1a613bda565b500190565b601f821115610bc857600081815260208120601f850160051c81016020861015613c465750805b601f850160051c820191505b818110156124a157828155600101613c52565b815167ffffffffffffffff811115613c7f57613c7f613590565b613c9381613c8d845461393f565b84613c1f565b602080601f831160018114613cc85760008415613cb05750858301515b600019600386901b1c1916600185901b1785556124a1565b600085815260208120601f198616915b82811015613cf757888601518255948401946001909101908401613cd8565b5085821015613d155787850151600019600388901b60f8161c191681555b5050505050600190811b01905550565b600060018201613d3757613d37613bda565b5060010190565b634e487b7160e01b600052603160045260246000fd5b600060208284031215613d6657600080fd5b8151610a3781613733565b6001600160a01b0385811682528416602082015260408101839052608060608201819052600090613da4908301846134c2565b9695505050505050565b600060208284031215613dc057600080fd5b8151610a3781613463565b6000816000190483118215151615613de557613de5613bda565b500290565b600081613df957613df9613bda565b50600019019056fe0b2aac84f3ec956911fd78eae5311062972ff949f38412e8da39069d9f068cc6a264697066735822122031ee740419cfcc6e3ac138f98129be05258bf4903db238328cc611a6a5b9eaef64736f6c634300080f0033",
  "linkReferences": {},
  "deployedLinkReferences": {}
}