{
  "_format": "hh-sol-artifact-1",
  "contractName": "Attack",
  "sourceName": "contracts/test/Attack.sol",
  "abi": [
    {
      "stateMutability": "payable",
      "type": "fallback"
    },
    {
      "inputs": [],
      "name": "attack",
      "outputs": [],
      "stateMutability": "payable",
      "type": "function"
    },
    {
      "inputs": [
        {
          "internalType": "address",
          "name": "DimensionX_",
          "type": "address"
        }
      ],
      "name": "init",
      "outputs": [],
      "stateMutability": "nonpayable",
      "type": "function"
    }
  ],
  "bytecode": "0x608060405234801561001057600080fd5b5061018a806100206000396000f3fe6080604052600436106100295760003560e01c806319ab453c1461003e5780639e5faafc1461007b575b6003600054101561003c5761003c61007f565b005b34801561004a57600080fd5b5061003c6100593660046100fd565b600180546001600160a01b0319166001600160a01b0392909216919091179055565b61003c5b60008054908061008e8361012d565b9190505550600160009054906101000a90046001600160a01b03166001600160a01b031663c3038e586040518163ffffffff1660e01b8152600401600060405180830381600087803b1580156100e357600080fd5b505af11580156100f7573d6000803e3d6000fd5b50505050565b60006020828403121561010f57600080fd5b81356001600160a01b038116811461012657600080fd5b9392505050565b60006001820161014d57634e487b7160e01b600052601160045260246000fd5b506001019056fea26469706673582212203c0b2d34ece1743a3b09bbfe8c71214fa6a058d74db2a097903ef954f742a77f64736f6c634300080f0033",
  "linkReferences": {},
  "deployedLinkReferences": {}
}