{
  "_format": "hh-sol-artifact-1",
  "contractName": "Attack",
  "sourceName": "contracts/test/Attack.sol",
  "abi": [
    {
      "stateMutability": "payable",
      "type": "fallback"
    },
    {
      "inputs": [],
      "name": "attack",
      "outputs": [],
      "stateMutability": "payable",
      "type": "function"
    },
    {
      "inputs": [
        {
          "internalType": "address",
          "name": "DimensionX_",
          "type": "address"
        }
      ],
      "name": "init",
      "outputs": [],
      "stateMutability": "nonpayable",
      "type": "function"
    }
  ],
  "bytecode": "0x608060405234801561001057600080fd5b506103a9806100206000396000f3fe60806040526004361061002d5760003560e01c806319ab453c146100d55780639e5faafc146100fe5761002e565b5b61004267313ec7d9493b151260c01b610108565b610056676e7c3d9b356a91e460c01b610108565b61006a678f9a8a1696f6e09360c01b610108565b600360005410156100be576100896782ad9eee0d54c1d460c01b610108565b61009d6758df8af62f3cb8af60c01b610108565b6100b16740b5127f8f232a9160c01b610108565b6100b961010b565b6100d3565b6100d26764aaff4efbf701c160c01b610108565b5b005b3480156100e157600080fd5b506100fc60048036038101906100f791906102c5565b6101f6565b005b61010661010b565b005b50565b61011f671d6c9c4b833032e160c01b610108565b6101336726d9ca6d86877e3e60c01b610108565b6000808154809291906101459061032b565b919050555061015e678fda61a4a9d6155c60c01b610108565b61017267874818845c69f3a960c01b610108565b600160009054906101000a900473ffffffffffffffffffffffffffffffffffffffff1673ffffffffffffffffffffffffffffffffffffffff1663c3038e586040518163ffffffff1660e01b8152600401600060405180830381600087803b1580156101dc57600080fd5b505af11580156101f0573d6000803e3d6000fd5b50505050565b61020a6755b1321419eb6ece60c01b610108565b61021e671e5504a3626b4acb60c01b610108565b80600160006101000a81548173ffffffffffffffffffffffffffffffffffffffff021916908373ffffffffffffffffffffffffffffffffffffffff16021790555050565b600080fd5b600073ffffffffffffffffffffffffffffffffffffffff82169050919050565b600061029282610267565b9050919050565b6102a281610287565b81146102ad57600080fd5b50565b6000813590506102bf81610299565b92915050565b6000602082840312156102db576102da610262565b5b60006102e9848285016102b0565b91505092915050565b7f4e487b7100000000000000000000000000000000000000000000000000000000600052601160045260246000fd5b6000819050919050565b600061033682610321565b91507fffffffffffffffffffffffffffffffffffffffffffffffffffffffffffffffff8203610368576103676102f2565b5b60018201905091905056fea264697066735822122089616d41510c950f9d0eee43b0c1273f5e1d711fb56e56953898220e6546a5b764736f6c634300080f0033",
  "linkReferences": {},
  "deployedLinkReferences": {}
}