{
  "_format": "hh-sol-artifact-1",
  "contractName": "ERC3525SlotApprovableUpgradeable",
  "sourceName": "contracts/solvprotocol/erc-3525/ERC3525SlotApprovableUpgradeable.sol",
  "abi": [
    {
      "anonymous": false,
      "inputs": [
        {
          "indexed": true,
          "internalType": "address",
          "name": "_owner",
          "type": "address"
        },
        {
          "indexed": true,
          "internalType": "address",
          "name": "_approved",
          "type": "address"
        },
        {
          "indexed": true,
          "internalType": "uint256",
          "name": "_tokenId",
          "type": "uint256"
        }
      ],
      "name": "Approval",
      "type": "event"
    },
    {
      "anonymous": false,
      "inputs": [
        {
          "indexed": true,
          "internalType": "address",
          "name": "_owner",
          "type": "address"
        },
        {
          "indexed": true,
          "internalType": "address",
          "name": "_operator",
          "type": "address"
        },
        {
          "indexed": false,
          "internalType": "bool",
          "name": "_approved",
          "type": "bool"
        }
      ],
      "name": "ApprovalForAll",
      "type": "event"
    },
    {
      "anonymous": false,
      "inputs": [
        {
          "indexed": true,
          "internalType": "address",
          "name": "_owner",
          "type": "address"
        },
        {
          "indexed": true,
          "internalType": "uint256",
          "name": "_slot",
          "type": "uint256"
        },
        {
          "indexed": true,
          "internalType": "address",
          "name": "_operator",
          "type": "address"
        },
        {
          "indexed": false,
          "internalType": "bool",
          "name": "_approved",
          "type": "bool"
        }
      ],
      "name": "ApprovalForSlot",
      "type": "event"
    },
    {
      "anonymous": false,
      "inputs": [
        {
          "indexed": true,
          "internalType": "uint256",
          "name": "_tokenId",
          "type": "uint256"
        },
        {
          "indexed": true,
          "internalType": "address",
          "name": "_operator",
          "type": "address"
        },
        {
          "indexed": false,
          "internalType": "uint256",
          "name": "_value",
          "type": "uint256"
        }
      ],
      "name": "ApprovalValue",
      "type": "event"
    },
    {
      "anonymous": false,
      "inputs": [
        {
          "indexed": false,
          "internalType": "uint8",
          "name": "version",
          "type": "uint8"
        }
      ],
      "name": "Initialized",
      "type": "event"
    },
    {
      "anonymous": false,
      "inputs": [
        {
          "indexed": true,
          "internalType": "address",
          "name": "metadataDescriptor",
          "type": "address"
        }
      ],
      "name": "SetMetadataDescriptor",
      "type": "event"
    },
    {
      "anonymous": false,
      "inputs": [
        {
          "indexed": true,
          "internalType": "uint256",
          "name": "_tokenId",
          "type": "uint256"
        },
        {
          "indexed": true,
          "internalType": "uint256",
          "name": "_oldSlot",
          "type": "uint256"
        },
        {
          "indexed": true,
          "internalType": "uint256",
          "name": "_newSlot",
          "type": "uint256"
        }
      ],
      "name": "SlotChanged",
      "type": "event"
    },
    {
      "anonymous": false,
      "inputs": [
        {
          "indexed": true,
          "internalType": "address",
          "name": "_from",
          "type": "address"
        },
        {
          "indexed": true,
          "internalType": "address",
          "name": "_to",
          "type": "address"
        },
        {
          "indexed": true,
          "internalType": "uint256",
          "name": "_tokenId",
          "type": "uint256"
        }
      ],
      "name": "Transfer",
      "type": "event"
    },
    {
      "anonymous": false,
      "inputs": [
        {
          "indexed": true,
          "internalType": "uint256",
          "name": "_fromTokenId",
          "type": "uint256"
        },
        {
          "indexed": true,
          "internalType": "uint256",
          "name": "_toTokenId",
          "type": "uint256"
        },
        {
          "indexed": false,
          "internalType": "uint256",
          "name": "_value",
          "type": "uint256"
        }
      ],
      "name": "TransferValue",
      "type": "event"
    },
    {
      "inputs": [
        {
          "internalType": "uint256",
          "name": "tokenId_",
          "type": "uint256"
        },
        {
          "internalType": "address",
          "name": "operator_",
          "type": "address"
        }
      ],
      "name": "allowance",
      "outputs": [
        {
          "internalType": "uint256",
          "name": "",
          "type": "uint256"
        }
      ],
      "stateMutability": "view",
      "type": "function"
    },
    {
      "inputs": [
        {
          "internalType": "address",
          "name": "to_",
          "type": "address"
        },
        {
          "internalType": "uint256",
          "name": "tokenId_",
          "type": "uint256"
        }
      ],
      "name": "approve",
      "outputs": [],
      "stateMutability": "payable",
      "type": "function"
    },
    {
      "inputs": [
        {
          "internalType": "uint256",
          "name": "tokenId_",
          "type": "uint256"
        },
        {
          "internalType": "address",
          "name": "to_",
          "type": "address"
        },
        {
          "internalType": "uint256",
          "name": "value_",
          "type": "uint256"
        }
      ],
      "name": "approve",
      "outputs": [],
      "stateMutability": "payable",
      "type": "function"
    },
    {
      "inputs": [
        {
          "internalType": "address",
          "name": "owner_",
          "type": "address"
        }
      ],
      "name": "balanceOf",
      "outputs": [
        {
          "internalType": "uint256",
          "name": "balance",
          "type": "uint256"
        }
      ],
      "stateMutability": "view",
      "type": "function"
    },
    {
      "inputs": [
        {
          "internalType": "uint256",
          "name": "tokenId_",
          "type": "uint256"
        }
      ],
      "name": "balanceOf",
      "outputs": [
        {
          "internalType": "uint256",
          "name": "",
          "type": "uint256"
        }
      ],
      "stateMutability": "view",
      "type": "function"
    },
    {
      "inputs": [],
      "name": "contractURI",
      "outputs": [
        {
          "internalType": "string",
          "name": "",
          "type": "string"
        }
      ],
      "stateMutability": "view",
      "type": "function"
    },
    {
      "inputs": [
        {
          "internalType": "uint256",
          "name": "tokenId_",
          "type": "uint256"
        }
      ],
      "name": "getApproved",
      "outputs": [
        {
          "internalType": "address",
          "name": "",
          "type": "address"
        }
      ],
      "stateMutability": "view",
      "type": "function"
    },
    {
      "inputs": [
        {
          "internalType": "address",
          "name": "owner_",
          "type": "address"
        },
        {
          "internalType": "address",
          "name": "operator_",
          "type": "address"
        }
      ],
      "name": "isApprovedForAll",
      "outputs": [
        {
          "internalType": "bool",
          "name": "",
          "type": "bool"
        }
      ],
      "stateMutability": "view",
      "type": "function"
    },
    {
      "inputs": [
        {
          "internalType": "address",
          "name": "owner_",
          "type": "address"
        },
        {
          "internalType": "uint256",
          "name": "slot_",
          "type": "uint256"
        },
        {
          "internalType": "address",
          "name": "operator_",
          "type": "address"
        }
      ],
      "name": "isApprovedForSlot",
      "outputs": [
        {
          "internalType": "bool",
          "name": "",
          "type": "bool"
        }
      ],
      "stateMutability": "view",
      "type": "function"
    },
    {
      "inputs": [],
      "name": "metadataDescriptor",
      "outputs": [
        {
          "internalType": "contract IERC3525MetadataDescriptor",
          "name": "",
          "type": "address"
        }
      ],
      "stateMutability": "view",
      "type": "function"
    },
    {
      "inputs": [],
      "name": "name",
      "outputs": [
        {
          "internalType": "string",
          "name": "",
          "type": "string"
        }
      ],
      "stateMutability": "view",
      "type": "function"
    },
    {
      "inputs": [
        {
          "internalType": "uint256",
          "name": "tokenId_",
          "type": "uint256"
        }
      ],
      "name": "ownerOf",
      "outputs": [
        {
          "internalType": "address",
          "name": "owner_",
          "type": "address"
        }
      ],
      "stateMutability": "view",
      "type": "function"
    },
    {
      "inputs": [
        {
          "internalType": "address",
          "name": "from_",
          "type": "address"
        },
        {
          "internalType": "address",
          "name": "to_",
          "type": "address"
        },
        {
          "internalType": "uint256",
          "name": "tokenId_",
          "type": "uint256"
        }
      ],
      "name": "safeTransferFrom",
      "outputs": [],
      "stateMutability": "payable",
      "type": "function"
    },
    {
      "inputs": [
        {
          "internalType": "address",
          "name": "from_",
          "type": "address"
        },
        {
          "internalType": "address",
          "name": "to_",
          "type": "address"
        },
        {
          "internalType": "uint256",
          "name": "tokenId_",
          "type": "uint256"
        },
        {
          "internalType": "bytes",
          "name": "data_",
          "type": "bytes"
        }
      ],
      "name": "safeTransferFrom",
      "outputs": [],
      "stateMutability": "payable",
      "type": "function"
    },
    {
      "inputs": [
        {
          "internalType": "address",
          "name": "operator_",
          "type": "address"
        },
        {
          "internalType": "bool",
          "name": "approved_",
          "type": "bool"
        }
      ],
      "name": "setApprovalForAll",
      "outputs": [],
      "stateMutability": "nonpayable",
      "type": "function"
    },
    {
      "inputs": [
        {
          "internalType": "address",
          "name": "owner_",
          "type": "address"
        },
        {
          "internalType": "uint256",
          "name": "slot_",
          "type": "uint256"
        },
        {
          "internalType": "address",
          "name": "operator_",
          "type": "address"
        },
        {
          "internalType": "bool",
          "name": "approved_",
          "type": "bool"
        }
      ],
      "name": "setApprovalForSlot",
      "outputs": [],
      "stateMutability": "payable",
      "type": "function"
    },
    {
      "inputs": [
        {
          "internalType": "uint256",
          "name": "index_",
          "type": "uint256"
        }
      ],
      "name": "slotByIndex",
      "outputs": [
        {
          "internalType": "uint256",
          "name": "",
          "type": "uint256"
        }
      ],
      "stateMutability": "view",
      "type": "function"
    },
    {
      "inputs": [],
      "name": "slotCount",
      "outputs": [
        {
          "internalType": "uint256",
          "name": "",
          "type": "uint256"
        }
      ],
      "stateMutability": "view",
      "type": "function"
    },
    {
      "inputs": [
        {
          "internalType": "uint256",
          "name": "tokenId_",
          "type": "uint256"
        }
      ],
      "name": "slotOf",
      "outputs": [
        {
          "internalType": "uint256",
          "name": "",
          "type": "uint256"
        }
      ],
      "stateMutability": "view",
      "type": "function"
    },
    {
      "inputs": [
        {
          "internalType": "uint256",
          "name": "slot_",
          "type": "uint256"
        }
      ],
      "name": "slotURI",
      "outputs": [
        {
          "internalType": "string",
          "name": "",
          "type": "string"
        }
      ],
      "stateMutability": "view",
      "type": "function"
    },
    {
      "inputs": [
        {
          "internalType": "bytes4",
          "name": "interfaceId",
          "type": "bytes4"
        }
      ],
      "name": "supportsInterface",
      "outputs": [
        {
          "internalType": "bool",
          "name": "",
          "type": "bool"
        }
      ],
      "stateMutability": "view",
      "type": "function"
    },
    {
      "inputs": [],
      "name": "symbol",
      "outputs": [
        {
          "internalType": "string",
          "name": "",
          "type": "string"
        }
      ],
      "stateMutability": "view",
      "type": "function"
    },
    {
      "inputs": [
        {
          "internalType": "uint256",
          "name": "index_",
          "type": "uint256"
        }
      ],
      "name": "tokenByIndex",
      "outputs": [
        {
          "internalType": "uint256",
          "name": "",
          "type": "uint256"
        }
      ],
      "stateMutability": "view",
      "type": "function"
    },
    {
      "inputs": [
        {
          "internalType": "uint256",
          "name": "slot_",
          "type": "uint256"
        },
        {
          "internalType": "uint256",
          "name": "index_",
          "type": "uint256"
        }
      ],
      "name": "tokenInSlotByIndex",
      "outputs": [
        {
          "internalType": "uint256",
          "name": "",
          "type": "uint256"
        }
      ],
      "stateMutability": "view",
      "type": "function"
    },
    {
      "inputs": [
        {
          "internalType": "address",
          "name": "owner_",
          "type": "address"
        },
        {
          "internalType": "uint256",
          "name": "index_",
          "type": "uint256"
        }
      ],
      "name": "tokenOfOwnerByIndex",
      "outputs": [
        {
          "internalType": "uint256",
          "name": "",
          "type": "uint256"
        }
      ],
      "stateMutability": "view",
      "type": "function"
    },
    {
      "inputs": [
        {
          "internalType": "uint256",
          "name": "slot_",
          "type": "uint256"
        }
      ],
      "name": "tokenSupplyInSlot",
      "outputs": [
        {
          "internalType": "uint256",
          "name": "",
          "type": "uint256"
        }
      ],
      "stateMutability": "view",
      "type": "function"
    },
    {
      "inputs": [
        {
          "internalType": "uint256",
          "name": "tokenId_",
          "type": "uint256"
        }
      ],
      "name": "tokenURI",
      "outputs": [
        {
          "internalType": "string",
          "name": "",
          "type": "string"
        }
      ],
      "stateMutability": "view",
      "type": "function"
    },
    {
      "inputs": [],
      "name": "totalSupply",
      "outputs": [
        {
          "internalType": "uint256",
          "name": "",
          "type": "uint256"
        }
      ],
      "stateMutability": "view",
      "type": "function"
    },
    {
      "inputs": [
        {
          "internalType": "uint256",
          "name": "fromTokenId_",
          "type": "uint256"
        },
        {
          "internalType": "address",
          "name": "to_",
          "type": "address"
        },
        {
          "internalType": "uint256",
          "name": "value_",
          "type": "uint256"
        }
      ],
      "name": "transferFrom",
      "outputs": [
        {
          "internalType": "uint256",
          "name": "",
          "type": "uint256"
        }
      ],
      "stateMutability": "payable",
      "type": "function"
    },
    {
      "inputs": [
        {
          "internalType": "address",
          "name": "from_",
          "type": "address"
        },
        {
          "internalType": "address",
          "name": "to_",
          "type": "address"
        },
        {
          "internalType": "uint256",
          "name": "tokenId_",
          "type": "uint256"
        }
      ],
      "name": "transferFrom",
      "outputs": [],
      "stateMutability": "payable",
      "type": "function"
    },
    {
      "inputs": [
        {
          "internalType": "uint256",
          "name": "fromTokenId_",
          "type": "uint256"
        },
        {
          "internalType": "uint256",
          "name": "toTokenId_",
          "type": "uint256"
        },
        {
          "internalType": "uint256",
          "name": "value_",
          "type": "uint256"
        }
      ],
      "name": "transferFrom",
      "outputs": [],
      "stateMutability": "payable",
      "type": "function"
    },
    {
      "inputs": [],
      "name": "valueDecimals",
      "outputs": [
        {
          "internalType": "uint8",
          "name": "",
          "type": "uint8"
        }
      ],
      "stateMutability": "view",
      "type": "function"
    }
  ],
  "bytecode": "0x608060405234801561001057600080fd5b50615d0b80620000216000396000f3fe6080604052600436106101e25760003560e01c806355cd4e0611610102578063a22cb46511610095578063e345f05e11610064578063e345f05e14610731578063e8a3d4851461076e578063e985e9c514610799578063ed08fa80146107d6576101e2565b8063a22cb46514610672578063b88d4fde1461069b578063c87b56dd146106b7578063e345e0bc146106f4576101e2565b80638cb0a511116100d15780638cb0a511146105b157806395d89b41146105cd578063993bef8d146105f85780639cc7f70814610635576101e2565b806355cd4e06146104f05780636352211e1461050c57806370a0823114610549578063840f711314610586576101e2565b806323b872dd1161017a5780633e7e8669116101495780633e7e86691461042f57806342842e0e1461045a5780634f6ccce7146104765780634f8a0f83146104b3576101e2565b806323b872dd1461037d578063263f3e7e146103995780632f745c59146103d6578063310ed7f014610413576101e2565b8063095ea7b3116101b6578063095ea7b3146102c957806309c3dd87146102e55780630f485c021461032257806318160ddd14610352576101e2565b8062cd0110146101e757806301ffc9a71461022457806306fdde0314610261578063081812fc1461028c575b600080fd5b3480156101f357600080fd5b5061020e60048036038101906102099190614023565b610801565b60405161021b9190614072565b60405180910390f35b34801561023057600080fd5b5061024b600480360381019061024691906140e5565b6108aa565b604051610258919061412d565b60405180910390f35b34801561026d57600080fd5b50610276610924565b60405161028391906141e1565b60405180910390f35b34801561029857600080fd5b506102b360048036038101906102ae9190614203565b6109b6565b6040516102c09190614271565b60405180910390f35b6102e360048036038101906102de91906142b8565b610a21565b005b3480156102f157600080fd5b5061030c60048036038101906103079190614203565b610b5f565b60405161031991906141e1565b60405180910390f35b61033c600480360381019061033791906142f8565b610cbb565b6040516103499190614072565b60405180910390f35b34801561035e57600080fd5b50610367610d07565b6040516103749190614072565b60405180910390f35b6103976004803603810190610392919061434b565b610d14565b005b3480156103a557600080fd5b506103c060048036038101906103bb9190614203565b610d74565b6040516103cd9190614072565b60405180910390f35b3480156103e257600080fd5b506103fd60048036038101906103f891906142b8565b610dbf565b60405161040a9190614072565b60405180910390f35b61042d6004803603810190610428919061439e565b610e72565b005b34801561043b57600080fd5b50610444610e94565b604051610451919061440d565b60405180910390f35b610474600480360381019061046f919061434b565b610eab565b005b34801561048257600080fd5b5061049d60048036038101906104989190614203565b610ecb565b6040516104aa9190614072565b60405180910390f35b3480156104bf57600080fd5b506104da60048036038101906104d59190614203565b610f43565b6040516104e79190614072565b60405180910390f35b61050a60048036038101906105059190614454565b610f9f565b005b34801561051857600080fd5b50610533600480360381019061052e9190614203565b61103e565b6040516105409190614271565b60405180910390f35b34801561055557600080fd5b50610570600480360381019061056b91906144bb565b611118565b60405161057d9190614072565b60405180910390f35b34801561059257600080fd5b5061059b6111d5565b6040516105a89190614547565b60405180910390f35b6105cb60048036038101906105c691906142f8565b6111fb565b005b3480156105d957600080fd5b506105e261133b565b6040516105ef91906141e1565b60405180910390f35b34801561060457600080fd5b5061061f600480360381019061061a9190614203565b6113cd565b60405161062c9190614072565b60405180910390f35b34801561064157600080fd5b5061065c60048036038101906106579190614203565b611445565b6040516106699190614072565b60405180910390f35b34801561067e57600080fd5b5061069960048036038101906106949190614562565b611490565b005b6106b560048036038101906106b091906146d7565b6114a6565b005b3480156106c357600080fd5b506106de60048036038101906106d99190614203565b611508565b6040516106eb91906141e1565b60405180910390f35b34801561070057600080fd5b5061071b6004803603810190610716919061475a565b61166d565b6040516107289190614072565b60405180910390f35b34801561073d57600080fd5b506107586004803603810190610753919061479a565b6116d1565b604051610765919061412d565b60405180910390f35b34801561077a57600080fd5b50610783611777565b60405161079091906141e1565b60405180910390f35b3480156107a557600080fd5b506107c060048036038101906107bb91906147ed565b6118c6565b6040516107cd919061412d565b60405180910390f35b3480156107e257600080fd5b506107eb61195d565b6040516107f89190614072565b60405180910390f35b600061080c83610f43565b821061084d576040517f08c379a00000000000000000000000000000000000000000000000000000000081526004016108449061489f565b60405180910390fd5b6067606860008581526020019081526020016000205481548110610874576108736148bf565b5b90600052602060002090600202016001018281548110610897576108966148bf565b5b9060005260206000200154905092915050565b60007fb688be58000000000000000000000000000000000000000000000000000000007bffffffffffffffffffffffffffffffffffffffffffffffffffffffff1916827bffffffffffffffffffffffffffffffffffffffffffffffffffffffff1916148061091d575061091c8261196a565b5b9050919050565b6060603380546109339061491d565b80601f016020809104026020016040519081016040528092919081815260200182805461095f9061491d565b80156109ac5780601f10610981576101008083540402835291602001916109ac565b820191906000526020600020905b81548152906001019060200180831161098f57829003601f168201915b5050505050905090565b60006109c1826119e4565b60386039600084815260200190815260200160002054815481106109e8576109e76148bf565b5b906000526020600020906006020160040160009054906101000a900473ffffffffffffffffffffffffffffffffffffffff169050919050565b6000610a2c8261103e565b90506000610a3983610d74565b90508173ffffffffffffffffffffffffffffffffffffffff168473ffffffffffffffffffffffffffffffffffffffff1603610aa9576040517f08c379a0000000000000000000000000000000000000000000000000000000008152600401610aa0906149c0565b60405180910390fd5b8173ffffffffffffffffffffffffffffffffffffffff16610ac8611a2f565b73ffffffffffffffffffffffffffffffffffffffff161480610af75750610af682610af1611a2f565b6118c6565b5b80610b105750610b0f8282610b0a611a2f565b6116d1565b5b610b4f576040517f08c379a0000000000000000000000000000000000000000000000000000000008152600401610b4690614a52565b60405180910390fd5b610b598484611a37565b50505050565b60606000610b6b611b15565b9050600073ffffffffffffffffffffffffffffffffffffffff16603b60009054906101000a900473ffffffffffffffffffffffffffffffffffffffff1673ffffffffffffffffffffffffffffffffffffffff1603610c11576000815111610be15760405180602001604052806000815250610c0c565b80610beb84611b2c565b604051602001610bfc929190614afa565b6040516020818303038152906040525b610cb3565b603b60009054906101000a900473ffffffffffffffffffffffffffffffffffffffff1673ffffffffffffffffffffffffffffffffffffffff16636c037f8a846040518263ffffffff1660e01b8152600401610c6c9190614072565b600060405180830381865afa158015610c89573d6000803e3d6000fd5b505050506040513d6000823e3d601f19601f82011682018060405250810190610cb29190614bca565b5b915050919050565b6000610ccf610cc8611a2f565b8584611bfa565b6000610cda85611ca4565b9050610cf18482610cea88610d74565b6000611cb5565b610cfc858285611deb565b809150509392505050565b6000603880549050905090565b610d25610d1f611a2f565b826120a8565b610d64576040517f08c379a0000000000000000000000000000000000000000000000000000000008152600401610d5b90614c85565b60405180910390fd5b610d6f838383612167565b505050565b6000610d7f826119e4565b6038603960008481526020019081526020016000205481548110610da657610da56148bf565b5b9060005260206000209060060201600101549050919050565b6000610dca83611118565b8210610e0b576040517f08c379a0000000000000000000000000000000000000000000000000000000008152600401610e0290614d17565b60405180910390fd5b603a60008473ffffffffffffffffffffffffffffffffffffffff1673ffffffffffffffffffffffffffffffffffffffff1681526020019081526020016000206000018281548110610e5f57610e5e6148bf565b5b9060005260206000200154905092915050565b610e84610e7d611a2f565b8483611bfa565b610e8f838383611deb565b505050565b6000603560009054906101000a900460ff16905090565b610ec6838383604051806020016040528060008152506114a6565b505050565b6000610ed5610d07565b8210610f16576040517f08c379a0000000000000000000000000000000000000000000000000000000008152600401610f0d90614da9565b60405180910390fd5b60388281548110610f2a57610f296148bf565b5b9060005260206000209060060201600001549050919050565b6000610f4e8261230c565b610f5b5760009050610f9a565b6067606860008481526020019081526020016000205481548110610f8257610f816148bf565b5b90600052602060002090600202016001018054905090505b919050565b8373ffffffffffffffffffffffffffffffffffffffff16610fbe611a2f565b73ffffffffffffffffffffffffffffffffffffffff161480610fed5750610fec84610fe7611a2f565b6118c6565b5b61102c576040517f08c379a000000000000000000000000000000000000000000000000000000000815260040161102390614e3b565b60405180910390fd5b61103884848484612361565b50505050565b6000611049826119e4565b60386039600084815260200190815260200160002054815481106110705761106f6148bf565b5b906000526020600020906006020160030160009054906101000a900473ffffffffffffffffffffffffffffffffffffffff169050600073ffffffffffffffffffffffffffffffffffffffff168173ffffffffffffffffffffffffffffffffffffffff1603611113576040517f08c379a000000000000000000000000000000000000000000000000000000000815260040161110a90614ea7565b60405180910390fd5b919050565b60008073ffffffffffffffffffffffffffffffffffffffff168273ffffffffffffffffffffffffffffffffffffffff1603611188576040517f08c379a000000000000000000000000000000000000000000000000000000000815260040161117f90614f39565b60405180910390fd5b603a60008373ffffffffffffffffffffffffffffffffffffffff1673ffffffffffffffffffffffffffffffffffffffff168152602001908152602001600020600001805490509050919050565b603b60009054906101000a900473ffffffffffffffffffffffffffffffffffffffff1681565b60006112068461103e565b9050600061121385610d74565b90508173ffffffffffffffffffffffffffffffffffffffff168473ffffffffffffffffffffffffffffffffffffffff1603611283576040517f08c379a000000000000000000000000000000000000000000000000000000000815260040161127a906149c0565b60405180910390fd5b8173ffffffffffffffffffffffffffffffffffffffff166112a2611a2f565b73ffffffffffffffffffffffffffffffffffffffff1614806112d157506112d0826112cb611a2f565b6118c6565b5b806112ea57506112e982826112e4611a2f565b6116d1565b5b611329576040517f08c379a000000000000000000000000000000000000000000000000000000000815260040161132090614a52565b60405180910390fd5b6113348585856124e0565b5050505050565b60606034805461134a9061491d565b80601f01602080910402602001604051908101604052809291908181526020018280546113769061491d565b80156113c35780601f10611398576101008083540402835291602001916113c3565b820191906000526020600020905b8154815290600101906020018083116113a657829003601f168201915b5050505050905090565b60006113d761195d565b8210611418576040517f08c379a000000000000000000000000000000000000000000000000000000000815260040161140f90614fcb565b60405180910390fd5b6067828154811061142c5761142b6148bf565b5b9060005260206000209060020201600001549050919050565b6000611450826119e4565b6038603960008481526020019081526020016000205481548110611477576114766148bf565b5b9060005260206000209060060201600201549050919050565b6114a261149b611a2f565b83836126a0565b5050565b6114b76114b1611a2f565b836120a8565b6114f6576040517f08c379a00000000000000000000000000000000000000000000000000000000081526004016114ed90614c85565b60405180910390fd5b6115028484848461280f565b50505050565b6060611513826119e4565b600061151d611b15565b9050600073ffffffffffffffffffffffffffffffffffffffff16603b60009054906101000a900473ffffffffffffffffffffffffffffffffffffffff1673ffffffffffffffffffffffffffffffffffffffff16036115c357600081511161159357604051806020016040528060008152506115be565b8061159d84611b2c565b6040516020016115ae929190614feb565b6040516020818303038152906040525b611665565b603b60009054906101000a900473ffffffffffffffffffffffffffffffffffffffff1673ffffffffffffffffffffffffffffffffffffffff1663894b4c2e846040518263ffffffff1660e01b815260040161161e9190614072565b600060405180830381865afa15801561163b573d6000803e3d6000fd5b505050506040513d6000823e3d601f19601f820116820180604052508101906116649190614bca565b5b915050919050565b6000611678836119e4565b6037600084815260200190815260200160002060008373ffffffffffffffffffffffffffffffffffffffff1673ffffffffffffffffffffffffffffffffffffffff16815260200190815260200160002054905092915050565b6000609860008573ffffffffffffffffffffffffffffffffffffffff1673ffffffffffffffffffffffffffffffffffffffff168152602001908152602001600020600084815260200190815260200160002060008373ffffffffffffffffffffffffffffffffffffffff1673ffffffffffffffffffffffffffffffffffffffff16815260200190815260200160002060009054906101000a900460ff1690509392505050565b60606000611783611b15565b9050600073ffffffffffffffffffffffffffffffffffffffff16603b60009054906101000a900473ffffffffffffffffffffffffffffffffffffffff1673ffffffffffffffffffffffffffffffffffffffff16036118295760008151116117f95760405180602001604052806000815250611824565b806118033061286b565b60405160200161181492919061505b565b6040516020818303038152906040525b6118c0565b603b60009054906101000a900473ffffffffffffffffffffffffffffffffffffffff1673ffffffffffffffffffffffffffffffffffffffff1663725fa09c6040518163ffffffff1660e01b8152600401600060405180830381865afa158015611896573d6000803e3d6000fd5b505050506040513d6000823e3d601f19601f820116820180604052508101906118bf9190614bca565b5b91505090565b6000603a60008473ffffffffffffffffffffffffffffffffffffffff1673ffffffffffffffffffffffffffffffffffffffff16815260200190815260200160002060020160008373ffffffffffffffffffffffffffffffffffffffff1673ffffffffffffffffffffffffffffffffffffffff16815260200190815260200160002060009054906101000a900460ff16905092915050565b6000606780549050905090565b60007f3b741b9e000000000000000000000000000000000000000000000000000000007bffffffffffffffffffffffffffffffffffffffffffffffffffffffff1916827bffffffffffffffffffffffffffffffffffffffffffffffffffffffff191614806119dd57506119dc82612898565b5b9050919050565b6119ed81612b0a565b611a2c576040517f08c379a0000000000000000000000000000000000000000000000000000000008152600401611a2390614ea7565b60405180910390fd5b50565b600033905090565b816038603960008481526020019081526020016000205481548110611a5f57611a5e6148bf565b5b906000526020600020906006020160040160006101000a81548173ffffffffffffffffffffffffffffffffffffffff021916908373ffffffffffffffffffffffffffffffffffffffff160217905550808273ffffffffffffffffffffffffffffffffffffffff16611acf8361103e565b73ffffffffffffffffffffffffffffffffffffffff167f8c5be1e5ebec7d5bd14f71427d1e84f3dd0314c0f7b2291e5b200ac8c7c3b92560405160405180910390a45050565b606060405180602001604052806000815250905090565b606060006001611b3b84612b5f565b01905060008167ffffffffffffffff811115611b5a57611b596145ac565b5b6040519080825280601f01601f191660200182016040528015611b8c5781602001600182028036833780820191505090505b509050600082602001820190505b600115611bef578080600190039150507f3031323334353637383961626364656600000000000000000000000000000000600a86061a8153600a8581611be357611be261508a565b5b04945060008503611b9a575b819350505050919050565b6000611c06838561166d565b9050611c1284846120a8565b158015611c3f57507fffffffffffffffffffffffffffffffffffffffffffffffffffffffffffffffff8114155b15611c9e5781811015611c87576040517f08c379a0000000000000000000000000000000000000000000000000000000008152600401611c7e90615105565b60405180910390fd5b611c9d83858484611c989190615154565b6124e0565b5b50505050565b6000611cae612cb2565b9050919050565b600073ffffffffffffffffffffffffffffffffffffffff168473ffffffffffffffffffffffffffffffffffffffff1603611d24576040517f08c379a0000000000000000000000000000000000000000000000000000000008152600401611d1b906151fa565b60405180910390fd5b60008303611d67576040517f08c379a0000000000000000000000000000000000000000000000000000000008152600401611d5e9061528c565b60405180910390fd5b611d7083612b0a565b15611db0576040517f08c379a0000000000000000000000000000000000000000000000000000000008152600401611da7906152f8565b60405180910390fd5b611dc06000856000868686612ccd565b611dcb848484612d40565b611dd58382612e8d565b611de56000856000868686612f1a565b50505050565b611df483612b0a565b611e33576040517f08c379a0000000000000000000000000000000000000000000000000000000008152600401611e2a9061538a565b60405180910390fd5b611e3c82612b0a565b611e7b576040517f08c379a0000000000000000000000000000000000000000000000000000000008152600401611e729061541c565b60405180910390fd5b60006038603960008681526020019081526020016000205481548110611ea457611ea36148bf565b5b9060005260206000209060060201905060006038603960008681526020019081526020016000205481548110611edd57611edc6148bf565b5b906000526020600020906006020190508282600201541015611f34576040517f08c379a0000000000000000000000000000000000000000000000000000000008152600401611f2b906154ae565b60405180910390fd5b8060010154826001015414611f7e576040517f08c379a0000000000000000000000000000000000000000000000000000000008152600401611f7590615540565b60405180910390fd5b611fd88260030160009054906101000a900473ffffffffffffffffffffffffffffffffffffffff168260030160009054906101000a900473ffffffffffffffffffffffffffffffffffffffff168787866001015488612ccd565b82826002016000828254611fec9190615154565b92505081905550828160020160008282546120079190615560565b9250508190555083857f0b2aac84f3ec956911fd78eae5311062972ff949f38412e8da39069d9f068cc68560405161203f9190614072565b60405180910390a36120a18260030160009054906101000a900473ffffffffffffffffffffffffffffffffffffffff168260030160009054906101000a900473ffffffffffffffffffffffffffffffffffffffff168787866001015488612f1a565b5050505050565b60006120b3826119e4565b60006120be8361103e565b905060006120cb84610d74565b90508173ffffffffffffffffffffffffffffffffffffffff168573ffffffffffffffffffffffffffffffffffffffff16148061213a57508473ffffffffffffffffffffffffffffffffffffffff16612122856109b6565b73ffffffffffffffffffffffffffffffffffffffff16145b8061214b575061214a82866118c6565b5b8061215d575061215c8282876116d1565b5b9250505092915050565b8273ffffffffffffffffffffffffffffffffffffffff166121878261103e565b73ffffffffffffffffffffffffffffffffffffffff16146121dd576040517f08c379a00000000000000000000000000000000000000000000000000000000081526004016121d490615628565b60405180910390fd5b600073ffffffffffffffffffffffffffffffffffffffff168273ffffffffffffffffffffffffffffffffffffffff160361224c576040517f08c379a0000000000000000000000000000000000000000000000000000000008152600401612243906156ba565b60405180910390fd5b600061225782610d74565b9050600061226483611445565b9050612274858585868686612ccd565b61227f600084611a37565b61228883612ff2565b61229285846130f5565b61229c8484613291565b828473ffffffffffffffffffffffffffffffffffffffff168673ffffffffffffffffffffffffffffffffffffffff167fddf252ad1be2c89b69c2b068fc378daa952ba7f163c4a11628f55a4df523b3ef60405160405180910390a4612305858585868686612f1a565b5050505050565b6000806067805490501415801561235a5750816067606860008581526020019081526020016000205481548110612346576123456148bf565b5b906000526020600020906002020160000154145b9050919050565b8173ffffffffffffffffffffffffffffffffffffffff168473ffffffffffffffffffffffffffffffffffffffff16036123cf576040517f08c379a00000000000000000000000000000000000000000000000000000000081526004016123c69061574c565b60405180910390fd5b80609860008673ffffffffffffffffffffffffffffffffffffffff1673ffffffffffffffffffffffffffffffffffffffff168152602001908152602001600020600085815260200190815260200160002060008473ffffffffffffffffffffffffffffffffffffffff1673ffffffffffffffffffffffffffffffffffffffff16815260200190815260200160002060006101000a81548160ff0219169083151502179055508173ffffffffffffffffffffffffffffffffffffffff16838573ffffffffffffffffffffffffffffffffffffffff167f7bdf71e6625aa496095bf08b60c677cf81c963f402cf258981e3bd7507d3480c846040516124d2919061412d565b60405180910390a450505050565b600073ffffffffffffffffffffffffffffffffffffffff168273ffffffffffffffffffffffffffffffffffffffff160361254f576040517f08c379a0000000000000000000000000000000000000000000000000000000008152600401612546906157de565b60405180910390fd5b6125598284613412565b6125f7576038603960008581526020019081526020016000205481548110612584576125836148bf565b5b9060005260206000209060060201600501829080600181540180825580915050600190039060005260206000200160009091909190916101000a81548173ffffffffffffffffffffffffffffffffffffffff021916908373ffffffffffffffffffffffffffffffffffffffff1602179055505b806037600085815260200190815260200160002060008473ffffffffffffffffffffffffffffffffffffffff1673ffffffffffffffffffffffffffffffffffffffff168152602001908152602001600020819055508173ffffffffffffffffffffffffffffffffffffffff16837f621b050de0ad08b51d19b48b3e6df75348c4de6bdd93e81b252ca62e28265b1b836040516126939190614072565b60405180910390a3505050565b8173ffffffffffffffffffffffffffffffffffffffff168373ffffffffffffffffffffffffffffffffffffffff160361270e576040517f08c379a00000000000000000000000000000000000000000000000000000000081526004016127059061584a565b60405180910390fd5b80603a60008573ffffffffffffffffffffffffffffffffffffffff1673ffffffffffffffffffffffffffffffffffffffff16815260200190815260200160002060020160008473ffffffffffffffffffffffffffffffffffffffff1673ffffffffffffffffffffffffffffffffffffffff16815260200190815260200160002060006101000a81548160ff0219169083151502179055508173ffffffffffffffffffffffffffffffffffffffff168373ffffffffffffffffffffffffffffffffffffffff167f17307eab39ab6107e8899845ad3d59bd9653f200f220920489ca2b5937696c3183604051612802919061412d565b60405180910390a3505050565b61281a848484612167565b61282684848484613530565b612865576040517f08c379a000000000000000000000000000000000000000000000000000000000815260040161285c906158dc565b60405180910390fd5b50505050565b60606128918273ffffffffffffffffffffffffffffffffffffffff16601460ff16613759565b9050919050565b60007f01ffc9a7000000000000000000000000000000000000000000000000000000007bffffffffffffffffffffffffffffffffffffffffffffffffffffffff1916827bffffffffffffffffffffffffffffffffffffffffffffffffffffffff1916148061296357507fd5358140000000000000000000000000000000000000000000000000000000007bffffffffffffffffffffffffffffffffffffffffffffffffffffffff1916827bffffffffffffffffffffffffffffffffffffffffffffffffffffffff1916145b806129cb57507f80ac58cd000000000000000000000000000000000000000000000000000000007bffffffffffffffffffffffffffffffffffffffffffffffffffffffff1916827bffffffffffffffffffffffffffffffffffffffffffffffffffffffff1916145b80612a3357507fe1600902000000000000000000000000000000000000000000000000000000007bffffffffffffffffffffffffffffffffffffffffffffffffffffffff1916827bffffffffffffffffffffffffffffffffffffffffffffffffffffffff1916145b80612a9b57507f780e9d63000000000000000000000000000000000000000000000000000000007bffffffffffffffffffffffffffffffffffffffffffffffffffffffff1916827bffffffffffffffffffffffffffffffffffffffffffffffffffffffff1916145b80612b0357507f5b5e139f000000000000000000000000000000000000000000000000000000007bffffffffffffffffffffffffffffffffffffffffffffffffffffffff1916827bffffffffffffffffffffffffffffffffffffffffffffffffffffffff1916145b9050919050565b60008060388054905014158015612b585750816038603960008581526020019081526020016000205481548110612b4457612b436148bf565b5b906000526020600020906006020160000154145b9050919050565b600080600090507a184f03e93ff9f4daa797ed6e38ed64bf6a1f0100000000000000008310612bbd577a184f03e93ff9f4daa797ed6e38ed64bf6a1f0100000000000000008381612bb357612bb261508a565b5b0492506040810190505b6d04ee2d6d415b85acef81000000008310612bfa576d04ee2d6d415b85acef81000000008381612bf057612bef61508a565b5b0492506020810190505b662386f26fc100008310612c2957662386f26fc100008381612c1f57612c1e61508a565b5b0492506010810190505b6305f5e1008310612c52576305f5e1008381612c4857612c4761508a565b5b0492506008810190505b6127108310612c77576127108381612c6d57612c6c61508a565b5b0492506004810190505b60648310612c9a5760648381612c9057612c8f61508a565b5b0492506002810190505b600a8310612ca9576001810190505b80915050919050565b6000612cbe6036613995565b612cc860366139ab565b905090565b612cdb8686868686866139b9565b600073ffffffffffffffffffffffffffffffffffffffff168673ffffffffffffffffffffffffffffffffffffffff16148015612d175750600084145b8015612d295750612d278261230c565b155b15612d3857612d37826139c1565b5b505050505050565b60006040518060c00160405280848152602001838152602001600081526020018573ffffffffffffffffffffffffffffffffffffffff168152602001600073ffffffffffffffffffffffffffffffffffffffff168152602001600067ffffffffffffffff811115612db457612db36145ac565b5b604051908082528060200260200182016040528015612de25781602001602082028036833780820191505090505b508152509050612df181613aa9565b612dfb8484613291565b828473ffffffffffffffffffffffffffffffffffffffff16600073ffffffffffffffffffffffffffffffffffffffff167fddf252ad1be2c89b69c2b068fc378daa952ba7f163c4a11628f55a4df523b3ef60405160405180910390a4816000847fe4f48c240d3b994948aa54f3e2f5fca59263dfe1d52b6e4cf39a5d249b5ccb6560405160405180910390a450505050565b806038603960008581526020019081526020016000205481548110612eb557612eb46148bf565b5b90600052602060002090600602016002016000828254612ed59190615560565b925050819055508160007f0b2aac84f3ec956911fd78eae5311062972ff949f38412e8da39069d9f068cc683604051612f0e9190614072565b60405180910390a35050565b600073ffffffffffffffffffffffffffffffffffffffff168673ffffffffffffffffffffffffffffffffffffffff16148015612f565750600084145b8015612f695750612f678284613bc4565b155b15612f7d57612f788284613c61565b612fdc565b600073ffffffffffffffffffffffffffffffffffffffff168573ffffffffffffffffffffffffffffffffffffffff16148015612fb95750600083145b8015612fcb5750612fca8285613bc4565b5b15612fdb57612fda8285613cfa565b5b5b612fea868686868686613e41565b505050505050565b6000603860396000848152602001908152602001600020548154811061301b5761301a6148bf565b5b9060005260206000209060060201905060008160050180549050905060005b818110156130ef57600083600501828154811061305a576130596148bf565b5b9060005260206000200160009054906101000a900473ffffffffffffffffffffffffffffffffffffffff1690506037600086815260200190815260200160002060008273ffffffffffffffffffffffffffffffffffffffff1673ffffffffffffffffffffffffffffffffffffffff168152602001908152602001600020600090555080806130e7906158fc565b91505061303a565b50505050565b6000603860396000848152602001908152602001600020548154811061311e5761311d6148bf565b5b906000526020600020906006020160030160006101000a81548173ffffffffffffffffffffffffffffffffffffffff021916908373ffffffffffffffffffffffffffffffffffffffff1602179055506000603a60008473ffffffffffffffffffffffffffffffffffffffff1673ffffffffffffffffffffffffffffffffffffffff16815260200190815260200160002090506000600182600001805490506131c69190615154565b905060008260000182815481106131e0576131df6148bf565b5b9060005260206000200154905060008360010160008681526020019081526020016000205490508184600001828154811061321e5761321d6148bf565b5b90600052602060002001819055508084600101600084815260200190815260200160002081905550836001016000868152602001908152602001600020600090558360000180548061327357613272615944565b5b60019003818190600052602060002001600090559055505050505050565b8160386039600084815260200190815260200160002054815481106132b9576132b86148bf565b5b906000526020600020906006020160030160006101000a81548173ffffffffffffffffffffffffffffffffffffffff021916908373ffffffffffffffffffffffffffffffffffffffff160217905550603a60008373ffffffffffffffffffffffffffffffffffffffff1673ffffffffffffffffffffffffffffffffffffffff16815260200190815260200160002060000180549050603a60008473ffffffffffffffffffffffffffffffffffffffff1673ffffffffffffffffffffffffffffffffffffffff168152602001908152602001600020600101600083815260200190815260200160002081905550603a60008373ffffffffffffffffffffffffffffffffffffffff1673ffffffffffffffffffffffffffffffffffffffff1681526020019081526020016000206000018190806001815401808255809150506001900390600052602060002001600090919091909150555050565b600080603860396000858152602001908152602001600020548154811061343c5761343b6148bf565b5b906000526020600020906006020160050180549050905060005b81811015613523578473ffffffffffffffffffffffffffffffffffffffff16603860396000878152602001908152602001600020548154811061349c5761349b6148bf565b5b906000526020600020906006020160050182815481106134bf576134be6148bf565b5b9060005260206000200160009054906101000a900473ffffffffffffffffffffffffffffffffffffffff1673ffffffffffffffffffffffffffffffffffffffff16036135105760019250505061352a565b808061351b906158fc565b915050613456565b5060009150505b92915050565b60006135518473ffffffffffffffffffffffffffffffffffffffff16613e49565b80156135f357508373ffffffffffffffffffffffffffffffffffffffff166301ffc9a77f150b7a02000000000000000000000000000000000000000000000000000000006040518263ffffffff1660e01b81526004016135b19190615982565b602060405180830381865afa1580156135ce573d6000803e3d6000fd5b505050506040513d601f19601f820116820180604052508101906135f291906159b2565b5b1561374c578373ffffffffffffffffffffffffffffffffffffffff1663150b7a0261361c611a2f565b8786866040518563ffffffff1660e01b815260040161363e9493929190615a34565b6020604051808303816000875af192505050801561367a57506040513d601f19601f820116820180604052508101906136779190615a95565b60015b6136fc573d80600081146136aa576040519150601f19603f3d011682016040523d82523d6000602084013e6136af565b606091505b5060008151036136f4576040517f08c379a00000000000000000000000000000000000000000000000000000000081526004016136eb90615b34565b60405180910390fd5b805181602001fd5b63150b7a0260e01b7bffffffffffffffffffffffffffffffffffffffffffffffffffffffff1916817bffffffffffffffffffffffffffffffffffffffffffffffffffffffff191614915050613751565b600190505b949350505050565b60606000600283600261376c9190615b54565b6137769190615560565b67ffffffffffffffff81111561378f5761378e6145ac565b5b6040519080825280601f01601f1916602001820160405280156137c15781602001600182028036833780820191505090505b5090507f3000000000000000000000000000000000000000000000000000000000000000816000815181106137f9576137f86148bf565b5b60200101907effffffffffffffffffffffffffffffffffffffffffffffffffffffffffffff1916908160001a9053507f78000000000000000000000000000000000000000000000000000000000000008160018151811061385d5761385c6148bf565b5b60200101907effffffffffffffffffffffffffffffffffffffffffffffffffffffffffffff1916908160001a9053506000600184600261389d9190615b54565b6138a79190615560565b90505b6001811115613947577f3031323334353637383961626364656600000000000000000000000000000000600f8616601081106138e9576138e86148bf565b5b1a60f81b828281518110613900576138ff6148bf565b5b60200101907effffffffffffffffffffffffffffffffffffffffffffffffffffffffffffff1916908160001a905350600485901c94508061394090615bae565b90506138aa565b506000841461398b576040517f08c379a000000000000000000000000000000000000000000000000000000000815260040161398290615c23565b60405180910390fd5b8091505092915050565b6001816000016000828254019250508190555050565b600081600001549050919050565b505050505050565b6139ca8161230c565b15613a0a576040517f08c379a0000000000000000000000000000000000000000000000000000000008152600401613a0190615cb5565b60405180910390fd5b60006040518060400160405280838152602001600067ffffffffffffffff811115613a3857613a376145ac565b5b604051908082528060200260200182016040528015613a665781602001602082028036833780820191505090505b508152509050613a7581613e6c565b816000807fe4f48c240d3b994948aa54f3e2f5fca59263dfe1d52b6e4cf39a5d249b5ccb6560405160405180910390a45050565b603880549050603960008360000151815260200190815260200160002081905550603881908060018154018082558091505060019003906000526020600020906006020160009091909190915060008201518160000155602082015181600101556040820151816002015560608201518160030160006101000a81548173ffffffffffffffffffffffffffffffffffffffff021916908373ffffffffffffffffffffffffffffffffffffffff16021790555060808201518160040160006101000a81548173ffffffffffffffffffffffffffffffffffffffff021916908373ffffffffffffffffffffffffffffffffffffffff16021790555060a0820151816005019080519060200190613bbe929190613ee5565b50505050565b6000806067606860008681526020019081526020016000205481548110613bee57613bed6148bf565b5b9060005260206000209060020201905060008160010180549050118015613c58575082816001016066600087815260200190815260200160002060008681526020019081526020016000205481548110613c4b57613c4a6148bf565b5b9060005260206000200154145b91505092915050565b60006067606860008581526020019081526020016000205481548110613c8a57613c896148bf565b5b9060005260206000209060020201905080600101805490506066600085815260200190815260200160002060008481526020019081526020016000208190555080600101829080600181540180825580915050600190039060005260206000200160009091909190915055505050565b60006067606860008581526020019081526020016000205481548110613d2357613d226148bf565b5b90600052602060002090600202019050600060018260010180549050613d499190615154565b90506000826001018281548110613d6357613d626148bf565b5b90600052602060002001549050600060666000878152602001908152602001600020600086815260200190815260200160002054905081846001018281548110613db057613daf6148bf565b5b906000526020600020018190555080606660008881526020019081526020016000206000848152602001908152602001600020819055506066600087815260200190815260200160002060008681526020019081526020016000206000905583600101805480613e2357613e22615944565b5b60019003818190600052602060002001600090559055505050505050565b505050505050565b6000808273ffffffffffffffffffffffffffffffffffffffff163b119050919050565b6067805490506068600083600001518152602001908152602001600020819055506067819080600181540180825580915050600190039060005260206000209060020201600090919091909150600082015181600001556020820151816001019080519060200190613edf929190613f6f565b50505050565b828054828255906000526020600020908101928215613f5e579160200282015b82811115613f5d5782518260006101000a81548173ffffffffffffffffffffffffffffffffffffffff021916908373ffffffffffffffffffffffffffffffffffffffff16021790555091602001919060010190613f05565b5b509050613f6b9190613fbc565b5090565b828054828255906000526020600020908101928215613fab579160200282015b82811115613faa578251825591602001919060010190613f8f565b5b509050613fb89190613fbc565b5090565b5b80821115613fd5576000816000905550600101613fbd565b5090565b6000604051905090565b600080fd5b600080fd5b6000819050919050565b61400081613fed565b811461400b57600080fd5b50565b60008135905061401d81613ff7565b92915050565b6000806040838503121561403a57614039613fe3565b5b60006140488582860161400e565b92505060206140598582860161400e565b9150509250929050565b61406c81613fed565b82525050565b60006020820190506140876000830184614063565b92915050565b60007fffffffff0000000000000000000000000000000000000000000000000000000082169050919050565b6140c28161408d565b81146140cd57600080fd5b50565b6000813590506140df816140b9565b92915050565b6000602082840312156140fb576140fa613fe3565b5b6000614109848285016140d0565b91505092915050565b60008115159050919050565b61412781614112565b82525050565b6000602082019050614142600083018461411e565b92915050565b600081519050919050565b600082825260208201905092915050565b60005b83811015614182578082015181840152602081019050614167565b83811115614191576000848401525b50505050565b6000601f19601f8301169050919050565b60006141b382614148565b6141bd8185614153565b93506141cd818560208601614164565b6141d681614197565b840191505092915050565b600060208201905081810360008301526141fb81846141a8565b905092915050565b60006020828403121561421957614218613fe3565b5b60006142278482850161400e565b91505092915050565b600073ffffffffffffffffffffffffffffffffffffffff82169050919050565b600061425b82614230565b9050919050565b61426b81614250565b82525050565b60006020820190506142866000830184614262565b92915050565b61429581614250565b81146142a057600080fd5b50565b6000813590506142b28161428c565b92915050565b600080604083850312156142cf576142ce613fe3565b5b60006142dd858286016142a3565b92505060206142ee8582860161400e565b9150509250929050565b60008060006060848603121561431157614310613fe3565b5b600061431f8682870161400e565b9350506020614330868287016142a3565b92505060406143418682870161400e565b9150509250925092565b60008060006060848603121561436457614363613fe3565b5b6000614372868287016142a3565b9350506020614383868287016142a3565b92505060406143948682870161400e565b9150509250925092565b6000806000606084860312156143b7576143b6613fe3565b5b60006143c58682870161400e565b93505060206143d68682870161400e565b92505060406143e78682870161400e565b9150509250925092565b600060ff82169050919050565b614407816143f1565b82525050565b600060208201905061442260008301846143fe565b92915050565b61443181614112565b811461443c57600080fd5b50565b60008135905061444e81614428565b92915050565b6000806000806080858703121561446e5761446d613fe3565b5b600061447c878288016142a3565b945050602061448d8782880161400e565b935050604061449e878288016142a3565b92505060606144af8782880161443f565b91505092959194509250565b6000602082840312156144d1576144d0613fe3565b5b60006144df848285016142a3565b91505092915050565b6000819050919050565b600061450d61450861450384614230565b6144e8565b614230565b9050919050565b600061451f826144f2565b9050919050565b600061453182614514565b9050919050565b61454181614526565b82525050565b600060208201905061455c6000830184614538565b92915050565b6000806040838503121561457957614578613fe3565b5b6000614587858286016142a3565b92505060206145988582860161443f565b9150509250929050565b600080fd5b600080fd5b7f4e487b7100000000000000000000000000000000000000000000000000000000600052604160045260246000fd5b6145e482614197565b810181811067ffffffffffffffff82111715614603576146026145ac565b5b80604052505050565b6000614616613fd9565b905061462282826145db565b919050565b600067ffffffffffffffff821115614642576146416145ac565b5b61464b82614197565b9050602081019050919050565b82818337600083830152505050565b600061467a61467584614627565b61460c565b905082815260208101848484011115614696576146956145a7565b5b6146a1848285614658565b509392505050565b600082601f8301126146be576146bd6145a2565b5b81356146ce848260208601614667565b91505092915050565b600080600080608085870312156146f1576146f0613fe3565b5b60006146ff878288016142a3565b9450506020614710878288016142a3565b93505060406147218782880161400e565b925050606085013567ffffffffffffffff81111561474257614741613fe8565b5b61474e878288016146a9565b91505092959194509250565b6000806040838503121561477157614770613fe3565b5b600061477f8582860161400e565b9250506020614790858286016142a3565b9150509250929050565b6000806000606084860312156147b3576147b2613fe3565b5b60006147c1868287016142a3565b93505060206147d28682870161400e565b92505060406147e3868287016142a3565b9150509250925092565b6000806040838503121561480457614803613fe3565b5b6000614812858286016142a3565b9250506020614823858286016142a3565b9150509250929050565b7f45524333353235536c6f74456e756d657261626c653a20736c6f7420746f6b6560008201527f6e20696e646578206f7574206f6620626f756e64730000000000000000000000602082015250565b6000614889603583614153565b91506148948261482d565b604082019050919050565b600060208201905081810360008301526148b88161487c565b9050919050565b7f4e487b7100000000000000000000000000000000000000000000000000000000600052603260045260246000fd5b7f4e487b7100000000000000000000000000000000000000000000000000000000600052602260045260246000fd5b6000600282049050600182168061493557607f821691505b602082108103614948576149476148ee565b5b50919050565b7f455243333532353a20617070726f76616c20746f2063757272656e74206f776e60008201527f6572000000000000000000000000000000000000000000000000000000000000602082015250565b60006149aa602283614153565b91506149b58261494e565b604082019050919050565b600060208201905081810360008301526149d98161499d565b9050919050565b7f455243333532353a20617070726f76652063616c6c6572206973206e6f74206f60008201527f776e6572206e6f7220617070726f76656420666f7220616c6c2f736c6f740000602082015250565b6000614a3c603e83614153565b9150614a47826149e0565b604082019050919050565b60006020820190508181036000830152614a6b81614a2f565b9050919050565b600081905092915050565b6000614a8882614148565b614a928185614a72565b9350614aa2818560208601614164565b80840191505092915050565b7f736c6f742f000000000000000000000000000000000000000000000000000000600082015250565b6000614ae4600583614a72565b9150614aef82614aae565b600582019050919050565b6000614b068285614a7d565b9150614b1182614ad7565b9150614b1d8284614a7d565b91508190509392505050565b600067ffffffffffffffff821115614b4457614b436145ac565b5b614b4d82614197565b9050602081019050919050565b6000614b6d614b6884614b29565b61460c565b905082815260208101848484011115614b8957614b886145a7565b5b614b94848285614164565b509392505050565b600082601f830112614bb157614bb06145a2565b5b8151614bc1848260208601614b5a565b91505092915050565b600060208284031215614be057614bdf613fe3565b5b600082015167ffffffffffffffff811115614bfe57614bfd613fe8565b5b614c0a84828501614b9c565b91505092915050565b7f455243333532353a207472616e736665722063616c6c6572206973206e6f742060008201527f6f776e6572206e6f7220617070726f7665640000000000000000000000000000602082015250565b6000614c6f603283614153565b9150614c7a82614c13565b604082019050919050565b60006020820190508181036000830152614c9e81614c62565b9050919050565b7f455243333532353a206f776e657220696e646578206f7574206f6620626f756e60008201527f6473000000000000000000000000000000000000000000000000000000000000602082015250565b6000614d01602283614153565b9150614d0c82614ca5565b604082019050919050565b60006020820190508181036000830152614d3081614cf4565b9050919050565b7f455243333532353a20676c6f62616c20696e646578206f7574206f6620626f7560008201527f6e64730000000000000000000000000000000000000000000000000000000000602082015250565b6000614d93602383614153565b9150614d9e82614d37565b604082019050919050565b60006020820190508181036000830152614dc281614d86565b9050919050565b7f45524333353235536c6f74417070726f7661626c653a2063616c6c657220697360008201527f206e6f74206f776e6572206e6f7220617070726f76656420666f7220616c6c00602082015250565b6000614e25603f83614153565b9150614e3082614dc9565b604082019050919050565b60006020820190508181036000830152614e5481614e18565b9050919050565b7f455243333532353a20696e76616c696420746f6b656e20494400000000000000600082015250565b6000614e91601983614153565b9150614e9c82614e5b565b602082019050919050565b60006020820190508181036000830152614ec081614e84565b9050919050565b7f455243333532353a2062616c616e636520717565727920666f7220746865207a60008201527f65726f2061646472657373000000000000000000000000000000000000000000602082015250565b6000614f23602b83614153565b9150614f2e82614ec7565b604082019050919050565b60006020820190508181036000830152614f5281614f16565b9050919050565b7f45524333353235536c6f74456e756d657261626c653a20736c6f7420696e646560008201527f78206f7574206f6620626f756e64730000000000000000000000000000000000602082015250565b6000614fb5602f83614153565b9150614fc082614f59565b604082019050919050565b60006020820190508181036000830152614fe481614fa8565b9050919050565b6000614ff78285614a7d565b91506150038284614a7d565b91508190509392505050565b7f636f6e74726163742f0000000000000000000000000000000000000000000000600082015250565b6000615045600983614a72565b91506150508261500f565b600982019050919050565b60006150678285614a7d565b915061507282615038565b915061507e8284614a7d565b91508190509392505050565b7f4e487b7100000000000000000000000000000000000000000000000000000000600052601260045260246000fd5b7f455243333532353a20696e73756666696369656e7420616c6c6f77616e636500600082015250565b60006150ef601f83614153565b91506150fa826150b9565b602082019050919050565b6000602082019050818103600083015261511e816150e2565b9050919050565b7f4e487b7100000000000000000000000000000000000000000000000000000000600052601160045260246000fd5b600061515f82613fed565b915061516a83613fed565b92508282101561517d5761517c615125565b5b828203905092915050565b7f455243333532353a206d696e7420746f20746865207a65726f2061646472657360008201527f7300000000000000000000000000000000000000000000000000000000000000602082015250565b60006151e4602183614153565b91506151ef82615188565b604082019050919050565b60006020820190508181036000830152615213816151d7565b9050919050565b7f455243333532353a2063616e6e6f74206d696e74207a65726f20746f6b656e4960008201527f6400000000000000000000000000000000000000000000000000000000000000602082015250565b6000615276602183614153565b91506152818261521a565b604082019050919050565b600060208201905081810360008301526152a581615269565b9050919050565b7f455243333532353a20746f6b656e20616c7265616479206d696e746564000000600082015250565b60006152e2601d83614153565b91506152ed826152ac565b602082019050919050565b60006020820190508181036000830152615311816152d5565b9050919050565b7f455243333532353a207472616e736665722066726f6d20696e76616c6964207460008201527f6f6b656e20494400000000000000000000000000000000000000000000000000602082015250565b6000615374602783614153565b915061537f82615318565b604082019050919050565b600060208201905081810360008301526153a381615367565b9050919050565b7f455243333532353a207472616e7366657220746f20696e76616c696420746f6b60008201527f656e204944000000000000000000000000000000000000000000000000000000602082015250565b6000615406602583614153565b9150615411826153aa565b604082019050919050565b60006020820190508181036000830152615435816153f9565b9050919050565b7f455243333532353a20696e73756666696369656e742062616c616e636520666f60008201527f72207472616e7366657200000000000000000000000000000000000000000000602082015250565b6000615498602a83614153565b91506154a38261543c565b604082019050919050565b600060208201905081810360008301526154c78161548b565b9050919050565b7f455243333532353a207472616e7366657220746f20746f6b656e20776974682060008201527f646966666572656e7420736c6f74000000000000000000000000000000000000602082015250565b600061552a602e83614153565b9150615535826154ce565b604082019050919050565b600060208201905081810360008301526155598161551d565b9050919050565b600061556b82613fed565b915061557683613fed565b9250827fffffffffffffffffffffffffffffffffffffffffffffffffffffffffffffffff038211156155ab576155aa615125565b5b828201905092915050565b7f455243333532353a207472616e736665722066726f6d20696e76616c6964206f60008201527f776e657200000000000000000000000000000000000000000000000000000000602082015250565b6000615612602483614153565b915061561d826155b6565b604082019050919050565b6000602082019050818103600083015261564181615605565b9050919050565b7f455243333532353a207472616e7366657220746f20746865207a65726f20616460008201527f6472657373000000000000000000000000000000000000000000000000000000602082015250565b60006156a4602583614153565b91506156af82615648565b604082019050919050565b600060208201905081810360008301526156d381615697565b9050919050565b7f45524333353235536c6f74417070726f7661626c653a20617070726f7665207460008201527f6f206f776e657200000000000000000000000000000000000000000000000000602082015250565b6000615736602783614153565b9150615741826156da565b604082019050919050565b6000602082019050818103600083015261576581615729565b9050919050565b7f455243333532353a20617070726f76652076616c756520746f20746865207a6560008201527f726f206164647265737300000000000000000000000000000000000000000000602082015250565b60006157c8602a83614153565b91506157d38261576c565b604082019050919050565b600060208201905081810360008301526157f7816157bb565b9050919050565b7f455243333532353a20617070726f766520746f2063616c6c6572000000000000600082015250565b6000615834601a83614153565b915061583f826157fe565b602082019050919050565b6000602082019050818103600083015261586381615827565b9050919050565b7f455243333532353a207472616e7366657220746f206e6f6e204552433732315260008201527f6563656976657200000000000000000000000000000000000000000000000000602082015250565b60006158c6602783614153565b91506158d18261586a565b604082019050919050565b600060208201905081810360008301526158f5816158b9565b9050919050565b600061590782613fed565b91507fffffffffffffffffffffffffffffffffffffffffffffffffffffffffffffffff820361593957615938615125565b5b600182019050919050565b7f4e487b7100000000000000000000000000000000000000000000000000000000600052603160045260246000fd5b61597c8161408d565b82525050565b60006020820190506159976000830184615973565b92915050565b6000815190506159ac81614428565b92915050565b6000602082840312156159c8576159c7613fe3565b5b60006159d68482850161599d565b91505092915050565b600081519050919050565b600082825260208201905092915050565b6000615a06826159df565b615a1081856159ea565b9350615a20818560208601614164565b615a2981614197565b840191505092915050565b6000608082019050615a496000830187614262565b615a566020830186614262565b615a636040830185614063565b8181036060830152615a7581846159fb565b905095945050505050565b600081519050615a8f816140b9565b92915050565b600060208284031215615aab57615aaa613fe3565b5b6000615ab984828501615a80565b91505092915050565b7f4552433732313a207472616e7366657220746f206e6f6e20455243373231526560008201527f6365697665720000000000000000000000000000000000000000000000000000602082015250565b6000615b1e602683614153565b9150615b2982615ac2565b604082019050919050565b60006020820190508181036000830152615b4d81615b11565b9050919050565b6000615b5f82613fed565b9150615b6a83613fed565b9250817fffffffffffffffffffffffffffffffffffffffffffffffffffffffffffffffff0483118215151615615ba357615ba2615125565b5b828202905092915050565b6000615bb982613fed565b915060008203615bcc57615bcb615125565b5b600182039050919050565b7f537472696e67733a20686578206c656e67746820696e73756666696369656e74600082015250565b6000615c0d602083614153565b9150615c1882615bd7565b602082019050919050565b60006020820190508181036000830152615c3c81615c00565b9050919050565b7f45524333353235536c6f74456e756d657261626c653a20736c6f7420616c726560008201527f6164792065786973747300000000000000000000000000000000000000000000602082015250565b6000615c9f602a83614153565b9150615caa82615c43565b604082019050919050565b60006020820190508181036000830152615cce81615c92565b905091905056fea2646970667358221220a92e6ad9da4aaed7675340b57f8a391228b3100f6d72dd20ee8ab76fbe89330664736f6c634300080f0033",
  "linkReferences": {},
  "deployedLinkReferences": {}
}