{
  "_format": "hh-sol-artifact-1",
  "contractName": "ERC3525SlotApprovableUpgradeable",
  "sourceName": "contracts/solvprotocol/erc-3525/ERC3525SlotApprovableUpgradeable.sol",
  "abi": [
    {
      "anonymous": false,
      "inputs": [
        {
          "indexed": true,
          "internalType": "address",
          "name": "_owner",
          "type": "address"
        },
        {
          "indexed": true,
          "internalType": "address",
          "name": "_approved",
          "type": "address"
        },
        {
          "indexed": true,
          "internalType": "uint256",
          "name": "_tokenId",
          "type": "uint256"
        }
      ],
      "name": "Approval",
      "type": "event"
    },
    {
      "anonymous": false,
      "inputs": [
        {
          "indexed": true,
          "internalType": "address",
          "name": "_owner",
          "type": "address"
        },
        {
          "indexed": true,
          "internalType": "address",
          "name": "_operator",
          "type": "address"
        },
        {
          "indexed": false,
          "internalType": "bool",
          "name": "_approved",
          "type": "bool"
        }
      ],
      "name": "ApprovalForAll",
      "type": "event"
    },
    {
      "anonymous": false,
      "inputs": [
        {
          "indexed": true,
          "internalType": "address",
          "name": "_owner",
          "type": "address"
        },
        {
          "indexed": true,
          "internalType": "uint256",
          "name": "_slot",
          "type": "uint256"
        },
        {
          "indexed": true,
          "internalType": "address",
          "name": "_operator",
          "type": "address"
        },
        {
          "indexed": false,
          "internalType": "bool",
          "name": "_approved",
          "type": "bool"
        }
      ],
      "name": "ApprovalForSlot",
      "type": "event"
    },
    {
      "anonymous": false,
      "inputs": [
        {
          "indexed": true,
          "internalType": "uint256",
          "name": "_tokenId",
          "type": "uint256"
        },
        {
          "indexed": true,
          "internalType": "address",
          "name": "_operator",
          "type": "address"
        },
        {
          "indexed": false,
          "internalType": "uint256",
          "name": "_value",
          "type": "uint256"
        }
      ],
      "name": "ApprovalValue",
      "type": "event"
    },
    {
      "anonymous": false,
      "inputs": [
        {
          "indexed": false,
          "internalType": "uint8",
          "name": "version",
          "type": "uint8"
        }
      ],
      "name": "Initialized",
      "type": "event"
    },
    {
      "anonymous": false,
      "inputs": [
        {
          "indexed": true,
          "internalType": "address",
          "name": "metadataDescriptor",
          "type": "address"
        }
      ],
      "name": "SetMetadataDescriptor",
      "type": "event"
    },
    {
      "anonymous": false,
      "inputs": [
        {
          "indexed": true,
          "internalType": "uint256",
          "name": "_tokenId",
          "type": "uint256"
        },
        {
          "indexed": true,
          "internalType": "uint256",
          "name": "_oldSlot",
          "type": "uint256"
        },
        {
          "indexed": true,
          "internalType": "uint256",
          "name": "_newSlot",
          "type": "uint256"
        }
      ],
      "name": "SlotChanged",
      "type": "event"
    },
    {
      "anonymous": false,
      "inputs": [
        {
          "indexed": true,
          "internalType": "address",
          "name": "_from",
          "type": "address"
        },
        {
          "indexed": true,
          "internalType": "address",
          "name": "_to",
          "type": "address"
        },
        {
          "indexed": true,
          "internalType": "uint256",
          "name": "_tokenId",
          "type": "uint256"
        }
      ],
      "name": "Transfer",
      "type": "event"
    },
    {
      "anonymous": false,
      "inputs": [
        {
          "indexed": true,
          "internalType": "uint256",
          "name": "_fromTokenId",
          "type": "uint256"
        },
        {
          "indexed": true,
          "internalType": "uint256",
          "name": "_toTokenId",
          "type": "uint256"
        },
        {
          "indexed": false,
          "internalType": "uint256",
          "name": "_value",
          "type": "uint256"
        }
      ],
      "name": "TransferValue",
      "type": "event"
    },
    {
      "inputs": [
        {
          "internalType": "uint256",
          "name": "tokenId_",
          "type": "uint256"
        },
        {
          "internalType": "address",
          "name": "operator_",
          "type": "address"
        }
      ],
      "name": "allowance",
      "outputs": [
        {
          "internalType": "uint256",
          "name": "",
          "type": "uint256"
        }
      ],
      "stateMutability": "view",
      "type": "function"
    },
    {
      "inputs": [
        {
          "internalType": "address",
          "name": "to_",
          "type": "address"
        },
        {
          "internalType": "uint256",
          "name": "tokenId_",
          "type": "uint256"
        }
      ],
      "name": "approve",
      "outputs": [],
      "stateMutability": "payable",
      "type": "function"
    },
    {
      "inputs": [
        {
          "internalType": "uint256",
          "name": "tokenId_",
          "type": "uint256"
        },
        {
          "internalType": "address",
          "name": "to_",
          "type": "address"
        },
        {
          "internalType": "uint256",
          "name": "value_",
          "type": "uint256"
        }
      ],
      "name": "approve",
      "outputs": [],
      "stateMutability": "payable",
      "type": "function"
    },
    {
      "inputs": [
        {
          "internalType": "address",
          "name": "owner_",
          "type": "address"
        }
      ],
      "name": "balanceOf",
      "outputs": [
        {
          "internalType": "uint256",
          "name": "balance",
          "type": "uint256"
        }
      ],
      "stateMutability": "view",
      "type": "function"
    },
    {
      "inputs": [
        {
          "internalType": "uint256",
          "name": "tokenId_",
          "type": "uint256"
        }
      ],
      "name": "balanceOf",
      "outputs": [
        {
          "internalType": "uint256",
          "name": "",
          "type": "uint256"
        }
      ],
      "stateMutability": "view",
      "type": "function"
    },
    {
      "inputs": [],
      "name": "contractURI",
      "outputs": [
        {
          "internalType": "string",
          "name": "",
          "type": "string"
        }
      ],
      "stateMutability": "view",
      "type": "function"
    },
    {
      "inputs": [
        {
          "internalType": "uint256",
          "name": "tokenId_",
          "type": "uint256"
        }
      ],
      "name": "getApproved",
      "outputs": [
        {
          "internalType": "address",
          "name": "",
          "type": "address"
        }
      ],
      "stateMutability": "view",
      "type": "function"
    },
    {
      "inputs": [
        {
          "internalType": "address",
          "name": "owner_",
          "type": "address"
        },
        {
          "internalType": "address",
          "name": "operator_",
          "type": "address"
        }
      ],
      "name": "isApprovedForAll",
      "outputs": [
        {
          "internalType": "bool",
          "name": "",
          "type": "bool"
        }
      ],
      "stateMutability": "view",
      "type": "function"
    },
    {
      "inputs": [
        {
          "internalType": "address",
          "name": "owner_",
          "type": "address"
        },
        {
          "internalType": "uint256",
          "name": "slot_",
          "type": "uint256"
        },
        {
          "internalType": "address",
          "name": "operator_",
          "type": "address"
        }
      ],
      "name": "isApprovedForSlot",
      "outputs": [
        {
          "internalType": "bool",
          "name": "",
          "type": "bool"
        }
      ],
      "stateMutability": "view",
      "type": "function"
    },
    {
      "inputs": [],
      "name": "metadataDescriptor",
      "outputs": [
        {
          "internalType": "contract IERC3525MetadataDescriptor",
          "name": "",
          "type": "address"
        }
      ],
      "stateMutability": "view",
      "type": "function"
    },
    {
      "inputs": [],
      "name": "name",
      "outputs": [
        {
          "internalType": "string",
          "name": "",
          "type": "string"
        }
      ],
      "stateMutability": "view",
      "type": "function"
    },
    {
      "inputs": [
        {
          "internalType": "uint256",
          "name": "tokenId_",
          "type": "uint256"
        }
      ],
      "name": "ownerOf",
      "outputs": [
        {
          "internalType": "address",
          "name": "owner_",
          "type": "address"
        }
      ],
      "stateMutability": "view",
      "type": "function"
    },
    {
      "inputs": [
        {
          "internalType": "address",
          "name": "from_",
          "type": "address"
        },
        {
          "internalType": "address",
          "name": "to_",
          "type": "address"
        },
        {
          "internalType": "uint256",
          "name": "tokenId_",
          "type": "uint256"
        }
      ],
      "name": "safeTransferFrom",
      "outputs": [],
      "stateMutability": "payable",
      "type": "function"
    },
    {
      "inputs": [
        {
          "internalType": "address",
          "name": "from_",
          "type": "address"
        },
        {
          "internalType": "address",
          "name": "to_",
          "type": "address"
        },
        {
          "internalType": "uint256",
          "name": "tokenId_",
          "type": "uint256"
        },
        {
          "internalType": "bytes",
          "name": "data_",
          "type": "bytes"
        }
      ],
      "name": "safeTransferFrom",
      "outputs": [],
      "stateMutability": "payable",
      "type": "function"
    },
    {
      "inputs": [
        {
          "internalType": "address",
          "name": "operator_",
          "type": "address"
        },
        {
          "internalType": "bool",
          "name": "approved_",
          "type": "bool"
        }
      ],
      "name": "setApprovalForAll",
      "outputs": [],
      "stateMutability": "nonpayable",
      "type": "function"
    },
    {
      "inputs": [
        {
          "internalType": "address",
          "name": "owner_",
          "type": "address"
        },
        {
          "internalType": "uint256",
          "name": "slot_",
          "type": "uint256"
        },
        {
          "internalType": "address",
          "name": "operator_",
          "type": "address"
        },
        {
          "internalType": "bool",
          "name": "approved_",
          "type": "bool"
        }
      ],
      "name": "setApprovalForSlot",
      "outputs": [],
      "stateMutability": "payable",
      "type": "function"
    },
    {
      "inputs": [
        {
          "internalType": "uint256",
          "name": "index_",
          "type": "uint256"
        }
      ],
      "name": "slotByIndex",
      "outputs": [
        {
          "internalType": "uint256",
          "name": "",
          "type": "uint256"
        }
      ],
      "stateMutability": "view",
      "type": "function"
    },
    {
      "inputs": [],
      "name": "slotCount",
      "outputs": [
        {
          "internalType": "uint256",
          "name": "",
          "type": "uint256"
        }
      ],
      "stateMutability": "view",
      "type": "function"
    },
    {
      "inputs": [
        {
          "internalType": "uint256",
          "name": "tokenId_",
          "type": "uint256"
        }
      ],
      "name": "slotOf",
      "outputs": [
        {
          "internalType": "uint256",
          "name": "",
          "type": "uint256"
        }
      ],
      "stateMutability": "view",
      "type": "function"
    },
    {
      "inputs": [
        {
          "internalType": "uint256",
          "name": "slot_",
          "type": "uint256"
        }
      ],
      "name": "slotURI",
      "outputs": [
        {
          "internalType": "string",
          "name": "",
          "type": "string"
        }
      ],
      "stateMutability": "view",
      "type": "function"
    },
    {
      "inputs": [
        {
          "internalType": "bytes4",
          "name": "interfaceId",
          "type": "bytes4"
        }
      ],
      "name": "supportsInterface",
      "outputs": [
        {
          "internalType": "bool",
          "name": "",
          "type": "bool"
        }
      ],
      "stateMutability": "view",
      "type": "function"
    },
    {
      "inputs": [],
      "name": "symbol",
      "outputs": [
        {
          "internalType": "string",
          "name": "",
          "type": "string"
        }
      ],
      "stateMutability": "view",
      "type": "function"
    },
    {
      "inputs": [
        {
          "internalType": "uint256",
          "name": "index_",
          "type": "uint256"
        }
      ],
      "name": "tokenByIndex",
      "outputs": [
        {
          "internalType": "uint256",
          "name": "",
          "type": "uint256"
        }
      ],
      "stateMutability": "view",
      "type": "function"
    },
    {
      "inputs": [
        {
          "internalType": "uint256",
          "name": "slot_",
          "type": "uint256"
        },
        {
          "internalType": "uint256",
          "name": "index_",
          "type": "uint256"
        }
      ],
      "name": "tokenInSlotByIndex",
      "outputs": [
        {
          "internalType": "uint256",
          "name": "",
          "type": "uint256"
        }
      ],
      "stateMutability": "view",
      "type": "function"
    },
    {
      "inputs": [
        {
          "internalType": "address",
          "name": "owner_",
          "type": "address"
        },
        {
          "internalType": "uint256",
          "name": "index_",
          "type": "uint256"
        }
      ],
      "name": "tokenOfOwnerByIndex",
      "outputs": [
        {
          "internalType": "uint256",
          "name": "",
          "type": "uint256"
        }
      ],
      "stateMutability": "view",
      "type": "function"
    },
    {
      "inputs": [
        {
          "internalType": "uint256",
          "name": "slot_",
          "type": "uint256"
        }
      ],
      "name": "tokenSupplyInSlot",
      "outputs": [
        {
          "internalType": "uint256",
          "name": "",
          "type": "uint256"
        }
      ],
      "stateMutability": "view",
      "type": "function"
    },
    {
      "inputs": [
        {
          "internalType": "uint256",
          "name": "tokenId_",
          "type": "uint256"
        }
      ],
      "name": "tokenURI",
      "outputs": [
        {
          "internalType": "string",
          "name": "",
          "type": "string"
        }
      ],
      "stateMutability": "view",
      "type": "function"
    },
    {
      "inputs": [],
      "name": "totalSupply",
      "outputs": [
        {
          "internalType": "uint256",
          "name": "",
          "type": "uint256"
        }
      ],
      "stateMutability": "view",
      "type": "function"
    },
    {
      "inputs": [
        {
          "internalType": "uint256",
          "name": "fromTokenId_",
          "type": "uint256"
        },
        {
          "internalType": "address",
          "name": "to_",
          "type": "address"
        },
        {
          "internalType": "uint256",
          "name": "value_",
          "type": "uint256"
        }
      ],
      "name": "transferFrom",
      "outputs": [
        {
          "internalType": "uint256",
          "name": "",
          "type": "uint256"
        }
      ],
      "stateMutability": "payable",
      "type": "function"
    },
    {
      "inputs": [
        {
          "internalType": "address",
          "name": "from_",
          "type": "address"
        },
        {
          "internalType": "address",
          "name": "to_",
          "type": "address"
        },
        {
          "internalType": "uint256",
          "name": "tokenId_",
          "type": "uint256"
        }
      ],
      "name": "transferFrom",
      "outputs": [],
      "stateMutability": "payable",
      "type": "function"
    },
    {
      "inputs": [
        {
          "internalType": "uint256",
          "name": "fromTokenId_",
          "type": "uint256"
        },
        {
          "internalType": "uint256",
          "name": "toTokenId_",
          "type": "uint256"
        },
        {
          "internalType": "uint256",
          "name": "value_",
          "type": "uint256"
        }
      ],
      "name": "transferFrom",
      "outputs": [],
      "stateMutability": "payable",
      "type": "function"
    },
    {
      "inputs": [],
      "name": "valueDecimals",
      "outputs": [
        {
          "internalType": "uint8",
          "name": "",
          "type": "uint8"
        }
      ],
      "stateMutability": "view",
      "type": "function"
    }
  ],
  "bytecode": "0x608060405234801561001057600080fd5b50613464806100206000396000f3fe6080604052600436106101e25760003560e01c806355cd4e0611610102578063a22cb46511610095578063e345f05e11610064578063e345f05e1461052a578063e8a3d4851461057b578063e985e9c514610590578063ed08fa80146105dd57600080fd5b8063a22cb465146104b7578063b88d4fde146104d7578063c87b56dd146104ea578063e345e0bc1461050a57600080fd5b80638cb0a511116100d15780638cb0a5111461044f57806395d89b4114610462578063993bef8d146104775780639cc7f7081461049757600080fd5b806355cd4e06146103dc5780636352211e146103ef57806370a082311461040f578063840f71131461042f57600080fd5b806323b872dd1161017a5780633e7e8669116101495780633e7e86691461036757806342842e0e146103895780634f6ccce71461039c5780634f8a0f83146103bc57600080fd5b806323b872dd14610301578063263f3e7e146103145780632f745c5914610334578063310ed7f01461035457600080fd5b8063095ea7b3116101b6578063095ea7b3146102a457806309c3dd87146102b95780630f485c02146102d957806318160ddd146102ec57600080fd5b8062cd0110146101e757806301ffc9a71461021a57806306fdde031461024a578063081812fc1461026c575b600080fd5b3480156101f357600080fd5b50610207610202366004612ca9565b6105f2565b6040519081526020015b60405180910390f35b34801561022657600080fd5b5061023a610235366004612ce1565b6106c8565b6040519015158152602001610211565b34801561025657600080fd5b5061025f6106ed565b6040516102119190612d56565b34801561027857600080fd5b5061028c610287366004612d69565b61077f565b6040516001600160a01b039091168152602001610211565b6102b76102b2366004612d99565b6107d1565b005b3480156102c557600080fd5b5061025f6102d4366004612d69565b610875565b6102076102e7366004612dc3565b610967565b3480156102f857600080fd5b50603754610207565b6102b761030f366004612df8565b6109a9565b34801561032057600080fd5b5061020761032f366004612d69565b6109df565b34801561034057600080fd5b5061020761034f366004612d99565b610a27565b6102b7610362366004612e24565b610ab5565b34801561037357600080fd5b5060355460405160ff9091168152602001610211565b6102b7610397366004612df8565b610acb565b3480156103a857600080fd5b506102076103b7366004612d69565b610ae6565b3480156103c857600080fd5b506102076103d7366004612d69565b610b77565b6102b76103ea366004612e5e565b610bcc565b3480156103fb57600080fd5b5061028c61040a366004612d69565b610c66565b34801561041b57600080fd5b5061020761042a366004612ead565b610d02565b34801561043b57600080fd5b50603a5461028c906001600160a01b031681565b6102b761045d366004612dc3565b610d8a565b34801561046e57600080fd5b5061025f610e30565b34801561048357600080fd5b50610207610492366004612d69565b610e3f565b3480156104a357600080fd5b506102076104b2366004612d69565b610edc565b3480156104c357600080fd5b506102b76104d2366004612ec8565b610f24565b6102b76104e5366004612f6e565b610f33565b3480156104f657600080fd5b5061025f610505366004612d69565b610f65565b34801561051657600080fd5b50610207610525366004613019565b611004565b34801561053657600080fd5b5061023a610545366004613045565b6001600160a01b039283166000908152609760209081526040808320948352938152838220929094168152925290205460ff1690565b34801561058757600080fd5b5061025f611038565b34801561059c57600080fd5b5061023a6105ab366004613081565b6001600160a01b0391821660009081526039602090815260408083209390941682526002909201909152205460ff1690565b3480156105e957600080fd5b50606654610207565b60006105fd83610b77565b821061066e5760405162461bcd60e51b815260206004820152603560248201527f45524333353235536c6f74456e756d657261626c653a20736c6f7420746f6b656044820152746e20696e646578206f7574206f6620626f756e647360581b60648201526084015b60405180910390fd5b600083815260676020526040902054606680549091908110610692576106926130ab565b906000526020600020906002020160010182815481106106b4576106b46130ab565b906000526020600020015490505b92915050565b60006001600160e01b031982166316d117cb60e31b14806106c257506106c282611132565b6060603380546106fc906130c1565b80601f0160208091040260200160405190810160405280929190818152602001828054610728906130c1565b80156107755780601f1061074a57610100808354040283529160200191610775565b820191906000526020600020905b81548152906001019060200180831161075857829003601f168201915b5050505050905090565b600061078a82611157565b6000828152603860205260409020546037805490919081106107ae576107ae6130ab565b60009182526020909120600460069092020101546001600160a01b031692915050565b60006107dc82610c66565b905060006107e9836109df565b9050816001600160a01b0316846001600160a01b03160361081c5760405162461bcd60e51b8152600401610665906130fb565b336001600160a01b0383161480610838575061083882336105ab565b806108495750610849828233610545565b6108655760405162461bcd60e51b81526004016106659061313d565b61086f84846111ab565b50505050565b6060600061088e60408051602081019091526000815290565b603a549091506001600160a01b03166108ee5760008151116108bf5760405180602001604052806000815250610960565b806108c984611242565b6040516020016108da92919061319a565b604051602081830303815290604052610960565b603a54604051633601bfc560e11b8152600481018590526001600160a01b0390911690636c037f8a906024015b600060405180830381865afa158015610938573d6000803e3d6000fd5b505050506040513d6000823e601f3d908101601f1916820160405261096091908101906131da565b9392505050565b60006109743385846112d5565b600061097f85611365565b9050610996848261098f886109df565b600061136f565b6109a18582856114b4565b949350505050565b6109b3338261177e565b6109cf5760405162461bcd60e51b815260040161066590613248565b6109da838383611806565b505050565b60006109ea82611157565b600082815260386020526040902054603780549091908110610a0e57610a0e6130ab565b9060005260206000209060060201600101549050919050565b6000610a3283610d02565b8210610a8b5760405162461bcd60e51b815260206004820152602260248201527f455243333532353a206f776e657220696e646578206f7574206f6620626f756e604482015261647360f01b6064820152608401610665565b6001600160a01b03831660009081526039602052604090208054839081106106b4576106b46130ab565b610ac03384836112d5565b6109da8383836114b4565b6109da83838360405180602001604052806000815250610f33565b6000610af160375490565b8210610b4b5760405162461bcd60e51b815260206004820152602360248201527f455243333532353a20676c6f62616c20696e646578206f7574206f6620626f756044820152626e647360e81b6064820152608401610665565b60378281548110610b5e57610b5e6130ab565b9060005260206000209060060201600001549050919050565b6000610b828261197e565b610b8e57506000919050565b600082815260676020526040902054606680549091908110610bb257610bb26130ab565b600091825260209091206001600290920201015492915050565b336001600160a01b0385161480610be85750610be884336105ab565b610c5a5760405162461bcd60e51b815260206004820152603f60248201527f45524333353235536c6f74417070726f7661626c653a2063616c6c657220697360448201527f206e6f74206f776e6572206e6f7220617070726f76656420666f7220616c6c006064820152608401610665565b61086f848484846119ca565b6000610c7182611157565b600082815260386020526040902054603780549091908110610c9557610c956130ab565b60009182526020909120600360069092020101546001600160a01b0316905080610cfd5760405162461bcd60e51b8152602060048201526019602482015278115490cccd4c8d4e881a5b9d985b1a59081d1bdad95b881251603a1b6044820152606401610665565b919050565b60006001600160a01b038216610d6e5760405162461bcd60e51b815260206004820152602b60248201527f455243333532353a2062616c616e636520717565727920666f7220746865207a60448201526a65726f206164647265737360a81b6064820152608401610665565b506001600160a01b031660009081526039602052604090205490565b6000610d9584610c66565b90506000610da2856109df565b9050816001600160a01b0316846001600160a01b031603610dd55760405162461bcd60e51b8152600401610665906130fb565b336001600160a01b0383161480610df15750610df182336105ab565b80610e025750610e02828233610545565b610e1e5760405162461bcd60e51b81526004016106659061313d565b610e29858585611ab4565b5050505050565b6060603480546106fc906130c1565b6000610e4a60665490565b8210610eb05760405162461bcd60e51b815260206004820152602f60248201527f45524333353235536c6f74456e756d657261626c653a20736c6f7420696e646560448201526e78206f7574206f6620626f756e647360881b6064820152608401610665565b60668281548110610ec357610ec36130ab565b9060005260206000209060020201600001549050919050565b6000610ee782611157565b600082815260386020526040902054603780549091908110610f0b57610f0b6130ab565b9060005260206000209060060201600201549050919050565b610f2f338383611bec565b5050565b610f3d338361177e565b610f595760405162461bcd60e51b815260040161066590613248565b61086f84848484611cb6565b6060610f7082611157565b6000610f8760408051602081019091526000815290565b603a549091506001600160a01b0316610fd3576000815111610fb85760405180602001604052806000815250610960565b80610fc284611242565b6040516020016108da92919061329a565b603a546040516344a5a61760e11b8152600481018590526001600160a01b039091169063894b4c2e9060240161091b565b600061100f83611157565b5060009182526036602090815260408084206001600160a01b0393909316845291905290205490565b6060600061105160408051602081019091526000815290565b603a549091506001600160a01b03166110b1576000815111611082576040518060200160405280600081525061112c565b8061108c30611d29565b60405160200161109d9291906132c9565b60405160208183030381529060405261112c565b603a60009054906101000a90046001600160a01b03166001600160a01b031663725fa09c6040518163ffffffff1660e01b8152600401600060405180830381865afa158015611104573d6000803e3d6000fd5b505050506040513d6000823e601f3d908101601f1916820160405261112c91908101906131da565b91505090565b60006001600160e01b03198216631dba0dcf60e11b14806106c257506106c282611d3f565b61116081611de1565b6111a85760405162461bcd60e51b8152602060048201526019602482015278115490cccd4c8d4e881a5b9d985b1a59081d1bdad95b881251603a1b6044820152606401610665565b50565b6000818152603860205260409020546037805484929081106111cf576111cf6130ab565b6000918252602090912060069091020160040180546001600160a01b0319166001600160a01b039283161790558190831661120982610c66565b6001600160a01b03167f8c5be1e5ebec7d5bd14f71427d1e84f3dd0314c0f7b2291e5b200ac8c7c3b92560405160405180910390a45050565b6060600061124f83611e2d565b600101905060008167ffffffffffffffff81111561126f5761126f612eff565b6040519080825280601f01601f191660200182016040528015611299576020820181803683370190505b5090508181016020015b600019016f181899199a1a9b1b9c1cb0b131b232b360811b600a86061a8153600a85049450846112a357509392505050565b60006112e18385611004565b90506112ed848461177e565b1580156112fc57506000198114155b1561086f57818110156113515760405162461bcd60e51b815260206004820152601f60248201527f455243333532353a20696e73756666696369656e7420616c6c6f77616e6365006044820152606401610665565b61086f83856113608585613323565b611ab4565b60006106c2611f05565b6001600160a01b0384166113cf5760405162461bcd60e51b815260206004820152602160248201527f455243333532353a206d696e7420746f20746865207a65726f206164647265736044820152607360f81b6064820152608401610665565b826000036114295760405162461bcd60e51b815260206004820152602160248201527f455243333532353a2063616e6e6f74206d696e74207a65726f20746f6b656e496044820152601960fa1b6064820152608401610665565b61143283611de1565b1561147f5760405162461bcd60e51b815260206004820152601d60248201527f455243333532353a20746f6b656e20616c7265616479206d696e7465640000006044820152606401610665565b61148f6000856000868686611f20565b61149a848484611f5d565b6114a48382612023565b61086f60008560008686866120a8565b6114bd83611de1565b6115195760405162461bcd60e51b815260206004820152602760248201527f455243333532353a207472616e736665722066726f6d20696e76616c696420746044820152661bdad95b88125160ca1b6064820152608401610665565b61152282611de1565b61157c5760405162461bcd60e51b815260206004820152602560248201527f455243333532353a207472616e7366657220746f20696e76616c696420746f6b604482015264195b88125160da1b6064820152608401610665565b6000838152603860205260408120546037805490919081106115a0576115a06130ab565b90600052602060002090600602019050600060376038600086815260200190815260200160002054815481106115d8576115d86130ab565b90600052602060002090600602019050828260020154101561164f5760405162461bcd60e51b815260206004820152602a60248201527f455243333532353a20696e73756666696369656e742062616c616e636520666f60448201526939103a3930b739b332b960b11b6064820152608401610665565b80600101548260010154146116bd5760405162461bcd60e51b815260206004820152602e60248201527f455243333532353a207472616e7366657220746f20746f6b656e20776974682060448201526d191a5999995c995b9d081cdb1bdd60921b6064820152608401610665565b6003808301549082015460018401546116e8926001600160a01b039081169216908890889088611f20565b828260020160008282546116fc9190613323565b9250508190555082816002016000828254611717919061333a565b9091555050604051838152849086907f0b2aac84f3ec956911fd78eae5311062972ff949f38412e8da39069d9f068cc69060200160405180910390a3600380830154908201546001840154610e29926001600160a01b0390811692169088908890886120a8565b600061178982611157565b600061179483610c66565b905060006117a1846109df565b9050816001600160a01b0316856001600160a01b031614806117dc5750846001600160a01b03166117d18561077f565b6001600160a01b0316145b806117ec57506117ec82866105ab565b806117fd57506117fd828287610545565b95945050505050565b826001600160a01b031661181982610c66565b6001600160a01b03161461187b5760405162461bcd60e51b8152602060048201526024808201527f455243333532353a207472616e736665722066726f6d20696e76616c6964206f6044820152633bb732b960e11b6064820152608401610665565b6001600160a01b0382166118df5760405162461bcd60e51b815260206004820152602560248201527f455243333532353a207472616e7366657220746f20746865207a65726f206164604482015264647265737360d81b6064820152608401610665565b60006118ea826109df565b905060006118f783610edc565b9050611907858585868686611f20565b6119126000846111ab565b61191b83612119565b61192585846121b5565b61192f84846122d6565b82846001600160a01b0316866001600160a01b03167fddf252ad1be2c89b69c2b068fc378daa952ba7f163c4a11628f55a4df523b3ef60405160405180910390a4610e298585858686866120a8565b606654600090158015906106c257506000828152606760205260409020546066805484929081106119b1576119b16130ab565b9060005260206000209060020201600001541492915050565b816001600160a01b0316846001600160a01b031603611a3b5760405162461bcd60e51b815260206004820152602760248201527f45524333353235536c6f74417070726f7661626c653a20617070726f76652074604482015266379037bbb732b960c91b6064820152608401610665565b6001600160a01b038481166000818152609760209081526040808320888452825280832094871680845294825291829020805460ff191686151590811790915591519182528692917f7bdf71e6625aa496095bf08b60c677cf81c963f402cf258981e3bd7507d3480c910160405180910390a450505050565b6001600160a01b038216611b1d5760405162461bcd60e51b815260206004820152602a60248201527f455243333532353a20617070726f76652076616c756520746f20746865207a65604482015269726f206164647265737360b01b6064820152608401610665565b611b27828461235f565b611b8d57600083815260386020526040902054603780549091908110611b4f57611b4f6130ab565b60009182526020808320600692909202909101600501805460018101825590835291200180546001600160a01b0319166001600160a01b0384161790555b60008381526036602090815260408083206001600160a01b038616808552908352928190208490555183815285917f621b050de0ad08b51d19b48b3e6df75348c4de6bdd93e81b252ca62e28265b1b91015b60405180910390a3505050565b816001600160a01b0316836001600160a01b031603611c4d5760405162461bcd60e51b815260206004820152601a60248201527f455243333532353a20617070726f766520746f2063616c6c65720000000000006044820152606401610665565b6001600160a01b0383811660008181526039602090815260408083209487168084526002909501825291829020805460ff191686151590811790915591519182527f17307eab39ab6107e8899845ad3d59bd9653f200f220920489ca2b5937696c319101611bdf565b611cc1848484611806565b611ccd84848484612432565b61086f5760405162461bcd60e51b815260206004820152602760248201527f455243333532353a207472616e7366657220746f206e6f6e204552433732315260448201526632b1b2b4bb32b960c91b6064820152608401610665565b60606106c26001600160a01b03831660146125ea565b60006001600160e01b031982166301ffc9a760e01b1480611d7057506001600160e01b03198216630354d60560e61b145b80611d8b57506001600160e01b031982166380ac58cd60e01b145b80611da657506001600160e01b031982166370b0048160e11b145b80611dc157506001600160e01b0319821663780e9d6360e01b145b806106c257506001600160e01b03198216635b5e139f60e01b1492915050565b603754600090158015906106c25750600082815260386020526040902054603780548492908110611e1457611e146130ab565b9060005260206000209060060201600001541492915050565b60008072184f03e93ff9f4daa797ed6e38ed64bf6a1f0160401b8310611e6c5772184f03e93ff9f4daa797ed6e38ed64bf6a1f0160401b830492506040015b6d04ee2d6d415b85acef81000000008310611e98576d04ee2d6d415b85acef8100000000830492506020015b662386f26fc100008310611eb657662386f26fc10000830492506010015b6305f5e1008310611ece576305f5e100830492506008015b6127108310611ee257612710830492506004015b60648310611ef4576064830492506002015b600a83106106c25760010192915050565b6000611f1060375490565b611f1b90600161333a565b905090565b6001600160a01b038616158015611f35575083155b8015611f475750611f458261197e565b155b15611f5557611f5582612786565b505050505050565b6040805160c081018252838152602080820184905260008284018190526001600160a01b038716606084015260808301819052835181815291820190935260a08201529050611fab8161284d565b611fb584846122d6565b60405183906001600160a01b038616906000907fddf252ad1be2c89b69c2b068fc378daa952ba7f163c4a11628f55a4df523b3ef908290a4816000847fe4f48c240d3b994948aa54f3e2f5fca59263dfe1d52b6e4cf39a5d249b5ccb6560405160405180910390a450505050565b600082815260386020526040902054603780548392908110612047576120476130ab565b90600052602060002090600602016002016000828254612067919061333a565b909155505060405181815282906000907f0b2aac84f3ec956911fd78eae5311062972ff949f38412e8da39069d9f068cc69060200160405180910390a35050565b6001600160a01b0386161580156120bd575083155b80156120d057506120ce828461299f565b155b156120e4576120df8284612a2a565b611f55565b6001600160a01b0385161580156120f9575082155b801561210a575061210a828561299f565b156120df576120df8285612a8b565b60008181526038602052604081205460378054909190811061213d5761213d6130ab565b600091825260208220600560069092020190810154909250905b8181101561086f576000836005018281548110612176576121766130ab565b60009182526020808320909101548783526036825260408084206001600160a01b039092168452915281205550806121ad81613352565b915050612157565b6000818152603860205260408120546037805490919081106121d9576121d96130ab565b6000918252602080832060069290920290910160030180546001600160a01b0319166001600160a01b039485161790559184168152603990915260408120805490919061222890600190613323565b90506000826000018281548110612241576122416130ab565b9060005260206000200154905060008360010160008681526020019081526020016000205490508184600001828154811061227e5761227e6130ab565b600091825260208083209091019290925583815260018601909152604080822083905586825281205583548490806122b8576122b861336b565b60019003818190600052602060002001600090559055505050505050565b6000818152603860205260409020546037805484929081106122fa576122fa6130ab565b6000918252602080832060069290920290910160030180546001600160a01b0319166001600160a01b03948516179055939091168152603980845260408083208054858552600182810188529285208190559286529082018155825292902090910155565b600081815260386020526040812054603780548392908110612383576123836130ab565b6000918252602082206005600690920201015491505b8181101561242757600084815260386020526040902054603780546001600160a01b038816929081106123ce576123ce6130ab565b906000526020600020906006020160050182815481106123f0576123f06130ab565b6000918252602090912001546001600160a01b031603612415576001925050506106c2565b8061241f81613352565b915050612399565b506000949350505050565b60006001600160a01b0384163b151580156124b757506040516301ffc9a760e01b8152630a85bd0160e11b60048201526001600160a01b038516906301ffc9a790602401602060405180830381865afa158015612493573d6000803e3d6000fd5b505050506040513d601f19601f820116820180604052508101906124b79190613381565b156125df57604051630a85bd0160e11b81526001600160a01b0385169063150b7a02906124ee90339089908890889060040161339e565b6020604051808303816000875af1925050508015612529575060408051601f3d908101601f19168201909252612526918101906133db565b60015b6125c5573d808015612557576040519150601f19603f3d011682016040523d82523d6000602084013e61255c565b606091505b5080516000036125bd5760405162461bcd60e51b815260206004820152602660248201527f4552433732313a207472616e7366657220746f206e6f6e20455243373231526560448201526531b2b4bb32b960d11b6064820152608401610665565b805181602001fd5b6001600160e01b031916630a85bd0160e11b1490506109a1565b506001949350505050565b606060006125f98360026133f8565b61260490600261333a565b67ffffffffffffffff81111561261c5761261c612eff565b6040519080825280601f01601f191660200182016040528015612646576020820181803683370190505b509050600360fc1b81600081518110612661576126616130ab565b60200101906001600160f81b031916908160001a905350600f60fb1b81600181518110612690576126906130ab565b60200101906001600160f81b031916908160001a90535060006126b48460026133f8565b6126bf90600161333a565b90505b6001811115612737576f181899199a1a9b1b9c1cb0b131b232b360811b85600f16601081106126f3576126f36130ab565b1a60f81b828281518110612709576127096130ab565b60200101906001600160f81b031916908160001a90535060049490941c9361273081613417565b90506126c2565b5083156109605760405162461bcd60e51b815260206004820181905260248201527f537472696e67733a20686578206c656e67746820696e73756666696369656e746044820152606401610665565b61278f8161197e565b156127ef5760405162461bcd60e51b815260206004820152602a60248201527f45524333353235536c6f74456e756d657261626c653a20736c6f7420616c72656044820152696164792065786973747360b01b6064820152608401610665565b60408051808201825282815281516000808252602082810190945292820152905061281981612b6f565b816000807fe4f48c240d3b994948aa54f3e2f5fca59263dfe1d52b6e4cf39a5d249b5ccb6560405160405180910390a45050565b603780548251600090815260386020908152604080832084905560018401855593909152835160069092027f42a7b7dd785cd69714a189dffb3fd7d7174edc9ece837694ce50f7078f7c31ae8101928355818501517f42a7b7dd785cd69714a189dffb3fd7d7174edc9ece837694ce50f7078f7c31af820155928401517f42a7b7dd785cd69714a189dffb3fd7d7174edc9ece837694ce50f7078f7c31b084015560608401517f42a7b7dd785cd69714a189dffb3fd7d7174edc9ece837694ce50f7078f7c31b1840180546001600160a01b039283166001600160a01b03199182161790915560808601517f42a7b7dd785cd69714a189dffb3fd7d7174edc9ece837694ce50f7078f7c31b28601805491909316911617905560a08401518051859461086f937f42a7b7dd785cd69714a189dffb3fd7d7174edc9ece837694ce50f7078f7c31b3909101920190612bf4565b6000828152606760205260408120546066805483929081106129c3576129c36130ab565b90600052602060002090600202019050600081600101805490501180156109a1575060008481526065602090815260408083208684529091529020546001820180548592908110612a1657612a166130ab565b906000526020600020015414949350505050565b600082815260676020526040812054606680549091908110612a4e57612a4e6130ab565b6000918252602080832060016002909302018201805496845260658252604080852087865283528420879055918601825590825290209092015550565b600082815260676020526040812054606680549091908110612aaf57612aaf6130ab565b600091825260208220600160029092020181810154909350612ad19190613323565b90506000826001018281548110612aea57612aea6130ab565b6000918252602080832090910154878352606582526040808420888552909252912054600185018054929350909183919083908110612b2b57612b2b6130ab565b60009182526020808320919091019290925587815260658252604080822085835290925281812083905586815290812055600184018054806122b8576122b861336b565b60668054825160009081526067602090815260408220839055600183018455929052825160029091027f46501879b8ca8525e8c2fd519e2fbfcfa2ebea26501294aa02cbfcfb12e943548101918255828401518051859461086f937f46501879b8ca8525e8c2fd519e2fbfcfa2ebea26501294aa02cbfcfb12e9435501920190612c59565b828054828255906000526020600020908101928215612c49579160200282015b82811115612c4957825182546001600160a01b0319166001600160a01b03909116178255602090920191600190910190612c14565b50612c55929150612c94565b5090565b828054828255906000526020600020908101928215612c49579160200282015b82811115612c49578251825591602001919060010190612c79565b5b80821115612c555760008155600101612c95565b60008060408385031215612cbc57600080fd5b50508035926020909101359150565b6001600160e01b0319811681146111a857600080fd5b600060208284031215612cf357600080fd5b813561096081612ccb565b60005b83811015612d19578181015183820152602001612d01565b8381111561086f5750506000910152565b60008151808452612d42816020860160208601612cfe565b601f01601f19169290920160200192915050565b6020815260006109606020830184612d2a565b600060208284031215612d7b57600080fd5b5035919050565b80356001600160a01b0381168114610cfd57600080fd5b60008060408385031215612dac57600080fd5b612db583612d82565b946020939093013593505050565b600080600060608486031215612dd857600080fd5b83359250612de860208501612d82565b9150604084013590509250925092565b600080600060608486031215612e0d57600080fd5b612e1684612d82565b9250612de860208501612d82565b600080600060608486031215612e3957600080fd5b505081359360208301359350604090920135919050565b80151581146111a857600080fd5b60008060008060808587031215612e7457600080fd5b612e7d85612d82565b935060208501359250612e9260408601612d82565b91506060850135612ea281612e50565b939692955090935050565b600060208284031215612ebf57600080fd5b61096082612d82565b60008060408385031215612edb57600080fd5b612ee483612d82565b91506020830135612ef481612e50565b809150509250929050565b634e487b7160e01b600052604160045260246000fd5b604051601f8201601f1916810167ffffffffffffffff81118282101715612f3e57612f3e612eff565b604052919050565b600067ffffffffffffffff821115612f6057612f60612eff565b50601f01601f191660200190565b60008060008060808587031215612f8457600080fd5b612f8d85612d82565b9350612f9b60208601612d82565b925060408501359150606085013567ffffffffffffffff811115612fbe57600080fd5b8501601f81018713612fcf57600080fd5b8035612fe2612fdd82612f46565b612f15565b818152886020838501011115612ff757600080fd5b8160208401602083013760006020838301015280935050505092959194509250565b6000806040838503121561302c57600080fd5b8235915061303c60208401612d82565b90509250929050565b60008060006060848603121561305a57600080fd5b61306384612d82565b92506020840135915061307860408501612d82565b90509250925092565b6000806040838503121561309457600080fd5b61309d83612d82565b915061303c60208401612d82565b634e487b7160e01b600052603260045260246000fd5b600181811c908216806130d557607f821691505b6020821081036130f557634e487b7160e01b600052602260045260246000fd5b50919050565b60208082526022908201527f455243333532353a20617070726f76616c20746f2063757272656e74206f776e60408201526132b960f11b606082015260800190565b6020808252603e908201527f455243333532353a20617070726f76652063616c6c6572206973206e6f74206f60408201527f776e6572206e6f7220617070726f76656420666f7220616c6c2f736c6f740000606082015260800190565b600083516131ac818460208801612cfe565b64736c6f742f60d81b90830190815283516131ce816005840160208801612cfe565b01600501949350505050565b6000602082840312156131ec57600080fd5b815167ffffffffffffffff81111561320357600080fd5b8201601f8101841361321457600080fd5b8051613222612fdd82612f46565b81815285602083850101111561323757600080fd5b6117fd826020830160208601612cfe565b60208082526032908201527f455243333532353a207472616e736665722063616c6c6572206973206e6f74206040820152711bdddb995c881b9bdc88185c1c1c9bdd995960721b606082015260800190565b600083516132ac818460208801612cfe565b8351908301906132c0818360208801612cfe565b01949350505050565b600083516132db818460208801612cfe565b68636f6e74726163742f60b81b9083019081528351613301816009840160208801612cfe565b01600901949350505050565b634e487b7160e01b600052601160045260246000fd5b6000828210156133355761333561330d565b500390565b6000821982111561334d5761334d61330d565b500190565b6000600182016133645761336461330d565b5060010190565b634e487b7160e01b600052603160045260246000fd5b60006020828403121561339357600080fd5b815161096081612e50565b6001600160a01b03858116825284166020820152604081018390526080606082018190526000906133d190830184612d2a565b9695505050505050565b6000602082840312156133ed57600080fd5b815161096081612ccb565b60008160001904831182151516156134125761341261330d565b500290565b6000816134265761342661330d565b50600019019056fea264697066735822122010159febf63d97f4b567759b054a0e2293f8fdbd57aeaced08e2e6e1c3e8190a64736f6c634300080f0033",
  "linkReferences": {},
  "deployedLinkReferences": {}
}