{
  "_format": "hh-sol-artifact-1",
  "contractName": "ERC721ReceiverMock",
  "sourceName": "contracts/solvprotocol/erc-3525/mocks/ERC721ReceiverMock.sol",
  "abi": [
    {
      "inputs": [
        {
          "internalType": "bytes4",
          "name": "retval",
          "type": "bytes4"
        },
        {
          "internalType": "enum ERC721ReceiverMock.Error",
          "name": "error",
          "type": "uint8"
        }
      ],
      "stateMutability": "nonpayable",
      "type": "constructor"
    },
    {
      "anonymous": false,
      "inputs": [
        {
          "indexed": false,
          "internalType": "address",
          "name": "operator",
          "type": "address"
        },
        {
          "indexed": false,
          "internalType": "address",
          "name": "from",
          "type": "address"
        },
        {
          "indexed": false,
          "internalType": "uint256",
          "name": "tokenId",
          "type": "uint256"
        },
        {
          "indexed": false,
          "internalType": "bytes",
          "name": "data",
          "type": "bytes"
        },
        {
          "indexed": false,
          "internalType": "uint256",
          "name": "gas",
          "type": "uint256"
        }
      ],
      "name": "Received",
      "type": "event"
    },
    {
      "inputs": [
        {
          "internalType": "address",
          "name": "operator",
          "type": "address"
        },
        {
          "internalType": "address",
          "name": "from",
          "type": "address"
        },
        {
          "internalType": "uint256",
          "name": "tokenId",
          "type": "uint256"
        },
        {
          "internalType": "bytes",
          "name": "data",
          "type": "bytes"
        }
      ],
      "name": "onERC721Received",
      "outputs": [
        {
          "internalType": "bytes4",
          "name": "",
          "type": "bytes4"
        }
      ],
      "stateMutability": "nonpayable",
      "type": "function"
    },
    {
      "inputs": [
        {
          "internalType": "bytes4",
          "name": "interfaceId",
          "type": "bytes4"
        }
      ],
      "name": "supportsInterface",
      "outputs": [
        {
          "internalType": "bool",
          "name": "",
          "type": "bool"
        }
      ],
      "stateMutability": "view",
      "type": "function"
    }
  ],
  "bytecode": "0x60c060405234801561001057600080fd5b50604051610a76380380610a768339818101604052810190610032919061012d565b817bffffffffffffffffffffffffffffffffffffffffffffffffffffffff19166080817bffffffffffffffffffffffffffffffffffffffffffffffffffffffff19168152505080600381111561008b5761008a61016d565b5b60a08160038111156100a05761009f61016d565b5b81525050505061019c565b600080fd5b60007fffffffff0000000000000000000000000000000000000000000000000000000082169050919050565b6100e5816100b0565b81146100f057600080fd5b50565b600081519050610102816100dc565b92915050565b6004811061011557600080fd5b50565b60008151905061012781610108565b92915050565b60008060408385031215610144576101436100ab565b5b6000610152858286016100f3565b925050602061016385828601610118565b9150509250929050565b7f4e487b7100000000000000000000000000000000000000000000000000000000600052602160045260246000fd5b60805160a0516108a76101cf600039600081816101850152818161020c015261025c015260006102e601526108a76000f3fe608060405234801561001057600080fd5b50600436106100365760003560e01c806301ffc9a71461003b578063150b7a021461006b575b600080fd5b6100556004803603810190610050919061037b565b61009b565b60405161006291906103c3565b60405180910390f35b610085600480360381019061008091906105b8565b61016d565b604051610092919061064a565b60405180910390f35b60007f01ffc9a7000000000000000000000000000000000000000000000000000000007bffffffffffffffffffffffffffffffffffffffffffffffffffffffff1916827bffffffffffffffffffffffffffffffffffffffffffffffffffffffff1916148061016657507f150b7a02000000000000000000000000000000000000000000000000000000007bffffffffffffffffffffffffffffffffffffffffffffffffffffffff1916827bffffffffffffffffffffffffffffffffffffffffffffffffffffffff1916145b9050919050565b60006001600381111561018357610182610665565b5b7f000000000000000000000000000000000000000000000000000000000000000060038111156101b6576101b5610665565b5b036101f6576040517f08c379a00000000000000000000000000000000000000000000000000000000081526004016101ed906106f1565b60405180910390fd5b6002600381111561020a57610209610665565b5b7f0000000000000000000000000000000000000000000000000000000000000000600381111561023d5761023c610665565b5b0361024757600080fd5b60038081111561025a57610259610665565b5b7f0000000000000000000000000000000000000000000000000000000000000000600381111561028d5761028c610665565b5b036102a55760008060006102a19190610740565b9050505b7f28fa6e16458f9c24aa59ddd4085264573006dbe30304837873c7deafc702b038858585855a6040516102dc959493929190610817565b60405180910390a17f00000000000000000000000000000000000000000000000000000000000000009050949350505050565b6000604051905090565b600080fd5b600080fd5b60007fffffffff0000000000000000000000000000000000000000000000000000000082169050919050565b61035881610323565b811461036357600080fd5b50565b6000813590506103758161034f565b92915050565b60006020828403121561039157610390610319565b5b600061039f84828501610366565b91505092915050565b60008115159050919050565b6103bd816103a8565b82525050565b60006020820190506103d860008301846103b4565b92915050565b600073ffffffffffffffffffffffffffffffffffffffff82169050919050565b6000610409826103de565b9050919050565b610419816103fe565b811461042457600080fd5b50565b60008135905061043681610410565b92915050565b6000819050919050565b61044f8161043c565b811461045a57600080fd5b50565b60008135905061046c81610446565b92915050565b600080fd5b600080fd5b6000601f19601f8301169050919050565b7f4e487b7100000000000000000000000000000000000000000000000000000000600052604160045260246000fd5b6104c58261047c565b810181811067ffffffffffffffff821117156104e4576104e361048d565b5b80604052505050565b60006104f761030f565b905061050382826104bc565b919050565b600067ffffffffffffffff8211156105235761052261048d565b5b61052c8261047c565b9050602081019050919050565b82818337600083830152505050565b600061055b61055684610508565b6104ed565b90508281526020810184848401111561057757610576610477565b5b610582848285610539565b509392505050565b600082601f83011261059f5761059e610472565b5b81356105af848260208601610548565b91505092915050565b600080600080608085870312156105d2576105d1610319565b5b60006105e087828801610427565b94505060206105f187828801610427565b93505060406106028782880161045d565b925050606085013567ffffffffffffffff8111156106235761062261031e565b5b61062f8782880161058a565b91505092959194509250565b61064481610323565b82525050565b600060208201905061065f600083018461063b565b92915050565b7f4e487b7100000000000000000000000000000000000000000000000000000000600052602160045260246000fd5b600082825260208201905092915050565b7f45524337323152656365697665724d6f636b3a20726576657274696e67000000600082015250565b60006106db601d83610694565b91506106e6826106a5565b602082019050919050565b6000602082019050818103600083015261070a816106ce565b9050919050565b7f4e487b7100000000000000000000000000000000000000000000000000000000600052601260045260246000fd5b600061074b8261043c565b91506107568361043c565b92508261076657610765610711565b5b828204905092915050565b61077a816103fe565b82525050565b6107898161043c565b82525050565b600081519050919050565b600082825260208201905092915050565b60005b838110156107c95780820151818401526020810190506107ae565b838111156107d8576000848401525b50505050565b60006107e98261078f565b6107f3818561079a565b93506108038185602086016107ab565b61080c8161047c565b840191505092915050565b600060a08201905061082c6000830188610771565b6108396020830187610771565b6108466040830186610780565b818103606083015261085881856107de565b90506108676080830184610780565b969550505050505056fea2646970667358221220eb550b3bbfb2d933f7516aa80d4f9d0cf3150eae8e42a53f8839f5fa8439fecb64736f6c634300080f0033",
  "linkReferences": {},
  "deployedLinkReferences": {}
}