{
  "_format": "hh-sol-artifact-1",
  "contractName": "ERC3525Upgradeable",
  "sourceName": "contracts/solvprotocol/erc-3525/ERC3525Upgradeable.sol",
  "abi": [
    {
      "anonymous": false,
      "inputs": [
        {
          "indexed": true,
          "internalType": "address",
          "name": "_owner",
          "type": "address"
        },
        {
          "indexed": true,
          "internalType": "address",
          "name": "_approved",
          "type": "address"
        },
        {
          "indexed": true,
          "internalType": "uint256",
          "name": "_tokenId",
          "type": "uint256"
        }
      ],
      "name": "Approval",
      "type": "event"
    },
    {
      "anonymous": false,
      "inputs": [
        {
          "indexed": true,
          "internalType": "address",
          "name": "_owner",
          "type": "address"
        },
        {
          "indexed": true,
          "internalType": "address",
          "name": "_operator",
          "type": "address"
        },
        {
          "indexed": false,
          "internalType": "bool",
          "name": "_approved",
          "type": "bool"
        }
      ],
      "name": "ApprovalForAll",
      "type": "event"
    },
    {
      "anonymous": false,
      "inputs": [
        {
          "indexed": true,
          "internalType": "uint256",
          "name": "_tokenId",
          "type": "uint256"
        },
        {
          "indexed": true,
          "internalType": "address",
          "name": "_operator",
          "type": "address"
        },
        {
          "indexed": false,
          "internalType": "uint256",
          "name": "_value",
          "type": "uint256"
        }
      ],
      "name": "ApprovalValue",
      "type": "event"
    },
    {
      "anonymous": false,
      "inputs": [
        {
          "indexed": false,
          "internalType": "uint8",
          "name": "version",
          "type": "uint8"
        }
      ],
      "name": "Initialized",
      "type": "event"
    },
    {
      "anonymous": false,
      "inputs": [
        {
          "indexed": true,
          "internalType": "address",
          "name": "metadataDescriptor",
          "type": "address"
        }
      ],
      "name": "SetMetadataDescriptor",
      "type": "event"
    },
    {
      "anonymous": false,
      "inputs": [
        {
          "indexed": true,
          "internalType": "uint256",
          "name": "_tokenId",
          "type": "uint256"
        },
        {
          "indexed": true,
          "internalType": "uint256",
          "name": "_oldSlot",
          "type": "uint256"
        },
        {
          "indexed": true,
          "internalType": "uint256",
          "name": "_newSlot",
          "type": "uint256"
        }
      ],
      "name": "SlotChanged",
      "type": "event"
    },
    {
      "anonymous": false,
      "inputs": [
        {
          "indexed": true,
          "internalType": "address",
          "name": "_from",
          "type": "address"
        },
        {
          "indexed": true,
          "internalType": "address",
          "name": "_to",
          "type": "address"
        },
        {
          "indexed": true,
          "internalType": "uint256",
          "name": "_tokenId",
          "type": "uint256"
        }
      ],
      "name": "Transfer",
      "type": "event"
    },
    {
      "anonymous": false,
      "inputs": [
        {
          "indexed": true,
          "internalType": "uint256",
          "name": "_fromTokenId",
          "type": "uint256"
        },
        {
          "indexed": true,
          "internalType": "uint256",
          "name": "_toTokenId",
          "type": "uint256"
        },
        {
          "indexed": false,
          "internalType": "uint256",
          "name": "_value",
          "type": "uint256"
        }
      ],
      "name": "TransferValue",
      "type": "event"
    },
    {
      "inputs": [
        {
          "internalType": "uint256",
          "name": "tokenId_",
          "type": "uint256"
        },
        {
          "internalType": "address",
          "name": "operator_",
          "type": "address"
        }
      ],
      "name": "allowance",
      "outputs": [
        {
          "internalType": "uint256",
          "name": "",
          "type": "uint256"
        }
      ],
      "stateMutability": "view",
      "type": "function"
    },
    {
      "inputs": [
        {
          "internalType": "address",
          "name": "to_",
          "type": "address"
        },
        {
          "internalType": "uint256",
          "name": "tokenId_",
          "type": "uint256"
        }
      ],
      "name": "approve",
      "outputs": [],
      "stateMutability": "payable",
      "type": "function"
    },
    {
      "inputs": [
        {
          "internalType": "uint256",
          "name": "tokenId_",
          "type": "uint256"
        },
        {
          "internalType": "address",
          "name": "to_",
          "type": "address"
        },
        {
          "internalType": "uint256",
          "name": "value_",
          "type": "uint256"
        }
      ],
      "name": "approve",
      "outputs": [],
      "stateMutability": "payable",
      "type": "function"
    },
    {
      "inputs": [
        {
          "internalType": "address",
          "name": "owner_",
          "type": "address"
        }
      ],
      "name": "balanceOf",
      "outputs": [
        {
          "internalType": "uint256",
          "name": "balance",
          "type": "uint256"
        }
      ],
      "stateMutability": "view",
      "type": "function"
    },
    {
      "inputs": [
        {
          "internalType": "uint256",
          "name": "tokenId_",
          "type": "uint256"
        }
      ],
      "name": "balanceOf",
      "outputs": [
        {
          "internalType": "uint256",
          "name": "",
          "type": "uint256"
        }
      ],
      "stateMutability": "view",
      "type": "function"
    },
    {
      "inputs": [],
      "name": "contractURI",
      "outputs": [
        {
          "internalType": "string",
          "name": "",
          "type": "string"
        }
      ],
      "stateMutability": "view",
      "type": "function"
    },
    {
      "inputs": [
        {
          "internalType": "uint256",
          "name": "tokenId_",
          "type": "uint256"
        }
      ],
      "name": "getApproved",
      "outputs": [
        {
          "internalType": "address",
          "name": "",
          "type": "address"
        }
      ],
      "stateMutability": "view",
      "type": "function"
    },
    {
      "inputs": [
        {
          "internalType": "address",
          "name": "owner_",
          "type": "address"
        },
        {
          "internalType": "address",
          "name": "operator_",
          "type": "address"
        }
      ],
      "name": "isApprovedForAll",
      "outputs": [
        {
          "internalType": "bool",
          "name": "",
          "type": "bool"
        }
      ],
      "stateMutability": "view",
      "type": "function"
    },
    {
      "inputs": [],
      "name": "metadataDescriptor",
      "outputs": [
        {
          "internalType": "contract IERC3525MetadataDescriptor",
          "name": "",
          "type": "address"
        }
      ],
      "stateMutability": "view",
      "type": "function"
    },
    {
      "inputs": [],
      "name": "name",
      "outputs": [
        {
          "internalType": "string",
          "name": "",
          "type": "string"
        }
      ],
      "stateMutability": "view",
      "type": "function"
    },
    {
      "inputs": [
        {
          "internalType": "uint256",
          "name": "tokenId_",
          "type": "uint256"
        }
      ],
      "name": "ownerOf",
      "outputs": [
        {
          "internalType": "address",
          "name": "owner_",
          "type": "address"
        }
      ],
      "stateMutability": "view",
      "type": "function"
    },
    {
      "inputs": [
        {
          "internalType": "address",
          "name": "from_",
          "type": "address"
        },
        {
          "internalType": "address",
          "name": "to_",
          "type": "address"
        },
        {
          "internalType": "uint256",
          "name": "tokenId_",
          "type": "uint256"
        }
      ],
      "name": "safeTransferFrom",
      "outputs": [],
      "stateMutability": "payable",
      "type": "function"
    },
    {
      "inputs": [
        {
          "internalType": "address",
          "name": "from_",
          "type": "address"
        },
        {
          "internalType": "address",
          "name": "to_",
          "type": "address"
        },
        {
          "internalType": "uint256",
          "name": "tokenId_",
          "type": "uint256"
        },
        {
          "internalType": "bytes",
          "name": "data_",
          "type": "bytes"
        }
      ],
      "name": "safeTransferFrom",
      "outputs": [],
      "stateMutability": "payable",
      "type": "function"
    },
    {
      "inputs": [
        {
          "internalType": "address",
          "name": "operator_",
          "type": "address"
        },
        {
          "internalType": "bool",
          "name": "approved_",
          "type": "bool"
        }
      ],
      "name": "setApprovalForAll",
      "outputs": [],
      "stateMutability": "nonpayable",
      "type": "function"
    },
    {
      "inputs": [
        {
          "internalType": "uint256",
          "name": "tokenId_",
          "type": "uint256"
        }
      ],
      "name": "slotOf",
      "outputs": [
        {
          "internalType": "uint256",
          "name": "",
          "type": "uint256"
        }
      ],
      "stateMutability": "view",
      "type": "function"
    },
    {
      "inputs": [
        {
          "internalType": "uint256",
          "name": "slot_",
          "type": "uint256"
        }
      ],
      "name": "slotURI",
      "outputs": [
        {
          "internalType": "string",
          "name": "",
          "type": "string"
        }
      ],
      "stateMutability": "view",
      "type": "function"
    },
    {
      "inputs": [
        {
          "internalType": "bytes4",
          "name": "interfaceId",
          "type": "bytes4"
        }
      ],
      "name": "supportsInterface",
      "outputs": [
        {
          "internalType": "bool",
          "name": "",
          "type": "bool"
        }
      ],
      "stateMutability": "view",
      "type": "function"
    },
    {
      "inputs": [],
      "name": "symbol",
      "outputs": [
        {
          "internalType": "string",
          "name": "",
          "type": "string"
        }
      ],
      "stateMutability": "view",
      "type": "function"
    },
    {
      "inputs": [
        {
          "internalType": "uint256",
          "name": "index_",
          "type": "uint256"
        }
      ],
      "name": "tokenByIndex",
      "outputs": [
        {
          "internalType": "uint256",
          "name": "",
          "type": "uint256"
        }
      ],
      "stateMutability": "view",
      "type": "function"
    },
    {
      "inputs": [
        {
          "internalType": "address",
          "name": "owner_",
          "type": "address"
        },
        {
          "internalType": "uint256",
          "name": "index_",
          "type": "uint256"
        }
      ],
      "name": "tokenOfOwnerByIndex",
      "outputs": [
        {
          "internalType": "uint256",
          "name": "",
          "type": "uint256"
        }
      ],
      "stateMutability": "view",
      "type": "function"
    },
    {
      "inputs": [
        {
          "internalType": "uint256",
          "name": "tokenId_",
          "type": "uint256"
        }
      ],
      "name": "tokenURI",
      "outputs": [
        {
          "internalType": "string",
          "name": "",
          "type": "string"
        }
      ],
      "stateMutability": "view",
      "type": "function"
    },
    {
      "inputs": [],
      "name": "totalSupply",
      "outputs": [
        {
          "internalType": "uint256",
          "name": "",
          "type": "uint256"
        }
      ],
      "stateMutability": "view",
      "type": "function"
    },
    {
      "inputs": [
        {
          "internalType": "uint256",
          "name": "fromTokenId_",
          "type": "uint256"
        },
        {
          "internalType": "address",
          "name": "to_",
          "type": "address"
        },
        {
          "internalType": "uint256",
          "name": "value_",
          "type": "uint256"
        }
      ],
      "name": "transferFrom",
      "outputs": [
        {
          "internalType": "uint256",
          "name": "",
          "type": "uint256"
        }
      ],
      "stateMutability": "payable",
      "type": "function"
    },
    {
      "inputs": [
        {
          "internalType": "address",
          "name": "from_",
          "type": "address"
        },
        {
          "internalType": "address",
          "name": "to_",
          "type": "address"
        },
        {
          "internalType": "uint256",
          "name": "tokenId_",
          "type": "uint256"
        }
      ],
      "name": "transferFrom",
      "outputs": [],
      "stateMutability": "payable",
      "type": "function"
    },
    {
      "inputs": [
        {
          "internalType": "uint256",
          "name": "fromTokenId_",
          "type": "uint256"
        },
        {
          "internalType": "uint256",
          "name": "toTokenId_",
          "type": "uint256"
        },
        {
          "internalType": "uint256",
          "name": "value_",
          "type": "uint256"
        }
      ],
      "name": "transferFrom",
      "outputs": [],
      "stateMutability": "payable",
      "type": "function"
    },
    {
      "inputs": [],
      "name": "valueDecimals",
      "outputs": [
        {
          "internalType": "uint8",
          "name": "",
          "type": "uint8"
        }
      ],
      "stateMutability": "view",
      "type": "function"
    }
  ],
  "bytecode": "0x608060405234801561001057600080fd5b50614c20806100206000396000f3fe6080604052600436106101815760003560e01c80634f6ccce7116100d15780639cc7f7081161008a578063c87b56dd11610064578063c87b56dd14610583578063e345e0bc146105c0578063e8a3d485146105fd578063e985e9c51461062857610181565b80639cc7f70814610501578063a22cb4651461053e578063b88d4fde1461056757610181565b80634f6ccce7146103d85780636352211e1461041557806370a0823114610452578063840f71131461048f5780638cb0a511146104ba57806395d89b41146104d657610181565b806318160ddd1161013e5780632f745c59116101185780632f745c5914610338578063310ed7f0146103755780633e7e86691461039157806342842e0e146103bc57610181565b806318160ddd146102b457806323b872dd146102df578063263f3e7e146102fb57610181565b806301ffc9a71461018657806306fdde03146101c3578063081812fc146101ee578063095ea7b31461022b57806309c3dd87146102475780630f485c0214610284575b600080fd5b34801561019257600080fd5b506101ad60048036038101906101a8919061332e565b610665565b6040516101ba9190613376565b60405180910390f35b3480156101cf57600080fd5b506101d86108d7565b6040516101e5919061342a565b60405180910390f35b3480156101fa57600080fd5b5061021560048036038101906102109190613482565b610969565b60405161022291906134f0565b60405180910390f35b61024560048036038101906102409190613537565b6109d4565b005b34801561025357600080fd5b5061026e60048036038101906102699190613482565b610aeb565b60405161027b919061342a565b60405180910390f35b61029e60048036038101906102999190613577565b610c47565b6040516102ab91906135d9565b60405180910390f35b3480156102c057600080fd5b506102c9610c93565b6040516102d691906135d9565b60405180910390f35b6102f960048036038101906102f491906135f4565b610ca0565b005b34801561030757600080fd5b50610322600480360381019061031d9190613482565b610d00565b60405161032f91906135d9565b60405180910390f35b34801561034457600080fd5b5061035f600480360381019061035a9190613537565b610d4b565b60405161036c91906135d9565b60405180910390f35b61038f600480360381019061038a9190613647565b610dfe565b005b34801561039d57600080fd5b506103a6610e20565b6040516103b391906136b6565b60405180910390f35b6103d660048036038101906103d191906135f4565b610e37565b005b3480156103e457600080fd5b506103ff60048036038101906103fa9190613482565b610e57565b60405161040c91906135d9565b60405180910390f35b34801561042157600080fd5b5061043c60048036038101906104379190613482565b610ecf565b60405161044991906134f0565b60405180910390f35b34801561045e57600080fd5b50610479600480360381019061047491906136d1565b610fa9565b60405161048691906135d9565b60405180910390f35b34801561049b57600080fd5b506104a4611066565b6040516104b1919061375d565b60405180910390f35b6104d460048036038101906104cf9190613577565b61108c565b005b3480156104e257600080fd5b506104eb6111a5565b6040516104f8919061342a565b60405180910390f35b34801561050d57600080fd5b5061052860048036038101906105239190613482565b611237565b60405161053591906135d9565b60405180910390f35b34801561054a57600080fd5b50610565600480360381019061056091906137a4565b611282565b005b610581600480360381019061057c9190613919565b611298565b005b34801561058f57600080fd5b506105aa60048036038101906105a59190613482565b6112fa565b6040516105b7919061342a565b60405180910390f35b3480156105cc57600080fd5b506105e760048036038101906105e2919061399c565b61145f565b6040516105f491906135d9565b60405180910390f35b34801561060957600080fd5b506106126114c3565b60405161061f919061342a565b60405180910390f35b34801561063457600080fd5b5061064f600480360381019061064a91906139dc565b611612565b60405161065c9190613376565b60405180910390f35b60007f01ffc9a7000000000000000000000000000000000000000000000000000000007bffffffffffffffffffffffffffffffffffffffffffffffffffffffff1916827bffffffffffffffffffffffffffffffffffffffffffffffffffffffff1916148061073057507fd5358140000000000000000000000000000000000000000000000000000000007bffffffffffffffffffffffffffffffffffffffffffffffffffffffff1916827bffffffffffffffffffffffffffffffffffffffffffffffffffffffff1916145b8061079857507f80ac58cd000000000000000000000000000000000000000000000000000000007bffffffffffffffffffffffffffffffffffffffffffffffffffffffff1916827bffffffffffffffffffffffffffffffffffffffffffffffffffffffff1916145b8061080057507fe1600902000000000000000000000000000000000000000000000000000000007bffffffffffffffffffffffffffffffffffffffffffffffffffffffff1916827bffffffffffffffffffffffffffffffffffffffffffffffffffffffff1916145b8061086857507f780e9d63000000000000000000000000000000000000000000000000000000007bffffffffffffffffffffffffffffffffffffffffffffffffffffffff1916827bffffffffffffffffffffffffffffffffffffffffffffffffffffffff1916145b806108d057507f5b5e139f000000000000000000000000000000000000000000000000000000007bffffffffffffffffffffffffffffffffffffffffffffffffffffffff1916827bffffffffffffffffffffffffffffffffffffffffffffffffffffffff1916145b9050919050565b6060603380546108e690613a4b565b80601f016020809104026020016040519081016040528092919081815260200182805461091290613a4b565b801561095f5780601f106109345761010080835404028352916020019161095f565b820191906000526020600020905b81548152906001019060200180831161094257829003601f168201915b5050505050905090565b6000610974826116a9565b603860396000848152602001908152602001600020548154811061099b5761099a613a7c565b5b906000526020600020906006020160040160009054906101000a900473ffffffffffffffffffffffffffffffffffffffff169050919050565b60006109df82610ecf565b90508073ffffffffffffffffffffffffffffffffffffffff168373ffffffffffffffffffffffffffffffffffffffff1603610a4f576040517f08c379a0000000000000000000000000000000000000000000000000000000008152600401610a4690613b1d565b60405180910390fd5b8073ffffffffffffffffffffffffffffffffffffffff16610a6e6116f4565b73ffffffffffffffffffffffffffffffffffffffff161480610a9d5750610a9c81610a976116f4565b611612565b5b610adc576040517f08c379a0000000000000000000000000000000000000000000000000000000008152600401610ad390613baf565b60405180910390fd5b610ae683836116fc565b505050565b60606000610af76117da565b9050600073ffffffffffffffffffffffffffffffffffffffff16603b60009054906101000a900473ffffffffffffffffffffffffffffffffffffffff1673ffffffffffffffffffffffffffffffffffffffff1603610b9d576000815111610b6d5760405180602001604052806000815250610b98565b80610b77846117f1565b604051602001610b88929190613c57565b6040516020818303038152906040525b610c3f565b603b60009054906101000a900473ffffffffffffffffffffffffffffffffffffffff1673ffffffffffffffffffffffffffffffffffffffff16636c037f8a846040518263ffffffff1660e01b8152600401610bf891906135d9565b600060405180830381865afa158015610c15573d6000803e3d6000fd5b505050506040513d6000823e3d601f19601f82011682018060405250810190610c3e9190613d27565b5b915050919050565b6000610c5b610c546116f4565b85846118bf565b6000610c6685611969565b9050610c7d8482610c7688610d00565b600061197a565b610c88858285611ab0565b809150509392505050565b6000603880549050905090565b610cb1610cab6116f4565b82611d6d565b610cf0576040517f08c379a0000000000000000000000000000000000000000000000000000000008152600401610ce790613de2565b60405180910390fd5b610cfb838383611e0c565b505050565b6000610d0b826116a9565b6038603960008481526020019081526020016000205481548110610d3257610d31613a7c565b5b9060005260206000209060060201600101549050919050565b6000610d5683610fa9565b8210610d97576040517f08c379a0000000000000000000000000000000000000000000000000000000008152600401610d8e90613e74565b60405180910390fd5b603a60008473ffffffffffffffffffffffffffffffffffffffff1673ffffffffffffffffffffffffffffffffffffffff1681526020019081526020016000206000018281548110610deb57610dea613a7c565b5b9060005260206000200154905092915050565b610e10610e096116f4565b84836118bf565b610e1b838383611ab0565b505050565b6000603560009054906101000a900460ff16905090565b610e5283838360405180602001604052806000815250611298565b505050565b6000610e61610c93565b8210610ea2576040517f08c379a0000000000000000000000000000000000000000000000000000000008152600401610e9990613f06565b60405180910390fd5b60388281548110610eb657610eb5613a7c565b5b9060005260206000209060060201600001549050919050565b6000610eda826116a9565b6038603960008481526020019081526020016000205481548110610f0157610f00613a7c565b5b906000526020600020906006020160030160009054906101000a900473ffffffffffffffffffffffffffffffffffffffff169050600073ffffffffffffffffffffffffffffffffffffffff168173ffffffffffffffffffffffffffffffffffffffff1603610fa4576040517f08c379a0000000000000000000000000000000000000000000000000000000008152600401610f9b90613f72565b60405180910390fd5b919050565b60008073ffffffffffffffffffffffffffffffffffffffff168273ffffffffffffffffffffffffffffffffffffffff1603611019576040517f08c379a000000000000000000000000000000000000000000000000000000000815260040161101090614004565b60405180910390fd5b603a60008373ffffffffffffffffffffffffffffffffffffffff1673ffffffffffffffffffffffffffffffffffffffff168152602001908152602001600020600001805490509050919050565b603b60009054906101000a900473ffffffffffffffffffffffffffffffffffffffff1681565b600061109784610ecf565b90508073ffffffffffffffffffffffffffffffffffffffff168373ffffffffffffffffffffffffffffffffffffffff1603611107576040517f08c379a00000000000000000000000000000000000000000000000000000000081526004016110fe90613b1d565b60405180910390fd5b8073ffffffffffffffffffffffffffffffffffffffff166111266116f4565b73ffffffffffffffffffffffffffffffffffffffff16148061115557506111548161114f6116f4565b611612565b5b611194576040517f08c379a000000000000000000000000000000000000000000000000000000000815260040161118b90613baf565b60405180910390fd5b61119f848484611fb1565b50505050565b6060603480546111b490613a4b565b80601f01602080910402602001604051908101604052809291908181526020018280546111e090613a4b565b801561122d5780601f106112025761010080835404028352916020019161122d565b820191906000526020600020905b81548152906001019060200180831161121057829003601f168201915b5050505050905090565b6000611242826116a9565b603860396000848152602001908152602001600020548154811061126957611268613a7c565b5b9060005260206000209060060201600201549050919050565b61129461128d6116f4565b8383612171565b5050565b6112a96112a36116f4565b83611d6d565b6112e8576040517f08c379a00000000000000000000000000000000000000000000000000000000081526004016112df90613de2565b60405180910390fd5b6112f4848484846122e0565b50505050565b6060611305826116a9565b600061130f6117da565b9050600073ffffffffffffffffffffffffffffffffffffffff16603b60009054906101000a900473ffffffffffffffffffffffffffffffffffffffff1673ffffffffffffffffffffffffffffffffffffffff16036113b557600081511161138557604051806020016040528060008152506113b0565b8061138f846117f1565b6040516020016113a0929190614024565b6040516020818303038152906040525b611457565b603b60009054906101000a900473ffffffffffffffffffffffffffffffffffffffff1673ffffffffffffffffffffffffffffffffffffffff1663894b4c2e846040518263ffffffff1660e01b815260040161141091906135d9565b600060405180830381865afa15801561142d573d6000803e3d6000fd5b505050506040513d6000823e3d601f19601f820116820180604052508101906114569190613d27565b5b915050919050565b600061146a836116a9565b6037600084815260200190815260200160002060008373ffffffffffffffffffffffffffffffffffffffff1673ffffffffffffffffffffffffffffffffffffffff16815260200190815260200160002054905092915050565b606060006114cf6117da565b9050600073ffffffffffffffffffffffffffffffffffffffff16603b60009054906101000a900473ffffffffffffffffffffffffffffffffffffffff1673ffffffffffffffffffffffffffffffffffffffff16036115755760008151116115455760405180602001604052806000815250611570565b8061154f3061233c565b604051602001611560929190614094565b6040516020818303038152906040525b61160c565b603b60009054906101000a900473ffffffffffffffffffffffffffffffffffffffff1673ffffffffffffffffffffffffffffffffffffffff1663725fa09c6040518163ffffffff1660e01b8152600401600060405180830381865afa1580156115e2573d6000803e3d6000fd5b505050506040513d6000823e3d601f19601f8201168201806040525081019061160b9190613d27565b5b91505090565b6000603a60008473ffffffffffffffffffffffffffffffffffffffff1673ffffffffffffffffffffffffffffffffffffffff16815260200190815260200160002060020160008373ffffffffffffffffffffffffffffffffffffffff1673ffffffffffffffffffffffffffffffffffffffff16815260200190815260200160002060009054906101000a900460ff16905092915050565b6116b281612369565b6116f1576040517f08c379a00000000000000000000000000000000000000000000000000000000081526004016116e890613f72565b60405180910390fd5b50565b600033905090565b81603860396000848152602001908152602001600020548154811061172457611723613a7c565b5b906000526020600020906006020160040160006101000a81548173ffffffffffffffffffffffffffffffffffffffff021916908373ffffffffffffffffffffffffffffffffffffffff160217905550808273ffffffffffffffffffffffffffffffffffffffff1661179483610ecf565b73ffffffffffffffffffffffffffffffffffffffff167f8c5be1e5ebec7d5bd14f71427d1e84f3dd0314c0f7b2291e5b200ac8c7c3b92560405160405180910390a45050565b606060405180602001604052806000815250905090565b606060006001611800846123be565b01905060008167ffffffffffffffff81111561181f5761181e6137ee565b5b6040519080825280601f01601f1916602001820160405280156118515781602001600182028036833780820191505090505b509050600082602001820190505b6001156118b4578080600190039150507f3031323334353637383961626364656600000000000000000000000000000000600a86061a8153600a85816118a8576118a76140c3565b5b0494506000850361185f575b819350505050919050565b60006118cb838561145f565b90506118d78484611d6d565b15801561190457507fffffffffffffffffffffffffffffffffffffffffffffffffffffffffffffffff8114155b15611963578181101561194c576040517f08c379a00000000000000000000000000000000000000000000000000000000081526004016119439061413e565b60405180910390fd5b6119628385848461195d919061418d565b611fb1565b5b50505050565b6000611973612511565b9050919050565b600073ffffffffffffffffffffffffffffffffffffffff168473ffffffffffffffffffffffffffffffffffffffff16036119e9576040517f08c379a00000000000000000000000000000000000000000000000000000000081526004016119e090614233565b60405180910390fd5b60008303611a2c576040517f08c379a0000000000000000000000000000000000000000000000000000000008152600401611a23906142c5565b60405180910390fd5b611a3583612369565b15611a75576040517f08c379a0000000000000000000000000000000000000000000000000000000008152600401611a6c90614331565b60405180910390fd5b611a85600085600086868661252c565b611a90848484612534565b611a9a8382612681565b611aaa600085600086868661270e565b50505050565b611ab983612369565b611af8576040517f08c379a0000000000000000000000000000000000000000000000000000000008152600401611aef906143c3565b60405180910390fd5b611b0182612369565b611b40576040517f08c379a0000000000000000000000000000000000000000000000000000000008152600401611b3790614455565b60405180910390fd5b60006038603960008681526020019081526020016000205481548110611b6957611b68613a7c565b5b9060005260206000209060060201905060006038603960008681526020019081526020016000205481548110611ba257611ba1613a7c565b5b906000526020600020906006020190508282600201541015611bf9576040517f08c379a0000000000000000000000000000000000000000000000000000000008152600401611bf0906144e7565b60405180910390fd5b8060010154826001015414611c43576040517f08c379a0000000000000000000000000000000000000000000000000000000008152600401611c3a90614579565b60405180910390fd5b611c9d8260030160009054906101000a900473ffffffffffffffffffffffffffffffffffffffff168260030160009054906101000a900473ffffffffffffffffffffffffffffffffffffffff16878786600101548861252c565b82826002016000828254611cb1919061418d565b9250508190555082816002016000828254611ccc9190614599565b9250508190555083857f0b2aac84f3ec956911fd78eae5311062972ff949f38412e8da39069d9f068cc685604051611d0491906135d9565b60405180910390a3611d668260030160009054906101000a900473ffffffffffffffffffffffffffffffffffffffff168260030160009054906101000a900473ffffffffffffffffffffffffffffffffffffffff16878786600101548861270e565b5050505050565b6000611d78826116a9565b6000611d8383610ecf565b90508073ffffffffffffffffffffffffffffffffffffffff168473ffffffffffffffffffffffffffffffffffffffff161480611dc55750611dc48185611612565b5b80611e0357508373ffffffffffffffffffffffffffffffffffffffff16611deb84610969565b73ffffffffffffffffffffffffffffffffffffffff16145b91505092915050565b8273ffffffffffffffffffffffffffffffffffffffff16611e2c82610ecf565b73ffffffffffffffffffffffffffffffffffffffff1614611e82576040517f08c379a0000000000000000000000000000000000000000000000000000000008152600401611e7990614661565b60405180910390fd5b600073ffffffffffffffffffffffffffffffffffffffff168273ffffffffffffffffffffffffffffffffffffffff1603611ef1576040517f08c379a0000000000000000000000000000000000000000000000000000000008152600401611ee8906146f3565b60405180910390fd5b6000611efc82610d00565b90506000611f0983611237565b9050611f1985858586868661252c565b611f246000846116fc565b611f2d83612716565b611f378584612819565b611f4184846129b5565b828473ffffffffffffffffffffffffffffffffffffffff168673ffffffffffffffffffffffffffffffffffffffff167fddf252ad1be2c89b69c2b068fc378daa952ba7f163c4a11628f55a4df523b3ef60405160405180910390a4611faa85858586868661270e565b5050505050565b600073ffffffffffffffffffffffffffffffffffffffff168273ffffffffffffffffffffffffffffffffffffffff1603612020576040517f08c379a000000000000000000000000000000000000000000000000000000000815260040161201790614785565b60405180910390fd5b61202a8284612b36565b6120c857603860396000858152602001908152602001600020548154811061205557612054613a7c565b5b9060005260206000209060060201600501829080600181540180825580915050600190039060005260206000200160009091909190916101000a81548173ffffffffffffffffffffffffffffffffffffffff021916908373ffffffffffffffffffffffffffffffffffffffff1602179055505b806037600085815260200190815260200160002060008473ffffffffffffffffffffffffffffffffffffffff1673ffffffffffffffffffffffffffffffffffffffff168152602001908152602001600020819055508173ffffffffffffffffffffffffffffffffffffffff16837f621b050de0ad08b51d19b48b3e6df75348c4de6bdd93e81b252ca62e28265b1b8360405161216491906135d9565b60405180910390a3505050565b8173ffffffffffffffffffffffffffffffffffffffff168373ffffffffffffffffffffffffffffffffffffffff16036121df576040517f08c379a00000000000000000000000000000000000000000000000000000000081526004016121d6906147f1565b60405180910390fd5b80603a60008573ffffffffffffffffffffffffffffffffffffffff1673ffffffffffffffffffffffffffffffffffffffff16815260200190815260200160002060020160008473ffffffffffffffffffffffffffffffffffffffff1673ffffffffffffffffffffffffffffffffffffffff16815260200190815260200160002060006101000a81548160ff0219169083151502179055508173ffffffffffffffffffffffffffffffffffffffff168373ffffffffffffffffffffffffffffffffffffffff167f17307eab39ab6107e8899845ad3d59bd9653f200f220920489ca2b5937696c31836040516122d39190613376565b60405180910390a3505050565b6122eb848484611e0c565b6122f784848484612c54565b612336576040517f08c379a000000000000000000000000000000000000000000000000000000000815260040161232d90614883565b60405180910390fd5b50505050565b60606123628273ffffffffffffffffffffffffffffffffffffffff16601460ff16612e7d565b9050919050565b600080603880549050141580156123b757508160386039600085815260200190815260200160002054815481106123a3576123a2613a7c565b5b906000526020600020906006020160000154145b9050919050565b600080600090507a184f03e93ff9f4daa797ed6e38ed64bf6a1f010000000000000000831061241c577a184f03e93ff9f4daa797ed6e38ed64bf6a1f0100000000000000008381612412576124116140c3565b5b0492506040810190505b6d04ee2d6d415b85acef81000000008310612459576d04ee2d6d415b85acef8100000000838161244f5761244e6140c3565b5b0492506020810190505b662386f26fc10000831061248857662386f26fc10000838161247e5761247d6140c3565b5b0492506010810190505b6305f5e10083106124b1576305f5e10083816124a7576124a66140c3565b5b0492506008810190505b61271083106124d65761271083816124cc576124cb6140c3565b5b0492506004810190505b606483106124f957606483816124ef576124ee6140c3565b5b0492506002810190505b600a8310612508576001810190505b80915050919050565b600061251d60366130b9565b61252760366130cf565b905090565b505050505050565b60006040518060c00160405280848152602001838152602001600081526020018573ffffffffffffffffffffffffffffffffffffffff168152602001600073ffffffffffffffffffffffffffffffffffffffff168152602001600067ffffffffffffffff8111156125a8576125a76137ee565b5b6040519080825280602002602001820160405280156125d65781602001602082028036833780820191505090505b5081525090506125e5816130dd565b6125ef84846129b5565b828473ffffffffffffffffffffffffffffffffffffffff16600073ffffffffffffffffffffffffffffffffffffffff167fddf252ad1be2c89b69c2b068fc378daa952ba7f163c4a11628f55a4df523b3ef60405160405180910390a4816000847fe4f48c240d3b994948aa54f3e2f5fca59263dfe1d52b6e4cf39a5d249b5ccb6560405160405180910390a450505050565b8060386039600085815260200190815260200160002054815481106126a9576126a8613a7c565b5b906000526020600020906006020160020160008282546126c99190614599565b925050819055508160007f0b2aac84f3ec956911fd78eae5311062972ff949f38412e8da39069d9f068cc68360405161270291906135d9565b60405180910390a35050565b505050505050565b6000603860396000848152602001908152602001600020548154811061273f5761273e613a7c565b5b9060005260206000209060060201905060008160050180549050905060005b8181101561281357600083600501828154811061277e5761277d613a7c565b5b9060005260206000200160009054906101000a900473ffffffffffffffffffffffffffffffffffffffff1690506037600086815260200190815260200160002060008273ffffffffffffffffffffffffffffffffffffffff1673ffffffffffffffffffffffffffffffffffffffff1681526020019081526020016000206000905550808061280b906148a3565b91505061275e565b50505050565b6000603860396000848152602001908152602001600020548154811061284257612841613a7c565b5b906000526020600020906006020160030160006101000a81548173ffffffffffffffffffffffffffffffffffffffff021916908373ffffffffffffffffffffffffffffffffffffffff1602179055506000603a60008473ffffffffffffffffffffffffffffffffffffffff1673ffffffffffffffffffffffffffffffffffffffff16815260200190815260200160002090506000600182600001805490506128ea919061418d565b9050600082600001828154811061290457612903613a7c565b5b9060005260206000200154905060008360010160008681526020019081526020016000205490508184600001828154811061294257612941613a7c565b5b906000526020600020018190555080846001016000848152602001908152602001600020819055508360010160008681526020019081526020016000206000905583600001805480612997576129966148eb565b5b60019003818190600052602060002001600090559055505050505050565b8160386039600084815260200190815260200160002054815481106129dd576129dc613a7c565b5b906000526020600020906006020160030160006101000a81548173ffffffffffffffffffffffffffffffffffffffff021916908373ffffffffffffffffffffffffffffffffffffffff160217905550603a60008373ffffffffffffffffffffffffffffffffffffffff1673ffffffffffffffffffffffffffffffffffffffff16815260200190815260200160002060000180549050603a60008473ffffffffffffffffffffffffffffffffffffffff1673ffffffffffffffffffffffffffffffffffffffff168152602001908152602001600020600101600083815260200190815260200160002081905550603a60008373ffffffffffffffffffffffffffffffffffffffff1673ffffffffffffffffffffffffffffffffffffffff1681526020019081526020016000206000018190806001815401808255809150506001900390600052602060002001600090919091909150555050565b6000806038603960008581526020019081526020016000205481548110612b6057612b5f613a7c565b5b906000526020600020906006020160050180549050905060005b81811015612c47578473ffffffffffffffffffffffffffffffffffffffff166038603960008781526020019081526020016000205481548110612bc057612bbf613a7c565b5b90600052602060002090600602016005018281548110612be357612be2613a7c565b5b9060005260206000200160009054906101000a900473ffffffffffffffffffffffffffffffffffffffff1673ffffffffffffffffffffffffffffffffffffffff1603612c3457600192505050612c4e565b8080612c3f906148a3565b915050612b7a565b5060009150505b92915050565b6000612c758473ffffffffffffffffffffffffffffffffffffffff166131f8565b8015612d1757508373ffffffffffffffffffffffffffffffffffffffff166301ffc9a77f150b7a02000000000000000000000000000000000000000000000000000000006040518263ffffffff1660e01b8152600401612cd59190614929565b602060405180830381865afa158015612cf2573d6000803e3d6000fd5b505050506040513d601f19601f82011682018060405250810190612d169190614959565b5b15612e70578373ffffffffffffffffffffffffffffffffffffffff1663150b7a02612d406116f4565b8786866040518563ffffffff1660e01b8152600401612d6294939291906149db565b6020604051808303816000875af1925050508015612d9e57506040513d601f19601f82011682018060405250810190612d9b9190614a3c565b60015b612e20573d8060008114612dce576040519150601f19603f3d011682016040523d82523d6000602084013e612dd3565b606091505b506000815103612e18576040517f08c379a0000000000000000000000000000000000000000000000000000000008152600401612e0f90614adb565b60405180910390fd5b805181602001fd5b63150b7a0260e01b7bffffffffffffffffffffffffffffffffffffffffffffffffffffffff1916817bffffffffffffffffffffffffffffffffffffffffffffffffffffffff191614915050612e75565b600190505b949350505050565b606060006002836002612e909190614afb565b612e9a9190614599565b67ffffffffffffffff811115612eb357612eb26137ee565b5b6040519080825280601f01601f191660200182016040528015612ee55781602001600182028036833780820191505090505b5090507f300000000000000000000000000000000000000000000000000000000000000081600081518110612f1d57612f1c613a7c565b5b60200101907effffffffffffffffffffffffffffffffffffffffffffffffffffffffffffff1916908160001a9053507f780000000000000000000000000000000000000000000000000000000000000081600181518110612f8157612f80613a7c565b5b60200101907effffffffffffffffffffffffffffffffffffffffffffffffffffffffffffff1916908160001a90535060006001846002612fc19190614afb565b612fcb9190614599565b90505b600181111561306b577f3031323334353637383961626364656600000000000000000000000000000000600f86166010811061300d5761300c613a7c565b5b1a60f81b82828151811061302457613023613a7c565b5b60200101907effffffffffffffffffffffffffffffffffffffffffffffffffffffffffffff1916908160001a905350600485901c94508061306490614b55565b9050612fce565b50600084146130af576040517f08c379a00000000000000000000000000000000000000000000000000000000081526004016130a690614bca565b60405180910390fd5b8091505092915050565b6001816000016000828254019250508190555050565b600081600001549050919050565b603880549050603960008360000151815260200190815260200160002081905550603881908060018154018082558091505060019003906000526020600020906006020160009091909190915060008201518160000155602082015181600101556040820151816002015560608201518160030160006101000a81548173ffffffffffffffffffffffffffffffffffffffff021916908373ffffffffffffffffffffffffffffffffffffffff16021790555060808201518160040160006101000a81548173ffffffffffffffffffffffffffffffffffffffff021916908373ffffffffffffffffffffffffffffffffffffffff16021790555060a08201518160050190805190602001906131f292919061321b565b50505050565b6000808273ffffffffffffffffffffffffffffffffffffffff163b119050919050565b828054828255906000526020600020908101928215613294579160200282015b828111156132935782518260006101000a81548173ffffffffffffffffffffffffffffffffffffffff021916908373ffffffffffffffffffffffffffffffffffffffff1602179055509160200191906001019061323b565b5b5090506132a191906132a5565b5090565b5b808211156132be5760008160009055506001016132a6565b5090565b6000604051905090565b600080fd5b600080fd5b60007fffffffff0000000000000000000000000000000000000000000000000000000082169050919050565b61330b816132d6565b811461331657600080fd5b50565b60008135905061332881613302565b92915050565b600060208284031215613344576133436132cc565b5b600061335284828501613319565b91505092915050565b60008115159050919050565b6133708161335b565b82525050565b600060208201905061338b6000830184613367565b92915050565b600081519050919050565b600082825260208201905092915050565b60005b838110156133cb5780820151818401526020810190506133b0565b838111156133da576000848401525b50505050565b6000601f19601f8301169050919050565b60006133fc82613391565b613406818561339c565b93506134168185602086016133ad565b61341f816133e0565b840191505092915050565b6000602082019050818103600083015261344481846133f1565b905092915050565b6000819050919050565b61345f8161344c565b811461346a57600080fd5b50565b60008135905061347c81613456565b92915050565b600060208284031215613498576134976132cc565b5b60006134a68482850161346d565b91505092915050565b600073ffffffffffffffffffffffffffffffffffffffff82169050919050565b60006134da826134af565b9050919050565b6134ea816134cf565b82525050565b600060208201905061350560008301846134e1565b92915050565b613514816134cf565b811461351f57600080fd5b50565b6000813590506135318161350b565b92915050565b6000806040838503121561354e5761354d6132cc565b5b600061355c85828601613522565b925050602061356d8582860161346d565b9150509250929050565b6000806000606084860312156135905761358f6132cc565b5b600061359e8682870161346d565b93505060206135af86828701613522565b92505060406135c08682870161346d565b9150509250925092565b6135d38161344c565b82525050565b60006020820190506135ee60008301846135ca565b92915050565b60008060006060848603121561360d5761360c6132cc565b5b600061361b86828701613522565b935050602061362c86828701613522565b925050604061363d8682870161346d565b9150509250925092565b6000806000606084860312156136605761365f6132cc565b5b600061366e8682870161346d565b935050602061367f8682870161346d565b92505060406136908682870161346d565b9150509250925092565b600060ff82169050919050565b6136b08161369a565b82525050565b60006020820190506136cb60008301846136a7565b92915050565b6000602082840312156136e7576136e66132cc565b5b60006136f584828501613522565b91505092915050565b6000819050919050565b600061372361371e613719846134af565b6136fe565b6134af565b9050919050565b600061373582613708565b9050919050565b60006137478261372a565b9050919050565b6137578161373c565b82525050565b6000602082019050613772600083018461374e565b92915050565b6137818161335b565b811461378c57600080fd5b50565b60008135905061379e81613778565b92915050565b600080604083850312156137bb576137ba6132cc565b5b60006137c985828601613522565b92505060206137da8582860161378f565b9150509250929050565b600080fd5b600080fd5b7f4e487b7100000000000000000000000000000000000000000000000000000000600052604160045260246000fd5b613826826133e0565b810181811067ffffffffffffffff82111715613845576138446137ee565b5b80604052505050565b60006138586132c2565b9050613864828261381d565b919050565b600067ffffffffffffffff821115613884576138836137ee565b5b61388d826133e0565b9050602081019050919050565b82818337600083830152505050565b60006138bc6138b784613869565b61384e565b9050828152602081018484840111156138d8576138d76137e9565b5b6138e384828561389a565b509392505050565b600082601f830112613900576138ff6137e4565b5b81356139108482602086016138a9565b91505092915050565b60008060008060808587031215613933576139326132cc565b5b600061394187828801613522565b945050602061395287828801613522565b93505060406139638782880161346d565b925050606085013567ffffffffffffffff811115613984576139836132d1565b5b613990878288016138eb565b91505092959194509250565b600080604083850312156139b3576139b26132cc565b5b60006139c18582860161346d565b92505060206139d285828601613522565b9150509250929050565b600080604083850312156139f3576139f26132cc565b5b6000613a0185828601613522565b9250506020613a1285828601613522565b9150509250929050565b7f4e487b7100000000000000000000000000000000000000000000000000000000600052602260045260246000fd5b60006002820490506001821680613a6357607f821691505b602082108103613a7657613a75613a1c565b5b50919050565b7f4e487b7100000000000000000000000000000000000000000000000000000000600052603260045260246000fd5b7f455243333532353a20617070726f76616c20746f2063757272656e74206f776e60008201527f6572000000000000000000000000000000000000000000000000000000000000602082015250565b6000613b0760228361339c565b9150613b1282613aab565b604082019050919050565b60006020820190508181036000830152613b3681613afa565b9050919050565b7f455243333532353a20617070726f76652063616c6c6572206973206e6f74206f60008201527f776e6572206e6f7220617070726f76656420666f7220616c6c00000000000000602082015250565b6000613b9960398361339c565b9150613ba482613b3d565b604082019050919050565b60006020820190508181036000830152613bc881613b8c565b9050919050565b600081905092915050565b6000613be582613391565b613bef8185613bcf565b9350613bff8185602086016133ad565b80840191505092915050565b7f736c6f742f000000000000000000000000000000000000000000000000000000600082015250565b6000613c41600583613bcf565b9150613c4c82613c0b565b600582019050919050565b6000613c638285613bda565b9150613c6e82613c34565b9150613c7a8284613bda565b91508190509392505050565b600067ffffffffffffffff821115613ca157613ca06137ee565b5b613caa826133e0565b9050602081019050919050565b6000613cca613cc584613c86565b61384e565b905082815260208101848484011115613ce657613ce56137e9565b5b613cf18482856133ad565b509392505050565b600082601f830112613d0e57613d0d6137e4565b5b8151613d1e848260208601613cb7565b91505092915050565b600060208284031215613d3d57613d3c6132cc565b5b600082015167ffffffffffffffff811115613d5b57613d5a6132d1565b5b613d6784828501613cf9565b91505092915050565b7f455243333532353a207472616e736665722063616c6c6572206973206e6f742060008201527f6f776e6572206e6f7220617070726f7665640000000000000000000000000000602082015250565b6000613dcc60328361339c565b9150613dd782613d70565b604082019050919050565b60006020820190508181036000830152613dfb81613dbf565b9050919050565b7f455243333532353a206f776e657220696e646578206f7574206f6620626f756e60008201527f6473000000000000000000000000000000000000000000000000000000000000602082015250565b6000613e5e60228361339c565b9150613e6982613e02565b604082019050919050565b60006020820190508181036000830152613e8d81613e51565b9050919050565b7f455243333532353a20676c6f62616c20696e646578206f7574206f6620626f7560008201527f6e64730000000000000000000000000000000000000000000000000000000000602082015250565b6000613ef060238361339c565b9150613efb82613e94565b604082019050919050565b60006020820190508181036000830152613f1f81613ee3565b9050919050565b7f455243333532353a20696e76616c696420746f6b656e20494400000000000000600082015250565b6000613f5c60198361339c565b9150613f6782613f26565b602082019050919050565b60006020820190508181036000830152613f8b81613f4f565b9050919050565b7f455243333532353a2062616c616e636520717565727920666f7220746865207a60008201527f65726f2061646472657373000000000000000000000000000000000000000000602082015250565b6000613fee602b8361339c565b9150613ff982613f92565b604082019050919050565b6000602082019050818103600083015261401d81613fe1565b9050919050565b60006140308285613bda565b915061403c8284613bda565b91508190509392505050565b7f636f6e74726163742f0000000000000000000000000000000000000000000000600082015250565b600061407e600983613bcf565b915061408982614048565b600982019050919050565b60006140a08285613bda565b91506140ab82614071565b91506140b78284613bda565b91508190509392505050565b7f4e487b7100000000000000000000000000000000000000000000000000000000600052601260045260246000fd5b7f455243333532353a20696e73756666696369656e7420616c6c6f77616e636500600082015250565b6000614128601f8361339c565b9150614133826140f2565b602082019050919050565b600060208201905081810360008301526141578161411b565b9050919050565b7f4e487b7100000000000000000000000000000000000000000000000000000000600052601160045260246000fd5b60006141988261344c565b91506141a38361344c565b9250828210156141b6576141b561415e565b5b828203905092915050565b7f455243333532353a206d696e7420746f20746865207a65726f2061646472657360008201527f7300000000000000000000000000000000000000000000000000000000000000602082015250565b600061421d60218361339c565b9150614228826141c1565b604082019050919050565b6000602082019050818103600083015261424c81614210565b9050919050565b7f455243333532353a2063616e6e6f74206d696e74207a65726f20746f6b656e4960008201527f6400000000000000000000000000000000000000000000000000000000000000602082015250565b60006142af60218361339c565b91506142ba82614253565b604082019050919050565b600060208201905081810360008301526142de816142a2565b9050919050565b7f455243333532353a20746f6b656e20616c7265616479206d696e746564000000600082015250565b600061431b601d8361339c565b9150614326826142e5565b602082019050919050565b6000602082019050818103600083015261434a8161430e565b9050919050565b7f455243333532353a207472616e736665722066726f6d20696e76616c6964207460008201527f6f6b656e20494400000000000000000000000000000000000000000000000000602082015250565b60006143ad60278361339c565b91506143b882614351565b604082019050919050565b600060208201905081810360008301526143dc816143a0565b9050919050565b7f455243333532353a207472616e7366657220746f20696e76616c696420746f6b60008201527f656e204944000000000000000000000000000000000000000000000000000000602082015250565b600061443f60258361339c565b915061444a826143e3565b604082019050919050565b6000602082019050818103600083015261446e81614432565b9050919050565b7f455243333532353a20696e73756666696369656e742062616c616e636520666f60008201527f72207472616e7366657200000000000000000000000000000000000000000000602082015250565b60006144d1602a8361339c565b91506144dc82614475565b604082019050919050565b60006020820190508181036000830152614500816144c4565b9050919050565b7f455243333532353a207472616e7366657220746f20746f6b656e20776974682060008201527f646966666572656e7420736c6f74000000000000000000000000000000000000602082015250565b6000614563602e8361339c565b915061456e82614507565b604082019050919050565b6000602082019050818103600083015261459281614556565b9050919050565b60006145a48261344c565b91506145af8361344c565b9250827fffffffffffffffffffffffffffffffffffffffffffffffffffffffffffffffff038211156145e4576145e361415e565b5b828201905092915050565b7f455243333532353a207472616e736665722066726f6d20696e76616c6964206f60008201527f776e657200000000000000000000000000000000000000000000000000000000602082015250565b600061464b60248361339c565b9150614656826145ef565b604082019050919050565b6000602082019050818103600083015261467a8161463e565b9050919050565b7f455243333532353a207472616e7366657220746f20746865207a65726f20616460008201527f6472657373000000000000000000000000000000000000000000000000000000602082015250565b60006146dd60258361339c565b91506146e882614681565b604082019050919050565b6000602082019050818103600083015261470c816146d0565b9050919050565b7f455243333532353a20617070726f76652076616c756520746f20746865207a6560008201527f726f206164647265737300000000000000000000000000000000000000000000602082015250565b600061476f602a8361339c565b915061477a82614713565b604082019050919050565b6000602082019050818103600083015261479e81614762565b9050919050565b7f455243333532353a20617070726f766520746f2063616c6c6572000000000000600082015250565b60006147db601a8361339c565b91506147e6826147a5565b602082019050919050565b6000602082019050818103600083015261480a816147ce565b9050919050565b7f455243333532353a207472616e7366657220746f206e6f6e204552433732315260008201527f6563656976657200000000000000000000000000000000000000000000000000602082015250565b600061486d60278361339c565b915061487882614811565b604082019050919050565b6000602082019050818103600083015261489c81614860565b9050919050565b60006148ae8261344c565b91507fffffffffffffffffffffffffffffffffffffffffffffffffffffffffffffffff82036148e0576148df61415e565b5b600182019050919050565b7f4e487b7100000000000000000000000000000000000000000000000000000000600052603160045260246000fd5b614923816132d6565b82525050565b600060208201905061493e600083018461491a565b92915050565b60008151905061495381613778565b92915050565b60006020828403121561496f5761496e6132cc565b5b600061497d84828501614944565b91505092915050565b600081519050919050565b600082825260208201905092915050565b60006149ad82614986565b6149b78185614991565b93506149c78185602086016133ad565b6149d0816133e0565b840191505092915050565b60006080820190506149f060008301876134e1565b6149fd60208301866134e1565b614a0a60408301856135ca565b8181036060830152614a1c81846149a2565b905095945050505050565b600081519050614a3681613302565b92915050565b600060208284031215614a5257614a516132cc565b5b6000614a6084828501614a27565b91505092915050565b7f4552433732313a207472616e7366657220746f206e6f6e20455243373231526560008201527f6365697665720000000000000000000000000000000000000000000000000000602082015250565b6000614ac560268361339c565b9150614ad082614a69565b604082019050919050565b60006020820190508181036000830152614af481614ab8565b9050919050565b6000614b068261344c565b9150614b118361344c565b9250817fffffffffffffffffffffffffffffffffffffffffffffffffffffffffffffffff0483118215151615614b4a57614b4961415e565b5b828202905092915050565b6000614b608261344c565b915060008203614b7357614b7261415e565b5b600182039050919050565b7f537472696e67733a20686578206c656e67746820696e73756666696369656e74600082015250565b6000614bb460208361339c565b9150614bbf82614b7e565b602082019050919050565b60006020820190508181036000830152614be381614ba7565b905091905056fea26469706673582212208a02c3dfc25124d3a35ac4ddf0235be8083a2f7b71386f80feb38465f8a673cc64736f6c634300080f0033",
  "linkReferences": {},
  "deployedLinkReferences": {}
}