{
  "_format": "hh-sol-artifact-1",
  "contractName": "ERC3525Upgradeable",
  "sourceName": "contracts/solvprotocol/erc-3525/ERC3525Upgradeable.sol",
  "abi": [
    {
      "anonymous": false,
      "inputs": [
        {
          "indexed": true,
          "internalType": "address",
          "name": "_owner",
          "type": "address"
        },
        {
          "indexed": true,
          "internalType": "address",
          "name": "_approved",
          "type": "address"
        },
        {
          "indexed": true,
          "internalType": "uint256",
          "name": "_tokenId",
          "type": "uint256"
        }
      ],
      "name": "Approval",
      "type": "event"
    },
    {
      "anonymous": false,
      "inputs": [
        {
          "indexed": true,
          "internalType": "address",
          "name": "_owner",
          "type": "address"
        },
        {
          "indexed": true,
          "internalType": "address",
          "name": "_operator",
          "type": "address"
        },
        {
          "indexed": false,
          "internalType": "bool",
          "name": "_approved",
          "type": "bool"
        }
      ],
      "name": "ApprovalForAll",
      "type": "event"
    },
    {
      "anonymous": false,
      "inputs": [
        {
          "indexed": true,
          "internalType": "uint256",
          "name": "_tokenId",
          "type": "uint256"
        },
        {
          "indexed": true,
          "internalType": "address",
          "name": "_operator",
          "type": "address"
        },
        {
          "indexed": false,
          "internalType": "uint256",
          "name": "_value",
          "type": "uint256"
        }
      ],
      "name": "ApprovalValue",
      "type": "event"
    },
    {
      "anonymous": false,
      "inputs": [
        {
          "indexed": false,
          "internalType": "uint8",
          "name": "version",
          "type": "uint8"
        }
      ],
      "name": "Initialized",
      "type": "event"
    },
    {
      "anonymous": false,
      "inputs": [
        {
          "indexed": true,
          "internalType": "address",
          "name": "metadataDescriptor",
          "type": "address"
        }
      ],
      "name": "SetMetadataDescriptor",
      "type": "event"
    },
    {
      "anonymous": false,
      "inputs": [
        {
          "indexed": true,
          "internalType": "uint256",
          "name": "_tokenId",
          "type": "uint256"
        },
        {
          "indexed": true,
          "internalType": "uint256",
          "name": "_oldSlot",
          "type": "uint256"
        },
        {
          "indexed": true,
          "internalType": "uint256",
          "name": "_newSlot",
          "type": "uint256"
        }
      ],
      "name": "SlotChanged",
      "type": "event"
    },
    {
      "anonymous": false,
      "inputs": [
        {
          "indexed": true,
          "internalType": "address",
          "name": "_from",
          "type": "address"
        },
        {
          "indexed": true,
          "internalType": "address",
          "name": "_to",
          "type": "address"
        },
        {
          "indexed": true,
          "internalType": "uint256",
          "name": "_tokenId",
          "type": "uint256"
        }
      ],
      "name": "Transfer",
      "type": "event"
    },
    {
      "anonymous": false,
      "inputs": [
        {
          "indexed": true,
          "internalType": "uint256",
          "name": "_fromTokenId",
          "type": "uint256"
        },
        {
          "indexed": true,
          "internalType": "uint256",
          "name": "_toTokenId",
          "type": "uint256"
        },
        {
          "indexed": false,
          "internalType": "uint256",
          "name": "_value",
          "type": "uint256"
        }
      ],
      "name": "TransferValue",
      "type": "event"
    },
    {
      "inputs": [
        {
          "internalType": "uint256",
          "name": "tokenId_",
          "type": "uint256"
        },
        {
          "internalType": "address",
          "name": "operator_",
          "type": "address"
        }
      ],
      "name": "allowance",
      "outputs": [
        {
          "internalType": "uint256",
          "name": "",
          "type": "uint256"
        }
      ],
      "stateMutability": "view",
      "type": "function"
    },
    {
      "inputs": [
        {
          "internalType": "address",
          "name": "to_",
          "type": "address"
        },
        {
          "internalType": "uint256",
          "name": "tokenId_",
          "type": "uint256"
        }
      ],
      "name": "approve",
      "outputs": [],
      "stateMutability": "payable",
      "type": "function"
    },
    {
      "inputs": [
        {
          "internalType": "uint256",
          "name": "tokenId_",
          "type": "uint256"
        },
        {
          "internalType": "address",
          "name": "to_",
          "type": "address"
        },
        {
          "internalType": "uint256",
          "name": "value_",
          "type": "uint256"
        }
      ],
      "name": "approve",
      "outputs": [],
      "stateMutability": "payable",
      "type": "function"
    },
    {
      "inputs": [
        {
          "internalType": "address",
          "name": "owner_",
          "type": "address"
        }
      ],
      "name": "balanceOf",
      "outputs": [
        {
          "internalType": "uint256",
          "name": "balance",
          "type": "uint256"
        }
      ],
      "stateMutability": "view",
      "type": "function"
    },
    {
      "inputs": [
        {
          "internalType": "uint256",
          "name": "tokenId_",
          "type": "uint256"
        }
      ],
      "name": "balanceOf",
      "outputs": [
        {
          "internalType": "uint256",
          "name": "",
          "type": "uint256"
        }
      ],
      "stateMutability": "view",
      "type": "function"
    },
    {
      "inputs": [],
      "name": "contractURI",
      "outputs": [
        {
          "internalType": "string",
          "name": "",
          "type": "string"
        }
      ],
      "stateMutability": "view",
      "type": "function"
    },
    {
      "inputs": [
        {
          "internalType": "uint256",
          "name": "tokenId_",
          "type": "uint256"
        }
      ],
      "name": "getApproved",
      "outputs": [
        {
          "internalType": "address",
          "name": "",
          "type": "address"
        }
      ],
      "stateMutability": "view",
      "type": "function"
    },
    {
      "inputs": [
        {
          "internalType": "address",
          "name": "owner_",
          "type": "address"
        },
        {
          "internalType": "address",
          "name": "operator_",
          "type": "address"
        }
      ],
      "name": "isApprovedForAll",
      "outputs": [
        {
          "internalType": "bool",
          "name": "",
          "type": "bool"
        }
      ],
      "stateMutability": "view",
      "type": "function"
    },
    {
      "inputs": [],
      "name": "metadataDescriptor",
      "outputs": [
        {
          "internalType": "contract IERC3525MetadataDescriptor",
          "name": "",
          "type": "address"
        }
      ],
      "stateMutability": "view",
      "type": "function"
    },
    {
      "inputs": [],
      "name": "name",
      "outputs": [
        {
          "internalType": "string",
          "name": "",
          "type": "string"
        }
      ],
      "stateMutability": "view",
      "type": "function"
    },
    {
      "inputs": [
        {
          "internalType": "uint256",
          "name": "tokenId_",
          "type": "uint256"
        }
      ],
      "name": "ownerOf",
      "outputs": [
        {
          "internalType": "address",
          "name": "owner_",
          "type": "address"
        }
      ],
      "stateMutability": "view",
      "type": "function"
    },
    {
      "inputs": [
        {
          "internalType": "address",
          "name": "from_",
          "type": "address"
        },
        {
          "internalType": "address",
          "name": "to_",
          "type": "address"
        },
        {
          "internalType": "uint256",
          "name": "tokenId_",
          "type": "uint256"
        }
      ],
      "name": "safeTransferFrom",
      "outputs": [],
      "stateMutability": "payable",
      "type": "function"
    },
    {
      "inputs": [
        {
          "internalType": "address",
          "name": "from_",
          "type": "address"
        },
        {
          "internalType": "address",
          "name": "to_",
          "type": "address"
        },
        {
          "internalType": "uint256",
          "name": "tokenId_",
          "type": "uint256"
        },
        {
          "internalType": "bytes",
          "name": "data_",
          "type": "bytes"
        }
      ],
      "name": "safeTransferFrom",
      "outputs": [],
      "stateMutability": "payable",
      "type": "function"
    },
    {
      "inputs": [
        {
          "internalType": "address",
          "name": "operator_",
          "type": "address"
        },
        {
          "internalType": "bool",
          "name": "approved_",
          "type": "bool"
        }
      ],
      "name": "setApprovalForAll",
      "outputs": [],
      "stateMutability": "nonpayable",
      "type": "function"
    },
    {
      "inputs": [
        {
          "internalType": "uint256",
          "name": "tokenId_",
          "type": "uint256"
        }
      ],
      "name": "slotOf",
      "outputs": [
        {
          "internalType": "uint256",
          "name": "",
          "type": "uint256"
        }
      ],
      "stateMutability": "view",
      "type": "function"
    },
    {
      "inputs": [
        {
          "internalType": "uint256",
          "name": "slot_",
          "type": "uint256"
        }
      ],
      "name": "slotURI",
      "outputs": [
        {
          "internalType": "string",
          "name": "",
          "type": "string"
        }
      ],
      "stateMutability": "view",
      "type": "function"
    },
    {
      "inputs": [
        {
          "internalType": "bytes4",
          "name": "interfaceId",
          "type": "bytes4"
        }
      ],
      "name": "supportsInterface",
      "outputs": [
        {
          "internalType": "bool",
          "name": "",
          "type": "bool"
        }
      ],
      "stateMutability": "view",
      "type": "function"
    },
    {
      "inputs": [],
      "name": "symbol",
      "outputs": [
        {
          "internalType": "string",
          "name": "",
          "type": "string"
        }
      ],
      "stateMutability": "view",
      "type": "function"
    },
    {
      "inputs": [
        {
          "internalType": "uint256",
          "name": "index_",
          "type": "uint256"
        }
      ],
      "name": "tokenByIndex",
      "outputs": [
        {
          "internalType": "uint256",
          "name": "",
          "type": "uint256"
        }
      ],
      "stateMutability": "view",
      "type": "function"
    },
    {
      "inputs": [
        {
          "internalType": "address",
          "name": "owner_",
          "type": "address"
        },
        {
          "internalType": "uint256",
          "name": "index_",
          "type": "uint256"
        }
      ],
      "name": "tokenOfOwnerByIndex",
      "outputs": [
        {
          "internalType": "uint256",
          "name": "",
          "type": "uint256"
        }
      ],
      "stateMutability": "view",
      "type": "function"
    },
    {
      "inputs": [
        {
          "internalType": "uint256",
          "name": "tokenId_",
          "type": "uint256"
        }
      ],
      "name": "tokenURI",
      "outputs": [
        {
          "internalType": "string",
          "name": "",
          "type": "string"
        }
      ],
      "stateMutability": "view",
      "type": "function"
    },
    {
      "inputs": [],
      "name": "totalSupply",
      "outputs": [
        {
          "internalType": "uint256",
          "name": "",
          "type": "uint256"
        }
      ],
      "stateMutability": "view",
      "type": "function"
    },
    {
      "inputs": [
        {
          "internalType": "uint256",
          "name": "fromTokenId_",
          "type": "uint256"
        },
        {
          "internalType": "address",
          "name": "to_",
          "type": "address"
        },
        {
          "internalType": "uint256",
          "name": "value_",
          "type": "uint256"
        }
      ],
      "name": "transferFrom",
      "outputs": [
        {
          "internalType": "uint256",
          "name": "",
          "type": "uint256"
        }
      ],
      "stateMutability": "payable",
      "type": "function"
    },
    {
      "inputs": [
        {
          "internalType": "address",
          "name": "from_",
          "type": "address"
        },
        {
          "internalType": "address",
          "name": "to_",
          "type": "address"
        },
        {
          "internalType": "uint256",
          "name": "tokenId_",
          "type": "uint256"
        }
      ],
      "name": "transferFrom",
      "outputs": [],
      "stateMutability": "payable",
      "type": "function"
    },
    {
      "inputs": [
        {
          "internalType": "uint256",
          "name": "fromTokenId_",
          "type": "uint256"
        },
        {
          "internalType": "uint256",
          "name": "toTokenId_",
          "type": "uint256"
        },
        {
          "internalType": "uint256",
          "name": "value_",
          "type": "uint256"
        }
      ],
      "name": "transferFrom",
      "outputs": [],
      "stateMutability": "payable",
      "type": "function"
    },
    {
      "inputs": [],
      "name": "valueDecimals",
      "outputs": [
        {
          "internalType": "uint8",
          "name": "",
          "type": "uint8"
        }
      ],
      "stateMutability": "view",
      "type": "function"
    }
  ],
  "bytecode": "0x608060405234801561001057600080fd5b506129d4806100206000396000f3fe6080604052600436106101815760003560e01c80634f6ccce7116100d15780639cc7f7081161008a578063c87b56dd11610064578063c87b56dd14610416578063e345e0bc14610436578063e8a3d48514610456578063e985e9c51461046b57600080fd5b80639cc7f708146103c3578063a22cb465146103e3578063b88d4fde1461040357600080fd5b80634f6ccce71461031b5780636352211e1461033b57806370a082311461035b578063840f71131461037b5780638cb0a5111461039b57806395d89b41146103ae57600080fd5b806318160ddd1161013e5780632f745c59116101185780632f745c59146102b3578063310ed7f0146102d35780633e7e8669146102e657806342842e0e1461030857600080fd5b806318160ddd1461026b57806323b872dd14610280578063263f3e7e1461029357600080fd5b806301ffc9a71461018657806306fdde03146101bb578063081812fc146101dd578063095ea7b31461021557806309c3dd871461022a5780630f485c021461024a575b600080fd5b34801561019257600080fd5b506101a66101a13660046122d3565b6104b8565b60405190151581526020015b60405180910390f35b3480156101c757600080fd5b506101d061055b565b6040516101b29190612348565b3480156101e957600080fd5b506101fd6101f836600461235b565b6105ed565b6040516001600160a01b0390911681526020016101b2565b61022861022336600461238b565b61063f565b005b34801561023657600080fd5b506101d061024536600461235b565b6106cd565b61025d6102583660046123b5565b6107bf565b6040519081526020016101b2565b34801561027757600080fd5b5060375461025d565b61022861028e3660046123ea565b610801565b34801561029f57600080fd5b5061025d6102ae36600461235b565b610832565b3480156102bf57600080fd5b5061025d6102ce36600461238b565b61087a565b6102286102e1366004612416565b61091b565b3480156102f257600080fd5b5060355460405160ff90911681526020016101b2565b6102286103163660046123ea565b610931565b34801561032757600080fd5b5061025d61033636600461235b565b61094c565b34801561034757600080fd5b506101fd61035636600461235b565b6109dd565b34801561036757600080fd5b5061025d610376366004612442565b610a79565b34801561038757600080fd5b50603a546101fd906001600160a01b031681565b6102286103a93660046123b5565b610b01565b3480156103ba57600080fd5b506101d0610b88565b3480156103cf57600080fd5b5061025d6103de36600461235b565b610b97565b3480156103ef57600080fd5b506102286103fe36600461246b565b610bdf565b610228610411366004612511565b610bee565b34801561042257600080fd5b506101d061043136600461235b565b610c20565b34801561044257600080fd5b5061025d6104513660046125bc565b610cbf565b34801561046257600080fd5b506101d0610cf3565b34801561047757600080fd5b506101a66104863660046125e8565b6001600160a01b0391821660009081526039602090815260408083209390941682526002909201909152205460ff1690565b60006001600160e01b031982166301ffc9a760e01b14806104e957506001600160e01b03198216630354d60560e61b145b8061050457506001600160e01b031982166380ac58cd60e01b145b8061051f57506001600160e01b031982166370b0048160e11b145b8061053a57506001600160e01b0319821663780e9d6360e01b145b8061055557506001600160e01b03198216635b5e139f60e01b145b92915050565b60606033805461056a90612612565b80601f016020809104026020016040519081016040528092919081815260200182805461059690612612565b80156105e35780601f106105b8576101008083540402835291602001916105e3565b820191906000526020600020905b8154815290600101906020018083116105c657829003601f168201915b5050505050905090565b60006105f882610ded565b60008281526038602052604090205460378054909190811061061c5761061c61264c565b60009182526020909120600460069092020101546001600160a01b031692915050565b600061064a826109dd565b9050806001600160a01b0316836001600160a01b0316036106865760405162461bcd60e51b815260040161067d90612662565b60405180910390fd5b336001600160a01b03821614806106a257506106a28133610486565b6106be5760405162461bcd60e51b815260040161067d906126a4565b6106c88383610e41565b505050565b606060006106e660408051602081019091526000815290565b603a549091506001600160a01b031661074657600081511161071757604051806020016040528060008152506107b8565b8061072184610ed8565b604051602001610732929190612701565b6040516020818303038152906040526107b8565b603a54604051633601bfc560e11b8152600481018590526001600160a01b0390911690636c037f8a906024015b600060405180830381865afa158015610790573d6000803e3d6000fd5b505050506040513d6000823e601f3d908101601f191682016040526107b89190810190612741565b9392505050565b60006107cc338584610f6b565b60006107d785610ffb565b90506107ee84826107e788610832565b6000611005565b6107f985828561112f565b949350505050565b61080b33826113ab565b6108275760405162461bcd60e51b815260040161067d906127b8565b6106c8838383611413565b600061083d82610ded565b6000828152603860205260409020546037805490919081106108615761086161264c565b9060005260206000209060060201600101549050919050565b600061088583610a79565b82106108de5760405162461bcd60e51b815260206004820152602260248201527f455243333532353a206f776e657220696e646578206f7574206f6620626f756e604482015261647360f01b606482015260840161067d565b6001600160a01b03831660009081526039602052604090208054839081106109085761090861264c565b9060005260206000200154905092915050565b610926338483610f6b565b6106c883838361112f565b6106c883838360405180602001604052806000815250610bee565b600061095760375490565b82106109b15760405162461bcd60e51b815260206004820152602360248201527f455243333532353a20676c6f62616c20696e646578206f7574206f6620626f756044820152626e647360e81b606482015260840161067d565b603782815481106109c4576109c461264c565b9060005260206000209060060201600001549050919050565b60006109e882610ded565b600082815260386020526040902054603780549091908110610a0c57610a0c61264c565b60009182526020909120600360069092020101546001600160a01b0316905080610a745760405162461bcd60e51b8152602060048201526019602482015278115490cccd4c8d4e881a5b9d985b1a59081d1bdad95b881251603a1b604482015260640161067d565b919050565b60006001600160a01b038216610ae55760405162461bcd60e51b815260206004820152602b60248201527f455243333532353a2062616c616e636520717565727920666f7220746865207a60448201526a65726f206164647265737360a81b606482015260840161067d565b506001600160a01b031660009081526039602052604090205490565b6000610b0c846109dd565b9050806001600160a01b0316836001600160a01b031603610b3f5760405162461bcd60e51b815260040161067d90612662565b336001600160a01b0382161480610b5b5750610b5b8133610486565b610b775760405162461bcd60e51b815260040161067d906126a4565b610b82848484611574565b50505050565b60606034805461056a90612612565b6000610ba282610ded565b600082815260386020526040902054603780549091908110610bc657610bc661264c565b9060005260206000209060060201600201549050919050565b610bea3383836116ac565b5050565b610bf833836113ab565b610c145760405162461bcd60e51b815260040161067d906127b8565b610b8284848484611776565b6060610c2b82610ded565b6000610c4260408051602081019091526000815290565b603a549091506001600160a01b0316610c8e576000815111610c7357604051806020016040528060008152506107b8565b80610c7d84610ed8565b60405160200161073292919061280a565b603a546040516344a5a61760e11b8152600481018590526001600160a01b039091169063894b4c2e90602401610773565b6000610cca83610ded565b5060009182526036602090815260408084206001600160a01b0393909316845291905290205490565b60606000610d0c60408051602081019091526000815290565b603a549091506001600160a01b0316610d6c576000815111610d3d5760405180602001604052806000815250610de7565b80610d47306117e9565b604051602001610d58929190612839565b604051602081830303815290604052610de7565b603a60009054906101000a90046001600160a01b03166001600160a01b031663725fa09c6040518163ffffffff1660e01b8152600401600060405180830381865afa158015610dbf573d6000803e3d6000fd5b505050506040513d6000823e601f3d908101601f19168201604052610de79190810190612741565b91505090565b610df6816117ff565b610e3e5760405162461bcd60e51b8152602060048201526019602482015278115490cccd4c8d4e881a5b9d985b1a59081d1bdad95b881251603a1b604482015260640161067d565b50565b600081815260386020526040902054603780548492908110610e6557610e6561264c565b6000918252602090912060069091020160040180546001600160a01b0319166001600160a01b0392831617905581908316610e9f826109dd565b6001600160a01b03167f8c5be1e5ebec7d5bd14f71427d1e84f3dd0314c0f7b2291e5b200ac8c7c3b92560405160405180910390a45050565b60606000610ee58361184b565b600101905060008167ffffffffffffffff811115610f0557610f056124a2565b6040519080825280601f01601f191660200182016040528015610f2f576020820181803683370190505b5090508181016020015b600019016f181899199a1a9b1b9c1cb0b131b232b360811b600a86061a8153600a8504945084610f3957509392505050565b6000610f778385610cbf565b9050610f8384846113ab565b158015610f9257506000198114155b15610b825781811015610fe75760405162461bcd60e51b815260206004820152601f60248201527f455243333532353a20696e73756666696369656e7420616c6c6f77616e636500604482015260640161067d565b610b828385610ff68585612893565b611574565b6000610555611923565b6001600160a01b0384166110655760405162461bcd60e51b815260206004820152602160248201527f455243333532353a206d696e7420746f20746865207a65726f206164647265736044820152607360f81b606482015260840161067d565b826000036110bf5760405162461bcd60e51b815260206004820152602160248201527f455243333532353a2063616e6e6f74206d696e74207a65726f20746f6b656e496044820152601960fa1b606482015260840161067d565b6110c8836117ff565b156111155760405162461bcd60e51b815260206004820152601d60248201527f455243333532353a20746f6b656e20616c7265616479206d696e746564000000604482015260640161067d565b61112084848461193e565b61112a8382611a04565b610b82565b611138836117ff565b6111945760405162461bcd60e51b815260206004820152602760248201527f455243333532353a207472616e736665722066726f6d20696e76616c696420746044820152661bdad95b88125160ca1b606482015260840161067d565b61119d826117ff565b6111f75760405162461bcd60e51b815260206004820152602560248201527f455243333532353a207472616e7366657220746f20696e76616c696420746f6b604482015264195b88125160da1b606482015260840161067d565b60008381526038602052604081205460378054909190811061121b5761121b61264c565b90600052602060002090600602019050600060376038600086815260200190815260200160002054815481106112535761125361264c565b9060005260206000209060060201905082826002015410156112ca5760405162461bcd60e51b815260206004820152602a60248201527f455243333532353a20696e73756666696369656e742062616c616e636520666f60448201526939103a3930b739b332b960b11b606482015260840161067d565b80600101548260010154146113385760405162461bcd60e51b815260206004820152602e60248201527f455243333532353a207472616e7366657220746f20746f6b656e20776974682060448201526d191a5999995c995b9d081cdb1bdd60921b606482015260840161067d565b8282600201600082825461134c9190612893565b925050819055508281600201600082825461136791906128aa565b9091555050604051838152849086907f0b2aac84f3ec956911fd78eae5311062972ff949f38412e8da39069d9f068cc69060200160405180910390a35b5050505050565b60006113b682610ded565b60006113c1836109dd565b9050806001600160a01b0316846001600160a01b031614806113e857506113e88185610486565b806107f95750836001600160a01b0316611401846105ed565b6001600160a01b031614949350505050565b826001600160a01b0316611426826109dd565b6001600160a01b0316146114885760405162461bcd60e51b8152602060048201526024808201527f455243333532353a207472616e736665722066726f6d20696e76616c6964206f6044820152633bb732b960e11b606482015260840161067d565b6001600160a01b0382166114ec5760405162461bcd60e51b815260206004820152602560248201527f455243333532353a207472616e7366657220746f20746865207a65726f206164604482015264647265737360d81b606482015260840161067d565b60006114f782610832565b9050600061150483610b97565b9050611511600084610e41565b61151a83611a89565b6115248584611b25565b61152e8484611c46565b82846001600160a01b0316866001600160a01b03167fddf252ad1be2c89b69c2b068fc378daa952ba7f163c4a11628f55a4df523b3ef60405160405180910390a46113a4565b6001600160a01b0382166115dd5760405162461bcd60e51b815260206004820152602a60248201527f455243333532353a20617070726f76652076616c756520746f20746865207a65604482015269726f206164647265737360b01b606482015260840161067d565b6115e78284611ccf565b61164d5760008381526038602052604090205460378054909190811061160f5761160f61264c565b60009182526020808320600692909202909101600501805460018101825590835291200180546001600160a01b0319166001600160a01b0384161790555b60008381526036602090815260408083206001600160a01b038616808552908352928190208490555183815285917f621b050de0ad08b51d19b48b3e6df75348c4de6bdd93e81b252ca62e28265b1b91015b60405180910390a3505050565b816001600160a01b0316836001600160a01b03160361170d5760405162461bcd60e51b815260206004820152601a60248201527f455243333532353a20617070726f766520746f2063616c6c6572000000000000604482015260640161067d565b6001600160a01b0383811660008181526039602090815260408083209487168084526002909501825291829020805460ff191686151590811790915591519182527f17307eab39ab6107e8899845ad3d59bd9653f200f220920489ca2b5937696c31910161169f565b611781848484611413565b61178d84848484611da2565b610b825760405162461bcd60e51b815260206004820152602760248201527f455243333532353a207472616e7366657220746f206e6f6e204552433732315260448201526632b1b2b4bb32b960c91b606482015260840161067d565b60606105556001600160a01b0383166014611f5a565b6037546000901580159061055557506000828152603860205260409020546037805484929081106118325761183261264c565b9060005260206000209060060201600001541492915050565b60008072184f03e93ff9f4daa797ed6e38ed64bf6a1f0160401b831061188a5772184f03e93ff9f4daa797ed6e38ed64bf6a1f0160401b830492506040015b6d04ee2d6d415b85acef810000000083106118b6576d04ee2d6d415b85acef8100000000830492506020015b662386f26fc1000083106118d457662386f26fc10000830492506010015b6305f5e10083106118ec576305f5e100830492506008015b612710831061190057612710830492506004015b60648310611912576064830492506002015b600a83106105555760010192915050565b600061192e60375490565b6119399060016128aa565b905090565b6040805160c081018252838152602080820184905260008284018190526001600160a01b038716606084015260808301819052835181815291820190935260a0820152905061198c816120f6565b6119968484611c46565b60405183906001600160a01b038616906000907fddf252ad1be2c89b69c2b068fc378daa952ba7f163c4a11628f55a4df523b3ef908290a4816000847fe4f48c240d3b994948aa54f3e2f5fca59263dfe1d52b6e4cf39a5d249b5ccb6560405160405180910390a450505050565b600082815260386020526040902054603780548392908110611a2857611a2861264c565b90600052602060002090600602016002016000828254611a4891906128aa565b909155505060405181815282906000907f0b2aac84f3ec956911fd78eae5311062972ff949f38412e8da39069d9f068cc69060200160405180910390a35050565b600081815260386020526040812054603780549091908110611aad57611aad61264c565b600091825260208220600560069092020190810154909250905b81811015610b82576000836005018281548110611ae657611ae661264c565b60009182526020808320909101548783526036825260408084206001600160a01b03909216845291528120555080611b1d816128c2565b915050611ac7565b600081815260386020526040812054603780549091908110611b4957611b4961264c565b6000918252602080832060069290920290910160030180546001600160a01b0319166001600160a01b0394851617905591841681526039909152604081208054909190611b9890600190612893565b90506000826000018281548110611bb157611bb161264c565b90600052602060002001549050600083600101600086815260200190815260200160002054905081846000018281548110611bee57611bee61264c565b60009182526020808320909101929092558381526001860190915260408082208390558682528120558354849080611c2857611c286128db565b60019003818190600052602060002001600090559055505050505050565b600081815260386020526040902054603780548492908110611c6a57611c6a61264c565b6000918252602080832060069290920290910160030180546001600160a01b0319166001600160a01b03948516179055939091168152603980845260408083208054858552600182810188529285208190559286529082018155825292902090910155565b600081815260386020526040812054603780548392908110611cf357611cf361264c565b6000918252602082206005600690920201015491505b81811015611d9757600084815260386020526040902054603780546001600160a01b03881692908110611d3e57611d3e61264c565b90600052602060002090600602016005018281548110611d6057611d6061264c565b6000918252602090912001546001600160a01b031603611d8557600192505050610555565b80611d8f816128c2565b915050611d09565b506000949350505050565b60006001600160a01b0384163b15158015611e2757506040516301ffc9a760e01b8152630a85bd0160e11b60048201526001600160a01b038516906301ffc9a790602401602060405180830381865afa158015611e03573d6000803e3d6000fd5b505050506040513d601f19601f82011682018060405250810190611e2791906128f1565b15611f4f57604051630a85bd0160e11b81526001600160a01b0385169063150b7a0290611e5e90339089908890889060040161290e565b6020604051808303816000875af1925050508015611e99575060408051601f3d908101601f19168201909252611e969181019061294b565b60015b611f35573d808015611ec7576040519150601f19603f3d011682016040523d82523d6000602084013e611ecc565b606091505b508051600003611f2d5760405162461bcd60e51b815260206004820152602660248201527f4552433732313a207472616e7366657220746f206e6f6e20455243373231526560448201526531b2b4bb32b960d11b606482015260840161067d565b805181602001fd5b6001600160e01b031916630a85bd0160e11b1490506107f9565b506001949350505050565b60606000611f69836002612968565b611f749060026128aa565b67ffffffffffffffff811115611f8c57611f8c6124a2565b6040519080825280601f01601f191660200182016040528015611fb6576020820181803683370190505b509050600360fc1b81600081518110611fd157611fd161264c565b60200101906001600160f81b031916908160001a905350600f60fb1b816001815181106120005761200061264c565b60200101906001600160f81b031916908160001a9053506000612024846002612968565b61202f9060016128aa565b90505b60018111156120a7576f181899199a1a9b1b9c1cb0b131b232b360811b85600f16601081106120635761206361264c565b1a60f81b8282815181106120795761207961264c565b60200101906001600160f81b031916908160001a90535060049490941c936120a081612987565b9050612032565b5083156107b85760405162461bcd60e51b815260206004820181905260248201527f537472696e67733a20686578206c656e67746820696e73756666696369656e74604482015260640161067d565b603780548251600090815260386020908152604080832084905560018401855593909152835160069092027f42a7b7dd785cd69714a189dffb3fd7d7174edc9ece837694ce50f7078f7c31ae8101928355818501517f42a7b7dd785cd69714a189dffb3fd7d7174edc9ece837694ce50f7078f7c31af820155928401517f42a7b7dd785cd69714a189dffb3fd7d7174edc9ece837694ce50f7078f7c31b084015560608401517f42a7b7dd785cd69714a189dffb3fd7d7174edc9ece837694ce50f7078f7c31b1840180546001600160a01b039283166001600160a01b03199182161790915560808601517f42a7b7dd785cd69714a189dffb3fd7d7174edc9ece837694ce50f7078f7c31b28601805491909316911617905560a084015180518594610b82937f42a7b7dd785cd69714a189dffb3fd7d7174edc9ece837694ce50f7078f7c31b3909101920190828054828255906000526020600020908101928215612298579160200282015b8281111561229857825182546001600160a01b0319166001600160a01b03909116178255602090920191600190910190612263565b506122a49291506122a8565b5090565b5b808211156122a457600081556001016122a9565b6001600160e01b031981168114610e3e57600080fd5b6000602082840312156122e557600080fd5b81356107b8816122bd565b60005b8381101561230b5781810151838201526020016122f3565b83811115610b825750506000910152565b600081518084526123348160208601602086016122f0565b601f01601f19169290920160200192915050565b6020815260006107b8602083018461231c565b60006020828403121561236d57600080fd5b5035919050565b80356001600160a01b0381168114610a7457600080fd5b6000806040838503121561239e57600080fd5b6123a783612374565b946020939093013593505050565b6000806000606084860312156123ca57600080fd5b833592506123da60208501612374565b9150604084013590509250925092565b6000806000606084860312156123ff57600080fd5b61240884612374565b92506123da60208501612374565b60008060006060848603121561242b57600080fd5b505081359360208301359350604090920135919050565b60006020828403121561245457600080fd5b6107b882612374565b8015158114610e3e57600080fd5b6000806040838503121561247e57600080fd5b61248783612374565b915060208301356124978161245d565b809150509250929050565b634e487b7160e01b600052604160045260246000fd5b604051601f8201601f1916810167ffffffffffffffff811182821017156124e1576124e16124a2565b604052919050565b600067ffffffffffffffff821115612503576125036124a2565b50601f01601f191660200190565b6000806000806080858703121561252757600080fd5b61253085612374565b935061253e60208601612374565b925060408501359150606085013567ffffffffffffffff81111561256157600080fd5b8501601f8101871361257257600080fd5b8035612585612580826124e9565b6124b8565b81815288602083850101111561259a57600080fd5b8160208401602083013760006020838301015280935050505092959194509250565b600080604083850312156125cf57600080fd5b823591506125df60208401612374565b90509250929050565b600080604083850312156125fb57600080fd5b61260483612374565b91506125df60208401612374565b600181811c9082168061262657607f821691505b60208210810361264657634e487b7160e01b600052602260045260246000fd5b50919050565b634e487b7160e01b600052603260045260246000fd5b60208082526022908201527f455243333532353a20617070726f76616c20746f2063757272656e74206f776e60408201526132b960f11b606082015260800190565b60208082526039908201527f455243333532353a20617070726f76652063616c6c6572206973206e6f74206f60408201527f776e6572206e6f7220617070726f76656420666f7220616c6c00000000000000606082015260800190565b600083516127138184602088016122f0565b64736c6f742f60d81b90830190815283516127358160058401602088016122f0565b01600501949350505050565b60006020828403121561275357600080fd5b815167ffffffffffffffff81111561276a57600080fd5b8201601f8101841361277b57600080fd5b8051612789612580826124e9565b81815285602083850101111561279e57600080fd5b6127af8260208301602086016122f0565b95945050505050565b60208082526032908201527f455243333532353a207472616e736665722063616c6c6572206973206e6f74206040820152711bdddb995c881b9bdc88185c1c1c9bdd995960721b606082015260800190565b6000835161281c8184602088016122f0565b8351908301906128308183602088016122f0565b01949350505050565b6000835161284b8184602088016122f0565b68636f6e74726163742f60b81b90830190815283516128718160098401602088016122f0565b01600901949350505050565b634e487b7160e01b600052601160045260246000fd5b6000828210156128a5576128a561287d565b500390565b600082198211156128bd576128bd61287d565b500190565b6000600182016128d4576128d461287d565b5060010190565b634e487b7160e01b600052603160045260246000fd5b60006020828403121561290357600080fd5b81516107b88161245d565b6001600160a01b03858116825284166020820152604081018390526080606082018190526000906129419083018461231c565b9695505050505050565b60006020828403121561295d57600080fd5b81516107b8816122bd565b60008160001904831182151516156129825761298261287d565b500290565b6000816129965761299661287d565b50600019019056fea264697066735822122055f8ba747782f38c03b6285e16ceccdf00a30bd887b3fcbe47055fa2e3436b9364736f6c634300080f0033",
  "linkReferences": {},
  "deployedLinkReferences": {}
}