{
  "_format": "hh-sol-artifact-1",
  "contractName": "Vault",
  "sourceName": "contracts/Vault/Vault.sol",
  "abi": [
    {
      "anonymous": false,
      "inputs": [
        {
          "indexed": false,
          "internalType": "uint256",
          "name": "older",
          "type": "uint256"
        },
        {
          "indexed": false,
          "internalType": "uint256",
          "name": "renew",
          "type": "uint256"
        }
      ],
      "name": "ChangedManageFee",
      "type": "event"
    },
    {
      "anonymous": false,
      "inputs": [
        {
          "indexed": true,
          "internalType": "address",
          "name": "caller",
          "type": "address"
        },
        {
          "indexed": false,
          "internalType": "uint256",
          "name": "amount",
          "type": "uint256"
        }
      ],
      "name": "ClaimManagerFee",
      "type": "event"
    },
    {
      "anonymous": false,
      "inputs": [
        {
          "indexed": true,
          "internalType": "address",
          "name": "caller",
          "type": "address"
        },
        {
          "indexed": false,
          "internalType": "uint256",
          "name": "amount",
          "type": "uint256"
        }
      ],
      "name": "ClaimManagerFeeForPlatform",
      "type": "event"
    },
    {
      "anonymous": false,
      "inputs": [
        {
          "indexed": true,
          "internalType": "address",
          "name": "caller",
          "type": "address"
        },
        {
          "indexed": false,
          "internalType": "uint256",
          "name": "amount",
          "type": "uint256"
        }
      ],
      "name": "ClaimManagerFeeForProject",
      "type": "event"
    },
    {
      "anonymous": false,
      "inputs": [
        {
          "indexed": true,
          "internalType": "address",
          "name": "caller",
          "type": "address"
        },
        {
          "indexed": false,
          "internalType": "uint256",
          "name": "amount",
          "type": "uint256"
        }
      ],
      "name": "ClaimUserReward",
      "type": "event"
    },
    {
      "anonymous": false,
      "inputs": [
        {
          "indexed": false,
          "internalType": "address",
          "name": "from",
          "type": "address"
        },
        {
          "indexed": false,
          "internalType": "address",
          "name": "to",
          "type": "address"
        }
      ],
      "name": "TransferManager",
      "type": "event"
    },
    {
      "inputs": [],
      "name": "Platform",
      "outputs": [
        {
          "internalType": "contract IPlatform",
          "name": "",
          "type": "address"
        }
      ],
      "stateMutability": "view",
      "type": "function"
    },
    {
      "inputs": [
        {
          "internalType": "uint256",
          "name": "manageFee_",
          "type": "uint256"
        }
      ],
      "name": "changeManageFee",
      "outputs": [],
      "stateMutability": "nonpayable",
      "type": "function"
    },
    {
      "inputs": [
        {
          "internalType": "address",
          "name": "manager_",
          "type": "address"
        }
      ],
      "name": "changeManager",
      "outputs": [],
      "stateMutability": "nonpayable",
      "type": "function"
    },
    {
      "inputs": [],
      "name": "contractBalance",
      "outputs": [
        {
          "internalType": "uint256",
          "name": "",
          "type": "uint256"
        }
      ],
      "stateMutability": "view",
      "type": "function"
    },
    {
      "inputs": [],
      "name": "manageFee",
      "outputs": [
        {
          "internalType": "uint256",
          "name": "",
          "type": "uint256"
        }
      ],
      "stateMutability": "view",
      "type": "function"
    },
    {
      "inputs": [],
      "name": "manager",
      "outputs": [
        {
          "internalType": "address",
          "name": "",
          "type": "address"
        }
      ],
      "stateMutability": "view",
      "type": "function"
    },
    {
      "inputs": [],
      "name": "shareSupply",
      "outputs": [
        {
          "internalType": "uint256",
          "name": "",
          "type": "uint256"
        }
      ],
      "stateMutability": "view",
      "type": "function"
    },
    {
      "inputs": [
        {
          "internalType": "uint256",
          "name": "",
          "type": "uint256"
        }
      ],
      "name": "tokenHasReward",
      "outputs": [
        {
          "internalType": "uint256",
          "name": "",
          "type": "uint256"
        }
      ],
      "stateMutability": "view",
      "type": "function"
    },
    {
      "inputs": [
        {
          "internalType": "address",
          "name": "users_",
          "type": "address"
        }
      ],
      "name": "userCouldRewardTotal",
      "outputs": [
        {
          "internalType": "uint256",
          "name": "",
          "type": "uint256"
        }
      ],
      "stateMutability": "nonpayable",
      "type": "function"
    },
    {
      "inputs": [
        {
          "internalType": "address",
          "name": "",
          "type": "address"
        }
      ],
      "name": "userPools",
      "outputs": [
        {
          "internalType": "uint256",
          "name": "transferOut",
          "type": "uint256"
        },
        {
          "internalType": "uint256",
          "name": "transferIn",
          "type": "uint256"
        },
        {
          "internalType": "uint256",
          "name": "hasWithdrew",
          "type": "uint256"
        },
        {
          "internalType": "uint256",
          "name": "hasRecived",
          "type": "uint256"
        },
        {
          "internalType": "uint256",
          "name": "hasWithdrewTimes",
          "type": "uint256"
        }
      ],
      "stateMutability": "view",
      "type": "function"
    },
    {
      "inputs": [],
      "name": "userWithdrew",
      "outputs": [],
      "stateMutability": "nonpayable",
      "type": "function"
    },
    {
      "stateMutability": "payable",
      "type": "receive"
    }
  ],
  "bytecode": "0x608060405234801561001057600080fd5b50611d3e806100206000396000f3fe6080604052600436106100a05760003560e01c806372b0e8c01161006457806372b0e8c0146101c35780638b7afe2e14610200578063a3fbbaae1461022b578063a4144c6614610254578063c3038e5814610291578063fa16ab6c146102a8576100d3565b806301f091c6146100d857806333049e0e14610103578063481c6a75146101445780634bbdf4da1461016f5780634c25b94a1461019a576100d3565b366100d3576100b967f7468482f9dab99460c01b6102d3565b34600260008282546100cb9190611666565b925050819055005b600080fd5b3480156100e457600080fd5b506100ed6102d6565b6040516100fa91906116cb565b60405180910390f35b34801561010f57600080fd5b5061012a60048036038101906101259190611749565b6102dc565b60405161013b959493929190611776565b60405180910390f35b34801561015057600080fd5b50610159610312565b60405161016691906117d8565b60405180910390f35b34801561017b57600080fd5b50610184610336565b60405161019191906116cb565b60405180910390f35b3480156101a657600080fd5b506101c160048036038101906101bc919061181f565b61033c565b005b3480156101cf57600080fd5b506101ea60048036038101906101e5919061181f565b6104b2565b6040516101f791906116cb565b60405180910390f35b34801561020c57600080fd5b506102156104ca565b60405161022291906116cb565b60405180910390f35b34801561023757600080fd5b50610252600480360381019061024d9190611749565b6104d0565b005b34801561026057600080fd5b5061027b60048036038101906102769190611749565b610646565b60405161028891906116cb565b60405180910390f35b34801561029d57600080fd5b506102a6610694565b005b3480156102b457600080fd5b506102bd61108f565b6040516102ca91906118ab565b60405180910390f35b50565b60035481565b60056020528060005260406000206000915090508060000154908060010154908060020154908060030154908060040154905085565b60008054906101000a900473ffffffffffffffffffffffffffffffffffffffff1681565b60015481565b610350679cdd56e275fc025460c01b6110b5565b61036467b74d5435e281506a60c01b6110b5565b610378676bc51b5cbdc3d81160c01b6110b5565b61038c677aaef1cf465f383a60c01b6110b5565b6103a067f82903caa5d73da560c01b6110b5565b60008054906101000a900473ffffffffffffffffffffffffffffffffffffffff1673ffffffffffffffffffffffffffffffffffffffff163373ffffffffffffffffffffffffffffffffffffffff161461042e576040517f08c379a000000000000000000000000000000000000000000000000000000000815260040161042590611923565b60405180910390fd5b6104426703a6a43a7a2d6a9c60c01b6110b5565b61045667e3b51986aac8984260c01b6110b5565b61046a6777245ce0eb1011e060c01b6110b5565b61047e6776afbd47edec53f360c01b6110b5565b610492678323c2c351928bdd60c01b6110b5565b6104a667a9b89ba7b07bac7e60c01b6110b5565b6104af816110b8565b50565b60066020528060005260406000206000915090505481565b60025481565b6104e46733f1c155d11e344460c01b6110b5565b6104f867b74d5435e281506a60c01b6110b5565b61050c676bc51b5cbdc3d81160c01b6110b5565b610520677aaef1cf465f383a60c01b6110b5565b61053467f82903caa5d73da560c01b6110b5565b60008054906101000a900473ffffffffffffffffffffffffffffffffffffffff1673ffffffffffffffffffffffffffffffffffffffff163373ffffffffffffffffffffffffffffffffffffffff16146105c2576040517f08c379a00000000000000000000000000000000000000000000000000000000081526004016105b990611923565b60405180910390fd5b6105d66703a6a43a7a2d6a9c60c01b6110b5565b6105ea67e3b51986aac8984260c01b6110b5565b6105fe673250c9c0aeaea79160c01b6110b5565b61061267885801ea0112a41660c01b6110b5565b61062667364115fefbca1c5660c01b6110b5565b61063a6706945023932c279360c01b6110b5565b6106438161114d565b50565b600061065c6789bd44323d35f43a60c01b6102d3565b61067067f8ae3b8fa96cc26a60c01b6102d3565b6106846726e31ed99bcbbe2960c01b6102d3565b61068d82611239565b9050919050565b6106a867d049c4ea6d35792560c01b6102d3565b6106bc67ff16f29f6821856e60c01b6102d3565b6106d067d505c43a6128226860c01b6102d3565b6106e467ac8da4215f5d978f60c01b6102d3565b6106f8672ae2225ba560dac460c01b6102d3565b60001515600460149054906101000a900460ff1615151461074e576040517f08c379a00000000000000000000000000000000000000000000000000000000081526004016107459061198f565b60405180910390fd5b610762676c5d0e17b0aae3de60c01b6102d3565b610776675e38bdf439d2e21060c01b6102d3565b6001600460146101000a81548160ff0219169083151502179055506107a56774091516b9bac29e60c01b6102d3565b6107b967b27e7b14a3752bd560c01b6102d3565b6107cd676d59d6d76198b11e60c01b6102d3565b6107e16738318f7eac9680e260c01b6102d3565b6107f567a8fac0b41095d21d60c01b6102d3565b600033905061080e677a9df7a99f9a2c6d60c01b6102d3565b610822675d3297b4f8e69a8460c01b6102d3565b60003073ffffffffffffffffffffffffffffffffffffffff1663a4144c66836040518263ffffffff1660e01b815260040161085d91906117d8565b6020604051808303816000875af115801561087c573d6000803e3d6000fd5b505050506040513d601f19601f820116820180604052508101906108a091906119c4565b90506108b667d5943b45816421cc60c01b6102d3565b6108ca6726958bff784dc4f160c01b6102d3565b6000670de0b6b3a764000082600460009054906101000a900473ffffffffffffffffffffffffffffffffffffffff1673ffffffffffffffffffffffffffffffffffffffff16634bbdf4da6040518163ffffffff1660e01b8152600401602060405180830381865afa158015610943573d6000803e3d6000fd5b505050506040513d601f19601f8201168201806040525081019061096791906119c4565b61097191906119f1565b61097b9190611a7a565b905061099167e758b3061723536860c01b6102d3565b6109a567df1369625e905d8760c01b6102d3565b6000670de0b6b3a7640000836001546109be91906119f1565b6109c89190611a7a565b90506109de67021456000006960360c01b6102d3565b6109f1662dcd20a13e81a660c01b6102d3565b6000818385610a009190611aab565b610a0a9190611aab565b9050610a20678277a41da19239e960c01b6102d3565b610a34676a9b7ee718508db160c01b6102d3565b610a4867afa89c842ef85c5260c01b6102d3565b60008111610a8b576040517f08c379a0000000000000000000000000000000000000000000000000000000008152600401610a8290611b2b565b60405180910390fd5b610a9f67b06aa7bebe34520d60c01b6102d3565b610ab3671c3b2124a4d7d10b60c01b6102d3565b610ac767c5b23614db501ada60c01b6102d3565b60008573ffffffffffffffffffffffffffffffffffffffff1682604051610aed90611b7c565b60006040518083038185875af1925050503d8060008114610b2a576040519150601f19603f3d011682016040523d82523d6000602084013e610b2f565b606091505b50509050610b4767b6cf703a6142974160c01b6102d3565b610b5b67ed67492203e7adf360c01b6102d3565b6000600460009054906101000a900473ffffffffffffffffffffffffffffffffffffffff1673ffffffffffffffffffffffffffffffffffffffff1663f7260d3e6040518163ffffffff1660e01b8152600401602060405180830381865afa158015610bca573d6000803e3d6000fd5b505050506040513d601f19601f82011682018060405250810190610bee9190611ba6565b73ffffffffffffffffffffffffffffffffffffffff1685604051610c1190611b7c565b60006040518083038185875af1925050503d8060008114610c4e576040519150601f19603f3d011682016040523d82523d6000602084013e610c53565b606091505b50509050610c6b67e8f7f989ab03ce4360c01b6102d3565b610c7f67e617a9cd0567691360c01b6102d3565b60008060009054906101000a900473ffffffffffffffffffffffffffffffffffffffff1673ffffffffffffffffffffffffffffffffffffffff1685604051610cc690611b7c565b60006040518083038185875af1925050503d8060008114610d03576040519150601f19603f3d011682016040523d82523d6000602084013e610d08565b606091505b50509050610d206746fa2c78113ce98860c01b6102d3565b86600560008a73ffffffffffffffffffffffffffffffffffffffff1673ffffffffffffffffffffffffffffffffffffffff1681526020019081526020016000206002016000828254610d729190611666565b92505081905550610d8d67cf9b4933466bb16660c01b6102d3565b83600560008a73ffffffffffffffffffffffffffffffffffffffff1673ffffffffffffffffffffffffffffffffffffffff1681526020019081526020016000206003016000828254610ddf9190611666565b92505081905550610dfa6703b4ce515bbe8cf160c01b6102d3565b600560008973ffffffffffffffffffffffffffffffffffffffff1673ffffffffffffffffffffffffffffffffffffffff1681526020019081526020016000206004016000815480929190610e4d90611bd3565b9190505550610e666741826ed3b322867760c01b6102d3565b610e7a6762b1f60ed58717e660c01b6102d3565b8773ffffffffffffffffffffffffffffffffffffffff167fe05c92009ad7a2dc1d087bac1908f1723f0ac35037a1942e0cc36771cd68833387604051610ec091906116cb565b60405180910390a2610edc67de28ea8343ea115360c01b6102d3565b610ef0675aa6fe500d9bca6b60c01b6102d3565b8773ffffffffffffffffffffffffffffffffffffffff167f97fbf4a315b9911bf54253961208dd75da3aae82429cab8a67f05e2e1cf6270086604051610f3691906116cb565b60405180910390a2610f5267aa7c8f1330423ecd60c01b6102d3565b610f66679ea94dba371b3aa360c01b6102d3565b8773ffffffffffffffffffffffffffffffffffffffff167f805346440fb3a5be700772454d056a0de7c6c6651e206d1d547bff0f7339324985604051610fac91906116cb565b60405180910390a2610fc86765f54e1ceeba42d260c01b6102d3565b610fdc67e1f10aac8a84869760c01b6102d3565b610ff067a9da7714637fbdeb60c01b6102d3565b828015610ffa5750815b80156110035750805b611042576040517f08c379a000000000000000000000000000000000000000000000000000000000815260040161103990611c67565b60405180910390fd5b611056676190c34d6e47907860c01b6102d3565b505050505050505061107267f33aec307e506c5560c01b6102d3565b6000600460146101000a81548160ff021916908315150217905550565b600460009054906101000a900473ffffffffffffffffffffffffffffffffffffffff1681565b50565b6110cc67e86a543f964014b660c01b6110b5565b6110e06779e32909ad5c7dfc60c01b6110b5565b6110f4670435e5622c438a1960c01b6110b5565b7f084d7536bcea784fc97ae33946b3efaaaedc28d728e856ef970a820d14748bfe60015482604051611127929190611c87565b60405180910390a161114367b60da84cb7023d6e60c01b6110b5565b8060018190555050565b6111616730cfd29e517d10b860c01b6110b5565b61117567083dfa2b3621890e60c01b6110b5565b6111896726aea8296e7e1d1060c01b6110b5565b7f3eadceefe02aa6afb5514ad1b2ab3f21eb26dd571b170168413057c70615606b60008054906101000a900473ffffffffffffffffffffffffffffffffffffffff16826040516111da929190611cb0565b60405180910390a16111f66722192b2f327609ea60c01b6110b5565b806000806101000a81548173ffffffffffffffffffffffffffffffffffffffff021916908373ffffffffffffffffffffffffffffffffffffffff16021790555050565b600061124f67d1ec494d17b1c8d260c01b6102d3565b611263675423d98c9e43693e60c01b6102d3565b611277673be46207dc7848f660c01b6102d3565b60008061128384611447565b9150915061129b674b1e7df1378e292d60c01b6102d3565b6112af67862be14b873eb46d60c01b6102d3565b60006112c567a8975f8db401b83160c01b6102d3565b6112d967ec4b6cd5cdee4fac60c01b6102d3565b60005b8351811015611413576112f96763f60db2d889768a60c01b6102d3565b61130d674d82ff9a8c2c87fa60c01b6102d3565b600084828151811061132257611321611cd9565b5b60200260200101519050611340672231e1176d13f32a60c01b6102d3565b61135467733a8adfd438d23f60c01b6102d3565b600084838151811061136957611368611cd9565b5b602002602001015190506113876789e0bfbe50f8c26c60c01b6102d3565b61139b678eb7a958b6d7cce760c01b6102d3565b60006113a78383611463565b90506113bd67bcc4745047a391c960c01b6102d3565b80856113c99190611666565b94506113df67d4c172ceab2a544660c01b6102d3565b6113f3674e05c53a2837ffb460c01b6102d3565b6113fd8382611538565b505050808061140b90611bd3565b9150506112dc565b5061142867406e549f11c8facf60c01b6102d3565b61143c671a56041d1adfd1e060c01b6102d3565b809350505050919050565b60608061145e673a11f9b3de3783fb60c01b6102d3565b915091565b60006114796785eebd2386899cce60c01b6102d3565b61148d677458bb02b756cfee60c01b6102d3565b6114a1679efb35a3cd7cdf7e60c01b6102d3565b60006114ac8461158e565b90506114c2676093714e17e9d02f60c01b6102d3565b6114d6678d3da59f1981c98e60c01b6102d3565b6000600354846114e46115e7565b6114ee91906119f1565b6114f89190611a7a565b905061150e6773c28098fa21afc660c01b6102d3565b611522674dded28cd2f2bf9b60c01b6102d3565b818161152e9190611aab565b9250505092915050565b61154c67690f8284fd4e9e2260c01b6102d3565b611560677c54878f44cd011160c01b6102d3565b806006600084815260200190815260200160002060008282546115839190611666565b925050819055505050565b60006115a467c8a73a1421f29a3e60c01b6102d3565b6115b8674c5b6576e8302ba860c01b6102d3565b6115cc6779c7f47875cf45eb60c01b6102d3565b60066000838152602001908152602001600020549050919050565b60006115fd672990a07bbed37f7b60c01b6102d3565b61161167ab1ef1763ef4754360c01b6102d3565b61162567c320a1874a72f25660c01b6102d3565b600254905090565b6000819050919050565b7f4e487b7100000000000000000000000000000000000000000000000000000000600052601160045260246000fd5b60006116718261162d565b915061167c8361162d565b9250827fffffffffffffffffffffffffffffffffffffffffffffffffffffffffffffffff038211156116b1576116b0611637565b5b828201905092915050565b6116c58161162d565b82525050565b60006020820190506116e060008301846116bc565b92915050565b600080fd5b600073ffffffffffffffffffffffffffffffffffffffff82169050919050565b6000611716826116eb565b9050919050565b6117268161170b565b811461173157600080fd5b50565b6000813590506117438161171d565b92915050565b60006020828403121561175f5761175e6116e6565b5b600061176d84828501611734565b91505092915050565b600060a08201905061178b60008301886116bc565b61179860208301876116bc565b6117a560408301866116bc565b6117b260608301856116bc565b6117bf60808301846116bc565b9695505050505050565b6117d28161170b565b82525050565b60006020820190506117ed60008301846117c9565b92915050565b6117fc8161162d565b811461180757600080fd5b50565b600081359050611819816117f3565b92915050565b600060208284031215611835576118346116e6565b5b60006118438482850161180a565b91505092915050565b6000819050919050565b600061187161186c611867846116eb565b61184c565b6116eb565b9050919050565b600061188382611856565b9050919050565b600061189582611878565b9050919050565b6118a58161188a565b82525050565b60006020820190506118c0600083018461189c565b92915050565b600082825260208201905092915050565b7f4552525f4e4f545f4d414e414745520000000000000000000000000000000000600082015250565b600061190d600f836118c6565b9150611918826118d7565b602082019050919050565b6000602082019050818103600083015261193c81611900565b9050919050565b7f4552525f4e4f545f534146450000000000000000000000000000000000000000600082015250565b6000611979600c836118c6565b915061198482611943565b602082019050919050565b600060208201905081810360008301526119a88161196c565b9050919050565b6000815190506119be816117f3565b92915050565b6000602082840312156119da576119d96116e6565b5b60006119e8848285016119af565b91505092915050565b60006119fc8261162d565b9150611a078361162d565b9250817fffffffffffffffffffffffffffffffffffffffffffffffffffffffffffffffff0483118215151615611a4057611a3f611637565b5b828202905092915050565b7f4e487b7100000000000000000000000000000000000000000000000000000000600052601260045260246000fd5b6000611a858261162d565b9150611a908361162d565b925082611aa057611a9f611a4b565b5b828204905092915050565b6000611ab68261162d565b9150611ac18361162d565b925082821015611ad457611ad3611637565b5b828203905092915050565b7f4552525f4e4f545f524557415244000000000000000000000000000000000000600082015250565b6000611b15600e836118c6565b9150611b2082611adf565b602082019050919050565b60006020820190508181036000830152611b4481611b08565b9050919050565b600081905092915050565b50565b6000611b66600083611b4b565b9150611b7182611b56565b600082019050919050565b6000611b8782611b59565b9150819050919050565b600081519050611ba08161171d565b92915050565b600060208284031215611bbc57611bbb6116e6565b5b6000611bca84828501611b91565b91505092915050565b6000611bde8261162d565b91507fffffffffffffffffffffffffffffffffffffffffffffffffffffffffffffffff8203611c1057611c0f611637565b5b600182019050919050565b7f4552525f57495448445245575f4641494c454400000000000000000000000000600082015250565b6000611c516013836118c6565b9150611c5c82611c1b565b602082019050919050565b60006020820190508181036000830152611c8081611c44565b9050919050565b6000604082019050611c9c60008301856116bc565b611ca960208301846116bc565b9392505050565b6000604082019050611cc560008301856117c9565b611cd260208301846117c9565b9392505050565b7f4e487b7100000000000000000000000000000000000000000000000000000000600052603260045260246000fdfea26469706673582212203e24c53021b6a04f323c1349b9674e8c338e16e57099e76cd1b385c2723b885364736f6c634300080f0033",
  "linkReferences": {},
  "deployedLinkReferences": {}
}