{
  "_format": "hh-sol-artifact-1",
  "contractName": "Vault",
  "sourceName": "contracts/Vault/Vault.sol",
  "abi": [
    {
      "anonymous": false,
      "inputs": [
        {
          "indexed": false,
          "internalType": "uint256",
          "name": "older",
          "type": "uint256"
        },
        {
          "indexed": false,
          "internalType": "uint256",
          "name": "renew",
          "type": "uint256"
        }
      ],
      "name": "ChangedManageFee",
      "type": "event"
    },
    {
      "anonymous": false,
      "inputs": [
        {
          "indexed": true,
          "internalType": "address",
          "name": "caller",
          "type": "address"
        },
        {
          "indexed": false,
          "internalType": "uint256",
          "name": "amount",
          "type": "uint256"
        }
      ],
      "name": "ClaimManagerFee",
      "type": "event"
    },
    {
      "anonymous": false,
      "inputs": [
        {
          "indexed": true,
          "internalType": "address",
          "name": "caller",
          "type": "address"
        },
        {
          "indexed": false,
          "internalType": "uint256",
          "name": "amount",
          "type": "uint256"
        }
      ],
      "name": "ClaimManagerFeeForPlatform",
      "type": "event"
    },
    {
      "anonymous": false,
      "inputs": [
        {
          "indexed": true,
          "internalType": "address",
          "name": "caller",
          "type": "address"
        },
        {
          "indexed": false,
          "internalType": "uint256",
          "name": "amount",
          "type": "uint256"
        }
      ],
      "name": "ClaimManagerFeeForProject",
      "type": "event"
    },
    {
      "anonymous": false,
      "inputs": [
        {
          "indexed": true,
          "internalType": "address",
          "name": "caller",
          "type": "address"
        },
        {
          "indexed": false,
          "internalType": "uint256",
          "name": "amount",
          "type": "uint256"
        }
      ],
      "name": "ClaimUserReward",
      "type": "event"
    },
    {
      "anonymous": false,
      "inputs": [
        {
          "indexed": false,
          "internalType": "address",
          "name": "from",
          "type": "address"
        },
        {
          "indexed": false,
          "internalType": "address",
          "name": "to",
          "type": "address"
        }
      ],
      "name": "TransferManager",
      "type": "event"
    },
    {
      "inputs": [],
      "name": "Platform",
      "outputs": [
        {
          "internalType": "contract IPlatform",
          "name": "",
          "type": "address"
        }
      ],
      "stateMutability": "view",
      "type": "function"
    },
    {
      "inputs": [
        {
          "internalType": "uint256",
          "name": "manageFee_",
          "type": "uint256"
        }
      ],
      "name": "changeManageFee",
      "outputs": [],
      "stateMutability": "nonpayable",
      "type": "function"
    },
    {
      "inputs": [
        {
          "internalType": "address",
          "name": "manager_",
          "type": "address"
        }
      ],
      "name": "changeManager",
      "outputs": [],
      "stateMutability": "nonpayable",
      "type": "function"
    },
    {
      "inputs": [],
      "name": "contractBalance",
      "outputs": [
        {
          "internalType": "uint256",
          "name": "",
          "type": "uint256"
        }
      ],
      "stateMutability": "view",
      "type": "function"
    },
    {
      "inputs": [],
      "name": "manageFee",
      "outputs": [
        {
          "internalType": "uint256",
          "name": "",
          "type": "uint256"
        }
      ],
      "stateMutability": "view",
      "type": "function"
    },
    {
      "inputs": [],
      "name": "manager",
      "outputs": [
        {
          "internalType": "address",
          "name": "",
          "type": "address"
        }
      ],
      "stateMutability": "view",
      "type": "function"
    },
    {
      "inputs": [],
      "name": "shareSupply",
      "outputs": [
        {
          "internalType": "uint256",
          "name": "",
          "type": "uint256"
        }
      ],
      "stateMutability": "view",
      "type": "function"
    },
    {
      "inputs": [
        {
          "internalType": "uint256",
          "name": "",
          "type": "uint256"
        }
      ],
      "name": "tokenHasReward",
      "outputs": [
        {
          "internalType": "uint256",
          "name": "",
          "type": "uint256"
        }
      ],
      "stateMutability": "view",
      "type": "function"
    },
    {
      "inputs": [
        {
          "internalType": "address",
          "name": "users_",
          "type": "address"
        }
      ],
      "name": "userCouldRewardTotal",
      "outputs": [
        {
          "internalType": "uint256",
          "name": "",
          "type": "uint256"
        }
      ],
      "stateMutability": "nonpayable",
      "type": "function"
    },
    {
      "inputs": [
        {
          "internalType": "address",
          "name": "",
          "type": "address"
        }
      ],
      "name": "userPools",
      "outputs": [
        {
          "internalType": "uint256",
          "name": "transferOut",
          "type": "uint256"
        },
        {
          "internalType": "uint256",
          "name": "transferIn",
          "type": "uint256"
        },
        {
          "internalType": "uint256",
          "name": "hasWithdrew",
          "type": "uint256"
        },
        {
          "internalType": "uint256",
          "name": "hasRecived",
          "type": "uint256"
        },
        {
          "internalType": "uint256",
          "name": "hasWithdrewTimes",
          "type": "uint256"
        }
      ],
      "stateMutability": "view",
      "type": "function"
    },
    {
      "inputs": [],
      "name": "userWithdrew",
      "outputs": [],
      "stateMutability": "nonpayable",
      "type": "function"
    },
    {
      "stateMutability": "payable",
      "type": "receive"
    }
  ],
  "bytecode": "0x608060405234801561001057600080fd5b50610b74806100206000396000f3fe6080604052600436106100a05760003560e01c806372b0e8c01161006457806372b0e8c0146101cf5780638b7afe2e146101fc578063a3fbbaae14610212578063a4144c6614610232578063c3038e5814610252578063fa16ab6c1461026757600080fd5b806301f091c6146100c457806333049e0e146100ed578063481c6a751461015f5780634bbdf4da146101975780634c25b94a146101ad57600080fd5b366100bf5734600260008282546100b79190610a17565b925050819055005b600080fd5b3480156100d057600080fd5b506100da60035481565b6040519081526020015b60405180910390f35b3480156100f957600080fd5b50610137610108366004610a44565b600560205260009081526040902080546001820154600283015460038401546004909401549293919290919085565b604080519586526020860194909452928401919091526060830152608082015260a0016100e4565b34801561016b57600080fd5b5060005461017f906001600160a01b031681565b6040516001600160a01b0390911681526020016100e4565b3480156101a357600080fd5b506100da60015481565b3480156101b957600080fd5b506101cd6101c8366004610a68565b610287565b005b3480156101db57600080fd5b506100da6101ea366004610a68565b60066020526000908152604090205481565b34801561020857600080fd5b506100da60025481565b34801561021e57600080fd5b506101cd61022d366004610a44565b6102e4565b34801561023e57600080fd5b506100da61024d366004610a44565b610339565b34801561025e57600080fd5b506101cd61034a565b34801561027357600080fd5b5060045461017f906001600160a01b031681565b6000546001600160a01b031633146102d85760405162461bcd60e51b815260206004820152600f60248201526e22a9292fa727aa2fa6a0a720a3a2a960891b60448201526064015b60405180910390fd5b6102e181610859565b50565b6000546001600160a01b031633146103305760405162461bcd60e51b815260206004820152600f60248201526e22a9292fa727aa2fa6a0a720a3a2a960891b60448201526064016102cf565b6102e18161089a565b600061034482610903565b92915050565b600454600160a01b900460ff16156103935760405162461bcd60e51b815260206004820152600c60248201526b4552525f4e4f545f5341464560a01b60448201526064016102cf565b6004805460ff60a01b1916600160a01b17815560405163520a263360e11b815233918101829052600090309063a4144c66906024016020604051808303816000875af11580156103e7573d6000803e3d6000fd5b505050506040513d601f19601f8201168201806040525081019061040b9190610a81565b60048054604080516325defa6d60e11b81529051939450600093670de0b6b3a76400009386936001600160a01b031692634bbdf4da92818301926020928290030181865afa158015610461573d6000803e3d6000fd5b505050506040513d601f19601f820116820180604052508101906104859190610a81565b61048f9190610a9a565b6104999190610ab9565b90506000670de0b6b3a7640000836001546104b49190610a9a565b6104be9190610ab9565b90506000816104cd8486610adb565b6104d79190610adb565b90506000811161051a5760405162461bcd60e51b815260206004820152600e60248201526d11549497d393d517d49155d0549160921b60448201526064016102cf565b6000856001600160a01b03168260405160006040518083038185875af1925050503d8060008114610567576040519150601f19603f3d011682016040523d82523d6000602084013e61056c565b606091505b505090506000600460009054906101000a90046001600160a01b03166001600160a01b031663f7260d3e6040518163ffffffff1660e01b8152600401602060405180830381865afa1580156105c5573d6000803e3d6000fd5b505050506040513d601f19601f820116820180604052508101906105e99190610af2565b6001600160a01b03168560405160006040518083038185875af1925050503d8060008114610633576040519150601f19603f3d011682016040523d82523d6000602084013e610638565b606091505b50506000805460405192935090916001600160a01b039091169086908381818185875af1925050503d806000811461068c576040519150601f19603f3d011682016040523d82523d6000602084013e610691565b606091505b50506001600160a01b0389166000908152600560205260408120600201805492935089929091906106c3908490610a17565b90915550506001600160a01b038816600090815260056020526040812060030180548692906106f3908490610a17565b90915550506001600160a01b038816600090815260056020526040812060040180549161071f83610b0f565b9190505550876001600160a01b03167fe05c92009ad7a2dc1d087bac1908f1723f0ac35037a1942e0cc36771cd6883338760405161075f91815260200190565b60405180910390a2876001600160a01b03167f97fbf4a315b9911bf54253961208dd75da3aae82429cab8a67f05e2e1cf62700866040516107a291815260200190565b60405180910390a2876001600160a01b03167f805346440fb3a5be700772454d056a0de7c6c6651e206d1d547bff0f73393249856040516107e591815260200190565b60405180910390a28280156107f75750815b80156108005750805b6108425760405162461bcd60e51b815260206004820152601360248201527211549497d5d2551211149155d7d19052531151606a1b60448201526064016102cf565b50506004805460ff60a01b19169055505050505050565b60015460408051918252602082018390527f084d7536bcea784fc97ae33946b3efaaaedc28d728e856ef970a820d14748bfe910160405180910390a1600155565b600054604080516001600160a01b03928316815291831660208301527f3eadceefe02aa6afb5514ad1b2ab3f21eb26dd571b170168413057c70615606b910160405180910390a1600080546001600160a01b0319166001600160a01b0392909216919091179055565b600060608082805b835181101561098a57600084828151811061092857610928610b28565b60200260200101519050600084838151811061094657610946610b28565b60200260200101519050600061095c8383610993565b90506109688186610a17565b945061097483826109da565b505050808061098290610b0f565b91505061090b565b50949350505050565b6000828152600660205260408120546000600354846109b160025490565b6109bb9190610a9a565b6109c59190610ab9565b90506109d18282610adb565b95945050505050565b600082815260066020526040812080548392906109f8908490610a17565b90915550505050565b634e487b7160e01b600052601160045260246000fd5b60008219821115610a2a57610a2a610a01565b500190565b6001600160a01b03811681146102e157600080fd5b600060208284031215610a5657600080fd5b8135610a6181610a2f565b9392505050565b600060208284031215610a7a57600080fd5b5035919050565b600060208284031215610a9357600080fd5b5051919050565b6000816000190483118215151615610ab457610ab4610a01565b500290565b600082610ad657634e487b7160e01b600052601260045260246000fd5b500490565b600082821015610aed57610aed610a01565b500390565b600060208284031215610b0457600080fd5b8151610a6181610a2f565b600060018201610b2157610b21610a01565b5060010190565b634e487b7160e01b600052603260045260246000fdfea2646970667358221220c70635cbae29c9cdadcadb7579bc67c6ee38bad9cf895eb5169f030a90d1c01264736f6c634300080f0033",
  "linkReferences": {},
  "deployedLinkReferences": {}
}